{
	"contracts/DataType.sol": {
		"DataTypes": {
			"abi": [
				{
					"inputs": [],
					"name": "addr",
					"outputs": [
						{
							"internalType": "address",
							"name": "",
							"type": "address"
						}
					],
					"stateMutability": "view",
					"type": "function"
				},
				{
					"inputs": [],
					"name": "b1",
					"outputs": [
						{
							"internalType": "bytes1",
							"name": "",
							"type": "bytes1"
						}
					],
					"stateMutability": "view",
					"type": "function"
				},
				{
					"inputs": [],
					"name": "b2",
					"outputs": [
						{
							"internalType": "bytes2",
							"name": "",
							"type": "bytes2"
						}
					],
					"stateMutability": "view",
					"type": "function"
				},
				{
					"inputs": [],
					"name": "balance",
					"outputs": [
						{
							"internalType": "uint256",
							"name": "",
							"type": "uint256"
						}
					],
					"stateMutability": "view",
					"type": "function"
				},
				{
					"inputs": [],
					"name": "boo",
					"outputs": [
						{
							"internalType": "bool",
							"name": "",
							"type": "bool"
						}
					],
					"stateMutability": "view",
					"type": "function"
				},
				{
					"inputs": [],
					"name": "defaultAddr",
					"outputs": [
						{
							"internalType": "address",
							"name": "",
							"type": "address"
						}
					],
					"stateMutability": "view",
					"type": "function"
				},
				{
					"inputs": [],
					"name": "defaultBoo",
					"outputs": [
						{
							"internalType": "bool",
							"name": "",
							"type": "bool"
						}
					],
					"stateMutability": "view",
					"type": "function"
				},
				{
					"inputs": [],
					"name": "defaultInt",
					"outputs": [
						{
							"internalType": "int256",
							"name": "",
							"type": "int256"
						}
					],
					"stateMutability": "view",
					"type": "function"
				},
				{
					"inputs": [],
					"name": "defaultUint",
					"outputs": [
						{
							"internalType": "uint256",
							"name": "",
							"type": "uint256"
						}
					],
					"stateMutability": "view",
					"type": "function"
				},
				{
					"inputs": [],
					"name": "i",
					"outputs": [
						{
							"internalType": "int256",
							"name": "",
							"type": "int256"
						}
					],
					"stateMutability": "view",
					"type": "function"
				},
				{
					"inputs": [],
					"name": "i256",
					"outputs": [
						{
							"internalType": "int256",
							"name": "",
							"type": "int256"
						}
					],
					"stateMutability": "view",
					"type": "function"
				},
				{
					"inputs": [],
					"name": "i8",
					"outputs": [
						{
							"internalType": "int8",
							"name": "",
							"type": "int8"
						}
					],
					"stateMutability": "view",
					"type": "function"
				},
				{
					"inputs": [],
					"name": "maxInt",
					"outputs": [
						{
							"internalType": "int256",
							"name": "",
							"type": "int256"
						}
					],
					"stateMutability": "view",
					"type": "function"
				},
				{
					"inputs": [],
					"name": "minInt",
					"outputs": [
						{
							"internalType": "int256",
							"name": "",
							"type": "int256"
						}
					],
					"stateMutability": "view",
					"type": "function"
				},
				{
					"inputs": [],
					"name": "str",
					"outputs": [
						{
							"internalType": "string",
							"name": "",
							"type": "string"
						}
					],
					"stateMutability": "view",
					"type": "function"
				},
				{
					"inputs": [],
					"name": "u",
					"outputs": [
						{
							"internalType": "uint256",
							"name": "",
							"type": "uint256"
						}
					],
					"stateMutability": "view",
					"type": "function"
				},
				{
					"inputs": [],
					"name": "u256",
					"outputs": [
						{
							"internalType": "uint256",
							"name": "",
							"type": "uint256"
						}
					],
					"stateMutability": "view",
					"type": "function"
				},
				{
					"inputs": [],
					"name": "u8",
					"outputs": [
						{
							"internalType": "uint8",
							"name": "",
							"type": "uint8"
						}
					],
					"stateMutability": "view",
					"type": "function"
				}
			],
			"devdoc": {
				"kind": "dev",
				"methods": {},
				"version": 1
			},
			"evm": {
				"assembly": "    /* \"contracts/DataType.sol\":72:1028  contract DataTypes {... */\n  mstore(0x40, 0x80)\n    /* \"contracts/DataType.sol\":136:140  true */\n  0x01\n    /* \"contracts/DataType.sol\":118:140  bool public boo = true */\n  0x00\n  dup1\n  0x0100\n  exp\n  dup2\n  sload\n  dup2\n  0xff\n  mul\n  not\n  and\n  swap1\n  dup4\n  iszero\n  iszero\n  mul\n  or\n  swap1\n  sstore\n  pop\n    /* \"contracts/DataType.sol\":182:185  123 */\n  0x7b\n    /* \"contracts/DataType.sol\":164:185  uint8 public u8 = 123 */\n  0x00\n  exp(0x0100, 0x01)\n  dup2\n  sload\n  dup2\n  0xff\n  mul\n  not\n  and\n  swap1\n  dup4\n  0xff\n  and\n  mul\n  or\n  swap1\n  sstore\n  pop\n    /* \"contracts/DataType.sol\":214:217  456 */\n  0x01c8\n    /* \"contracts/DataType.sol\":192:217  uint256 public u256 = 456 */\n  0x01\n  sstore\n    /* \"contracts/DataType.sol\":240:243  789 */\n  0x0315\n    /* \"contracts/DataType.sol\":224:243  uint public u = 789 */\n  0x02\n  sstore\n    /* \"contracts/DataType.sol\":269:271  -1 */\n  0xffffffffffffffffffffffffffffffffffffffffffffffffffffffffffffffff\n    /* \"contracts/DataType.sol\":252:271  int8 public i8 = -1 */\n  0x03\n  exp(0x0100, 0x00)\n  dup2\n  sload\n  dup2\n  0xff\n  mul\n  not\n  and\n  swap1\n  dup4\n  0x00\n  signextend\n  0xff\n  and\n  mul\n  or\n  swap1\n  sstore\n  pop\n    /* \"contracts/DataType.sol\":299:303  -456 */\n  0xfffffffffffffffffffffffffffffffffffffffffffffffffffffffffffffe38\n    /* \"contracts/DataType.sol\":278:303  int256 public i256 = -456 */\n  0x04\n  sstore\n    /* \"contracts/DataType.sol\":325:329  -789 */\n  0xfffffffffffffffffffffffffffffffffffffffffffffffffffffffffffffceb\n    /* \"contracts/DataType.sol\":310:329  int public i = -789 */\n  0x05\n  sstore\n    /* \"contracts/DataType.sol\":396:409  type(int).min */\n  0x8000000000000000000000000000000000000000000000000000000000000000\n    /* \"contracts/DataType.sol\":376:409  int public minInt = type(int).min */\n  0x06\n  sstore\n    /* \"contracts/DataType.sol\":436:449  type(int).max */\n  0x7fffffffffffffffffffffffffffffffffffffffffffffffffffffffffffffff\n    /* \"contracts/DataType.sol\":416:449  int public maxInt = type(int).max */\n  0x07\n  sstore\n    /* \"contracts/DataType.sol\":504:546  0xe0534d35acCBB5D533f31681B03cF531EB4A9363 */\n  0xe0534d35accbb5d533f31681b03cf531eb4a9363\n    /* \"contracts/DataType.sol\":482:546  address public addr = 0xe0534d35acCBB5D533f31681B03cF531EB4A9363 */\n  0x08\n  exp(0x0100, 0x00)\n  dup2\n  sload\n  dup2\n  0xffffffffffffffffffffffffffffffffffffffff\n  mul\n  not\n  and\n  swap1\n  dup4\n  0xffffffffffffffffffffffffffffffffffffffff\n  and\n  mul\n  or\n  swap1\n  sstore\n  pop\n    /* \"contracts/DataType.sol\":575:579  addr */\n  0x08\n  0x00\n  swap1\n  sload\n  swap1\n  0x0100\n  exp\n  swap1\n  div\n  0xffffffffffffffffffffffffffffffffffffffff\n  and\n    /* \"contracts/DataType.sol\":575:587  addr.balance */\n  0xffffffffffffffffffffffffffffffffffffffff\n  and\n  balance\n    /* \"contracts/DataType.sol\":553:587  uint public balance = addr.balance */\n  0x09\n  sstore\n    /* \"contracts/DataType.sol\":635:639  0x1a */\n  0x1a\n    /* \"contracts/DataType.sol\":616:639  bytes1 public b1 = 0x1a */\n  0xf8\n  shl\n  0x0a\n  exp(0x0100, 0x00)\n  dup2\n  sload\n  dup2\n  0xff\n  mul\n  not\n  and\n  swap1\n  dup4\n  0xf8\n  shr\n  mul\n  or\n  swap1\n  sstore\n  pop\n    /* \"contracts/DataType.sol\":665:671  0x1a2b */\n  0x1a2b\n    /* \"contracts/DataType.sol\":646:671  bytes2 public b2 = 0x1a2b */\n  0xf0\n  shl\n  0x0a\n  exp(0x0100, 0x01)\n  dup2\n  sload\n  dup2\n  0xffff\n  mul\n  not\n  and\n  swap1\n  dup4\n  0xf0\n  shr\n  mul\n  or\n  swap1\n  sstore\n  pop\n    /* \"contracts/DataType.sol\":775:823  string public str = \"this is a string data type\" */\n  mload(0x40)\n  dup1\n  0x40\n  add\n  0x40\n  mstore\n  dup1\n  0x1a\n  dup2\n  mstore\n  0x20\n  add\n  0x74686973206973206120737472696e6720646174612074797065000000000000\n  dup2\n  mstore\n  pop\n  0x0b\n  swap1\n  dup2\n  tag_1\n  swap2\n  swap1\n  tag_2\n  jump\t// in\ntag_1:\n  pop\n    /* \"contracts/DataType.sol\":72:1028  contract DataTypes {... */\n  callvalue\n  dup1\n  iszero\n  tag_3\n  jumpi\n  0x00\n  dup1\n  revert\ntag_3:\n  pop\n  jump(tag_4)\n    /* \"#utility.yul\":7:106   */\ntag_5:\n    /* \"#utility.yul\":59:65   */\n  0x00\n    /* \"#utility.yul\":93:98   */\n  dup2\n    /* \"#utility.yul\":87:99   */\n  mload\n    /* \"#utility.yul\":77:99   */\n  swap1\n  pop\n    /* \"#utility.yul\":7:106   */\n  swap2\n  swap1\n  pop\n  jump\t// out\n    /* \"#utility.yul\":112:292   */\ntag_6:\n    /* \"#utility.yul\":160:237   */\n  0x4e487b7100000000000000000000000000000000000000000000000000000000\n    /* \"#utility.yul\":157:158   */\n  0x00\n    /* \"#utility.yul\":150:238   */\n  mstore\n    /* \"#utility.yul\":257:261   */\n  0x41\n    /* \"#utility.yul\":254:255   */\n  0x04\n    /* \"#utility.yul\":247:262   */\n  mstore\n    /* \"#utility.yul\":281:285   */\n  0x24\n    /* \"#utility.yul\":278:279   */\n  0x00\n    /* \"#utility.yul\":271:286   */\n  revert\n    /* \"#utility.yul\":298:478   */\ntag_7:\n    /* \"#utility.yul\":346:423   */\n  0x4e487b7100000000000000000000000000000000000000000000000000000000\n    /* \"#utility.yul\":343:344   */\n  0x00\n    /* \"#utility.yul\":336:424   */\n  mstore\n    /* \"#utility.yul\":443:447   */\n  0x22\n    /* \"#utility.yul\":440:441   */\n  0x04\n    /* \"#utility.yul\":433:448   */\n  mstore\n    /* \"#utility.yul\":467:471   */\n  0x24\n    /* \"#utility.yul\":464:465   */\n  0x00\n    /* \"#utility.yul\":457:472   */\n  revert\n    /* \"#utility.yul\":484:804   */\ntag_8:\n    /* \"#utility.yul\":528:534   */\n  0x00\n    /* \"#utility.yul\":565:566   */\n  0x02\n    /* \"#utility.yul\":559:563   */\n  dup3\n    /* \"#utility.yul\":555:567   */\n  div\n    /* \"#utility.yul\":545:567   */\n  swap1\n  pop\n    /* \"#utility.yul\":612:613   */\n  0x01\n    /* \"#utility.yul\":606:610   */\n  dup3\n    /* \"#utility.yul\":602:614   */\n  and\n    /* \"#utility.yul\":633:651   */\n  dup1\n    /* \"#utility.yul\":623:704   */\n  tag_30\n  jumpi\n    /* \"#utility.yul\":689:693   */\n  0x7f\n    /* \"#utility.yul\":681:687   */\n  dup3\n    /* \"#utility.yul\":677:694   */\n  and\n    /* \"#utility.yul\":667:694   */\n  swap2\n  pop\n    /* \"#utility.yul\":623:704   */\ntag_30:\n    /* \"#utility.yul\":751:753   */\n  0x20\n    /* \"#utility.yul\":743:749   */\n  dup3\n    /* \"#utility.yul\":740:754   */\n  lt\n    /* \"#utility.yul\":720:738   */\n  dup2\n    /* \"#utility.yul\":717:755   */\n  sub\n    /* \"#utility.yul\":714:798   */\n  tag_31\n  jumpi\n    /* \"#utility.yul\":770:788   */\n  tag_32\n  tag_7\n  jump\t// in\ntag_32:\n    /* \"#utility.yul\":714:798   */\ntag_31:\n    /* \"#utility.yul\":535:804   */\n  pop\n    /* \"#utility.yul\":484:804   */\n  swap2\n  swap1\n  pop\n  jump\t// out\n    /* \"#utility.yul\":810:951   */\ntag_9:\n    /* \"#utility.yul\":859:863   */\n  0x00\n    /* \"#utility.yul\":882:885   */\n  dup2\n    /* \"#utility.yul\":874:885   */\n  swap1\n  pop\n    /* \"#utility.yul\":905:908   */\n  dup2\n    /* \"#utility.yul\":902:903   */\n  0x00\n    /* \"#utility.yul\":895:909   */\n  mstore\n    /* \"#utility.yul\":939:943   */\n  0x20\n    /* \"#utility.yul\":936:937   */\n  0x00\n    /* \"#utility.yul\":926:944   */\n  keccak256\n    /* \"#utility.yul\":918:944   */\n  swap1\n  pop\n    /* \"#utility.yul\":810:951   */\n  swap2\n  swap1\n  pop\n  jump\t// out\n    /* \"#utility.yul\":957:1050   */\ntag_10:\n    /* \"#utility.yul\":994:1000   */\n  0x00\n    /* \"#utility.yul\":1041:1043   */\n  0x20\n    /* \"#utility.yul\":1036:1038   */\n  0x1f\n    /* \"#utility.yul\":1029:1034   */\n  dup4\n    /* \"#utility.yul\":1025:1039   */\n  add\n    /* \"#utility.yul\":1021:1044   */\n  div\n    /* \"#utility.yul\":1011:1044   */\n  swap1\n  pop\n    /* \"#utility.yul\":957:1050   */\n  swap2\n  swap1\n  pop\n  jump\t// out\n    /* \"#utility.yul\":1056:1163   */\ntag_11:\n    /* \"#utility.yul\":1100:1108   */\n  0x00\n    /* \"#utility.yul\":1150:1155   */\n  dup3\n    /* \"#utility.yul\":1144:1148   */\n  dup3\n    /* \"#utility.yul\":1140:1156   */\n  shl\n    /* \"#utility.yul\":1119:1156   */\n  swap1\n  pop\n    /* \"#utility.yul\":1056:1163   */\n  swap3\n  swap2\n  pop\n  pop\n  jump\t// out\n    /* \"#utility.yul\":1169:1562   */\ntag_12:\n    /* \"#utility.yul\":1238:1244   */\n  0x00\n    /* \"#utility.yul\":1288:1289   */\n  0x08\n    /* \"#utility.yul\":1276:1286   */\n  dup4\n    /* \"#utility.yul\":1272:1290   */\n  mul\n    /* \"#utility.yul\":1311:1408   */\n  tag_37\n    /* \"#utility.yul\":1341:1407   */\n  0xffffffffffffffffffffffffffffffffffffffffffffffffffffffffffffffff\n    /* \"#utility.yul\":1330:1339   */\n  dup3\n    /* \"#utility.yul\":1311:1408   */\n  tag_11\n  jump\t// in\ntag_37:\n    /* \"#utility.yul\":1429:1468   */\n  tag_38\n    /* \"#utility.yul\":1459:1467   */\n  dup7\n    /* \"#utility.yul\":1448:1457   */\n  dup4\n    /* \"#utility.yul\":1429:1468   */\n  tag_11\n  jump\t// in\ntag_38:\n    /* \"#utility.yul\":1417:1468   */\n  swap6\n  pop\n    /* \"#utility.yul\":1501:1505   */\n  dup1\n    /* \"#utility.yul\":1497:1506   */\n  not\n    /* \"#utility.yul\":1490:1495   */\n  dup5\n    /* \"#utility.yul\":1486:1507   */\n  and\n    /* \"#utility.yul\":1477:1507   */\n  swap4\n  pop\n    /* \"#utility.yul\":1550:1554   */\n  dup1\n    /* \"#utility.yul\":1540:1548   */\n  dup7\n    /* \"#utility.yul\":1536:1555   */\n  and\n    /* \"#utility.yul\":1529:1534   */\n  dup5\n    /* \"#utility.yul\":1526:1556   */\n  or\n    /* \"#utility.yul\":1516:1556   */\n  swap3\n  pop\n    /* \"#utility.yul\":1245:1562   */\n  pop\n  pop\n    /* \"#utility.yul\":1169:1562   */\n  swap4\n  swap3\n  pop\n  pop\n  pop\n  jump\t// out\n    /* \"#utility.yul\":1568:1645   */\ntag_13:\n    /* \"#utility.yul\":1605:1612   */\n  0x00\n    /* \"#utility.yul\":1634:1639   */\n  dup2\n    /* \"#utility.yul\":1623:1639   */\n  swap1\n  pop\n    /* \"#utility.yul\":1568:1645   */\n  swap2\n  swap1\n  pop\n  jump\t// out\n    /* \"#utility.yul\":1651:1711   */\ntag_14:\n    /* \"#utility.yul\":1679:1682   */\n  0x00\n    /* \"#utility.yul\":1700:1705   */\n  dup2\n    /* \"#utility.yul\":1693:1705   */\n  swap1\n  pop\n    /* \"#utility.yul\":1651:1711   */\n  swap2\n  swap1\n  pop\n  jump\t// out\n    /* \"#utility.yul\":1717:1859   */\ntag_15:\n    /* \"#utility.yul\":1767:1776   */\n  0x00\n    /* \"#utility.yul\":1800:1853   */\n  tag_42\n    /* \"#utility.yul\":1818:1852   */\n  tag_43\n    /* \"#utility.yul\":1827:1851   */\n  tag_44\n    /* \"#utility.yul\":1845:1850   */\n  dup5\n    /* \"#utility.yul\":1827:1851   */\n  tag_13\n  jump\t// in\ntag_44:\n    /* \"#utility.yul\":1818:1852   */\n  tag_14\n  jump\t// in\ntag_43:\n    /* \"#utility.yul\":1800:1853   */\n  tag_13\n  jump\t// in\ntag_42:\n    /* \"#utility.yul\":1787:1853   */\n  swap1\n  pop\n    /* \"#utility.yul\":1717:1859   */\n  swap2\n  swap1\n  pop\n  jump\t// out\n    /* \"#utility.yul\":1865:1940   */\ntag_16:\n    /* \"#utility.yul\":1908:1911   */\n  0x00\n    /* \"#utility.yul\":1929:1934   */\n  dup2\n    /* \"#utility.yul\":1922:1934   */\n  swap1\n  pop\n    /* \"#utility.yul\":1865:1940   */\n  swap2\n  swap1\n  pop\n  jump\t// out\n    /* \"#utility.yul\":1946:2215   */\ntag_17:\n    /* \"#utility.yul\":2056:2095   */\n  tag_47\n    /* \"#utility.yul\":2087:2094   */\n  dup4\n    /* \"#utility.yul\":2056:2095   */\n  tag_15\n  jump\t// in\ntag_47:\n    /* \"#utility.yul\":2117:2208   */\n  tag_48\n    /* \"#utility.yul\":2166:2207   */\n  tag_49\n    /* \"#utility.yul\":2190:2206   */\n  dup3\n    /* \"#utility.yul\":2166:2207   */\n  tag_16\n  jump\t// in\ntag_49:\n    /* \"#utility.yul\":2158:2164   */\n  dup5\n    /* \"#utility.yul\":2151:2155   */\n  dup5\n    /* \"#utility.yul\":2145:2156   */\n  sload\n    /* \"#utility.yul\":2117:2208   */\n  tag_12\n  jump\t// in\ntag_48:\n    /* \"#utility.yul\":2111:2115   */\n  dup3\n    /* \"#utility.yul\":2104:2209   */\n  sstore\n    /* \"#utility.yul\":2022:2215   */\n  pop\n    /* \"#utility.yul\":1946:2215   */\n  pop\n  pop\n  pop\n  jump\t// out\n    /* \"#utility.yul\":2221:2294   */\ntag_18:\n    /* \"#utility.yul\":2266:2269   */\n  0x00\n    /* \"#utility.yul\":2221:2294   */\n  swap1\n  jump\t// out\n    /* \"#utility.yul\":2300:2489   */\ntag_19:\n    /* \"#utility.yul\":2377:2409   */\n  tag_52\n  tag_18\n  jump\t// in\ntag_52:\n    /* \"#utility.yul\":2418:2483   */\n  tag_53\n    /* \"#utility.yul\":2476:2482   */\n  dup2\n    /* \"#utility.yul\":2468:2474   */\n  dup5\n    /* \"#utility.yul\":2462:2466   */\n  dup5\n    /* \"#utility.yul\":2418:2483   */\n  tag_17\n  jump\t// in\ntag_53:\n    /* \"#utility.yul\":2353:2489   */\n  pop\n    /* \"#utility.yul\":2300:2489   */\n  pop\n  pop\n  jump\t// out\n    /* \"#utility.yul\":2495:2681   */\ntag_20:\n    /* \"#utility.yul\":2555:2675   */\ntag_55:\n    /* \"#utility.yul\":2572:2575   */\n  dup2\n    /* \"#utility.yul\":2565:2570   */\n  dup2\n    /* \"#utility.yul\":2562:2576   */\n  lt\n    /* \"#utility.yul\":2555:2675   */\n  iszero\n  tag_57\n  jumpi\n    /* \"#utility.yul\":2626:2665   */\n  tag_58\n    /* \"#utility.yul\":2663:2664   */\n  0x00\n    /* \"#utility.yul\":2656:2661   */\n  dup3\n    /* \"#utility.yul\":2626:2665   */\n  tag_19\n  jump\t// in\ntag_58:\n    /* \"#utility.yul\":2599:2600   */\n  0x01\n    /* \"#utility.yul\":2592:2597   */\n  dup2\n    /* \"#utility.yul\":2588:2601   */\n  add\n    /* \"#utility.yul\":2579:2601   */\n  swap1\n  pop\n    /* \"#utility.yul\":2555:2675   */\n  jump(tag_55)\ntag_57:\n    /* \"#utility.yul\":2495:2681   */\n  pop\n  pop\n  jump\t// out\n    /* \"#utility.yul\":2687:3230   */\ntag_21:\n    /* \"#utility.yul\":2788:2790   */\n  0x1f\n    /* \"#utility.yul\":2783:2786   */\n  dup3\n    /* \"#utility.yul\":2780:2791   */\n  gt\n    /* \"#utility.yul\":2777:3223   */\n  iszero\n  tag_60\n  jumpi\n    /* \"#utility.yul\":2822:2860   */\n  tag_61\n    /* \"#utility.yul\":2854:2859   */\n  dup2\n    /* \"#utility.yul\":2822:2860   */\n  tag_9\n  jump\t// in\ntag_61:\n    /* \"#utility.yul\":2906:2935   */\n  tag_62\n    /* \"#utility.yul\":2924:2934   */\n  dup5\n    /* \"#utility.yul\":2906:2935   */\n  tag_10\n  jump\t// in\ntag_62:\n    /* \"#utility.yul\":2896:2904   */\n  dup2\n    /* \"#utility.yul\":2892:2936   */\n  add\n    /* \"#utility.yul\":3089:3091   */\n  0x20\n    /* \"#utility.yul\":3077:3087   */\n  dup6\n    /* \"#utility.yul\":3074:3092   */\n  lt\n    /* \"#utility.yul\":3071:3120   */\n  iszero\n  tag_63\n  jumpi\n    /* \"#utility.yul\":3110:3118   */\n  dup2\n    /* \"#utility.yul\":3095:3118   */\n  swap1\n  pop\n    /* \"#utility.yul\":3071:3120   */\ntag_63:\n    /* \"#utility.yul\":3133:3213   */\n  tag_64\n    /* \"#utility.yul\":3189:3211   */\n  tag_65\n    /* \"#utility.yul\":3207:3210   */\n  dup6\n    /* \"#utility.yul\":3189:3211   */\n  tag_10\n  jump\t// in\ntag_65:\n    /* \"#utility.yul\":3179:3187   */\n  dup4\n    /* \"#utility.yul\":3175:3212   */\n  add\n    /* \"#utility.yul\":3162:3173   */\n  dup3\n    /* \"#utility.yul\":3133:3213   */\n  tag_20\n  jump\t// in\ntag_64:\n    /* \"#utility.yul\":2792:3223   */\n  pop\n  pop\n    /* \"#utility.yul\":2777:3223   */\ntag_60:\n    /* \"#utility.yul\":2687:3230   */\n  pop\n  pop\n  pop\n  jump\t// out\n    /* \"#utility.yul\":3236:3353   */\ntag_22:\n    /* \"#utility.yul\":3290:3298   */\n  0x00\n    /* \"#utility.yul\":3340:3345   */\n  dup3\n    /* \"#utility.yul\":3334:3338   */\n  dup3\n    /* \"#utility.yul\":3330:3346   */\n  shr\n    /* \"#utility.yul\":3309:3346   */\n  swap1\n  pop\n    /* \"#utility.yul\":3236:3353   */\n  swap3\n  swap2\n  pop\n  pop\n  jump\t// out\n    /* \"#utility.yul\":3359:3528   */\ntag_23:\n    /* \"#utility.yul\":3403:3409   */\n  0x00\n    /* \"#utility.yul\":3436:3487   */\n  tag_68\n    /* \"#utility.yul\":3484:3485   */\n  0x00\n    /* \"#utility.yul\":3480:3486   */\n  not\n    /* \"#utility.yul\":3472:3477   */\n  dup5\n    /* \"#utility.yul\":3469:3470   */\n  0x08\n    /* \"#utility.yul\":3465:3478   */\n  mul\n    /* \"#utility.yul\":3436:3487   */\n  tag_22\n  jump\t// in\ntag_68:\n    /* \"#utility.yul\":3432:3488   */\n  not\n    /* \"#utility.yul\":3517:3521   */\n  dup1\n    /* \"#utility.yul\":3511:3515   */\n  dup4\n    /* \"#utility.yul\":3507:3522   */\n  and\n    /* \"#utility.yul\":3497:3522   */\n  swap2\n  pop\n    /* \"#utility.yul\":3410:3528   */\n  pop\n    /* \"#utility.yul\":3359:3528   */\n  swap3\n  swap2\n  pop\n  pop\n  jump\t// out\n    /* \"#utility.yul\":3533:3828   */\ntag_24:\n    /* \"#utility.yul\":3609:3613   */\n  0x00\n    /* \"#utility.yul\":3755:3784   */\n  tag_70\n    /* \"#utility.yul\":3780:3783   */\n  dup4\n    /* \"#utility.yul\":3774:3778   */\n  dup4\n    /* \"#utility.yul\":3755:3784   */\n  tag_23\n  jump\t// in\ntag_70:\n    /* \"#utility.yul\":3747:3784   */\n  swap2\n  pop\n    /* \"#utility.yul\":3817:3820   */\n  dup3\n    /* \"#utility.yul\":3814:3815   */\n  0x02\n    /* \"#utility.yul\":3810:3821   */\n  mul\n    /* \"#utility.yul\":3804:3808   */\n  dup3\n    /* \"#utility.yul\":3801:3822   */\n  or\n    /* \"#utility.yul\":3793:3822   */\n  swap1\n  pop\n    /* \"#utility.yul\":3533:3828   */\n  swap3\n  swap2\n  pop\n  pop\n  jump\t// out\n    /* \"#utility.yul\":3833:5228   */\ntag_2:\n    /* \"#utility.yul\":3950:3987   */\n  tag_72\n    /* \"#utility.yul\":3983:3986   */\n  dup3\n    /* \"#utility.yul\":3950:3987   */\n  tag_5\n  jump\t// in\ntag_72:\n    /* \"#utility.yul\":4052:4070   */\n  0xffffffffffffffff\n    /* \"#utility.yul\":4044:4050   */\n  dup2\n    /* \"#utility.yul\":4041:4071   */\n  gt\n    /* \"#utility.yul\":4038:4094   */\n  iszero\n  tag_73\n  jumpi\n    /* \"#utility.yul\":4074:4092   */\n  tag_74\n  tag_6\n  jump\t// in\ntag_74:\n    /* \"#utility.yul\":4038:4094   */\ntag_73:\n    /* \"#utility.yul\":4118:4156   */\n  tag_75\n    /* \"#utility.yul\":4150:4154   */\n  dup3\n    /* \"#utility.yul\":4144:4155   */\n  sload\n    /* \"#utility.yul\":4118:4156   */\n  tag_8\n  jump\t// in\ntag_75:\n    /* \"#utility.yul\":4203:4270   */\n  tag_76\n    /* \"#utility.yul\":4263:4269   */\n  dup3\n    /* \"#utility.yul\":4255:4261   */\n  dup3\n    /* \"#utility.yul\":4249:4253   */\n  dup6\n    /* \"#utility.yul\":4203:4270   */\n  tag_21\n  jump\t// in\ntag_76:\n    /* \"#utility.yul\":4297:4298   */\n  0x00\n    /* \"#utility.yul\":4321:4325   */\n  0x20\n    /* \"#utility.yul\":4308:4325   */\n  swap1\n  pop\n    /* \"#utility.yul\":4353:4355   */\n  0x1f\n    /* \"#utility.yul\":4345:4351   */\n  dup4\n    /* \"#utility.yul\":4342:4356   */\n  gt\n    /* \"#utility.yul\":4370:4371   */\n  0x01\n    /* \"#utility.yul\":4365:4983   */\n  dup2\n  eq\n  tag_78\n  jumpi\n    /* \"#utility.yul\":5027:5028   */\n  0x00\n    /* \"#utility.yul\":5044:5050   */\n  dup5\n    /* \"#utility.yul\":5041:5118   */\n  iszero\n  tag_79\n  jumpi\n    /* \"#utility.yul\":5093:5102   */\n  dup3\n    /* \"#utility.yul\":5088:5091   */\n  dup8\n    /* \"#utility.yul\":5084:5103   */\n  add\n    /* \"#utility.yul\":5078:5104   */\n  mload\n    /* \"#utility.yul\":5069:5104   */\n  swap1\n  pop\n    /* \"#utility.yul\":5041:5118   */\ntag_79:\n    /* \"#utility.yul\":5144:5211   */\n  tag_80\n    /* \"#utility.yul\":5204:5210   */\n  dup6\n    /* \"#utility.yul\":5197:5202   */\n  dup3\n    /* \"#utility.yul\":5144:5211   */\n  tag_24\n  jump\t// in\ntag_80:\n    /* \"#utility.yul\":5138:5142   */\n  dup7\n    /* \"#utility.yul\":5131:5212   */\n  sstore\n    /* \"#utility.yul\":5000:5222   */\n  pop\n    /* \"#utility.yul\":4335:5222   */\n  jump(tag_77)\n    /* \"#utility.yul\":4365:4983   */\ntag_78:\n    /* \"#utility.yul\":4417:4421   */\n  0x1f\n    /* \"#utility.yul\":4413:4422   */\n  not\n    /* \"#utility.yul\":4405:4411   */\n  dup5\n    /* \"#utility.yul\":4401:4423   */\n  and\n    /* \"#utility.yul\":4451:4488   */\n  tag_81\n    /* \"#utility.yul\":4483:4487   */\n  dup7\n    /* \"#utility.yul\":4451:4488   */\n  tag_9\n  jump\t// in\ntag_81:\n    /* \"#utility.yul\":4510:4511   */\n  0x00\n    /* \"#utility.yul\":4524:4732   */\ntag_82:\n    /* \"#utility.yul\":4538:4545   */\n  dup3\n    /* \"#utility.yul\":4535:4536   */\n  dup2\n    /* \"#utility.yul\":4532:4546   */\n  lt\n    /* \"#utility.yul\":4524:4732   */\n  iszero\n  tag_84\n  jumpi\n    /* \"#utility.yul\":4617:4626   */\n  dup5\n    /* \"#utility.yul\":4612:4615   */\n  dup10\n    /* \"#utility.yul\":4608:4627   */\n  add\n    /* \"#utility.yul\":4602:4628   */\n  mload\n    /* \"#utility.yul\":4594:4600   */\n  dup3\n    /* \"#utility.yul\":4587:4629   */\n  sstore\n    /* \"#utility.yul\":4668:4669   */\n  0x01\n    /* \"#utility.yul\":4660:4666   */\n  dup3\n    /* \"#utility.yul\":4656:4670   */\n  add\n    /* \"#utility.yul\":4646:4670   */\n  swap2\n  pop\n    /* \"#utility.yul\":4715:4717   */\n  0x20\n    /* \"#utility.yul\":4704:4713   */\n  dup6\n    /* \"#utility.yul\":4700:4718   */\n  add\n    /* \"#utility.yul\":4687:4718   */\n  swap5\n  pop\n    /* \"#utility.yul\":4561:4565   */\n  0x20\n    /* \"#utility.yul\":4558:4559   */\n  dup2\n    /* \"#utility.yul\":4554:4566   */\n  add\n    /* \"#utility.yul\":4549:4566   */\n  swap1\n  pop\n    /* \"#utility.yul\":4524:4732   */\n  jump(tag_82)\ntag_84:\n    /* \"#utility.yul\":4760:4766   */\n  dup7\n    /* \"#utility.yul\":4751:4758   */\n  dup4\n    /* \"#utility.yul\":4748:4767   */\n  lt\n    /* \"#utility.yul\":4745:4924   */\n  iszero\n  tag_85\n  jumpi\n    /* \"#utility.yul\":4818:4827   */\n  dup5\n    /* \"#utility.yul\":4813:4816   */\n  dup10\n    /* \"#utility.yul\":4809:4828   */\n  add\n    /* \"#utility.yul\":4803:4829   */\n  mload\n    /* \"#utility.yul\":4861:4909   */\n  tag_86\n    /* \"#utility.yul\":4903:4907   */\n  0x1f\n    /* \"#utility.yul\":4895:4901   */\n  dup10\n    /* \"#utility.yul\":4891:4908   */\n  and\n    /* \"#utility.yul\":4880:4889   */\n  dup3\n    /* \"#utility.yul\":4861:4909   */\n  tag_23\n  jump\t// in\ntag_86:\n    /* \"#utility.yul\":4853:4859   */\n  dup4\n    /* \"#utility.yul\":4846:4910   */\n  sstore\n    /* \"#utility.yul\":4768:4924   */\n  pop\n    /* \"#utility.yul\":4745:4924   */\ntag_85:\n    /* \"#utility.yul\":4970:4971   */\n  0x01\n    /* \"#utility.yul\":4966:4967   */\n  0x02\n    /* \"#utility.yul\":4958:4964   */\n  dup9\n    /* \"#utility.yul\":4954:4968   */\n  mul\n    /* \"#utility.yul\":4950:4972   */\n  add\n    /* \"#utility.yul\":4944:4948   */\n  dup9\n    /* \"#utility.yul\":4937:4973   */\n  sstore\n    /* \"#utility.yul\":4372:4983   */\n  pop\n  pop\n  pop\n    /* \"#utility.yul\":4335:5222   */\ntag_77:\n  pop\n    /* \"#utility.yul\":3925:5228   */\n  pop\n  pop\n  pop\n    /* \"#utility.yul\":3833:5228   */\n  pop\n  pop\n  jump\t// out\n    /* \"contracts/DataType.sol\":72:1028  contract DataTypes {... */\ntag_4:\n  dataSize(sub_0)\n  dup1\n  dataOffset(sub_0)\n  0x00\n  codecopy\n  0x00\n  return\nstop\n\nsub_0: assembly {\n        /* \"contracts/DataType.sol\":72:1028  contract DataTypes {... */\n      mstore(0x40, 0x80)\n      callvalue\n      dup1\n      iszero\n      tag_1\n      jumpi\n      0x00\n      dup1\n      revert\n    tag_1:\n      pop\n      jumpi(tag_2, lt(calldatasize, 0x04))\n      shr(0xe0, calldataload(0x00))\n      dup1\n      0x7e4e14cc\n      gt\n      tag_21\n      jumpi\n      dup1\n      0xc15bae84\n      gt\n      tag_22\n      jumpi\n      dup1\n      0xc15bae84\n      eq\n      tag_16\n      jumpi\n      dup1\n      0xc6a898c5\n      eq\n      tag_17\n      jumpi\n      dup1\n      0xe5aa3d58\n      eq\n      tag_18\n      jumpi\n      dup1\n      0xee495002\n      eq\n      tag_19\n      jumpi\n      dup1\n      0xf2427d37\n      eq\n      tag_20\n      jumpi\n      jump(tag_2)\n    tag_22:\n      dup1\n      0x7e4e14cc\n      eq\n      tag_12\n      jumpi\n      dup1\n      0x921cda74\n      eq\n      tag_13\n      jumpi\n      dup1\n      0xab3a58a3\n      eq\n      tag_14\n      jumpi\n      dup1\n      0xb69ef8a8\n      eq\n      tag_15\n      jumpi\n      jump(tag_2)\n    tag_21:\n      dup1\n      0x4b3df200\n      gt\n      tag_23\n      jumpi\n      dup1\n      0x4b3df200\n      eq\n      tag_7\n      jumpi\n      dup1\n      0x4c27fd62\n      eq\n      tag_8\n      jumpi\n      dup1\n      0x5abe622b\n      eq\n      tag_9\n      jumpi\n      dup1\n      0x767800de\n      eq\n      tag_10\n      jumpi\n      dup1\n      0x7a4c2571\n      eq\n      tag_11\n      jumpi\n      jump(tag_2)\n    tag_23:\n      dup1\n      0x074eef3f\n      eq\n      tag_3\n      jumpi\n      dup1\n      0x0add6ef2\n      eq\n      tag_4\n      jumpi\n      dup1\n      0x1570c2cb\n      eq\n      tag_5\n      jumpi\n      dup1\n      0x459b1acf\n      eq\n      tag_6\n      jumpi\n    tag_2:\n      0x00\n      dup1\n      revert\n        /* \"contracts/DataType.sol\":849:871  bool public defaultBoo */\n    tag_3:\n      tag_24\n      tag_25\n      jump\t// in\n    tag_24:\n      mload(0x40)\n      tag_26\n      swap2\n      swap1\n      tag_27\n      jump\t// in\n    tag_26:\n      mload(0x40)\n      dup1\n      swap2\n      sub\n      swap1\n      return\n        /* \"contracts/DataType.sol\":646:671  bytes2 public b2 = 0x1a2b */\n    tag_4:\n      tag_28\n      tag_29\n      jump\t// in\n    tag_28:\n      mload(0x40)\n      tag_30\n      swap2\n      swap1\n      tag_31\n      jump\t// in\n    tag_30:\n      mload(0x40)\n      dup1\n      swap2\n      sub\n      swap1\n      return\n        /* \"contracts/DataType.sol\":886:910  uint public  defaultUint */\n    tag_5:\n      tag_32\n      tag_33\n      jump\t// in\n    tag_32:\n      mload(0x40)\n      tag_34\n      swap2\n      swap1\n      tag_35\n      jump\t// in\n    tag_34:\n      mload(0x40)\n      dup1\n      swap2\n      sub\n      swap1\n      return\n        /* \"contracts/DataType.sol\":192:217  uint256 public u256 = 456 */\n    tag_6:\n      tag_36\n      tag_37\n      jump\t// in\n    tag_36:\n      mload(0x40)\n      tag_38\n      swap2\n      swap1\n      tag_35\n      jump\t// in\n    tag_38:\n      mload(0x40)\n      dup1\n      swap2\n      sub\n      swap1\n      return\n        /* \"contracts/DataType.sol\":118:140  bool public boo = true */\n    tag_7:\n      tag_39\n      tag_40\n      jump\t// in\n    tag_39:\n      mload(0x40)\n      tag_41\n      swap2\n      swap1\n      tag_27\n      jump\t// in\n    tag_41:\n      mload(0x40)\n      dup1\n      swap2\n      sub\n      swap1\n      return\n        /* \"contracts/DataType.sol\":278:303  int256 public i256 = -456 */\n    tag_8:\n      tag_42\n      tag_43\n      jump\t// in\n    tag_42:\n      mload(0x40)\n      tag_44\n      swap2\n      swap1\n      tag_45\n      jump\t// in\n    tag_44:\n      mload(0x40)\n      dup1\n      swap2\n      sub\n      swap1\n      return\n        /* \"contracts/DataType.sol\":920:941  int public defaultInt */\n    tag_9:\n      tag_46\n      tag_47\n      jump\t// in\n    tag_46:\n      mload(0x40)\n      tag_48\n      swap2\n      swap1\n      tag_45\n      jump\t// in\n    tag_48:\n      mload(0x40)\n      dup1\n      swap2\n      sub\n      swap1\n      return\n        /* \"contracts/DataType.sol\":482:546  address public addr = 0xe0534d35acCBB5D533f31681B03cF531EB4A9363 */\n    tag_10:\n      tag_49\n      tag_50\n      jump\t// in\n    tag_49:\n      mload(0x40)\n      tag_51\n      swap2\n      swap1\n      tag_52\n      jump\t// in\n    tag_51:\n      mload(0x40)\n      dup1\n      swap2\n      sub\n      swap1\n      return\n        /* \"contracts/DataType.sol\":416:449  int public maxInt = type(int).max */\n    tag_11:\n      tag_53\n      tag_54\n      jump\t// in\n    tag_53:\n      mload(0x40)\n      tag_55\n      swap2\n      swap1\n      tag_45\n      jump\t// in\n    tag_55:\n      mload(0x40)\n      dup1\n      swap2\n      sub\n      swap1\n      return\n        /* \"contracts/DataType.sol\":376:409  int public minInt = type(int).min */\n    tag_12:\n      tag_56\n      tag_57\n      jump\t// in\n    tag_56:\n      mload(0x40)\n      tag_58\n      swap2\n      swap1\n      tag_45\n      jump\t// in\n    tag_58:\n      mload(0x40)\n      dup1\n      swap2\n      sub\n      swap1\n      return\n        /* \"contracts/DataType.sol\":252:271  int8 public i8 = -1 */\n    tag_13:\n      tag_59\n      tag_60\n      jump\t// in\n    tag_59:\n      mload(0x40)\n      tag_61\n      swap2\n      swap1\n      tag_62\n      jump\t// in\n    tag_61:\n      mload(0x40)\n      dup1\n      swap2\n      sub\n      swap1\n      return\n        /* \"contracts/DataType.sol\":164:185  uint8 public u8 = 123 */\n    tag_14:\n      tag_63\n      tag_64\n      jump\t// in\n    tag_63:\n      mload(0x40)\n      tag_65\n      swap2\n      swap1\n      tag_66\n      jump\t// in\n    tag_65:\n      mload(0x40)\n      dup1\n      swap2\n      sub\n      swap1\n      return\n        /* \"contracts/DataType.sol\":553:587  uint public balance = addr.balance */\n    tag_15:\n      tag_67\n      tag_68\n      jump\t// in\n    tag_67:\n      mload(0x40)\n      tag_69\n      swap2\n      swap1\n      tag_35\n      jump\t// in\n    tag_69:\n      mload(0x40)\n      dup1\n      swap2\n      sub\n      swap1\n      return\n        /* \"contracts/DataType.sol\":775:823  string public str = \"this is a string data type\" */\n    tag_16:\n      tag_70\n      tag_71\n      jump\t// in\n    tag_70:\n      mload(0x40)\n      tag_72\n      swap2\n      swap1\n      tag_73\n      jump\t// in\n    tag_72:\n      mload(0x40)\n      dup1\n      swap2\n      sub\n      swap1\n      return\n        /* \"contracts/DataType.sol\":224:243  uint public u = 789 */\n    tag_17:\n      tag_74\n      tag_75\n      jump\t// in\n    tag_74:\n      mload(0x40)\n      tag_76\n      swap2\n      swap1\n      tag_35\n      jump\t// in\n    tag_76:\n      mload(0x40)\n      dup1\n      swap2\n      sub\n      swap1\n      return\n        /* \"contracts/DataType.sol\":310:329  int public i = -789 */\n    tag_18:\n      tag_77\n      tag_78\n      jump\t// in\n    tag_77:\n      mload(0x40)\n      tag_79\n      swap2\n      swap1\n      tag_45\n      jump\t// in\n    tag_79:\n      mload(0x40)\n      dup1\n      swap2\n      sub\n      swap1\n      return\n        /* \"contracts/DataType.sol\":616:639  bytes1 public b1 = 0x1a */\n    tag_19:\n      tag_80\n      tag_81\n      jump\t// in\n    tag_80:\n      mload(0x40)\n      tag_82\n      swap2\n      swap1\n      tag_83\n      jump\t// in\n    tag_82:\n      mload(0x40)\n      dup1\n      swap2\n      sub\n      swap1\n      return\n        /* \"contracts/DataType.sol\":952:978  address public defaultAddr */\n    tag_20:\n      tag_84\n      tag_85\n      jump\t// in\n    tag_84:\n      mload(0x40)\n      tag_86\n      swap2\n      swap1\n      tag_52\n      jump\t// in\n    tag_86:\n      mload(0x40)\n      dup1\n      swap2\n      sub\n      swap1\n      return\n        /* \"contracts/DataType.sol\":849:871  bool public defaultBoo */\n    tag_25:\n      0x0c\n      0x00\n      swap1\n      sload\n      swap1\n      0x0100\n      exp\n      swap1\n      div\n      0xff\n      and\n      dup2\n      jump\t// out\n        /* \"contracts/DataType.sol\":646:671  bytes2 public b2 = 0x1a2b */\n    tag_29:\n      0x0a\n      0x01\n      swap1\n      sload\n      swap1\n      0x0100\n      exp\n      swap1\n      div\n      0xf0\n      shl\n      dup2\n      jump\t// out\n        /* \"contracts/DataType.sol\":886:910  uint public  defaultUint */\n    tag_33:\n      sload(0x0d)\n      dup2\n      jump\t// out\n        /* \"contracts/DataType.sol\":192:217  uint256 public u256 = 456 */\n    tag_37:\n      sload(0x01)\n      dup2\n      jump\t// out\n        /* \"contracts/DataType.sol\":118:140  bool public boo = true */\n    tag_40:\n      0x00\n      dup1\n      sload\n      swap1\n      0x0100\n      exp\n      swap1\n      div\n      0xff\n      and\n      dup2\n      jump\t// out\n        /* \"contracts/DataType.sol\":278:303  int256 public i256 = -456 */\n    tag_43:\n      sload(0x04)\n      dup2\n      jump\t// out\n        /* \"contracts/DataType.sol\":920:941  int public defaultInt */\n    tag_47:\n      sload(0x0e)\n      dup2\n      jump\t// out\n        /* \"contracts/DataType.sol\":482:546  address public addr = 0xe0534d35acCBB5D533f31681B03cF531EB4A9363 */\n    tag_50:\n      0x08\n      0x00\n      swap1\n      sload\n      swap1\n      0x0100\n      exp\n      swap1\n      div\n      0xffffffffffffffffffffffffffffffffffffffff\n      and\n      dup2\n      jump\t// out\n        /* \"contracts/DataType.sol\":416:449  int public maxInt = type(int).max */\n    tag_54:\n      sload(0x07)\n      dup2\n      jump\t// out\n        /* \"contracts/DataType.sol\":376:409  int public minInt = type(int).min */\n    tag_57:\n      sload(0x06)\n      dup2\n      jump\t// out\n        /* \"contracts/DataType.sol\":252:271  int8 public i8 = -1 */\n    tag_60:\n      0x03\n      0x00\n      swap1\n      sload\n      swap1\n      0x0100\n      exp\n      swap1\n      div\n      0x00\n      signextend\n      dup2\n      jump\t// out\n        /* \"contracts/DataType.sol\":164:185  uint8 public u8 = 123 */\n    tag_64:\n      0x00\n      0x01\n      swap1\n      sload\n      swap1\n      0x0100\n      exp\n      swap1\n      div\n      0xff\n      and\n      dup2\n      jump\t// out\n        /* \"contracts/DataType.sol\":553:587  uint public balance = addr.balance */\n    tag_68:\n      sload(0x09)\n      dup2\n      jump\t// out\n        /* \"contracts/DataType.sol\":775:823  string public str = \"this is a string data type\" */\n    tag_71:\n      0x0b\n      dup1\n      sload\n      tag_87\n      swap1\n      tag_88\n      jump\t// in\n    tag_87:\n      dup1\n      0x1f\n      add\n      0x20\n      dup1\n      swap2\n      div\n      mul\n      0x20\n      add\n      mload(0x40)\n      swap1\n      dup2\n      add\n      0x40\n      mstore\n      dup1\n      swap3\n      swap2\n      swap1\n      dup2\n      dup2\n      mstore\n      0x20\n      add\n      dup3\n      dup1\n      sload\n      tag_89\n      swap1\n      tag_88\n      jump\t// in\n    tag_89:\n      dup1\n      iszero\n      tag_90\n      jumpi\n      dup1\n      0x1f\n      lt\n      tag_91\n      jumpi\n      0x0100\n      dup1\n      dup4\n      sload\n      div\n      mul\n      dup4\n      mstore\n      swap2\n      0x20\n      add\n      swap2\n      jump(tag_90)\n    tag_91:\n      dup3\n      add\n      swap2\n      swap1\n      0x00\n      mstore\n      keccak256(0x00, 0x20)\n      swap1\n    tag_92:\n      dup2\n      sload\n      dup2\n      mstore\n      swap1\n      0x01\n      add\n      swap1\n      0x20\n      add\n      dup1\n      dup4\n      gt\n      tag_92\n      jumpi\n      dup3\n      swap1\n      sub\n      0x1f\n      and\n      dup3\n      add\n      swap2\n    tag_90:\n      pop\n      pop\n      pop\n      pop\n      pop\n      dup2\n      jump\t// out\n        /* \"contracts/DataType.sol\":224:243  uint public u = 789 */\n    tag_75:\n      sload(0x02)\n      dup2\n      jump\t// out\n        /* \"contracts/DataType.sol\":310:329  int public i = -789 */\n    tag_78:\n      sload(0x05)\n      dup2\n      jump\t// out\n        /* \"contracts/DataType.sol\":616:639  bytes1 public b1 = 0x1a */\n    tag_81:\n      0x0a\n      0x00\n      swap1\n      sload\n      swap1\n      0x0100\n      exp\n      swap1\n      div\n      0xf8\n      shl\n      dup2\n      jump\t// out\n        /* \"contracts/DataType.sol\":952:978  address public defaultAddr */\n    tag_85:\n      0x0f\n      0x00\n      swap1\n      sload\n      swap1\n      0x0100\n      exp\n      swap1\n      div\n      0xffffffffffffffffffffffffffffffffffffffff\n      and\n      dup2\n      jump\t// out\n        /* \"#utility.yul\":7:97   */\n    tag_93:\n        /* \"#utility.yul\":41:48   */\n      0x00\n        /* \"#utility.yul\":84:89   */\n      dup2\n        /* \"#utility.yul\":77:90   */\n      iszero\n        /* \"#utility.yul\":70:91   */\n      iszero\n        /* \"#utility.yul\":59:91   */\n      swap1\n      pop\n        /* \"#utility.yul\":7:97   */\n      swap2\n      swap1\n      pop\n      jump\t// out\n        /* \"#utility.yul\":103:212   */\n    tag_94:\n        /* \"#utility.yul\":184:205   */\n      tag_119\n        /* \"#utility.yul\":199:204   */\n      dup2\n        /* \"#utility.yul\":184:205   */\n      tag_93\n      jump\t// in\n    tag_119:\n        /* \"#utility.yul\":179:182   */\n      dup3\n        /* \"#utility.yul\":172:206   */\n      mstore\n        /* \"#utility.yul\":103:212   */\n      pop\n      pop\n      jump\t// out\n        /* \"#utility.yul\":218:428   */\n    tag_27:\n        /* \"#utility.yul\":305:309   */\n      0x00\n        /* \"#utility.yul\":343:345   */\n      0x20\n        /* \"#utility.yul\":332:341   */\n      dup3\n        /* \"#utility.yul\":328:346   */\n      add\n        /* \"#utility.yul\":320:346   */\n      swap1\n      pop\n        /* \"#utility.yul\":356:421   */\n      tag_121\n        /* \"#utility.yul\":418:419   */\n      0x00\n        /* \"#utility.yul\":407:416   */\n      dup4\n        /* \"#utility.yul\":403:420   */\n      add\n        /* \"#utility.yul\":394:400   */\n      dup5\n        /* \"#utility.yul\":356:421   */\n      tag_94\n      jump\t// in\n    tag_121:\n        /* \"#utility.yul\":218:428   */\n      swap3\n      swap2\n      pop\n      pop\n      jump\t// out\n        /* \"#utility.yul\":434:583   */\n    tag_95:\n        /* \"#utility.yul\":470:477   */\n      0x00\n        /* \"#utility.yul\":510:576   */\n      0xffff000000000000000000000000000000000000000000000000000000000000\n        /* \"#utility.yul\":503:508   */\n      dup3\n        /* \"#utility.yul\":499:577   */\n      and\n        /* \"#utility.yul\":488:577   */\n      swap1\n      pop\n        /* \"#utility.yul\":434:583   */\n      swap2\n      swap1\n      pop\n      jump\t// out\n        /* \"#utility.yul\":589:704   */\n    tag_96:\n        /* \"#utility.yul\":674:697   */\n      tag_124\n        /* \"#utility.yul\":691:696   */\n      dup2\n        /* \"#utility.yul\":674:697   */\n      tag_95\n      jump\t// in\n    tag_124:\n        /* \"#utility.yul\":669:672   */\n      dup3\n        /* \"#utility.yul\":662:698   */\n      mstore\n        /* \"#utility.yul\":589:704   */\n      pop\n      pop\n      jump\t// out\n        /* \"#utility.yul\":710:928   */\n    tag_31:\n        /* \"#utility.yul\":801:805   */\n      0x00\n        /* \"#utility.yul\":839:841   */\n      0x20\n        /* \"#utility.yul\":828:837   */\n      dup3\n        /* \"#utility.yul\":824:842   */\n      add\n        /* \"#utility.yul\":816:842   */\n      swap1\n      pop\n        /* \"#utility.yul\":852:921   */\n      tag_126\n        /* \"#utility.yul\":918:919   */\n      0x00\n        /* \"#utility.yul\":907:916   */\n      dup4\n        /* \"#utility.yul\":903:920   */\n      add\n        /* \"#utility.yul\":894:900   */\n      dup5\n        /* \"#utility.yul\":852:921   */\n      tag_96\n      jump\t// in\n    tag_126:\n        /* \"#utility.yul\":710:928   */\n      swap3\n      swap2\n      pop\n      pop\n      jump\t// out\n        /* \"#utility.yul\":934:1011   */\n    tag_97:\n        /* \"#utility.yul\":971:978   */\n      0x00\n        /* \"#utility.yul\":1000:1005   */\n      dup2\n        /* \"#utility.yul\":989:1005   */\n      swap1\n      pop\n        /* \"#utility.yul\":934:1011   */\n      swap2\n      swap1\n      pop\n      jump\t// out\n        /* \"#utility.yul\":1017:1135   */\n    tag_98:\n        /* \"#utility.yul\":1104:1128   */\n      tag_129\n        /* \"#utility.yul\":1122:1127   */\n      dup2\n        /* \"#utility.yul\":1104:1128   */\n      tag_97\n      jump\t// in\n    tag_129:\n        /* \"#utility.yul\":1099:1102   */\n      dup3\n        /* \"#utility.yul\":1092:1129   */\n      mstore\n        /* \"#utility.yul\":1017:1135   */\n      pop\n      pop\n      jump\t// out\n        /* \"#utility.yul\":1141:1363   */\n    tag_35:\n        /* \"#utility.yul\":1234:1238   */\n      0x00\n        /* \"#utility.yul\":1272:1274   */\n      0x20\n        /* \"#utility.yul\":1261:1270   */\n      dup3\n        /* \"#utility.yul\":1257:1275   */\n      add\n        /* \"#utility.yul\":1249:1275   */\n      swap1\n      pop\n        /* \"#utility.yul\":1285:1356   */\n      tag_131\n        /* \"#utility.yul\":1353:1354   */\n      0x00\n        /* \"#utility.yul\":1342:1351   */\n      dup4\n        /* \"#utility.yul\":1338:1355   */\n      add\n        /* \"#utility.yul\":1329:1335   */\n      dup5\n        /* \"#utility.yul\":1285:1356   */\n      tag_98\n      jump\t// in\n    tag_131:\n        /* \"#utility.yul\":1141:1363   */\n      swap3\n      swap2\n      pop\n      pop\n      jump\t// out\n        /* \"#utility.yul\":1369:1445   */\n    tag_99:\n        /* \"#utility.yul\":1405:1412   */\n      0x00\n        /* \"#utility.yul\":1434:1439   */\n      dup2\n        /* \"#utility.yul\":1423:1439   */\n      swap1\n      pop\n        /* \"#utility.yul\":1369:1445   */\n      swap2\n      swap1\n      pop\n      jump\t// out\n        /* \"#utility.yul\":1451:1566   */\n    tag_100:\n        /* \"#utility.yul\":1536:1559   */\n      tag_134\n        /* \"#utility.yul\":1553:1558   */\n      dup2\n        /* \"#utility.yul\":1536:1559   */\n      tag_99\n      jump\t// in\n    tag_134:\n        /* \"#utility.yul\":1531:1534   */\n      dup3\n        /* \"#utility.yul\":1524:1560   */\n      mstore\n        /* \"#utility.yul\":1451:1566   */\n      pop\n      pop\n      jump\t// out\n        /* \"#utility.yul\":1572:1790   */\n    tag_45:\n        /* \"#utility.yul\":1663:1667   */\n      0x00\n        /* \"#utility.yul\":1701:1703   */\n      0x20\n        /* \"#utility.yul\":1690:1699   */\n      dup3\n        /* \"#utility.yul\":1686:1704   */\n      add\n        /* \"#utility.yul\":1678:1704   */\n      swap1\n      pop\n        /* \"#utility.yul\":1714:1783   */\n      tag_136\n        /* \"#utility.yul\":1780:1781   */\n      0x00\n        /* \"#utility.yul\":1769:1778   */\n      dup4\n        /* \"#utility.yul\":1765:1782   */\n      add\n        /* \"#utility.yul\":1756:1762   */\n      dup5\n        /* \"#utility.yul\":1714:1783   */\n      tag_100\n      jump\t// in\n    tag_136:\n        /* \"#utility.yul\":1572:1790   */\n      swap3\n      swap2\n      pop\n      pop\n      jump\t// out\n        /* \"#utility.yul\":1796:1922   */\n    tag_101:\n        /* \"#utility.yul\":1833:1840   */\n      0x00\n        /* \"#utility.yul\":1873:1915   */\n      0xffffffffffffffffffffffffffffffffffffffff\n        /* \"#utility.yul\":1866:1871   */\n      dup3\n        /* \"#utility.yul\":1862:1916   */\n      and\n        /* \"#utility.yul\":1851:1916   */\n      swap1\n      pop\n        /* \"#utility.yul\":1796:1922   */\n      swap2\n      swap1\n      pop\n      jump\t// out\n        /* \"#utility.yul\":1928:2024   */\n    tag_102:\n        /* \"#utility.yul\":1965:1972   */\n      0x00\n        /* \"#utility.yul\":1994:2018   */\n      tag_139\n        /* \"#utility.yul\":2012:2017   */\n      dup3\n        /* \"#utility.yul\":1994:2018   */\n      tag_101\n      jump\t// in\n    tag_139:\n        /* \"#utility.yul\":1983:2018   */\n      swap1\n      pop\n        /* \"#utility.yul\":1928:2024   */\n      swap2\n      swap1\n      pop\n      jump\t// out\n        /* \"#utility.yul\":2030:2148   */\n    tag_103:\n        /* \"#utility.yul\":2117:2141   */\n      tag_141\n        /* \"#utility.yul\":2135:2140   */\n      dup2\n        /* \"#utility.yul\":2117:2141   */\n      tag_102\n      jump\t// in\n    tag_141:\n        /* \"#utility.yul\":2112:2115   */\n      dup3\n        /* \"#utility.yul\":2105:2142   */\n      mstore\n        /* \"#utility.yul\":2030:2148   */\n      pop\n      pop\n      jump\t// out\n        /* \"#utility.yul\":2154:2376   */\n    tag_52:\n        /* \"#utility.yul\":2247:2251   */\n      0x00\n        /* \"#utility.yul\":2285:2287   */\n      0x20\n        /* \"#utility.yul\":2274:2283   */\n      dup3\n        /* \"#utility.yul\":2270:2288   */\n      add\n        /* \"#utility.yul\":2262:2288   */\n      swap1\n      pop\n        /* \"#utility.yul\":2298:2369   */\n      tag_143\n        /* \"#utility.yul\":2366:2367   */\n      0x00\n        /* \"#utility.yul\":2355:2364   */\n      dup4\n        /* \"#utility.yul\":2351:2368   */\n      add\n        /* \"#utility.yul\":2342:2348   */\n      dup5\n        /* \"#utility.yul\":2298:2369   */\n      tag_103\n      jump\t// in\n    tag_143:\n        /* \"#utility.yul\":2154:2376   */\n      swap3\n      swap2\n      pop\n      pop\n      jump\t// out\n        /* \"#utility.yul\":2382:2471   */\n    tag_104:\n        /* \"#utility.yul\":2416:2423   */\n      0x00\n        /* \"#utility.yul\":2459:2464   */\n      dup2\n        /* \"#utility.yul\":2456:2457   */\n      0x00\n        /* \"#utility.yul\":2445:2465   */\n      signextend\n        /* \"#utility.yul\":2434:2465   */\n      swap1\n      pop\n        /* \"#utility.yul\":2382:2471   */\n      swap2\n      swap1\n      pop\n      jump\t// out\n        /* \"#utility.yul\":2477:2586   */\n    tag_105:\n        /* \"#utility.yul\":2558:2579   */\n      tag_146\n        /* \"#utility.yul\":2573:2578   */\n      dup2\n        /* \"#utility.yul\":2558:2579   */\n      tag_104\n      jump\t// in\n    tag_146:\n        /* \"#utility.yul\":2553:2556   */\n      dup3\n        /* \"#utility.yul\":2546:2580   */\n      mstore\n        /* \"#utility.yul\":2477:2586   */\n      pop\n      pop\n      jump\t// out\n        /* \"#utility.yul\":2592:2802   */\n    tag_62:\n        /* \"#utility.yul\":2679:2683   */\n      0x00\n        /* \"#utility.yul\":2717:2719   */\n      0x20\n        /* \"#utility.yul\":2706:2715   */\n      dup3\n        /* \"#utility.yul\":2702:2720   */\n      add\n        /* \"#utility.yul\":2694:2720   */\n      swap1\n      pop\n        /* \"#utility.yul\":2730:2795   */\n      tag_148\n        /* \"#utility.yul\":2792:2793   */\n      0x00\n        /* \"#utility.yul\":2781:2790   */\n      dup4\n        /* \"#utility.yul\":2777:2794   */\n      add\n        /* \"#utility.yul\":2768:2774   */\n      dup5\n        /* \"#utility.yul\":2730:2795   */\n      tag_105\n      jump\t// in\n    tag_148:\n        /* \"#utility.yul\":2592:2802   */\n      swap3\n      swap2\n      pop\n      pop\n      jump\t// out\n        /* \"#utility.yul\":2808:2894   */\n    tag_106:\n        /* \"#utility.yul\":2843:2850   */\n      0x00\n        /* \"#utility.yul\":2883:2887   */\n      0xff\n        /* \"#utility.yul\":2876:2881   */\n      dup3\n        /* \"#utility.yul\":2872:2888   */\n      and\n        /* \"#utility.yul\":2861:2888   */\n      swap1\n      pop\n        /* \"#utility.yul\":2808:2894   */\n      swap2\n      swap1\n      pop\n      jump\t// out\n        /* \"#utility.yul\":2900:3012   */\n    tag_107:\n        /* \"#utility.yul\":2983:3005   */\n      tag_151\n        /* \"#utility.yul\":2999:3004   */\n      dup2\n        /* \"#utility.yul\":2983:3005   */\n      tag_106\n      jump\t// in\n    tag_151:\n        /* \"#utility.yul\":2978:2981   */\n      dup3\n        /* \"#utility.yul\":2971:3006   */\n      mstore\n        /* \"#utility.yul\":2900:3012   */\n      pop\n      pop\n      jump\t// out\n        /* \"#utility.yul\":3018:3232   */\n    tag_66:\n        /* \"#utility.yul\":3107:3111   */\n      0x00\n        /* \"#utility.yul\":3145:3147   */\n      0x20\n        /* \"#utility.yul\":3134:3143   */\n      dup3\n        /* \"#utility.yul\":3130:3148   */\n      add\n        /* \"#utility.yul\":3122:3148   */\n      swap1\n      pop\n        /* \"#utility.yul\":3158:3225   */\n      tag_153\n        /* \"#utility.yul\":3222:3223   */\n      0x00\n        /* \"#utility.yul\":3211:3220   */\n      dup4\n        /* \"#utility.yul\":3207:3224   */\n      add\n        /* \"#utility.yul\":3198:3204   */\n      dup5\n        /* \"#utility.yul\":3158:3225   */\n      tag_107\n      jump\t// in\n    tag_153:\n        /* \"#utility.yul\":3018:3232   */\n      swap3\n      swap2\n      pop\n      pop\n      jump\t// out\n        /* \"#utility.yul\":3238:3337   */\n    tag_108:\n        /* \"#utility.yul\":3290:3296   */\n      0x00\n        /* \"#utility.yul\":3324:3329   */\n      dup2\n        /* \"#utility.yul\":3318:3330   */\n      mload\n        /* \"#utility.yul\":3308:3330   */\n      swap1\n      pop\n        /* \"#utility.yul\":3238:3337   */\n      swap2\n      swap1\n      pop\n      jump\t// out\n        /* \"#utility.yul\":3343:3512   */\n    tag_109:\n        /* \"#utility.yul\":3427:3438   */\n      0x00\n        /* \"#utility.yul\":3461:3467   */\n      dup3\n        /* \"#utility.yul\":3456:3459   */\n      dup3\n        /* \"#utility.yul\":3449:3468   */\n      mstore\n        /* \"#utility.yul\":3501:3505   */\n      0x20\n        /* \"#utility.yul\":3496:3499   */\n      dup3\n        /* \"#utility.yul\":3492:3506   */\n      add\n        /* \"#utility.yul\":3477:3506   */\n      swap1\n      pop\n        /* \"#utility.yul\":3343:3512   */\n      swap3\n      swap2\n      pop\n      pop\n      jump\t// out\n        /* \"#utility.yul\":3518:3657   */\n    tag_110:\n        /* \"#utility.yul\":3607:3613   */\n      dup3\n        /* \"#utility.yul\":3602:3605   */\n      dup2\n        /* \"#utility.yul\":3597:3600   */\n      dup4\n        /* \"#utility.yul\":3591:3614   */\n      mcopy\n        /* \"#utility.yul\":3648:3649   */\n      0x00\n        /* \"#utility.yul\":3639:3645   */\n      dup4\n        /* \"#utility.yul\":3634:3637   */\n      dup4\n        /* \"#utility.yul\":3630:3646   */\n      add\n        /* \"#utility.yul\":3623:3650   */\n      mstore\n        /* \"#utility.yul\":3518:3657   */\n      pop\n      pop\n      pop\n      jump\t// out\n        /* \"#utility.yul\":3663:3765   */\n    tag_111:\n        /* \"#utility.yul\":3704:3710   */\n      0x00\n        /* \"#utility.yul\":3755:3757   */\n      0x1f\n        /* \"#utility.yul\":3751:3758   */\n      not\n        /* \"#utility.yul\":3746:3748   */\n      0x1f\n        /* \"#utility.yul\":3739:3744   */\n      dup4\n        /* \"#utility.yul\":3735:3749   */\n      add\n        /* \"#utility.yul\":3731:3759   */\n      and\n        /* \"#utility.yul\":3721:3759   */\n      swap1\n      pop\n        /* \"#utility.yul\":3663:3765   */\n      swap2\n      swap1\n      pop\n      jump\t// out\n        /* \"#utility.yul\":3771:4148   */\n    tag_112:\n        /* \"#utility.yul\":3859:3862   */\n      0x00\n        /* \"#utility.yul\":3887:3926   */\n      tag_159\n        /* \"#utility.yul\":3920:3925   */\n      dup3\n        /* \"#utility.yul\":3887:3926   */\n      tag_108\n      jump\t// in\n    tag_159:\n        /* \"#utility.yul\":3942:4013   */\n      tag_160\n        /* \"#utility.yul\":4006:4012   */\n      dup2\n        /* \"#utility.yul\":4001:4004   */\n      dup6\n        /* \"#utility.yul\":3942:4013   */\n      tag_109\n      jump\t// in\n    tag_160:\n        /* \"#utility.yul\":3935:4013   */\n      swap4\n      pop\n        /* \"#utility.yul\":4022:4087   */\n      tag_161\n        /* \"#utility.yul\":4080:4086   */\n      dup2\n        /* \"#utility.yul\":4075:4078   */\n      dup6\n        /* \"#utility.yul\":4068:4072   */\n      0x20\n        /* \"#utility.yul\":4061:4066   */\n      dup7\n        /* \"#utility.yul\":4057:4073   */\n      add\n        /* \"#utility.yul\":4022:4087   */\n      tag_110\n      jump\t// in\n    tag_161:\n        /* \"#utility.yul\":4112:4141   */\n      tag_162\n        /* \"#utility.yul\":4134:4140   */\n      dup2\n        /* \"#utility.yul\":4112:4141   */\n      tag_111\n      jump\t// in\n    tag_162:\n        /* \"#utility.yul\":4107:4110   */\n      dup5\n        /* \"#utility.yul\":4103:4142   */\n      add\n        /* \"#utility.yul\":4096:4142   */\n      swap2\n      pop\n        /* \"#utility.yul\":3863:4148   */\n      pop\n        /* \"#utility.yul\":3771:4148   */\n      swap3\n      swap2\n      pop\n      pop\n      jump\t// out\n        /* \"#utility.yul\":4154:4467   */\n    tag_73:\n        /* \"#utility.yul\":4267:4271   */\n      0x00\n        /* \"#utility.yul\":4305:4307   */\n      0x20\n        /* \"#utility.yul\":4294:4303   */\n      dup3\n        /* \"#utility.yul\":4290:4308   */\n      add\n        /* \"#utility.yul\":4282:4308   */\n      swap1\n      pop\n        /* \"#utility.yul\":4354:4363   */\n      dup2\n        /* \"#utility.yul\":4348:4352   */\n      dup2\n        /* \"#utility.yul\":4344:4364   */\n      sub\n        /* \"#utility.yul\":4340:4341   */\n      0x00\n        /* \"#utility.yul\":4329:4338   */\n      dup4\n        /* \"#utility.yul\":4325:4342   */\n      add\n        /* \"#utility.yul\":4318:4365   */\n      mstore\n        /* \"#utility.yul\":4382:4460   */\n      tag_164\n        /* \"#utility.yul\":4455:4459   */\n      dup2\n        /* \"#utility.yul\":4446:4452   */\n      dup5\n        /* \"#utility.yul\":4382:4460   */\n      tag_112\n      jump\t// in\n    tag_164:\n        /* \"#utility.yul\":4374:4460   */\n      swap1\n      pop\n        /* \"#utility.yul\":4154:4467   */\n      swap3\n      swap2\n      pop\n      pop\n      jump\t// out\n        /* \"#utility.yul\":4473:4622   */\n    tag_113:\n        /* \"#utility.yul\":4509:4516   */\n      0x00\n        /* \"#utility.yul\":4549:4615   */\n      0xff00000000000000000000000000000000000000000000000000000000000000\n        /* \"#utility.yul\":4542:4547   */\n      dup3\n        /* \"#utility.yul\":4538:4616   */\n      and\n        /* \"#utility.yul\":4527:4616   */\n      swap1\n      pop\n        /* \"#utility.yul\":4473:4622   */\n      swap2\n      swap1\n      pop\n      jump\t// out\n        /* \"#utility.yul\":4628:4743   */\n    tag_114:\n        /* \"#utility.yul\":4713:4736   */\n      tag_167\n        /* \"#utility.yul\":4730:4735   */\n      dup2\n        /* \"#utility.yul\":4713:4736   */\n      tag_113\n      jump\t// in\n    tag_167:\n        /* \"#utility.yul\":4708:4711   */\n      dup3\n        /* \"#utility.yul\":4701:4737   */\n      mstore\n        /* \"#utility.yul\":4628:4743   */\n      pop\n      pop\n      jump\t// out\n        /* \"#utility.yul\":4749:4967   */\n    tag_83:\n        /* \"#utility.yul\":4840:4844   */\n      0x00\n        /* \"#utility.yul\":4878:4880   */\n      0x20\n        /* \"#utility.yul\":4867:4876   */\n      dup3\n        /* \"#utility.yul\":4863:4881   */\n      add\n        /* \"#utility.yul\":4855:4881   */\n      swap1\n      pop\n        /* \"#utility.yul\":4891:4960   */\n      tag_169\n        /* \"#utility.yul\":4957:4958   */\n      0x00\n        /* \"#utility.yul\":4946:4955   */\n      dup4\n        /* \"#utility.yul\":4942:4959   */\n      add\n        /* \"#utility.yul\":4933:4939   */\n      dup5\n        /* \"#utility.yul\":4891:4960   */\n      tag_114\n      jump\t// in\n    tag_169:\n        /* \"#utility.yul\":4749:4967   */\n      swap3\n      swap2\n      pop\n      pop\n      jump\t// out\n        /* \"#utility.yul\":4973:5153   */\n    tag_115:\n        /* \"#utility.yul\":5021:5098   */\n      0x4e487b7100000000000000000000000000000000000000000000000000000000\n        /* \"#utility.yul\":5018:5019   */\n      0x00\n        /* \"#utility.yul\":5011:5099   */\n      mstore\n        /* \"#utility.yul\":5118:5122   */\n      0x22\n        /* \"#utility.yul\":5115:5116   */\n      0x04\n        /* \"#utility.yul\":5108:5123   */\n      mstore\n        /* \"#utility.yul\":5142:5146   */\n      0x24\n        /* \"#utility.yul\":5139:5140   */\n      0x00\n        /* \"#utility.yul\":5132:5147   */\n      revert\n        /* \"#utility.yul\":5159:5479   */\n    tag_88:\n        /* \"#utility.yul\":5203:5209   */\n      0x00\n        /* \"#utility.yul\":5240:5241   */\n      0x02\n        /* \"#utility.yul\":5234:5238   */\n      dup3\n        /* \"#utility.yul\":5230:5242   */\n      div\n        /* \"#utility.yul\":5220:5242   */\n      swap1\n      pop\n        /* \"#utility.yul\":5287:5288   */\n      0x01\n        /* \"#utility.yul\":5281:5285   */\n      dup3\n        /* \"#utility.yul\":5277:5289   */\n      and\n        /* \"#utility.yul\":5308:5326   */\n      dup1\n        /* \"#utility.yul\":5298:5379   */\n      tag_172\n      jumpi\n        /* \"#utility.yul\":5364:5368   */\n      0x7f\n        /* \"#utility.yul\":5356:5362   */\n      dup3\n        /* \"#utility.yul\":5352:5369   */\n      and\n        /* \"#utility.yul\":5342:5369   */\n      swap2\n      pop\n        /* \"#utility.yul\":5298:5379   */\n    tag_172:\n        /* \"#utility.yul\":5426:5428   */\n      0x20\n        /* \"#utility.yul\":5418:5424   */\n      dup3\n        /* \"#utility.yul\":5415:5429   */\n      lt\n        /* \"#utility.yul\":5395:5413   */\n      dup2\n        /* \"#utility.yul\":5392:5430   */\n      sub\n        /* \"#utility.yul\":5389:5473   */\n      tag_173\n      jumpi\n        /* \"#utility.yul\":5445:5463   */\n      tag_174\n      tag_115\n      jump\t// in\n    tag_174:\n        /* \"#utility.yul\":5389:5473   */\n    tag_173:\n        /* \"#utility.yul\":5210:5479   */\n      pop\n        /* \"#utility.yul\":5159:5479   */\n      swap2\n      swap1\n      pop\n      jump\t// out\n\n    auxdata: 0xa2646970667358221220792adc6149c3640d2e2a1e4c5abd3f12304099431bc3bfe421a5712beb3c574064736f6c63430008190033\n}\n",
				"bytecode": {
					"linkReferences": {},
					"object": "608060405260015f806101000a81548160ff021916908315150217905550607b5f60016101000a81548160ff021916908360ff1602179055506101c86001556103156002557fffffffffffffffffffffffffffffffffffffffffffffffffffffffffffffffff60035f6101000a81548160ff02191690835f0b60ff1602179055507ffffffffffffffffffffffffffffffffffffffffffffffffffffffffffffffe386004557ffffffffffffffffffffffffffffffffffffffffffffffffffffffffffffffceb6005557f80000000000000000000000000000000000000000000000000000000000000006006557f7fffffffffffffffffffffffffffffffffffffffffffffffffffffffffffffff60075573e0534d35accbb5d533f31681b03cf531eb4a936360085f6101000a81548173ffffffffffffffffffffffffffffffffffffffff021916908373ffffffffffffffffffffffffffffffffffffffff16021790555060085f9054906101000a900473ffffffffffffffffffffffffffffffffffffffff1673ffffffffffffffffffffffffffffffffffffffff1631600955601a60f81b600a5f6101000a81548160ff021916908360f81c0217905550611a2b60f01b600a60016101000a81548161ffff021916908360f01c02179055506040518060400160405280601a81526020017f74686973206973206120737472696e6720646174612074797065000000000000815250600b9081610223919061046f565b5034801561022f575f80fd5b5061053e565b5f81519050919050565b7f4e487b71000000000000000000000000000000000000000000000000000000005f52604160045260245ffd5b7f4e487b71000000000000000000000000000000000000000000000000000000005f52602260045260245ffd5b5f60028204905060018216806102b057607f821691505b6020821081036102c3576102c261026c565b5b50919050565b5f819050815f5260205f209050919050565b5f6020601f8301049050919050565b5f82821b905092915050565b5f600883026103257fffffffffffffffffffffffffffffffffffffffffffffffffffffffffffffffff826102ea565b61032f86836102ea565b95508019841693508086168417925050509392505050565b5f819050919050565b5f819050919050565b5f61037361036e61036984610347565b610350565b610347565b9050919050565b5f819050919050565b61038c83610359565b6103a06103988261037a565b8484546102f6565b825550505050565b5f90565b6103b46103a8565b6103bf818484610383565b505050565b5b818110156103e2576103d75f826103ac565b6001810190506103c5565b5050565b601f821115610427576103f8816102c9565b610401846102db565b81016020851015610410578190505b61042461041c856102db565b8301826103c4565b50505b505050565b5f82821c905092915050565b5f6104475f198460080261042c565b1980831691505092915050565b5f61045f8383610438565b9150826002028217905092915050565b61047882610235565b67ffffffffffffffff8111156104915761049061023f565b5b61049b8254610299565b6104a68282856103e6565b5f60209050601f8311600181146104d7575f84156104c5578287015190505b6104cf8582610454565b865550610536565b601f1984166104e5866102c9565b5f5b8281101561050c578489015182556001820191506020850194506020810190506104e7565b868310156105295784890151610525601f891682610438565b8355505b6001600288020188555050505b505050505050565b6107c78061054b5f395ff3fe608060405234801561000f575f80fd5b5060043610610114575f3560e01c80637e4e14cc116100a0578063c15bae841161006f578063c15bae841461029e578063c6a898c5146102bc578063e5aa3d58146102da578063ee495002146102f8578063f2427d371461031657610114565b80637e4e14cc14610226578063921cda7414610244578063ab3a58a314610262578063b69ef8a81461028057610114565b80634b3df200116100e75780634b3df200146101905780634c27fd62146101ae5780635abe622b146101cc578063767800de146101ea5780637a4c25711461020857610114565b8063074eef3f146101185780630add6ef2146101365780631570c2cb14610154578063459b1acf14610172575b5f80fd5b610120610334565b60405161012d91906104c4565b60405180910390f35b61013e610346565b60405161014b9190610517565b60405180910390f35b61015c610359565b6040516101699190610548565b60405180910390f35b61017a61035f565b6040516101879190610548565b60405180910390f35b610198610365565b6040516101a591906104c4565b60405180910390f35b6101b6610375565b6040516101c39190610579565b60405180910390f35b6101d461037b565b6040516101e19190610579565b60405180910390f35b6101f2610381565b6040516101ff91906105d1565b60405180910390f35b6102106103a6565b60405161021d9190610579565b60405180910390f35b61022e6103ac565b60405161023b9190610579565b60405180910390f35b61024c6103b2565b6040516102599190610604565b60405180910390f35b61026a6103c3565b6040516102779190610638565b60405180910390f35b6102886103d5565b6040516102959190610548565b60405180910390f35b6102a66103db565b6040516102b391906106c1565b60405180910390f35b6102c4610467565b6040516102d19190610548565b60405180910390f35b6102e261046d565b6040516102ef9190610579565b60405180910390f35b610300610473565b60405161030d919061071b565b60405180910390f35b61031e610485565b60405161032b91906105d1565b60405180910390f35b600c5f9054906101000a900460ff1681565b600a60019054906101000a900460f01b81565b600d5481565b60015481565b5f8054906101000a900460ff1681565b60045481565b600e5481565b60085f9054906101000a900473ffffffffffffffffffffffffffffffffffffffff1681565b60075481565b60065481565b60035f9054906101000a90045f0b81565b5f60019054906101000a900460ff1681565b60095481565b600b80546103e890610761565b80601f016020809104026020016040519081016040528092919081815260200182805461041490610761565b801561045f5780601f106104365761010080835404028352916020019161045f565b820191905f5260205f20905b81548152906001019060200180831161044257829003601f168201915b505050505081565b60025481565b60055481565b600a5f9054906101000a900460f81b81565b600f5f9054906101000a900473ffffffffffffffffffffffffffffffffffffffff1681565b5f8115159050919050565b6104be816104aa565b82525050565b5f6020820190506104d75f8301846104b5565b92915050565b5f7fffff00000000000000000000000000000000000000000000000000000000000082169050919050565b610511816104dd565b82525050565b5f60208201905061052a5f830184610508565b92915050565b5f819050919050565b61054281610530565b82525050565b5f60208201905061055b5f830184610539565b92915050565b5f819050919050565b61057381610561565b82525050565b5f60208201905061058c5f83018461056a565b92915050565b5f73ffffffffffffffffffffffffffffffffffffffff82169050919050565b5f6105bb82610592565b9050919050565b6105cb816105b1565b82525050565b5f6020820190506105e45f8301846105c2565b92915050565b5f815f0b9050919050565b6105fe816105ea565b82525050565b5f6020820190506106175f8301846105f5565b92915050565b5f60ff82169050919050565b6106328161061d565b82525050565b5f60208201905061064b5f830184610629565b92915050565b5f81519050919050565b5f82825260208201905092915050565b8281835e5f83830152505050565b5f601f19601f8301169050919050565b5f61069382610651565b61069d818561065b565b93506106ad81856020860161066b565b6106b681610679565b840191505092915050565b5f6020820190508181035f8301526106d98184610689565b905092915050565b5f7fff0000000000000000000000000000000000000000000000000000000000000082169050919050565b610715816106e1565b82525050565b5f60208201905061072e5f83018461070c565b92915050565b7f4e487b71000000000000000000000000000000000000000000000000000000005f52602260045260245ffd5b5f600282049050600182168061077857607f821691505b60208210810361078b5761078a610734565b5b5091905056fea2646970667358221220792adc6149c3640d2e2a1e4c5abd3f12304099431bc3bfe421a5712beb3c574064736f6c63430008190033",
					"opcodes": "PUSH1 0x80 PUSH1 0x40 MSTORE PUSH1 0x1 PUSH0 DUP1 PUSH2 0x100 EXP DUP2 SLOAD DUP2 PUSH1 0xFF MUL NOT AND SWAP1 DUP4 ISZERO ISZERO MUL OR SWAP1 SSTORE POP PUSH1 0x7B PUSH0 PUSH1 0x1 PUSH2 0x100 EXP DUP2 SLOAD DUP2 PUSH1 0xFF MUL NOT AND SWAP1 DUP4 PUSH1 0xFF AND MUL OR SWAP1 SSTORE POP PUSH2 0x1C8 PUSH1 0x1 SSTORE PUSH2 0x315 PUSH1 0x2 SSTORE PUSH32 0xFFFFFFFFFFFFFFFFFFFFFFFFFFFFFFFFFFFFFFFFFFFFFFFFFFFFFFFFFFFFFFFF PUSH1 0x3 PUSH0 PUSH2 0x100 EXP DUP2 SLOAD DUP2 PUSH1 0xFF MUL NOT AND SWAP1 DUP4 PUSH0 SIGNEXTEND PUSH1 0xFF AND MUL OR SWAP1 SSTORE POP PUSH32 0xFFFFFFFFFFFFFFFFFFFFFFFFFFFFFFFFFFFFFFFFFFFFFFFFFFFFFFFFFFFFFE38 PUSH1 0x4 SSTORE PUSH32 0xFFFFFFFFFFFFFFFFFFFFFFFFFFFFFFFFFFFFFFFFFFFFFFFFFFFFFFFFFFFFFCEB PUSH1 0x5 SSTORE PUSH32 0x8000000000000000000000000000000000000000000000000000000000000000 PUSH1 0x6 SSTORE PUSH32 0x7FFFFFFFFFFFFFFFFFFFFFFFFFFFFFFFFFFFFFFFFFFFFFFFFFFFFFFFFFFFFFFF PUSH1 0x7 SSTORE PUSH20 0xE0534D35ACCBB5D533F31681B03CF531EB4A9363 PUSH1 0x8 PUSH0 PUSH2 0x100 EXP DUP2 SLOAD DUP2 PUSH20 0xFFFFFFFFFFFFFFFFFFFFFFFFFFFFFFFFFFFFFFFF MUL NOT AND SWAP1 DUP4 PUSH20 0xFFFFFFFFFFFFFFFFFFFFFFFFFFFFFFFFFFFFFFFF AND MUL OR SWAP1 SSTORE POP PUSH1 0x8 PUSH0 SWAP1 SLOAD SWAP1 PUSH2 0x100 EXP SWAP1 DIV PUSH20 0xFFFFFFFFFFFFFFFFFFFFFFFFFFFFFFFFFFFFFFFF AND PUSH20 0xFFFFFFFFFFFFFFFFFFFFFFFFFFFFFFFFFFFFFFFF AND BALANCE PUSH1 0x9 SSTORE PUSH1 0x1A PUSH1 0xF8 SHL PUSH1 0xA PUSH0 PUSH2 0x100 EXP DUP2 SLOAD DUP2 PUSH1 0xFF MUL NOT AND SWAP1 DUP4 PUSH1 0xF8 SHR MUL OR SWAP1 SSTORE POP PUSH2 0x1A2B PUSH1 0xF0 SHL PUSH1 0xA PUSH1 0x1 PUSH2 0x100 EXP DUP2 SLOAD DUP2 PUSH2 0xFFFF MUL NOT AND SWAP1 DUP4 PUSH1 0xF0 SHR MUL OR SWAP1 SSTORE POP PUSH1 0x40 MLOAD DUP1 PUSH1 0x40 ADD PUSH1 0x40 MSTORE DUP1 PUSH1 0x1A DUP2 MSTORE PUSH1 0x20 ADD PUSH32 0x74686973206973206120737472696E6720646174612074797065000000000000 DUP2 MSTORE POP PUSH1 0xB SWAP1 DUP2 PUSH2 0x223 SWAP2 SWAP1 PUSH2 0x46F JUMP JUMPDEST POP CALLVALUE DUP1 ISZERO PUSH2 0x22F JUMPI PUSH0 DUP1 REVERT JUMPDEST POP PUSH2 0x53E JUMP JUMPDEST PUSH0 DUP2 MLOAD SWAP1 POP SWAP2 SWAP1 POP JUMP JUMPDEST PUSH32 0x4E487B7100000000000000000000000000000000000000000000000000000000 PUSH0 MSTORE PUSH1 0x41 PUSH1 0x4 MSTORE PUSH1 0x24 PUSH0 REVERT JUMPDEST PUSH32 0x4E487B7100000000000000000000000000000000000000000000000000000000 PUSH0 MSTORE PUSH1 0x22 PUSH1 0x4 MSTORE PUSH1 0x24 PUSH0 REVERT JUMPDEST PUSH0 PUSH1 0x2 DUP3 DIV SWAP1 POP PUSH1 0x1 DUP3 AND DUP1 PUSH2 0x2B0 JUMPI PUSH1 0x7F DUP3 AND SWAP2 POP JUMPDEST PUSH1 0x20 DUP3 LT DUP2 SUB PUSH2 0x2C3 JUMPI PUSH2 0x2C2 PUSH2 0x26C JUMP JUMPDEST JUMPDEST POP SWAP2 SWAP1 POP JUMP JUMPDEST PUSH0 DUP2 SWAP1 POP DUP2 PUSH0 MSTORE PUSH1 0x20 PUSH0 KECCAK256 SWAP1 POP SWAP2 SWAP1 POP JUMP JUMPDEST PUSH0 PUSH1 0x20 PUSH1 0x1F DUP4 ADD DIV SWAP1 POP SWAP2 SWAP1 POP JUMP JUMPDEST PUSH0 DUP3 DUP3 SHL SWAP1 POP SWAP3 SWAP2 POP POP JUMP JUMPDEST PUSH0 PUSH1 0x8 DUP4 MUL PUSH2 0x325 PUSH32 0xFFFFFFFFFFFFFFFFFFFFFFFFFFFFFFFFFFFFFFFFFFFFFFFFFFFFFFFFFFFFFFFF DUP3 PUSH2 0x2EA JUMP JUMPDEST PUSH2 0x32F DUP7 DUP4 PUSH2 0x2EA JUMP JUMPDEST SWAP6 POP DUP1 NOT DUP5 AND SWAP4 POP DUP1 DUP7 AND DUP5 OR SWAP3 POP POP POP SWAP4 SWAP3 POP POP POP JUMP JUMPDEST PUSH0 DUP2 SWAP1 POP SWAP2 SWAP1 POP JUMP JUMPDEST PUSH0 DUP2 SWAP1 POP SWAP2 SWAP1 POP JUMP JUMPDEST PUSH0 PUSH2 0x373 PUSH2 0x36E PUSH2 0x369 DUP5 PUSH2 0x347 JUMP JUMPDEST PUSH2 0x350 JUMP JUMPDEST PUSH2 0x347 JUMP JUMPDEST SWAP1 POP SWAP2 SWAP1 POP JUMP JUMPDEST PUSH0 DUP2 SWAP1 POP SWAP2 SWAP1 POP JUMP JUMPDEST PUSH2 0x38C DUP4 PUSH2 0x359 JUMP JUMPDEST PUSH2 0x3A0 PUSH2 0x398 DUP3 PUSH2 0x37A JUMP JUMPDEST DUP5 DUP5 SLOAD PUSH2 0x2F6 JUMP JUMPDEST DUP3 SSTORE POP POP POP POP JUMP JUMPDEST PUSH0 SWAP1 JUMP JUMPDEST PUSH2 0x3B4 PUSH2 0x3A8 JUMP JUMPDEST PUSH2 0x3BF DUP2 DUP5 DUP5 PUSH2 0x383 JUMP JUMPDEST POP POP POP JUMP JUMPDEST JUMPDEST DUP2 DUP2 LT ISZERO PUSH2 0x3E2 JUMPI PUSH2 0x3D7 PUSH0 DUP3 PUSH2 0x3AC JUMP JUMPDEST PUSH1 0x1 DUP2 ADD SWAP1 POP PUSH2 0x3C5 JUMP JUMPDEST POP POP JUMP JUMPDEST PUSH1 0x1F DUP3 GT ISZERO PUSH2 0x427 JUMPI PUSH2 0x3F8 DUP2 PUSH2 0x2C9 JUMP JUMPDEST PUSH2 0x401 DUP5 PUSH2 0x2DB JUMP JUMPDEST DUP2 ADD PUSH1 0x20 DUP6 LT ISZERO PUSH2 0x410 JUMPI DUP2 SWAP1 POP JUMPDEST PUSH2 0x424 PUSH2 0x41C DUP6 PUSH2 0x2DB JUMP JUMPDEST DUP4 ADD DUP3 PUSH2 0x3C4 JUMP JUMPDEST POP POP JUMPDEST POP POP POP JUMP JUMPDEST PUSH0 DUP3 DUP3 SHR SWAP1 POP SWAP3 SWAP2 POP POP JUMP JUMPDEST PUSH0 PUSH2 0x447 PUSH0 NOT DUP5 PUSH1 0x8 MUL PUSH2 0x42C JUMP JUMPDEST NOT DUP1 DUP4 AND SWAP2 POP POP SWAP3 SWAP2 POP POP JUMP JUMPDEST PUSH0 PUSH2 0x45F DUP4 DUP4 PUSH2 0x438 JUMP JUMPDEST SWAP2 POP DUP3 PUSH1 0x2 MUL DUP3 OR SWAP1 POP SWAP3 SWAP2 POP POP JUMP JUMPDEST PUSH2 0x478 DUP3 PUSH2 0x235 JUMP JUMPDEST PUSH8 0xFFFFFFFFFFFFFFFF DUP2 GT ISZERO PUSH2 0x491 JUMPI PUSH2 0x490 PUSH2 0x23F JUMP JUMPDEST JUMPDEST PUSH2 0x49B DUP3 SLOAD PUSH2 0x299 JUMP JUMPDEST PUSH2 0x4A6 DUP3 DUP3 DUP6 PUSH2 0x3E6 JUMP JUMPDEST PUSH0 PUSH1 0x20 SWAP1 POP PUSH1 0x1F DUP4 GT PUSH1 0x1 DUP2 EQ PUSH2 0x4D7 JUMPI PUSH0 DUP5 ISZERO PUSH2 0x4C5 JUMPI DUP3 DUP8 ADD MLOAD SWAP1 POP JUMPDEST PUSH2 0x4CF DUP6 DUP3 PUSH2 0x454 JUMP JUMPDEST DUP7 SSTORE POP PUSH2 0x536 JUMP JUMPDEST PUSH1 0x1F NOT DUP5 AND PUSH2 0x4E5 DUP7 PUSH2 0x2C9 JUMP JUMPDEST PUSH0 JUMPDEST DUP3 DUP2 LT ISZERO PUSH2 0x50C JUMPI DUP5 DUP10 ADD MLOAD DUP3 SSTORE PUSH1 0x1 DUP3 ADD SWAP2 POP PUSH1 0x20 DUP6 ADD SWAP5 POP PUSH1 0x20 DUP2 ADD SWAP1 POP PUSH2 0x4E7 JUMP JUMPDEST DUP7 DUP4 LT ISZERO PUSH2 0x529 JUMPI DUP5 DUP10 ADD MLOAD PUSH2 0x525 PUSH1 0x1F DUP10 AND DUP3 PUSH2 0x438 JUMP JUMPDEST DUP4 SSTORE POP JUMPDEST PUSH1 0x1 PUSH1 0x2 DUP9 MUL ADD DUP9 SSTORE POP POP POP JUMPDEST POP POP POP POP POP POP JUMP JUMPDEST PUSH2 0x7C7 DUP1 PUSH2 0x54B PUSH0 CODECOPY PUSH0 RETURN INVALID PUSH1 0x80 PUSH1 0x40 MSTORE CALLVALUE DUP1 ISZERO PUSH2 0xF JUMPI PUSH0 DUP1 REVERT JUMPDEST POP PUSH1 0x4 CALLDATASIZE LT PUSH2 0x114 JUMPI PUSH0 CALLDATALOAD PUSH1 0xE0 SHR DUP1 PUSH4 0x7E4E14CC GT PUSH2 0xA0 JUMPI DUP1 PUSH4 0xC15BAE84 GT PUSH2 0x6F JUMPI DUP1 PUSH4 0xC15BAE84 EQ PUSH2 0x29E JUMPI DUP1 PUSH4 0xC6A898C5 EQ PUSH2 0x2BC JUMPI DUP1 PUSH4 0xE5AA3D58 EQ PUSH2 0x2DA JUMPI DUP1 PUSH4 0xEE495002 EQ PUSH2 0x2F8 JUMPI DUP1 PUSH4 0xF2427D37 EQ PUSH2 0x316 JUMPI PUSH2 0x114 JUMP JUMPDEST DUP1 PUSH4 0x7E4E14CC EQ PUSH2 0x226 JUMPI DUP1 PUSH4 0x921CDA74 EQ PUSH2 0x244 JUMPI DUP1 PUSH4 0xAB3A58A3 EQ PUSH2 0x262 JUMPI DUP1 PUSH4 0xB69EF8A8 EQ PUSH2 0x280 JUMPI PUSH2 0x114 JUMP JUMPDEST DUP1 PUSH4 0x4B3DF200 GT PUSH2 0xE7 JUMPI DUP1 PUSH4 0x4B3DF200 EQ PUSH2 0x190 JUMPI DUP1 PUSH4 0x4C27FD62 EQ PUSH2 0x1AE JUMPI DUP1 PUSH4 0x5ABE622B EQ PUSH2 0x1CC JUMPI DUP1 PUSH4 0x767800DE EQ PUSH2 0x1EA JUMPI DUP1 PUSH4 0x7A4C2571 EQ PUSH2 0x208 JUMPI PUSH2 0x114 JUMP JUMPDEST DUP1 PUSH4 0x74EEF3F EQ PUSH2 0x118 JUMPI DUP1 PUSH4 0xADD6EF2 EQ PUSH2 0x136 JUMPI DUP1 PUSH4 0x1570C2CB EQ PUSH2 0x154 JUMPI DUP1 PUSH4 0x459B1ACF EQ PUSH2 0x172 JUMPI JUMPDEST PUSH0 DUP1 REVERT JUMPDEST PUSH2 0x120 PUSH2 0x334 JUMP JUMPDEST PUSH1 0x40 MLOAD PUSH2 0x12D SWAP2 SWAP1 PUSH2 0x4C4 JUMP JUMPDEST PUSH1 0x40 MLOAD DUP1 SWAP2 SUB SWAP1 RETURN JUMPDEST PUSH2 0x13E PUSH2 0x346 JUMP JUMPDEST PUSH1 0x40 MLOAD PUSH2 0x14B SWAP2 SWAP1 PUSH2 0x517 JUMP JUMPDEST PUSH1 0x40 MLOAD DUP1 SWAP2 SUB SWAP1 RETURN JUMPDEST PUSH2 0x15C PUSH2 0x359 JUMP JUMPDEST PUSH1 0x40 MLOAD PUSH2 0x169 SWAP2 SWAP1 PUSH2 0x548 JUMP JUMPDEST PUSH1 0x40 MLOAD DUP1 SWAP2 SUB SWAP1 RETURN JUMPDEST PUSH2 0x17A PUSH2 0x35F JUMP JUMPDEST PUSH1 0x40 MLOAD PUSH2 0x187 SWAP2 SWAP1 PUSH2 0x548 JUMP JUMPDEST PUSH1 0x40 MLOAD DUP1 SWAP2 SUB SWAP1 RETURN JUMPDEST PUSH2 0x198 PUSH2 0x365 JUMP JUMPDEST PUSH1 0x40 MLOAD PUSH2 0x1A5 SWAP2 SWAP1 PUSH2 0x4C4 JUMP JUMPDEST PUSH1 0x40 MLOAD DUP1 SWAP2 SUB SWAP1 RETURN JUMPDEST PUSH2 0x1B6 PUSH2 0x375 JUMP JUMPDEST PUSH1 0x40 MLOAD PUSH2 0x1C3 SWAP2 SWAP1 PUSH2 0x579 JUMP JUMPDEST PUSH1 0x40 MLOAD DUP1 SWAP2 SUB SWAP1 RETURN JUMPDEST PUSH2 0x1D4 PUSH2 0x37B JUMP JUMPDEST PUSH1 0x40 MLOAD PUSH2 0x1E1 SWAP2 SWAP1 PUSH2 0x579 JUMP JUMPDEST PUSH1 0x40 MLOAD DUP1 SWAP2 SUB SWAP1 RETURN JUMPDEST PUSH2 0x1F2 PUSH2 0x381 JUMP JUMPDEST PUSH1 0x40 MLOAD PUSH2 0x1FF SWAP2 SWAP1 PUSH2 0x5D1 JUMP JUMPDEST PUSH1 0x40 MLOAD DUP1 SWAP2 SUB SWAP1 RETURN JUMPDEST PUSH2 0x210 PUSH2 0x3A6 JUMP JUMPDEST PUSH1 0x40 MLOAD PUSH2 0x21D SWAP2 SWAP1 PUSH2 0x579 JUMP JUMPDEST PUSH1 0x40 MLOAD DUP1 SWAP2 SUB SWAP1 RETURN JUMPDEST PUSH2 0x22E PUSH2 0x3AC JUMP JUMPDEST PUSH1 0x40 MLOAD PUSH2 0x23B SWAP2 SWAP1 PUSH2 0x579 JUMP JUMPDEST PUSH1 0x40 MLOAD DUP1 SWAP2 SUB SWAP1 RETURN JUMPDEST PUSH2 0x24C PUSH2 0x3B2 JUMP JUMPDEST PUSH1 0x40 MLOAD PUSH2 0x259 SWAP2 SWAP1 PUSH2 0x604 JUMP JUMPDEST PUSH1 0x40 MLOAD DUP1 SWAP2 SUB SWAP1 RETURN JUMPDEST PUSH2 0x26A PUSH2 0x3C3 JUMP JUMPDEST PUSH1 0x40 MLOAD PUSH2 0x277 SWAP2 SWAP1 PUSH2 0x638 JUMP JUMPDEST PUSH1 0x40 MLOAD DUP1 SWAP2 SUB SWAP1 RETURN JUMPDEST PUSH2 0x288 PUSH2 0x3D5 JUMP JUMPDEST PUSH1 0x40 MLOAD PUSH2 0x295 SWAP2 SWAP1 PUSH2 0x548 JUMP JUMPDEST PUSH1 0x40 MLOAD DUP1 SWAP2 SUB SWAP1 RETURN JUMPDEST PUSH2 0x2A6 PUSH2 0x3DB JUMP JUMPDEST PUSH1 0x40 MLOAD PUSH2 0x2B3 SWAP2 SWAP1 PUSH2 0x6C1 JUMP JUMPDEST PUSH1 0x40 MLOAD DUP1 SWAP2 SUB SWAP1 RETURN JUMPDEST PUSH2 0x2C4 PUSH2 0x467 JUMP JUMPDEST PUSH1 0x40 MLOAD PUSH2 0x2D1 SWAP2 SWAP1 PUSH2 0x548 JUMP JUMPDEST PUSH1 0x40 MLOAD DUP1 SWAP2 SUB SWAP1 RETURN JUMPDEST PUSH2 0x2E2 PUSH2 0x46D JUMP JUMPDEST PUSH1 0x40 MLOAD PUSH2 0x2EF SWAP2 SWAP1 PUSH2 0x579 JUMP JUMPDEST PUSH1 0x40 MLOAD DUP1 SWAP2 SUB SWAP1 RETURN JUMPDEST PUSH2 0x300 PUSH2 0x473 JUMP JUMPDEST PUSH1 0x40 MLOAD PUSH2 0x30D SWAP2 SWAP1 PUSH2 0x71B JUMP JUMPDEST PUSH1 0x40 MLOAD DUP1 SWAP2 SUB SWAP1 RETURN JUMPDEST PUSH2 0x31E PUSH2 0x485 JUMP JUMPDEST PUSH1 0x40 MLOAD PUSH2 0x32B SWAP2 SWAP1 PUSH2 0x5D1 JUMP JUMPDEST PUSH1 0x40 MLOAD DUP1 SWAP2 SUB SWAP1 RETURN JUMPDEST PUSH1 0xC PUSH0 SWAP1 SLOAD SWAP1 PUSH2 0x100 EXP SWAP1 DIV PUSH1 0xFF AND DUP2 JUMP JUMPDEST PUSH1 0xA PUSH1 0x1 SWAP1 SLOAD SWAP1 PUSH2 0x100 EXP SWAP1 DIV PUSH1 0xF0 SHL DUP2 JUMP JUMPDEST PUSH1 0xD SLOAD DUP2 JUMP JUMPDEST PUSH1 0x1 SLOAD DUP2 JUMP JUMPDEST PUSH0 DUP1 SLOAD SWAP1 PUSH2 0x100 EXP SWAP1 DIV PUSH1 0xFF AND DUP2 JUMP JUMPDEST PUSH1 0x4 SLOAD DUP2 JUMP JUMPDEST PUSH1 0xE SLOAD DUP2 JUMP JUMPDEST PUSH1 0x8 PUSH0 SWAP1 SLOAD SWAP1 PUSH2 0x100 EXP SWAP1 DIV PUSH20 0xFFFFFFFFFFFFFFFFFFFFFFFFFFFFFFFFFFFFFFFF AND DUP2 JUMP JUMPDEST PUSH1 0x7 SLOAD DUP2 JUMP JUMPDEST PUSH1 0x6 SLOAD DUP2 JUMP JUMPDEST PUSH1 0x3 PUSH0 SWAP1 SLOAD SWAP1 PUSH2 0x100 EXP SWAP1 DIV PUSH0 SIGNEXTEND DUP2 JUMP JUMPDEST PUSH0 PUSH1 0x1 SWAP1 SLOAD SWAP1 PUSH2 0x100 EXP SWAP1 DIV PUSH1 0xFF AND DUP2 JUMP JUMPDEST PUSH1 0x9 SLOAD DUP2 JUMP JUMPDEST PUSH1 0xB DUP1 SLOAD PUSH2 0x3E8 SWAP1 PUSH2 0x761 JUMP JUMPDEST DUP1 PUSH1 0x1F ADD PUSH1 0x20 DUP1 SWAP2 DIV MUL PUSH1 0x20 ADD PUSH1 0x40 MLOAD SWAP1 DUP2 ADD PUSH1 0x40 MSTORE DUP1 SWAP3 SWAP2 SWAP1 DUP2 DUP2 MSTORE PUSH1 0x20 ADD DUP3 DUP1 SLOAD PUSH2 0x414 SWAP1 PUSH2 0x761 JUMP JUMPDEST DUP1 ISZERO PUSH2 0x45F JUMPI DUP1 PUSH1 0x1F LT PUSH2 0x436 JUMPI PUSH2 0x100 DUP1 DUP4 SLOAD DIV MUL DUP4 MSTORE SWAP2 PUSH1 0x20 ADD SWAP2 PUSH2 0x45F JUMP JUMPDEST DUP3 ADD SWAP2 SWAP1 PUSH0 MSTORE PUSH1 0x20 PUSH0 KECCAK256 SWAP1 JUMPDEST DUP2 SLOAD DUP2 MSTORE SWAP1 PUSH1 0x1 ADD SWAP1 PUSH1 0x20 ADD DUP1 DUP4 GT PUSH2 0x442 JUMPI DUP3 SWAP1 SUB PUSH1 0x1F AND DUP3 ADD SWAP2 JUMPDEST POP POP POP POP POP DUP2 JUMP JUMPDEST PUSH1 0x2 SLOAD DUP2 JUMP JUMPDEST PUSH1 0x5 SLOAD DUP2 JUMP JUMPDEST PUSH1 0xA PUSH0 SWAP1 SLOAD SWAP1 PUSH2 0x100 EXP SWAP1 DIV PUSH1 0xF8 SHL DUP2 JUMP JUMPDEST PUSH1 0xF PUSH0 SWAP1 SLOAD SWAP1 PUSH2 0x100 EXP SWAP1 DIV PUSH20 0xFFFFFFFFFFFFFFFFFFFFFFFFFFFFFFFFFFFFFFFF AND DUP2 JUMP JUMPDEST PUSH0 DUP2 ISZERO ISZERO SWAP1 POP SWAP2 SWAP1 POP JUMP JUMPDEST PUSH2 0x4BE DUP2 PUSH2 0x4AA JUMP JUMPDEST DUP3 MSTORE POP POP JUMP JUMPDEST PUSH0 PUSH1 0x20 DUP3 ADD SWAP1 POP PUSH2 0x4D7 PUSH0 DUP4 ADD DUP5 PUSH2 0x4B5 JUMP JUMPDEST SWAP3 SWAP2 POP POP JUMP JUMPDEST PUSH0 PUSH32 0xFFFF000000000000000000000000000000000000000000000000000000000000 DUP3 AND SWAP1 POP SWAP2 SWAP1 POP JUMP JUMPDEST PUSH2 0x511 DUP2 PUSH2 0x4DD JUMP JUMPDEST DUP3 MSTORE POP POP JUMP JUMPDEST PUSH0 PUSH1 0x20 DUP3 ADD SWAP1 POP PUSH2 0x52A PUSH0 DUP4 ADD DUP5 PUSH2 0x508 JUMP JUMPDEST SWAP3 SWAP2 POP POP JUMP JUMPDEST PUSH0 DUP2 SWAP1 POP SWAP2 SWAP1 POP JUMP JUMPDEST PUSH2 0x542 DUP2 PUSH2 0x530 JUMP JUMPDEST DUP3 MSTORE POP POP JUMP JUMPDEST PUSH0 PUSH1 0x20 DUP3 ADD SWAP1 POP PUSH2 0x55B PUSH0 DUP4 ADD DUP5 PUSH2 0x539 JUMP JUMPDEST SWAP3 SWAP2 POP POP JUMP JUMPDEST PUSH0 DUP2 SWAP1 POP SWAP2 SWAP1 POP JUMP JUMPDEST PUSH2 0x573 DUP2 PUSH2 0x561 JUMP JUMPDEST DUP3 MSTORE POP POP JUMP JUMPDEST PUSH0 PUSH1 0x20 DUP3 ADD SWAP1 POP PUSH2 0x58C PUSH0 DUP4 ADD DUP5 PUSH2 0x56A JUMP JUMPDEST SWAP3 SWAP2 POP POP JUMP JUMPDEST PUSH0 PUSH20 0xFFFFFFFFFFFFFFFFFFFFFFFFFFFFFFFFFFFFFFFF DUP3 AND SWAP1 POP SWAP2 SWAP1 POP JUMP JUMPDEST PUSH0 PUSH2 0x5BB DUP3 PUSH2 0x592 JUMP JUMPDEST SWAP1 POP SWAP2 SWAP1 POP JUMP JUMPDEST PUSH2 0x5CB DUP2 PUSH2 0x5B1 JUMP JUMPDEST DUP3 MSTORE POP POP JUMP JUMPDEST PUSH0 PUSH1 0x20 DUP3 ADD SWAP1 POP PUSH2 0x5E4 PUSH0 DUP4 ADD DUP5 PUSH2 0x5C2 JUMP JUMPDEST SWAP3 SWAP2 POP POP JUMP JUMPDEST PUSH0 DUP2 PUSH0 SIGNEXTEND SWAP1 POP SWAP2 SWAP1 POP JUMP JUMPDEST PUSH2 0x5FE DUP2 PUSH2 0x5EA JUMP JUMPDEST DUP3 MSTORE POP POP JUMP JUMPDEST PUSH0 PUSH1 0x20 DUP3 ADD SWAP1 POP PUSH2 0x617 PUSH0 DUP4 ADD DUP5 PUSH2 0x5F5 JUMP JUMPDEST SWAP3 SWAP2 POP POP JUMP JUMPDEST PUSH0 PUSH1 0xFF DUP3 AND SWAP1 POP SWAP2 SWAP1 POP JUMP JUMPDEST PUSH2 0x632 DUP2 PUSH2 0x61D JUMP JUMPDEST DUP3 MSTORE POP POP JUMP JUMPDEST PUSH0 PUSH1 0x20 DUP3 ADD SWAP1 POP PUSH2 0x64B PUSH0 DUP4 ADD DUP5 PUSH2 0x629 JUMP JUMPDEST SWAP3 SWAP2 POP POP JUMP JUMPDEST PUSH0 DUP2 MLOAD SWAP1 POP SWAP2 SWAP1 POP JUMP JUMPDEST PUSH0 DUP3 DUP3 MSTORE PUSH1 0x20 DUP3 ADD SWAP1 POP SWAP3 SWAP2 POP POP JUMP JUMPDEST DUP3 DUP2 DUP4 MCOPY PUSH0 DUP4 DUP4 ADD MSTORE POP POP POP JUMP JUMPDEST PUSH0 PUSH1 0x1F NOT PUSH1 0x1F DUP4 ADD AND SWAP1 POP SWAP2 SWAP1 POP JUMP JUMPDEST PUSH0 PUSH2 0x693 DUP3 PUSH2 0x651 JUMP JUMPDEST PUSH2 0x69D DUP2 DUP6 PUSH2 0x65B JUMP JUMPDEST SWAP4 POP PUSH2 0x6AD DUP2 DUP6 PUSH1 0x20 DUP7 ADD PUSH2 0x66B JUMP JUMPDEST PUSH2 0x6B6 DUP2 PUSH2 0x679 JUMP JUMPDEST DUP5 ADD SWAP2 POP POP SWAP3 SWAP2 POP POP JUMP JUMPDEST PUSH0 PUSH1 0x20 DUP3 ADD SWAP1 POP DUP2 DUP2 SUB PUSH0 DUP4 ADD MSTORE PUSH2 0x6D9 DUP2 DUP5 PUSH2 0x689 JUMP JUMPDEST SWAP1 POP SWAP3 SWAP2 POP POP JUMP JUMPDEST PUSH0 PUSH32 0xFF00000000000000000000000000000000000000000000000000000000000000 DUP3 AND SWAP1 POP SWAP2 SWAP1 POP JUMP JUMPDEST PUSH2 0x715 DUP2 PUSH2 0x6E1 JUMP JUMPDEST DUP3 MSTORE POP POP JUMP JUMPDEST PUSH0 PUSH1 0x20 DUP3 ADD SWAP1 POP PUSH2 0x72E PUSH0 DUP4 ADD DUP5 PUSH2 0x70C JUMP JUMPDEST SWAP3 SWAP2 POP POP JUMP JUMPDEST PUSH32 0x4E487B7100000000000000000000000000000000000000000000000000000000 PUSH0 MSTORE PUSH1 0x22 PUSH1 0x4 MSTORE PUSH1 0x24 PUSH0 REVERT JUMPDEST PUSH0 PUSH1 0x2 DUP3 DIV SWAP1 POP PUSH1 0x1 DUP3 AND DUP1 PUSH2 0x778 JUMPI PUSH1 0x7F DUP3 AND SWAP2 POP JUMPDEST PUSH1 0x20 DUP3 LT DUP2 SUB PUSH2 0x78B JUMPI PUSH2 0x78A PUSH2 0x734 JUMP JUMPDEST JUMPDEST POP SWAP2 SWAP1 POP JUMP INVALID LOG2 PUSH5 0x6970667358 0x22 SLT KECCAK256 PUSH26 0x2ADC6149C3640D2E2A1E4C5ABD3F12304099431BC3BFE421A571 0x2B 0xEB EXTCODECOPY JUMPI BLOCKHASH PUSH5 0x736F6C6343 STOP ADDMOD NOT STOP CALLER "
				},
				"gasEstimates": {
					"creation": {
						"codeDepositCost": "398200",
						"executionCost": "infinite",
						"totalCost": "infinite"
					},
					"external": {
						"addr()": "2597",
						"b1()": "2554",
						"b2()": "2563",
						"balance()": "2514",
						"boo()": "2486",
						"defaultAddr()": "2618",
						"defaultBoo()": "2490",
						"defaultInt()": "2492",
						"defaultUint()": "2493",
						"i()": "2491",
						"i256()": "2470",
						"i8()": "2513",
						"maxInt()": "2536",
						"minInt()": "2448",
						"str()": "infinite",
						"u()": "2469",
						"u256()": "2515",
						"u8()": "2583"
					}
				},
				"methodIdentifiers": {
					"addr()": "767800de",
					"b1()": "ee495002",
					"b2()": "0add6ef2",
					"balance()": "b69ef8a8",
					"boo()": "4b3df200",
					"defaultAddr()": "f2427d37",
					"defaultBoo()": "074eef3f",
					"defaultInt()": "5abe622b",
					"defaultUint()": "1570c2cb",
					"i()": "e5aa3d58",
					"i256()": "4c27fd62",
					"i8()": "921cda74",
					"maxInt()": "7a4c2571",
					"minInt()": "7e4e14cc",
					"str()": "c15bae84",
					"u()": "c6a898c5",
					"u256()": "459b1acf",
					"u8()": "ab3a58a3"
				}
			},
			"storageLayout": {
				"storage": [
					{
						"astId": 4,
						"contract": "contracts/DataType.sol:DataTypes",
						"label": "boo",
						"offset": 0,
						"slot": "0",
						"type": "t_bool"
					},
					{
						"astId": 7,
						"contract": "contracts/DataType.sol:DataTypes",
						"label": "u8",
						"offset": 1,
						"slot": "0",
						"type": "t_uint8"
					},
					{
						"astId": 10,
						"contract": "contracts/DataType.sol:DataTypes",
						"label": "u256",
						"offset": 0,
						"slot": "1",
						"type": "t_uint256"
					},
					{
						"astId": 13,
						"contract": "contracts/DataType.sol:DataTypes",
						"label": "u",
						"offset": 0,
						"slot": "2",
						"type": "t_uint256"
					},
					{
						"astId": 17,
						"contract": "contracts/DataType.sol:DataTypes",
						"label": "i8",
						"offset": 0,
						"slot": "3",
						"type": "t_int8"
					},
					{
						"astId": 21,
						"contract": "contracts/DataType.sol:DataTypes",
						"label": "i256",
						"offset": 0,
						"slot": "4",
						"type": "t_int256"
					},
					{
						"astId": 25,
						"contract": "contracts/DataType.sol:DataTypes",
						"label": "i",
						"offset": 0,
						"slot": "5",
						"type": "t_int256"
					},
					{
						"astId": 32,
						"contract": "contracts/DataType.sol:DataTypes",
						"label": "minInt",
						"offset": 0,
						"slot": "6",
						"type": "t_int256"
					},
					{
						"astId": 39,
						"contract": "contracts/DataType.sol:DataTypes",
						"label": "maxInt",
						"offset": 0,
						"slot": "7",
						"type": "t_int256"
					},
					{
						"astId": 42,
						"contract": "contracts/DataType.sol:DataTypes",
						"label": "addr",
						"offset": 0,
						"slot": "8",
						"type": "t_address"
					},
					{
						"astId": 46,
						"contract": "contracts/DataType.sol:DataTypes",
						"label": "balance",
						"offset": 0,
						"slot": "9",
						"type": "t_uint256"
					},
					{
						"astId": 49,
						"contract": "contracts/DataType.sol:DataTypes",
						"label": "b1",
						"offset": 0,
						"slot": "10",
						"type": "t_bytes1"
					},
					{
						"astId": 52,
						"contract": "contracts/DataType.sol:DataTypes",
						"label": "b2",
						"offset": 1,
						"slot": "10",
						"type": "t_bytes2"
					},
					{
						"astId": 55,
						"contract": "contracts/DataType.sol:DataTypes",
						"label": "str",
						"offset": 0,
						"slot": "11",
						"type": "t_string_storage"
					},
					{
						"astId": 57,
						"contract": "contracts/DataType.sol:DataTypes",
						"label": "defaultBoo",
						"offset": 0,
						"slot": "12",
						"type": "t_bool"
					},
					{
						"astId": 59,
						"contract": "contracts/DataType.sol:DataTypes",
						"label": "defaultUint",
						"offset": 0,
						"slot": "13",
						"type": "t_uint256"
					},
					{
						"astId": 61,
						"contract": "contracts/DataType.sol:DataTypes",
						"label": "defaultInt",
						"offset": 0,
						"slot": "14",
						"type": "t_int256"
					},
					{
						"astId": 63,
						"contract": "contracts/DataType.sol:DataTypes",
						"label": "defaultAddr",
						"offset": 0,
						"slot": "15",
						"type": "t_address"
					}
				],
				"types": {
					"t_address": {
						"encoding": "inplace",
						"label": "address",
						"numberOfBytes": "20"
					},
					"t_bool": {
						"encoding": "inplace",
						"label": "bool",
						"numberOfBytes": "1"
					},
					"t_bytes1": {
						"encoding": "inplace",
						"label": "bytes1",
						"numberOfBytes": "1"
					},
					"t_bytes2": {
						"encoding": "inplace",
						"label": "bytes2",
						"numberOfBytes": "2"
					},
					"t_int256": {
						"encoding": "inplace",
						"label": "int256",
						"numberOfBytes": "32"
					},
					"t_int8": {
						"encoding": "inplace",
						"label": "int8",
						"numberOfBytes": "1"
					},
					"t_string_storage": {
						"encoding": "bytes",
						"label": "string",
						"numberOfBytes": "32"
					},
					"t_uint256": {
						"encoding": "inplace",
						"label": "uint256",
						"numberOfBytes": "32"
					},
					"t_uint8": {
						"encoding": "inplace",
						"label": "uint8",
						"numberOfBytes": "1"
					}
				}
			},
			"userdoc": {
				"kind": "user",
				"methods": {},
				"version": 1
			}
		}
	}
}