{
	"contracts/DataStorage.sol": {
		"DataStorages": {
			"abi": [
				{
					"inputs": [
						{
							"internalType": "uint256",
							"name": "",
							"type": "uint256"
						}
					],
					"name": "arr",
					"outputs": [
						{
							"internalType": "uint256",
							"name": "",
							"type": "uint256"
						}
					],
					"stateMutability": "view",
					"type": "function"
				},
				{
					"inputs": [],
					"name": "bs",
					"outputs": [
						{
							"internalType": "bytes",
							"name": "",
							"type": "bytes"
						}
					],
					"stateMutability": "view",
					"type": "function"
				},
				{
					"inputs": [
						{
							"internalType": "uint256[]",
							"name": "_arr",
							"type": "uint256[]"
						}
					],
					"name": "setArry",
					"outputs": [],
					"stateMutability": "nonpayable",
					"type": "function"
				},
				{
					"inputs": [
						{
							"internalType": "bytes",
							"name": "_bs",
							"type": "bytes"
						}
					],
					"name": "setBytes",
					"outputs": [],
					"stateMutability": "nonpayable",
					"type": "function"
				},
				{
					"inputs": [
						{
							"internalType": "string",
							"name": "_str",
							"type": "string"
						}
					],
					"name": "setString",
					"outputs": [],
					"stateMutability": "nonpayable",
					"type": "function"
				},
				{
					"inputs": [
						{
							"components": [
								{
									"internalType": "string",
									"name": "name",
									"type": "string"
								},
								{
									"internalType": "uint256",
									"name": "score",
									"type": "uint256"
								}
							],
							"internalType": "struct DataStorages.Student",
							"name": "_student",
							"type": "tuple"
						}
					],
					"name": "setStruct",
					"outputs": [],
					"stateMutability": "nonpayable",
					"type": "function"
				},
				{
					"inputs": [],
					"name": "str",
					"outputs": [
						{
							"internalType": "string",
							"name": "",
							"type": "string"
						}
					],
					"stateMutability": "view",
					"type": "function"
				},
				{
					"inputs": [
						{
							"internalType": "uint256",
							"name": "",
							"type": "uint256"
						}
					],
					"name": "students",
					"outputs": [
						{
							"internalType": "string",
							"name": "name",
							"type": "string"
						},
						{
							"internalType": "uint256",
							"name": "score",
							"type": "uint256"
						}
					],
					"stateMutability": "view",
					"type": "function"
				},
				{
					"inputs": [],
					"name": "test",
					"outputs": [
						{
							"internalType": "uint256",
							"name": "",
							"type": "uint256"
						}
					],
					"stateMutability": "view",
					"type": "function"
				}
			],
			"devdoc": {
				"kind": "dev",
				"methods": {},
				"version": 1
			},
			"evm": {
				"assembly": "    /* \"contracts/DataStorage.sol\":91:1612  contract DataStorages {... */\n  mstore(0x40, 0x80)\n  callvalue\n  dup1\n  iszero\n  tag_1\n  jumpi\n  0x00\n  dup1\n  revert\ntag_1:\n  pop\n  dataSize(sub_0)\n  dup1\n  dataOffset(sub_0)\n  0x00\n  codecopy\n  0x00\n  return\nstop\n\nsub_0: assembly {\n        /* \"contracts/DataStorage.sol\":91:1612  contract DataStorages {... */\n      mstore(0x40, 0x80)\n      callvalue\n      dup1\n      iszero\n      tag_1\n      jumpi\n      0x00\n      dup1\n      revert\n    tag_1:\n      pop\n      jumpi(tag_2, lt(calldatasize, 0x04))\n      shr(0xe0, calldataload(0x00))\n      dup1\n      0x7fcaf666\n      gt\n      tag_12\n      jumpi\n      dup1\n      0x7fcaf666\n      eq\n      tag_7\n      jumpi\n      dup1\n      0xc15bae84\n      eq\n      tag_8\n      jumpi\n      dup1\n      0xc5155566\n      eq\n      tag_9\n      jumpi\n      dup1\n      0xda359dc8\n      eq\n      tag_10\n      jumpi\n      dup1\n      0xf8a8fd6d\n      eq\n      tag_11\n      jumpi\n      jump(tag_2)\n    tag_12:\n      dup1\n      0x06ead22e\n      eq\n      tag_3\n      jumpi\n      dup1\n      0x1e5c08c1\n      eq\n      tag_4\n      jumpi\n      dup1\n      0x5478a4dc\n      eq\n      tag_5\n      jumpi\n      dup1\n      0x71e5ee5f\n      eq\n      tag_6\n      jumpi\n    tag_2:\n      0x00\n      dup1\n      revert\n        /* \"contracts/DataStorage.sol\":334:359  Student[] public students */\n    tag_3:\n      tag_13\n      0x04\n      dup1\n      calldatasize\n      sub\n      dup2\n      add\n      swap1\n      tag_14\n      swap2\n      swap1\n      tag_15\n      jump\t// in\n    tag_14:\n      tag_16\n      jump\t// in\n    tag_13:\n      mload(0x40)\n      tag_17\n      swap3\n      swap2\n      swap1\n      tag_18\n      jump\t// in\n    tag_17:\n      mload(0x40)\n      dup1\n      swap2\n      sub\n      swap1\n      return\n        /* \"contracts/DataStorage.sol\":1209:1304  function setStruct(Student calldata _student) public {... */\n    tag_4:\n      tag_19\n      0x04\n      dup1\n      calldatasize\n      sub\n      dup2\n      add\n      swap1\n      tag_20\n      swap2\n      swap1\n      tag_21\n      jump\t// in\n    tag_20:\n      tag_22\n      jump\t// in\n    tag_19:\n      stop\n        /* \"contracts/DataStorage.sol\":181:196  bytes public bs */\n    tag_5:\n      tag_23\n      tag_24\n      jump\t// in\n    tag_23:\n      mload(0x40)\n      tag_25\n      swap2\n      swap1\n      tag_26\n      jump\t// in\n    tag_25:\n      mload(0x40)\n      dup1\n      swap2\n      sub\n      swap1\n      return\n        /* \"contracts/DataStorage.sol\":203:220  uint[] public arr */\n    tag_6:\n      tag_27\n      0x04\n      dup1\n      calldatasize\n      sub\n      dup2\n      add\n      swap1\n      tag_28\n      swap2\n      swap1\n      tag_15\n      jump\t// in\n    tag_28:\n      tag_29\n      jump\t// in\n    tag_27:\n      mload(0x40)\n      tag_30\n      swap2\n      swap1\n      tag_31\n      jump\t// in\n    tag_30:\n      mload(0x40)\n      dup1\n      swap2\n      sub\n      swap1\n      return\n        /* \"contracts/DataStorage.sol\":814:892  function setString(string calldata _str) public { ... */\n    tag_7:\n      tag_32\n      0x04\n      dup1\n      calldatasize\n      sub\n      dup2\n      add\n      swap1\n      tag_33\n      swap2\n      swap1\n      tag_34\n      jump\t// in\n    tag_33:\n      tag_35\n      jump\t// in\n    tag_32:\n      stop\n        /* \"contracts/DataStorage.sol\":156:173  string public str */\n    tag_8:\n      tag_36\n      tag_37\n      jump\t// in\n    tag_36:\n      mload(0x40)\n      tag_38\n      swap2\n      swap1\n      tag_39\n      jump\t// in\n    tag_38:\n      mload(0x40)\n      dup1\n      swap2\n      sub\n      swap1\n      return\n        /* \"contracts/DataStorage.sol\":1029:1171  function setArry(uint[] memory _arr) public {... */\n    tag_9:\n      tag_40\n      0x04\n      dup1\n      calldatasize\n      sub\n      dup2\n      add\n      swap1\n      tag_41\n      swap2\n      swap1\n      tag_42\n      jump\t// in\n    tag_41:\n      tag_43\n      jump\t// in\n    tag_40:\n      stop\n        /* \"contracts/DataStorage.sol\":927:997  function setBytes(bytes memory _bs) public {... */\n    tag_10:\n      tag_44\n      0x04\n      dup1\n      calldatasize\n      sub\n      dup2\n      add\n      swap1\n      tag_45\n      swap2\n      swap1\n      tag_46\n      jump\t// in\n    tag_45:\n      tag_47\n      jump\t// in\n    tag_44:\n      stop\n        /* \"contracts/DataStorage.sol\":1525:1607  function test() public view returns(uint) {... */\n    tag_11:\n      tag_48\n      tag_49\n      jump\t// in\n    tag_48:\n      mload(0x40)\n      tag_50\n      swap2\n      swap1\n      tag_31\n      jump\t// in\n    tag_50:\n      mload(0x40)\n      dup1\n      swap2\n      sub\n      swap1\n      return\n        /* \"contracts/DataStorage.sol\":334:359  Student[] public students */\n    tag_16:\n      0x04\n      dup2\n      dup2\n      sload\n      dup2\n      lt\n      tag_51\n      jumpi\n      0x00\n      dup1\n      revert\n    tag_51:\n      swap1\n      0x00\n      mstore\n      keccak256(0x00, 0x20)\n      swap1\n      0x02\n      mul\n      add\n      0x00\n      swap2\n      pop\n      swap1\n      pop\n      dup1\n      0x00\n      add\n      dup1\n      sload\n      tag_53\n      swap1\n      tag_54\n      jump\t// in\n    tag_53:\n      dup1\n      0x1f\n      add\n      0x20\n      dup1\n      swap2\n      div\n      mul\n      0x20\n      add\n      mload(0x40)\n      swap1\n      dup2\n      add\n      0x40\n      mstore\n      dup1\n      swap3\n      swap2\n      swap1\n      dup2\n      dup2\n      mstore\n      0x20\n      add\n      dup3\n      dup1\n      sload\n      tag_55\n      swap1\n      tag_54\n      jump\t// in\n    tag_55:\n      dup1\n      iszero\n      tag_56\n      jumpi\n      dup1\n      0x1f\n      lt\n      tag_57\n      jumpi\n      0x0100\n      dup1\n      dup4\n      sload\n      div\n      mul\n      dup4\n      mstore\n      swap2\n      0x20\n      add\n      swap2\n      jump(tag_56)\n    tag_57:\n      dup3\n      add\n      swap2\n      swap1\n      0x00\n      mstore\n      keccak256(0x00, 0x20)\n      swap1\n    tag_58:\n      dup2\n      sload\n      dup2\n      mstore\n      swap1\n      0x01\n      add\n      swap1\n      0x20\n      add\n      dup1\n      dup4\n      gt\n      tag_58\n      jumpi\n      dup3\n      swap1\n      sub\n      0x1f\n      and\n      dup3\n      add\n      swap2\n    tag_56:\n      pop\n      pop\n      pop\n      pop\n      pop\n      swap1\n      dup1\n      0x01\n      add\n      sload\n      swap1\n      pop\n      dup3\n      jump\t// out\n        /* \"contracts/DataStorage.sol\":1209:1304  function setStruct(Student calldata _student) public {... */\n    tag_22:\n        /* \"contracts/DataStorage.sol\":1273:1281  students */\n      0x04\n        /* \"contracts/DataStorage.sol\":1287:1295  _student */\n      dup2\n        /* \"contracts/DataStorage.sol\":1273:1296  students.push(_student) */\n      swap1\n      dup1\n      0x01\n      dup2\n      sload\n      add\n      dup1\n      dup3\n      sstore\n      dup1\n      swap2\n      pop\n      pop\n      0x01\n      swap1\n      sub\n      swap1\n      0x00\n      mstore\n      keccak256(0x00, 0x20)\n      swap1\n      0x02\n      mul\n      add\n      0x00\n      swap1\n      swap2\n      swap1\n      swap2\n      swap1\n      swap2\n      pop\n      dup2\n      dup2\n      tag_61\n      swap2\n      swap1\n      tag_62\n      jump\t// in\n    tag_61:\n      pop\n      pop\n        /* \"contracts/DataStorage.sol\":1209:1304  function setStruct(Student calldata _student) public {... */\n      pop\n      jump\t// out\n        /* \"contracts/DataStorage.sol\":181:196  bytes public bs */\n    tag_24:\n      0x01\n      dup1\n      sload\n      tag_63\n      swap1\n      tag_54\n      jump\t// in\n    tag_63:\n      dup1\n      0x1f\n      add\n      0x20\n      dup1\n      swap2\n      div\n      mul\n      0x20\n      add\n      mload(0x40)\n      swap1\n      dup2\n      add\n      0x40\n      mstore\n      dup1\n      swap3\n      swap2\n      swap1\n      dup2\n      dup2\n      mstore\n      0x20\n      add\n      dup3\n      dup1\n      sload\n      tag_64\n      swap1\n      tag_54\n      jump\t// in\n    tag_64:\n      dup1\n      iszero\n      tag_65\n      jumpi\n      dup1\n      0x1f\n      lt\n      tag_66\n      jumpi\n      0x0100\n      dup1\n      dup4\n      sload\n      div\n      mul\n      dup4\n      mstore\n      swap2\n      0x20\n      add\n      swap2\n      jump(tag_65)\n    tag_66:\n      dup3\n      add\n      swap2\n      swap1\n      0x00\n      mstore\n      keccak256(0x00, 0x20)\n      swap1\n    tag_67:\n      dup2\n      sload\n      dup2\n      mstore\n      swap1\n      0x01\n      add\n      swap1\n      0x20\n      add\n      dup1\n      dup4\n      gt\n      tag_67\n      jumpi\n      dup3\n      swap1\n      sub\n      0x1f\n      and\n      dup3\n      add\n      swap2\n    tag_65:\n      pop\n      pop\n      pop\n      pop\n      pop\n      dup2\n      jump\t// out\n        /* \"contracts/DataStorage.sol\":203:220  uint[] public arr */\n    tag_29:\n      0x02\n      dup2\n      dup2\n      sload\n      dup2\n      lt\n      tag_68\n      jumpi\n      0x00\n      dup1\n      revert\n    tag_68:\n      swap1\n      0x00\n      mstore\n      keccak256(0x00, 0x20)\n      add\n      0x00\n      swap2\n      pop\n      swap1\n      pop\n      sload\n      dup2\n      jump\t// out\n        /* \"contracts/DataStorage.sol\":814:892  function setString(string calldata _str) public { ... */\n    tag_35:\n        /* \"contracts/DataStorage.sol\":880:884  _str */\n      dup2\n      dup2\n        /* \"contracts/DataStorage.sol\":874:877  str */\n      0x00\n        /* \"contracts/DataStorage.sol\":874:884  str = _str */\n      swap2\n      dup3\n      tag_71\n      swap3\n      swap2\n      swap1\n      tag_72\n      jump\t// in\n    tag_71:\n      pop\n        /* \"contracts/DataStorage.sol\":814:892  function setString(string calldata _str) public { ... */\n      pop\n      pop\n      jump\t// out\n        /* \"contracts/DataStorage.sol\":156:173  string public str */\n    tag_37:\n      0x00\n      dup1\n      sload\n      tag_73\n      swap1\n      tag_54\n      jump\t// in\n    tag_73:\n      dup1\n      0x1f\n      add\n      0x20\n      dup1\n      swap2\n      div\n      mul\n      0x20\n      add\n      mload(0x40)\n      swap1\n      dup2\n      add\n      0x40\n      mstore\n      dup1\n      swap3\n      swap2\n      swap1\n      dup2\n      dup2\n      mstore\n      0x20\n      add\n      dup3\n      dup1\n      sload\n      tag_74\n      swap1\n      tag_54\n      jump\t// in\n    tag_74:\n      dup1\n      iszero\n      tag_75\n      jumpi\n      dup1\n      0x1f\n      lt\n      tag_76\n      jumpi\n      0x0100\n      dup1\n      dup4\n      sload\n      div\n      mul\n      dup4\n      mstore\n      swap2\n      0x20\n      add\n      swap2\n      jump(tag_75)\n    tag_76:\n      dup3\n      add\n      swap2\n      swap1\n      0x00\n      mstore\n      keccak256(0x00, 0x20)\n      swap1\n    tag_77:\n      dup2\n      sload\n      dup2\n      mstore\n      swap1\n      0x01\n      add\n      swap1\n      0x20\n      add\n      dup1\n      dup4\n      gt\n      tag_77\n      jumpi\n      dup3\n      swap1\n      sub\n      0x1f\n      and\n      dup3\n      add\n      swap2\n    tag_75:\n      pop\n      pop\n      pop\n      pop\n      pop\n      dup2\n      jump\t// out\n        /* \"contracts/DataStorage.sol\":1029:1171  function setArry(uint[] memory _arr) public {... */\n    tag_43:\n        /* \"contracts/DataStorage.sol\":1089:1095  uint i */\n      0x00\n        /* \"contracts/DataStorage.sol\":1084:1164  for (uint i = 0; i<_arr.length; i++){... */\n    tag_79:\n        /* \"contracts/DataStorage.sol\":1103:1107  _arr */\n      dup2\n        /* \"contracts/DataStorage.sol\":1103:1114  _arr.length */\n      mload\n        /* \"contracts/DataStorage.sol\":1101:1102  i */\n      dup2\n        /* \"contracts/DataStorage.sol\":1101:1114  i<_arr.length */\n      lt\n        /* \"contracts/DataStorage.sol\":1084:1164  for (uint i = 0; i<_arr.length; i++){... */\n      iszero\n      tag_80\n      jumpi\n        /* \"contracts/DataStorage.sol\":1135:1138  arr */\n      0x02\n        /* \"contracts/DataStorage.sol\":1144:1148  _arr */\n      dup3\n        /* \"contracts/DataStorage.sol\":1149:1150  i */\n      dup3\n        /* \"contracts/DataStorage.sol\":1144:1151  _arr[i] */\n      dup2\n      mload\n      dup2\n      lt\n      tag_82\n      jumpi\n      tag_83\n      tag_84\n      jump\t// in\n    tag_83:\n    tag_82:\n      0x20\n      mul\n      0x20\n      add\n      add\n      mload\n        /* \"contracts/DataStorage.sol\":1135:1152  arr.push(_arr[i]) */\n      swap1\n      dup1\n      0x01\n      dup2\n      sload\n      add\n      dup1\n      dup3\n      sstore\n      dup1\n      swap2\n      pop\n      pop\n      0x01\n      swap1\n      sub\n      swap1\n      0x00\n      mstore\n      keccak256(0x00, 0x20)\n      add\n      0x00\n      swap1\n      swap2\n      swap1\n      swap2\n      swap1\n      swap2\n      pop\n      sstore\n        /* \"contracts/DataStorage.sol\":1116:1119  i++ */\n      dup1\n      dup1\n      0x01\n      add\n      swap2\n      pop\n      pop\n        /* \"contracts/DataStorage.sol\":1084:1164  for (uint i = 0; i<_arr.length; i++){... */\n      jump(tag_79)\n    tag_80:\n      pop\n        /* \"contracts/DataStorage.sol\":1029:1171  function setArry(uint[] memory _arr) public {... */\n      pop\n      jump\t// out\n        /* \"contracts/DataStorage.sol\":927:997  function setBytes(bytes memory _bs) public {... */\n    tag_47:\n        /* \"contracts/DataStorage.sol\":986:989  _bs */\n      dup1\n        /* \"contracts/DataStorage.sol\":981:983  bs */\n      0x01\n        /* \"contracts/DataStorage.sol\":981:989  bs = _bs */\n      swap1\n      dup2\n      tag_87\n      swap2\n      swap1\n      tag_88\n      jump\t// in\n    tag_87:\n      pop\n        /* \"contracts/DataStorage.sol\":927:997  function setBytes(bytes memory _bs) public {... */\n      pop\n      jump\t// out\n        /* \"contracts/DataStorage.sol\":1525:1607  function test() public view returns(uint) {... */\n    tag_49:\n        /* \"contracts/DataStorage.sol\":1561:1565  uint */\n      0x00\n        /* \"contracts/DataStorage.sol\":1585:1599  getlength(arr) */\n      tag_90\n        /* \"contracts/DataStorage.sol\":1595:1598  arr */\n      0x02\n        /* \"contracts/DataStorage.sol\":1585:1594  getlength */\n      tag_91\n        /* \"contracts/DataStorage.sol\":1585:1599  getlength(arr) */\n      jump\t// in\n    tag_90:\n        /* \"contracts/DataStorage.sol\":1578:1599  return getlength(arr) */\n      swap1\n      pop\n        /* \"contracts/DataStorage.sol\":1525:1607  function test() public view returns(uint) {... */\n      swap1\n      jump\t// out\n        /* \"contracts/DataStorage.sol\":1380:1487  function getlength(uint[] storage _arr) internal view returns(uint) {... */\n    tag_91:\n        /* \"contracts/DataStorage.sol\":1442:1446  uint */\n      0x00\n        /* \"contracts/DataStorage.sol\":1467:1471  _arr */\n      dup2\n        /* \"contracts/DataStorage.sol\":1467:1478  _arr.length */\n      dup1\n      sload\n      swap1\n      pop\n        /* \"contracts/DataStorage.sol\":1459:1479  return (_arr.length) */\n      swap1\n      pop\n        /* \"contracts/DataStorage.sol\":1380:1487  function getlength(uint[] storage _arr) internal view returns(uint) {... */\n      swap2\n      swap1\n      pop\n      jump\t// out\n        /* \"#utility.yul\":7:82   */\n    tag_93:\n        /* \"#utility.yul\":40:46   */\n      0x00\n        /* \"#utility.yul\":73:75   */\n      0x40\n        /* \"#utility.yul\":67:76   */\n      mload\n        /* \"#utility.yul\":57:76   */\n      swap1\n      pop\n        /* \"#utility.yul\":7:82   */\n      swap1\n      jump\t// out\n        /* \"#utility.yul\":88:205   */\n    tag_94:\n        /* \"#utility.yul\":197:198   */\n      0x00\n        /* \"#utility.yul\":194:195   */\n      dup1\n        /* \"#utility.yul\":187:199   */\n      revert\n        /* \"#utility.yul\":211:328   */\n    tag_95:\n        /* \"#utility.yul\":320:321   */\n      0x00\n        /* \"#utility.yul\":317:318   */\n      dup1\n        /* \"#utility.yul\":310:322   */\n      revert\n        /* \"#utility.yul\":334:411   */\n    tag_96:\n        /* \"#utility.yul\":371:378   */\n      0x00\n        /* \"#utility.yul\":400:405   */\n      dup2\n        /* \"#utility.yul\":389:405   */\n      swap1\n      pop\n        /* \"#utility.yul\":334:411   */\n      swap2\n      swap1\n      pop\n      jump\t// out\n        /* \"#utility.yul\":417:539   */\n    tag_97:\n        /* \"#utility.yul\":490:514   */\n      tag_161\n        /* \"#utility.yul\":508:513   */\n      dup2\n        /* \"#utility.yul\":490:514   */\n      tag_96\n      jump\t// in\n    tag_161:\n        /* \"#utility.yul\":483:488   */\n      dup2\n        /* \"#utility.yul\":480:515   */\n      eq\n        /* \"#utility.yul\":470:533   */\n      tag_162\n      jumpi\n        /* \"#utility.yul\":529:530   */\n      0x00\n        /* \"#utility.yul\":526:527   */\n      dup1\n        /* \"#utility.yul\":519:531   */\n      revert\n        /* \"#utility.yul\":470:533   */\n    tag_162:\n        /* \"#utility.yul\":417:539   */\n      pop\n      jump\t// out\n        /* \"#utility.yul\":545:684   */\n    tag_98:\n        /* \"#utility.yul\":591:596   */\n      0x00\n        /* \"#utility.yul\":629:635   */\n      dup2\n        /* \"#utility.yul\":616:636   */\n      calldataload\n        /* \"#utility.yul\":607:636   */\n      swap1\n      pop\n        /* \"#utility.yul\":645:678   */\n      tag_164\n        /* \"#utility.yul\":672:677   */\n      dup2\n        /* \"#utility.yul\":645:678   */\n      tag_97\n      jump\t// in\n    tag_164:\n        /* \"#utility.yul\":545:684   */\n      swap3\n      swap2\n      pop\n      pop\n      jump\t// out\n        /* \"#utility.yul\":690:1019   */\n    tag_15:\n        /* \"#utility.yul\":749:755   */\n      0x00\n        /* \"#utility.yul\":798:800   */\n      0x20\n        /* \"#utility.yul\":786:795   */\n      dup3\n        /* \"#utility.yul\":777:784   */\n      dup5\n        /* \"#utility.yul\":773:796   */\n      sub\n        /* \"#utility.yul\":769:801   */\n      slt\n        /* \"#utility.yul\":766:885   */\n      iszero\n      tag_166\n      jumpi\n        /* \"#utility.yul\":804:883   */\n      tag_167\n      tag_94\n      jump\t// in\n    tag_167:\n        /* \"#utility.yul\":766:885   */\n    tag_166:\n        /* \"#utility.yul\":924:925   */\n      0x00\n        /* \"#utility.yul\":949:1002   */\n      tag_168\n        /* \"#utility.yul\":994:1001   */\n      dup5\n        /* \"#utility.yul\":985:991   */\n      dup3\n        /* \"#utility.yul\":974:983   */\n      dup6\n        /* \"#utility.yul\":970:992   */\n      add\n        /* \"#utility.yul\":949:1002   */\n      tag_98\n      jump\t// in\n    tag_168:\n        /* \"#utility.yul\":939:1002   */\n      swap2\n      pop\n        /* \"#utility.yul\":895:1012   */\n      pop\n        /* \"#utility.yul\":690:1019   */\n      swap3\n      swap2\n      pop\n      pop\n      jump\t// out\n        /* \"#utility.yul\":1025:1124   */\n    tag_99:\n        /* \"#utility.yul\":1077:1083   */\n      0x00\n        /* \"#utility.yul\":1111:1116   */\n      dup2\n        /* \"#utility.yul\":1105:1117   */\n      mload\n        /* \"#utility.yul\":1095:1117   */\n      swap1\n      pop\n        /* \"#utility.yul\":1025:1124   */\n      swap2\n      swap1\n      pop\n      jump\t// out\n        /* \"#utility.yul\":1130:1299   */\n    tag_100:\n        /* \"#utility.yul\":1214:1225   */\n      0x00\n        /* \"#utility.yul\":1248:1254   */\n      dup3\n        /* \"#utility.yul\":1243:1246   */\n      dup3\n        /* \"#utility.yul\":1236:1255   */\n      mstore\n        /* \"#utility.yul\":1288:1292   */\n      0x20\n        /* \"#utility.yul\":1283:1286   */\n      dup3\n        /* \"#utility.yul\":1279:1293   */\n      add\n        /* \"#utility.yul\":1264:1293   */\n      swap1\n      pop\n        /* \"#utility.yul\":1130:1299   */\n      swap3\n      swap2\n      pop\n      pop\n      jump\t// out\n        /* \"#utility.yul\":1305:1553   */\n    tag_101:\n        /* \"#utility.yul\":1387:1388   */\n      0x00\n        /* \"#utility.yul\":1397:1510   */\n    tag_172:\n        /* \"#utility.yul\":1411:1417   */\n      dup4\n        /* \"#utility.yul\":1408:1409   */\n      dup2\n        /* \"#utility.yul\":1405:1418   */\n      lt\n        /* \"#utility.yul\":1397:1510   */\n      iszero\n      tag_174\n      jumpi\n        /* \"#utility.yul\":1496:1497   */\n      dup1\n        /* \"#utility.yul\":1491:1494   */\n      dup3\n        /* \"#utility.yul\":1487:1498   */\n      add\n        /* \"#utility.yul\":1481:1499   */\n      mload\n        /* \"#utility.yul\":1477:1478   */\n      dup2\n        /* \"#utility.yul\":1472:1475   */\n      dup5\n        /* \"#utility.yul\":1468:1479   */\n      add\n        /* \"#utility.yul\":1461:1500   */\n      mstore\n        /* \"#utility.yul\":1433:1435   */\n      0x20\n        /* \"#utility.yul\":1430:1431   */\n      dup2\n        /* \"#utility.yul\":1426:1436   */\n      add\n        /* \"#utility.yul\":1421:1436   */\n      swap1\n      pop\n        /* \"#utility.yul\":1397:1510   */\n      jump(tag_172)\n    tag_174:\n        /* \"#utility.yul\":1544:1545   */\n      0x00\n        /* \"#utility.yul\":1535:1541   */\n      dup5\n        /* \"#utility.yul\":1530:1533   */\n      dup5\n        /* \"#utility.yul\":1526:1542   */\n      add\n        /* \"#utility.yul\":1519:1546   */\n      mstore\n        /* \"#utility.yul\":1367:1553   */\n      pop\n        /* \"#utility.yul\":1305:1553   */\n      pop\n      pop\n      pop\n      jump\t// out\n        /* \"#utility.yul\":1559:1661   */\n    tag_102:\n        /* \"#utility.yul\":1600:1606   */\n      0x00\n        /* \"#utility.yul\":1651:1653   */\n      0x1f\n        /* \"#utility.yul\":1647:1654   */\n      not\n        /* \"#utility.yul\":1642:1644   */\n      0x1f\n        /* \"#utility.yul\":1635:1640   */\n      dup4\n        /* \"#utility.yul\":1631:1645   */\n      add\n        /* \"#utility.yul\":1627:1655   */\n      and\n        /* \"#utility.yul\":1617:1655   */\n      swap1\n      pop\n        /* \"#utility.yul\":1559:1661   */\n      swap2\n      swap1\n      pop\n      jump\t// out\n        /* \"#utility.yul\":1667:2044   */\n    tag_103:\n        /* \"#utility.yul\":1755:1758   */\n      0x00\n        /* \"#utility.yul\":1783:1822   */\n      tag_177\n        /* \"#utility.yul\":1816:1821   */\n      dup3\n        /* \"#utility.yul\":1783:1822   */\n      tag_99\n      jump\t// in\n    tag_177:\n        /* \"#utility.yul\":1838:1909   */\n      tag_178\n        /* \"#utility.yul\":1902:1908   */\n      dup2\n        /* \"#utility.yul\":1897:1900   */\n      dup6\n        /* \"#utility.yul\":1838:1909   */\n      tag_100\n      jump\t// in\n    tag_178:\n        /* \"#utility.yul\":1831:1909   */\n      swap4\n      pop\n        /* \"#utility.yul\":1918:1983   */\n      tag_179\n        /* \"#utility.yul\":1976:1982   */\n      dup2\n        /* \"#utility.yul\":1971:1974   */\n      dup6\n        /* \"#utility.yul\":1964:1968   */\n      0x20\n        /* \"#utility.yul\":1957:1962   */\n      dup7\n        /* \"#utility.yul\":1953:1969   */\n      add\n        /* \"#utility.yul\":1918:1983   */\n      tag_101\n      jump\t// in\n    tag_179:\n        /* \"#utility.yul\":2008:2037   */\n      tag_180\n        /* \"#utility.yul\":2030:2036   */\n      dup2\n        /* \"#utility.yul\":2008:2037   */\n      tag_102\n      jump\t// in\n    tag_180:\n        /* \"#utility.yul\":2003:2006   */\n      dup5\n        /* \"#utility.yul\":1999:2038   */\n      add\n        /* \"#utility.yul\":1992:2038   */\n      swap2\n      pop\n        /* \"#utility.yul\":1759:2044   */\n      pop\n        /* \"#utility.yul\":1667:2044   */\n      swap3\n      swap2\n      pop\n      pop\n      jump\t// out\n        /* \"#utility.yul\":2050:2168   */\n    tag_104:\n        /* \"#utility.yul\":2137:2161   */\n      tag_182\n        /* \"#utility.yul\":2155:2160   */\n      dup2\n        /* \"#utility.yul\":2137:2161   */\n      tag_96\n      jump\t// in\n    tag_182:\n        /* \"#utility.yul\":2132:2135   */\n      dup3\n        /* \"#utility.yul\":2125:2162   */\n      mstore\n        /* \"#utility.yul\":2050:2168   */\n      pop\n      pop\n      jump\t// out\n        /* \"#utility.yul\":2174:2597   */\n    tag_18:\n        /* \"#utility.yul\":2315:2319   */\n      0x00\n        /* \"#utility.yul\":2353:2355   */\n      0x40\n        /* \"#utility.yul\":2342:2351   */\n      dup3\n        /* \"#utility.yul\":2338:2356   */\n      add\n        /* \"#utility.yul\":2330:2356   */\n      swap1\n      pop\n        /* \"#utility.yul\":2402:2411   */\n      dup2\n        /* \"#utility.yul\":2396:2400   */\n      dup2\n        /* \"#utility.yul\":2392:2412   */\n      sub\n        /* \"#utility.yul\":2388:2389   */\n      0x00\n        /* \"#utility.yul\":2377:2386   */\n      dup4\n        /* \"#utility.yul\":2373:2390   */\n      add\n        /* \"#utility.yul\":2366:2413   */\n      mstore\n        /* \"#utility.yul\":2430:2508   */\n      tag_184\n        /* \"#utility.yul\":2503:2507   */\n      dup2\n        /* \"#utility.yul\":2494:2500   */\n      dup6\n        /* \"#utility.yul\":2430:2508   */\n      tag_103\n      jump\t// in\n    tag_184:\n        /* \"#utility.yul\":2422:2508   */\n      swap1\n      pop\n        /* \"#utility.yul\":2518:2590   */\n      tag_185\n        /* \"#utility.yul\":2586:2588   */\n      0x20\n        /* \"#utility.yul\":2575:2584   */\n      dup4\n        /* \"#utility.yul\":2571:2589   */\n      add\n        /* \"#utility.yul\":2562:2568   */\n      dup5\n        /* \"#utility.yul\":2518:2590   */\n      tag_104\n      jump\t// in\n    tag_185:\n        /* \"#utility.yul\":2174:2597   */\n      swap4\n      swap3\n      pop\n      pop\n      pop\n      jump\t// out\n        /* \"#utility.yul\":2603:2720   */\n    tag_105:\n        /* \"#utility.yul\":2712:2713   */\n      0x00\n        /* \"#utility.yul\":2709:2710   */\n      dup1\n        /* \"#utility.yul\":2702:2714   */\n      revert\n        /* \"#utility.yul\":2761:2990   */\n    tag_106:\n        /* \"#utility.yul\":2832:2837   */\n      0x00\n        /* \"#utility.yul\":2873:2875   */\n      0x40\n        /* \"#utility.yul\":2864:2870   */\n      dup3\n        /* \"#utility.yul\":2859:2862   */\n      dup5\n        /* \"#utility.yul\":2855:2871   */\n      sub\n        /* \"#utility.yul\":2851:2876   */\n      slt\n        /* \"#utility.yul\":2848:2960   */\n      iszero\n      tag_188\n      jumpi\n        /* \"#utility.yul\":2879:2958   */\n      tag_189\n      tag_105\n      jump\t// in\n    tag_189:\n        /* \"#utility.yul\":2848:2960   */\n    tag_188:\n        /* \"#utility.yul\":2978:2984   */\n      dup2\n        /* \"#utility.yul\":2969:2984   */\n      swap1\n      pop\n        /* \"#utility.yul\":2761:2990   */\n      swap3\n      swap2\n      pop\n      pop\n      jump\t// out\n        /* \"#utility.yul\":2996:3535   */\n    tag_21:\n        /* \"#utility.yul\":3080:3086   */\n      0x00\n        /* \"#utility.yul\":3129:3131   */\n      0x20\n        /* \"#utility.yul\":3117:3126   */\n      dup3\n        /* \"#utility.yul\":3108:3115   */\n      dup5\n        /* \"#utility.yul\":3104:3127   */\n      sub\n        /* \"#utility.yul\":3100:3132   */\n      slt\n        /* \"#utility.yul\":3097:3216   */\n      iszero\n      tag_191\n      jumpi\n        /* \"#utility.yul\":3135:3214   */\n      tag_192\n      tag_94\n      jump\t// in\n    tag_192:\n        /* \"#utility.yul\":3097:3216   */\n    tag_191:\n        /* \"#utility.yul\":3283:3284   */\n      0x00\n        /* \"#utility.yul\":3272:3281   */\n      dup3\n        /* \"#utility.yul\":3268:3285   */\n      add\n        /* \"#utility.yul\":3255:3286   */\n      calldataload\n        /* \"#utility.yul\":3313:3331   */\n      0xffffffffffffffff\n        /* \"#utility.yul\":3305:3311   */\n      dup2\n        /* \"#utility.yul\":3302:3332   */\n      gt\n        /* \"#utility.yul\":3299:3416   */\n      iszero\n      tag_193\n      jumpi\n        /* \"#utility.yul\":3335:3414   */\n      tag_194\n      tag_95\n      jump\t// in\n    tag_194:\n        /* \"#utility.yul\":3299:3416   */\n    tag_193:\n        /* \"#utility.yul\":3440:3518   */\n      tag_195\n        /* \"#utility.yul\":3510:3517   */\n      dup5\n        /* \"#utility.yul\":3501:3507   */\n      dup3\n        /* \"#utility.yul\":3490:3499   */\n      dup6\n        /* \"#utility.yul\":3486:3508   */\n      add\n        /* \"#utility.yul\":3440:3518   */\n      tag_106\n      jump\t// in\n    tag_195:\n        /* \"#utility.yul\":3430:3518   */\n      swap2\n      pop\n        /* \"#utility.yul\":3226:3528   */\n      pop\n        /* \"#utility.yul\":2996:3535   */\n      swap3\n      swap2\n      pop\n      pop\n      jump\t// out\n        /* \"#utility.yul\":3541:3639   */\n    tag_107:\n        /* \"#utility.yul\":3592:3598   */\n      0x00\n        /* \"#utility.yul\":3626:3631   */\n      dup2\n        /* \"#utility.yul\":3620:3632   */\n      mload\n        /* \"#utility.yul\":3610:3632   */\n      swap1\n      pop\n        /* \"#utility.yul\":3541:3639   */\n      swap2\n      swap1\n      pop\n      jump\t// out\n        /* \"#utility.yul\":3645:3813   */\n    tag_108:\n        /* \"#utility.yul\":3728:3739   */\n      0x00\n        /* \"#utility.yul\":3762:3768   */\n      dup3\n        /* \"#utility.yul\":3757:3760   */\n      dup3\n        /* \"#utility.yul\":3750:3769   */\n      mstore\n        /* \"#utility.yul\":3802:3806   */\n      0x20\n        /* \"#utility.yul\":3797:3800   */\n      dup3\n        /* \"#utility.yul\":3793:3807   */\n      add\n        /* \"#utility.yul\":3778:3807   */\n      swap1\n      pop\n        /* \"#utility.yul\":3645:3813   */\n      swap3\n      swap2\n      pop\n      pop\n      jump\t// out\n        /* \"#utility.yul\":3819:4192   */\n    tag_109:\n        /* \"#utility.yul\":3905:3908   */\n      0x00\n        /* \"#utility.yul\":3933:3971   */\n      tag_199\n        /* \"#utility.yul\":3965:3970   */\n      dup3\n        /* \"#utility.yul\":3933:3971   */\n      tag_107\n      jump\t// in\n    tag_199:\n        /* \"#utility.yul\":3987:4057   */\n      tag_200\n        /* \"#utility.yul\":4050:4056   */\n      dup2\n        /* \"#utility.yul\":4045:4048   */\n      dup6\n        /* \"#utility.yul\":3987:4057   */\n      tag_108\n      jump\t// in\n    tag_200:\n        /* \"#utility.yul\":3980:4057   */\n      swap4\n      pop\n        /* \"#utility.yul\":4066:4131   */\n      tag_201\n        /* \"#utility.yul\":4124:4130   */\n      dup2\n        /* \"#utility.yul\":4119:4122   */\n      dup6\n        /* \"#utility.yul\":4112:4116   */\n      0x20\n        /* \"#utility.yul\":4105:4110   */\n      dup7\n        /* \"#utility.yul\":4101:4117   */\n      add\n        /* \"#utility.yul\":4066:4131   */\n      tag_101\n      jump\t// in\n    tag_201:\n        /* \"#utility.yul\":4156:4185   */\n      tag_202\n        /* \"#utility.yul\":4178:4184   */\n      dup2\n        /* \"#utility.yul\":4156:4185   */\n      tag_102\n      jump\t// in\n    tag_202:\n        /* \"#utility.yul\":4151:4154   */\n      dup5\n        /* \"#utility.yul\":4147:4186   */\n      add\n        /* \"#utility.yul\":4140:4186   */\n      swap2\n      pop\n        /* \"#utility.yul\":3909:4192   */\n      pop\n        /* \"#utility.yul\":3819:4192   */\n      swap3\n      swap2\n      pop\n      pop\n      jump\t// out\n        /* \"#utility.yul\":4198:4507   */\n    tag_26:\n        /* \"#utility.yul\":4309:4313   */\n      0x00\n        /* \"#utility.yul\":4347:4349   */\n      0x20\n        /* \"#utility.yul\":4336:4345   */\n      dup3\n        /* \"#utility.yul\":4332:4350   */\n      add\n        /* \"#utility.yul\":4324:4350   */\n      swap1\n      pop\n        /* \"#utility.yul\":4396:4405   */\n      dup2\n        /* \"#utility.yul\":4390:4394   */\n      dup2\n        /* \"#utility.yul\":4386:4406   */\n      sub\n        /* \"#utility.yul\":4382:4383   */\n      0x00\n        /* \"#utility.yul\":4371:4380   */\n      dup4\n        /* \"#utility.yul\":4367:4384   */\n      add\n        /* \"#utility.yul\":4360:4407   */\n      mstore\n        /* \"#utility.yul\":4424:4500   */\n      tag_204\n        /* \"#utility.yul\":4495:4499   */\n      dup2\n        /* \"#utility.yul\":4486:4492   */\n      dup5\n        /* \"#utility.yul\":4424:4500   */\n      tag_109\n      jump\t// in\n    tag_204:\n        /* \"#utility.yul\":4416:4500   */\n      swap1\n      pop\n        /* \"#utility.yul\":4198:4507   */\n      swap3\n      swap2\n      pop\n      pop\n      jump\t// out\n        /* \"#utility.yul\":4513:4735   */\n    tag_31:\n        /* \"#utility.yul\":4606:4610   */\n      0x00\n        /* \"#utility.yul\":4644:4646   */\n      0x20\n        /* \"#utility.yul\":4633:4642   */\n      dup3\n        /* \"#utility.yul\":4629:4647   */\n      add\n        /* \"#utility.yul\":4621:4647   */\n      swap1\n      pop\n        /* \"#utility.yul\":4657:4728   */\n      tag_206\n        /* \"#utility.yul\":4725:4726   */\n      0x00\n        /* \"#utility.yul\":4714:4723   */\n      dup4\n        /* \"#utility.yul\":4710:4727   */\n      add\n        /* \"#utility.yul\":4701:4707   */\n      dup5\n        /* \"#utility.yul\":4657:4728   */\n      tag_104\n      jump\t// in\n    tag_206:\n        /* \"#utility.yul\":4513:4735   */\n      swap3\n      swap2\n      pop\n      pop\n      jump\t// out\n        /* \"#utility.yul\":4741:4858   */\n    tag_110:\n        /* \"#utility.yul\":4850:4851   */\n      0x00\n        /* \"#utility.yul\":4847:4848   */\n      dup1\n        /* \"#utility.yul\":4840:4852   */\n      revert\n        /* \"#utility.yul\":4864:4981   */\n    tag_111:\n        /* \"#utility.yul\":4973:4974   */\n      0x00\n        /* \"#utility.yul\":4970:4971   */\n      dup1\n        /* \"#utility.yul\":4963:4975   */\n      revert\n        /* \"#utility.yul\":4987:5104   */\n    tag_112:\n        /* \"#utility.yul\":5096:5097   */\n      0x00\n        /* \"#utility.yul\":5093:5094   */\n      dup1\n        /* \"#utility.yul\":5086:5098   */\n      revert\n        /* \"#utility.yul\":5124:5677   */\n    tag_113:\n        /* \"#utility.yul\":5182:5190   */\n      0x00\n        /* \"#utility.yul\":5192:5198   */\n      dup1\n        /* \"#utility.yul\":5242:5245   */\n      dup4\n        /* \"#utility.yul\":5235:5239   */\n      0x1f\n        /* \"#utility.yul\":5227:5233   */\n      dup5\n        /* \"#utility.yul\":5223:5240   */\n      add\n        /* \"#utility.yul\":5219:5246   */\n      slt\n        /* \"#utility.yul\":5209:5331   */\n      tag_211\n      jumpi\n        /* \"#utility.yul\":5250:5329   */\n      tag_212\n      tag_110\n      jump\t// in\n    tag_212:\n        /* \"#utility.yul\":5209:5331   */\n    tag_211:\n        /* \"#utility.yul\":5363:5369   */\n      dup3\n        /* \"#utility.yul\":5350:5370   */\n      calldataload\n        /* \"#utility.yul\":5340:5370   */\n      swap1\n      pop\n        /* \"#utility.yul\":5393:5411   */\n      0xffffffffffffffff\n        /* \"#utility.yul\":5385:5391   */\n      dup2\n        /* \"#utility.yul\":5382:5412   */\n      gt\n        /* \"#utility.yul\":5379:5496   */\n      iszero\n      tag_213\n      jumpi\n        /* \"#utility.yul\":5415:5494   */\n      tag_214\n      tag_111\n      jump\t// in\n    tag_214:\n        /* \"#utility.yul\":5379:5496   */\n    tag_213:\n        /* \"#utility.yul\":5529:5533   */\n      0x20\n        /* \"#utility.yul\":5521:5527   */\n      dup4\n        /* \"#utility.yul\":5517:5534   */\n      add\n        /* \"#utility.yul\":5505:5534   */\n      swap2\n      pop\n        /* \"#utility.yul\":5583:5586   */\n      dup4\n        /* \"#utility.yul\":5575:5579   */\n      0x01\n        /* \"#utility.yul\":5567:5573   */\n      dup3\n        /* \"#utility.yul\":5563:5580   */\n      mul\n        /* \"#utility.yul\":5553:5561   */\n      dup4\n        /* \"#utility.yul\":5549:5581   */\n      add\n        /* \"#utility.yul\":5546:5587   */\n      gt\n        /* \"#utility.yul\":5543:5671   */\n      iszero\n      tag_215\n      jumpi\n        /* \"#utility.yul\":5590:5669   */\n      tag_216\n      tag_112\n      jump\t// in\n    tag_216:\n        /* \"#utility.yul\":5543:5671   */\n    tag_215:\n        /* \"#utility.yul\":5124:5677   */\n      swap3\n      pop\n      swap3\n      swap1\n      pop\n      jump\t// out\n        /* \"#utility.yul\":5683:6212   */\n    tag_34:\n        /* \"#utility.yul\":5754:5760   */\n      0x00\n        /* \"#utility.yul\":5762:5768   */\n      dup1\n        /* \"#utility.yul\":5811:5813   */\n      0x20\n        /* \"#utility.yul\":5799:5808   */\n      dup4\n        /* \"#utility.yul\":5790:5797   */\n      dup6\n        /* \"#utility.yul\":5786:5809   */\n      sub\n        /* \"#utility.yul\":5782:5814   */\n      slt\n        /* \"#utility.yul\":5779:5898   */\n      iszero\n      tag_218\n      jumpi\n        /* \"#utility.yul\":5817:5896   */\n      tag_219\n      tag_94\n      jump\t// in\n    tag_219:\n        /* \"#utility.yul\":5779:5898   */\n    tag_218:\n        /* \"#utility.yul\":5965:5966   */\n      0x00\n        /* \"#utility.yul\":5954:5963   */\n      dup4\n        /* \"#utility.yul\":5950:5967   */\n      add\n        /* \"#utility.yul\":5937:5968   */\n      calldataload\n        /* \"#utility.yul\":5995:6013   */\n      0xffffffffffffffff\n        /* \"#utility.yul\":5987:5993   */\n      dup2\n        /* \"#utility.yul\":5984:6014   */\n      gt\n        /* \"#utility.yul\":5981:6098   */\n      iszero\n      tag_220\n      jumpi\n        /* \"#utility.yul\":6017:6096   */\n      tag_221\n      tag_95\n      jump\t// in\n    tag_221:\n        /* \"#utility.yul\":5981:6098   */\n    tag_220:\n        /* \"#utility.yul\":6130:6195   */\n      tag_222\n        /* \"#utility.yul\":6187:6194   */\n      dup6\n        /* \"#utility.yul\":6178:6184   */\n      dup3\n        /* \"#utility.yul\":6167:6176   */\n      dup7\n        /* \"#utility.yul\":6163:6185   */\n      add\n        /* \"#utility.yul\":6130:6195   */\n      tag_113\n      jump\t// in\n    tag_222:\n        /* \"#utility.yul\":6112:6195   */\n      swap3\n      pop\n      swap3\n      pop\n        /* \"#utility.yul\":5908:6205   */\n      pop\n        /* \"#utility.yul\":5683:6212   */\n      swap3\n      pop\n      swap3\n      swap1\n      pop\n      jump\t// out\n        /* \"#utility.yul\":6218:6531   */\n    tag_39:\n        /* \"#utility.yul\":6331:6335   */\n      0x00\n        /* \"#utility.yul\":6369:6371   */\n      0x20\n        /* \"#utility.yul\":6358:6367   */\n      dup3\n        /* \"#utility.yul\":6354:6372   */\n      add\n        /* \"#utility.yul\":6346:6372   */\n      swap1\n      pop\n        /* \"#utility.yul\":6418:6427   */\n      dup2\n        /* \"#utility.yul\":6412:6416   */\n      dup2\n        /* \"#utility.yul\":6408:6428   */\n      sub\n        /* \"#utility.yul\":6404:6405   */\n      0x00\n        /* \"#utility.yul\":6393:6402   */\n      dup4\n        /* \"#utility.yul\":6389:6406   */\n      add\n        /* \"#utility.yul\":6382:6429   */\n      mstore\n        /* \"#utility.yul\":6446:6524   */\n      tag_224\n        /* \"#utility.yul\":6519:6523   */\n      dup2\n        /* \"#utility.yul\":6510:6516   */\n      dup5\n        /* \"#utility.yul\":6446:6524   */\n      tag_103\n      jump\t// in\n    tag_224:\n        /* \"#utility.yul\":6438:6524   */\n      swap1\n      pop\n        /* \"#utility.yul\":6218:6531   */\n      swap3\n      swap2\n      pop\n      pop\n      jump\t// out\n        /* \"#utility.yul\":6537:6717   */\n    tag_114:\n        /* \"#utility.yul\":6585:6662   */\n      0x4e487b7100000000000000000000000000000000000000000000000000000000\n        /* \"#utility.yul\":6582:6583   */\n      0x00\n        /* \"#utility.yul\":6575:6663   */\n      mstore\n        /* \"#utility.yul\":6682:6686   */\n      0x41\n        /* \"#utility.yul\":6679:6680   */\n      0x04\n        /* \"#utility.yul\":6672:6687   */\n      mstore\n        /* \"#utility.yul\":6706:6710   */\n      0x24\n        /* \"#utility.yul\":6703:6704   */\n      0x00\n        /* \"#utility.yul\":6696:6711   */\n      revert\n        /* \"#utility.yul\":6723:7004   */\n    tag_115:\n        /* \"#utility.yul\":6806:6833   */\n      tag_227\n        /* \"#utility.yul\":6828:6832   */\n      dup3\n        /* \"#utility.yul\":6806:6833   */\n      tag_102\n      jump\t// in\n    tag_227:\n        /* \"#utility.yul\":6798:6804   */\n      dup2\n        /* \"#utility.yul\":6794:6834   */\n      add\n        /* \"#utility.yul\":6936:6942   */\n      dup2\n        /* \"#utility.yul\":6924:6934   */\n      dup2\n        /* \"#utility.yul\":6921:6943   */\n      lt\n        /* \"#utility.yul\":6900:6918   */\n      0xffffffffffffffff\n        /* \"#utility.yul\":6888:6898   */\n      dup3\n        /* \"#utility.yul\":6885:6919   */\n      gt\n        /* \"#utility.yul\":6882:6944   */\n      or\n        /* \"#utility.yul\":6879:6967   */\n      iszero\n      tag_228\n      jumpi\n        /* \"#utility.yul\":6947:6965   */\n      tag_229\n      tag_114\n      jump\t// in\n    tag_229:\n        /* \"#utility.yul\":6879:6967   */\n    tag_228:\n        /* \"#utility.yul\":6987:6997   */\n      dup1\n        /* \"#utility.yul\":6983:6985   */\n      0x40\n        /* \"#utility.yul\":6976:6998   */\n      mstore\n        /* \"#utility.yul\":6766:7004   */\n      pop\n        /* \"#utility.yul\":6723:7004   */\n      pop\n      pop\n      jump\t// out\n        /* \"#utility.yul\":7010:7139   */\n    tag_116:\n        /* \"#utility.yul\":7044:7050   */\n      0x00\n        /* \"#utility.yul\":7071:7091   */\n      tag_231\n      tag_93\n      jump\t// in\n    tag_231:\n        /* \"#utility.yul\":7061:7091   */\n      swap1\n      pop\n        /* \"#utility.yul\":7100:7133   */\n      tag_232\n        /* \"#utility.yul\":7128:7132   */\n      dup3\n        /* \"#utility.yul\":7120:7126   */\n      dup3\n        /* \"#utility.yul\":7100:7133   */\n      tag_115\n      jump\t// in\n    tag_232:\n        /* \"#utility.yul\":7010:7139   */\n      swap2\n      swap1\n      pop\n      jump\t// out\n        /* \"#utility.yul\":7145:7456   */\n    tag_117:\n        /* \"#utility.yul\":7222:7226   */\n      0x00\n        /* \"#utility.yul\":7312:7330   */\n      0xffffffffffffffff\n        /* \"#utility.yul\":7304:7310   */\n      dup3\n        /* \"#utility.yul\":7301:7331   */\n      gt\n        /* \"#utility.yul\":7298:7354   */\n      iszero\n      tag_234\n      jumpi\n        /* \"#utility.yul\":7334:7352   */\n      tag_235\n      tag_114\n      jump\t// in\n    tag_235:\n        /* \"#utility.yul\":7298:7354   */\n    tag_234:\n        /* \"#utility.yul\":7384:7388   */\n      0x20\n        /* \"#utility.yul\":7376:7382   */\n      dup3\n        /* \"#utility.yul\":7372:7389   */\n      mul\n        /* \"#utility.yul\":7364:7389   */\n      swap1\n      pop\n        /* \"#utility.yul\":7444:7448   */\n      0x20\n        /* \"#utility.yul\":7438:7442   */\n      dup2\n        /* \"#utility.yul\":7434:7449   */\n      add\n        /* \"#utility.yul\":7426:7449   */\n      swap1\n      pop\n        /* \"#utility.yul\":7145:7456   */\n      swap2\n      swap1\n      pop\n      jump\t// out\n        /* \"#utility.yul\":7479:8189   */\n    tag_118:\n        /* \"#utility.yul\":7575:7580   */\n      0x00\n        /* \"#utility.yul\":7600:7681   */\n      tag_237\n        /* \"#utility.yul\":7616:7680   */\n      tag_238\n        /* \"#utility.yul\":7673:7679   */\n      dup5\n        /* \"#utility.yul\":7616:7680   */\n      tag_117\n      jump\t// in\n    tag_238:\n        /* \"#utility.yul\":7600:7681   */\n      tag_116\n      jump\t// in\n    tag_237:\n        /* \"#utility.yul\":7591:7681   */\n      swap1\n      pop\n        /* \"#utility.yul\":7701:7706   */\n      dup1\n        /* \"#utility.yul\":7730:7736   */\n      dup4\n        /* \"#utility.yul\":7723:7728   */\n      dup3\n        /* \"#utility.yul\":7716:7737   */\n      mstore\n        /* \"#utility.yul\":7764:7768   */\n      0x20\n        /* \"#utility.yul\":7757:7762   */\n      dup3\n        /* \"#utility.yul\":7753:7769   */\n      add\n        /* \"#utility.yul\":7746:7769   */\n      swap1\n      pop\n        /* \"#utility.yul\":7817:7821   */\n      0x20\n        /* \"#utility.yul\":7809:7815   */\n      dup5\n        /* \"#utility.yul\":7805:7822   */\n      mul\n        /* \"#utility.yul\":7797:7803   */\n      dup4\n        /* \"#utility.yul\":7793:7823   */\n      add\n        /* \"#utility.yul\":7846:7849   */\n      dup6\n        /* \"#utility.yul\":7838:7844   */\n      dup2\n        /* \"#utility.yul\":7835:7850   */\n      gt\n        /* \"#utility.yul\":7832:7954   */\n      iszero\n      tag_239\n      jumpi\n        /* \"#utility.yul\":7865:7944   */\n      tag_240\n      tag_112\n      jump\t// in\n    tag_240:\n        /* \"#utility.yul\":7832:7954   */\n    tag_239:\n        /* \"#utility.yul\":7980:7986   */\n      dup4\n        /* \"#utility.yul\":7963:8183   */\n    tag_241:\n        /* \"#utility.yul\":7997:8003   */\n      dup2\n        /* \"#utility.yul\":7992:7995   */\n      dup2\n        /* \"#utility.yul\":7989:8004   */\n      lt\n        /* \"#utility.yul\":7963:8183   */\n      iszero\n      tag_243\n      jumpi\n        /* \"#utility.yul\":8072:8075   */\n      dup1\n        /* \"#utility.yul\":8101:8138   */\n      tag_244\n        /* \"#utility.yul\":8134:8137   */\n      dup9\n        /* \"#utility.yul\":8122:8132   */\n      dup3\n        /* \"#utility.yul\":8101:8138   */\n      tag_98\n      jump\t// in\n    tag_244:\n        /* \"#utility.yul\":8096:8099   */\n      dup5\n        /* \"#utility.yul\":8089:8139   */\n      mstore\n        /* \"#utility.yul\":8168:8172   */\n      0x20\n        /* \"#utility.yul\":8163:8166   */\n      dup5\n        /* \"#utility.yul\":8159:8173   */\n      add\n        /* \"#utility.yul\":8152:8173   */\n      swap4\n      pop\n        /* \"#utility.yul\":8039:8183   */\n      pop\n        /* \"#utility.yul\":8023:8027   */\n      0x20\n        /* \"#utility.yul\":8018:8021   */\n      dup2\n        /* \"#utility.yul\":8014:8028   */\n      add\n        /* \"#utility.yul\":8007:8028   */\n      swap1\n      pop\n        /* \"#utility.yul\":7963:8183   */\n      jump(tag_241)\n    tag_243:\n        /* \"#utility.yul\":7967:7988   */\n      pop\n        /* \"#utility.yul\":7581:8189   */\n      pop\n      pop\n        /* \"#utility.yul\":7479:8189   */\n      swap4\n      swap3\n      pop\n      pop\n      pop\n      jump\t// out\n        /* \"#utility.yul\":8212:8582   */\n    tag_119:\n        /* \"#utility.yul\":8283:8288   */\n      0x00\n        /* \"#utility.yul\":8332:8335   */\n      dup3\n        /* \"#utility.yul\":8325:8329   */\n      0x1f\n        /* \"#utility.yul\":8317:8323   */\n      dup4\n        /* \"#utility.yul\":8313:8330   */\n      add\n        /* \"#utility.yul\":8309:8336   */\n      slt\n        /* \"#utility.yul\":8299:8421   */\n      tag_246\n      jumpi\n        /* \"#utility.yul\":8340:8419   */\n      tag_247\n      tag_110\n      jump\t// in\n    tag_247:\n        /* \"#utility.yul\":8299:8421   */\n    tag_246:\n        /* \"#utility.yul\":8457:8463   */\n      dup2\n        /* \"#utility.yul\":8444:8464   */\n      calldataload\n        /* \"#utility.yul\":8482:8576   */\n      tag_248\n        /* \"#utility.yul\":8572:8575   */\n      dup5\n        /* \"#utility.yul\":8564:8570   */\n      dup3\n        /* \"#utility.yul\":8557:8561   */\n      0x20\n        /* \"#utility.yul\":8549:8555   */\n      dup7\n        /* \"#utility.yul\":8545:8562   */\n      add\n        /* \"#utility.yul\":8482:8576   */\n      tag_118\n      jump\t// in\n    tag_248:\n        /* \"#utility.yul\":8473:8576   */\n      swap2\n      pop\n        /* \"#utility.yul\":8289:8582   */\n      pop\n        /* \"#utility.yul\":8212:8582   */\n      swap3\n      swap2\n      pop\n      pop\n      jump\t// out\n        /* \"#utility.yul\":8588:9127   */\n    tag_42:\n        /* \"#utility.yul\":8672:8678   */\n      0x00\n        /* \"#utility.yul\":8721:8723   */\n      0x20\n        /* \"#utility.yul\":8709:8718   */\n      dup3\n        /* \"#utility.yul\":8700:8707   */\n      dup5\n        /* \"#utility.yul\":8696:8719   */\n      sub\n        /* \"#utility.yul\":8692:8724   */\n      slt\n        /* \"#utility.yul\":8689:8808   */\n      iszero\n      tag_250\n      jumpi\n        /* \"#utility.yul\":8727:8806   */\n      tag_251\n      tag_94\n      jump\t// in\n    tag_251:\n        /* \"#utility.yul\":8689:8808   */\n    tag_250:\n        /* \"#utility.yul\":8875:8876   */\n      0x00\n        /* \"#utility.yul\":8864:8873   */\n      dup3\n        /* \"#utility.yul\":8860:8877   */\n      add\n        /* \"#utility.yul\":8847:8878   */\n      calldataload\n        /* \"#utility.yul\":8905:8923   */\n      0xffffffffffffffff\n        /* \"#utility.yul\":8897:8903   */\n      dup2\n        /* \"#utility.yul\":8894:8924   */\n      gt\n        /* \"#utility.yul\":8891:9008   */\n      iszero\n      tag_252\n      jumpi\n        /* \"#utility.yul\":8927:9006   */\n      tag_253\n      tag_95\n      jump\t// in\n    tag_253:\n        /* \"#utility.yul\":8891:9008   */\n    tag_252:\n        /* \"#utility.yul\":9032:9110   */\n      tag_254\n        /* \"#utility.yul\":9102:9109   */\n      dup5\n        /* \"#utility.yul\":9093:9099   */\n      dup3\n        /* \"#utility.yul\":9082:9091   */\n      dup6\n        /* \"#utility.yul\":9078:9100   */\n      add\n        /* \"#utility.yul\":9032:9110   */\n      tag_119\n      jump\t// in\n    tag_254:\n        /* \"#utility.yul\":9022:9110   */\n      swap2\n      pop\n        /* \"#utility.yul\":8818:9120   */\n      pop\n        /* \"#utility.yul\":8588:9127   */\n      swap3\n      swap2\n      pop\n      pop\n      jump\t// out\n        /* \"#utility.yul\":9133:9250   */\n    tag_120:\n        /* \"#utility.yul\":9242:9243   */\n      0x00\n        /* \"#utility.yul\":9239:9240   */\n      dup1\n        /* \"#utility.yul\":9232:9244   */\n      revert\n        /* \"#utility.yul\":9256:9563   */\n    tag_121:\n        /* \"#utility.yul\":9317:9321   */\n      0x00\n        /* \"#utility.yul\":9407:9425   */\n      0xffffffffffffffff\n        /* \"#utility.yul\":9399:9405   */\n      dup3\n        /* \"#utility.yul\":9396:9426   */\n      gt\n        /* \"#utility.yul\":9393:9449   */\n      iszero\n      tag_257\n      jumpi\n        /* \"#utility.yul\":9429:9447   */\n      tag_258\n      tag_114\n      jump\t// in\n    tag_258:\n        /* \"#utility.yul\":9393:9449   */\n    tag_257:\n        /* \"#utility.yul\":9467:9496   */\n      tag_259\n        /* \"#utility.yul\":9489:9495   */\n      dup3\n        /* \"#utility.yul\":9467:9496   */\n      tag_102\n      jump\t// in\n    tag_259:\n        /* \"#utility.yul\":9459:9496   */\n      swap1\n      pop\n        /* \"#utility.yul\":9551:9555   */\n      0x20\n        /* \"#utility.yul\":9545:9549   */\n      dup2\n        /* \"#utility.yul\":9541:9556   */\n      add\n        /* \"#utility.yul\":9533:9556   */\n      swap1\n      pop\n        /* \"#utility.yul\":9256:9563   */\n      swap2\n      swap1\n      pop\n      jump\t// out\n        /* \"#utility.yul\":9569:9717   */\n    tag_122:\n        /* \"#utility.yul\":9667:9673   */\n      dup3\n        /* \"#utility.yul\":9662:9665   */\n      dup2\n        /* \"#utility.yul\":9657:9660   */\n      dup4\n        /* \"#utility.yul\":9644:9674   */\n      calldatacopy\n        /* \"#utility.yul\":9708:9709   */\n      0x00\n        /* \"#utility.yul\":9699:9705   */\n      dup4\n        /* \"#utility.yul\":9694:9697   */\n      dup4\n        /* \"#utility.yul\":9690:9706   */\n      add\n        /* \"#utility.yul\":9683:9710   */\n      mstore\n        /* \"#utility.yul\":9569:9717   */\n      pop\n      pop\n      pop\n      jump\t// out\n        /* \"#utility.yul\":9723:10146   */\n    tag_123:\n        /* \"#utility.yul\":9800:9805   */\n      0x00\n        /* \"#utility.yul\":9825:9890   */\n      tag_262\n        /* \"#utility.yul\":9841:9889   */\n      tag_263\n        /* \"#utility.yul\":9882:9888   */\n      dup5\n        /* \"#utility.yul\":9841:9889   */\n      tag_121\n      jump\t// in\n    tag_263:\n        /* \"#utility.yul\":9825:9890   */\n      tag_116\n      jump\t// in\n    tag_262:\n        /* \"#utility.yul\":9816:9890   */\n      swap1\n      pop\n        /* \"#utility.yul\":9913:9919   */\n      dup3\n        /* \"#utility.yul\":9906:9911   */\n      dup2\n        /* \"#utility.yul\":9899:9920   */\n      mstore\n        /* \"#utility.yul\":9951:9955   */\n      0x20\n        /* \"#utility.yul\":9944:9949   */\n      dup2\n        /* \"#utility.yul\":9940:9956   */\n      add\n        /* \"#utility.yul\":9989:9992   */\n      dup5\n        /* \"#utility.yul\":9980:9986   */\n      dup5\n        /* \"#utility.yul\":9975:9978   */\n      dup5\n        /* \"#utility.yul\":9971:9987   */\n      add\n        /* \"#utility.yul\":9968:9993   */\n      gt\n        /* \"#utility.yul\":9965:10077   */\n      iszero\n      tag_264\n      jumpi\n        /* \"#utility.yul\":9996:10075   */\n      tag_265\n      tag_120\n      jump\t// in\n    tag_265:\n        /* \"#utility.yul\":9965:10077   */\n    tag_264:\n        /* \"#utility.yul\":10086:10140   */\n      tag_266\n        /* \"#utility.yul\":10133:10139   */\n      dup5\n        /* \"#utility.yul\":10128:10131   */\n      dup3\n        /* \"#utility.yul\":10123:10126   */\n      dup6\n        /* \"#utility.yul\":10086:10140   */\n      tag_122\n      jump\t// in\n    tag_266:\n        /* \"#utility.yul\":9806:10146   */\n      pop\n        /* \"#utility.yul\":9723:10146   */\n      swap4\n      swap3\n      pop\n      pop\n      pop\n      jump\t// out\n        /* \"#utility.yul\":10165:10503   */\n    tag_124:\n        /* \"#utility.yul\":10220:10225   */\n      0x00\n        /* \"#utility.yul\":10269:10272   */\n      dup3\n        /* \"#utility.yul\":10262:10266   */\n      0x1f\n        /* \"#utility.yul\":10254:10260   */\n      dup4\n        /* \"#utility.yul\":10250:10267   */\n      add\n        /* \"#utility.yul\":10246:10273   */\n      slt\n        /* \"#utility.yul\":10236:10358   */\n      tag_268\n      jumpi\n        /* \"#utility.yul\":10277:10356   */\n      tag_269\n      tag_110\n      jump\t// in\n    tag_269:\n        /* \"#utility.yul\":10236:10358   */\n    tag_268:\n        /* \"#utility.yul\":10394:10400   */\n      dup2\n        /* \"#utility.yul\":10381:10401   */\n      calldataload\n        /* \"#utility.yul\":10419:10497   */\n      tag_270\n        /* \"#utility.yul\":10493:10496   */\n      dup5\n        /* \"#utility.yul\":10485:10491   */\n      dup3\n        /* \"#utility.yul\":10478:10482   */\n      0x20\n        /* \"#utility.yul\":10470:10476   */\n      dup7\n        /* \"#utility.yul\":10466:10483   */\n      add\n        /* \"#utility.yul\":10419:10497   */\n      tag_123\n      jump\t// in\n    tag_270:\n        /* \"#utility.yul\":10410:10497   */\n      swap2\n      pop\n        /* \"#utility.yul\":10226:10503   */\n      pop\n        /* \"#utility.yul\":10165:10503   */\n      swap3\n      swap2\n      pop\n      pop\n      jump\t// out\n        /* \"#utility.yul\":10509:11016   */\n    tag_46:\n        /* \"#utility.yul\":10577:10583   */\n      0x00\n        /* \"#utility.yul\":10626:10628   */\n      0x20\n        /* \"#utility.yul\":10614:10623   */\n      dup3\n        /* \"#utility.yul\":10605:10612   */\n      dup5\n        /* \"#utility.yul\":10601:10624   */\n      sub\n        /* \"#utility.yul\":10597:10629   */\n      slt\n        /* \"#utility.yul\":10594:10713   */\n      iszero\n      tag_272\n      jumpi\n        /* \"#utility.yul\":10632:10711   */\n      tag_273\n      tag_94\n      jump\t// in\n    tag_273:\n        /* \"#utility.yul\":10594:10713   */\n    tag_272:\n        /* \"#utility.yul\":10780:10781   */\n      0x00\n        /* \"#utility.yul\":10769:10778   */\n      dup3\n        /* \"#utility.yul\":10765:10782   */\n      add\n        /* \"#utility.yul\":10752:10783   */\n      calldataload\n        /* \"#utility.yul\":10810:10828   */\n      0xffffffffffffffff\n        /* \"#utility.yul\":10802:10808   */\n      dup2\n        /* \"#utility.yul\":10799:10829   */\n      gt\n        /* \"#utility.yul\":10796:10913   */\n      iszero\n      tag_274\n      jumpi\n        /* \"#utility.yul\":10832:10911   */\n      tag_275\n      tag_95\n      jump\t// in\n    tag_275:\n        /* \"#utility.yul\":10796:10913   */\n    tag_274:\n        /* \"#utility.yul\":10937:10999   */\n      tag_276\n        /* \"#utility.yul\":10991:10998   */\n      dup5\n        /* \"#utility.yul\":10982:10988   */\n      dup3\n        /* \"#utility.yul\":10971:10980   */\n      dup6\n        /* \"#utility.yul\":10967:10989   */\n      add\n        /* \"#utility.yul\":10937:10999   */\n      tag_124\n      jump\t// in\n    tag_276:\n        /* \"#utility.yul\":10927:10999   */\n      swap2\n      pop\n        /* \"#utility.yul\":10723:11009   */\n      pop\n        /* \"#utility.yul\":10509:11016   */\n      swap3\n      swap2\n      pop\n      pop\n      jump\t// out\n        /* \"#utility.yul\":11022:11202   */\n    tag_125:\n        /* \"#utility.yul\":11070:11147   */\n      0x4e487b7100000000000000000000000000000000000000000000000000000000\n        /* \"#utility.yul\":11067:11068   */\n      0x00\n        /* \"#utility.yul\":11060:11148   */\n      mstore\n        /* \"#utility.yul\":11167:11171   */\n      0x22\n        /* \"#utility.yul\":11164:11165   */\n      0x04\n        /* \"#utility.yul\":11157:11172   */\n      mstore\n        /* \"#utility.yul\":11191:11195   */\n      0x24\n        /* \"#utility.yul\":11188:11189   */\n      0x00\n        /* \"#utility.yul\":11181:11196   */\n      revert\n        /* \"#utility.yul\":11208:11528   */\n    tag_54:\n        /* \"#utility.yul\":11252:11258   */\n      0x00\n        /* \"#utility.yul\":11289:11290   */\n      0x02\n        /* \"#utility.yul\":11283:11287   */\n      dup3\n        /* \"#utility.yul\":11279:11291   */\n      div\n        /* \"#utility.yul\":11269:11291   */\n      swap1\n      pop\n        /* \"#utility.yul\":11336:11337   */\n      0x01\n        /* \"#utility.yul\":11330:11334   */\n      dup3\n        /* \"#utility.yul\":11326:11338   */\n      and\n        /* \"#utility.yul\":11357:11375   */\n      dup1\n        /* \"#utility.yul\":11347:11428   */\n      tag_279\n      jumpi\n        /* \"#utility.yul\":11413:11417   */\n      0x7f\n        /* \"#utility.yul\":11405:11411   */\n      dup3\n        /* \"#utility.yul\":11401:11418   */\n      and\n        /* \"#utility.yul\":11391:11418   */\n      swap2\n      pop\n        /* \"#utility.yul\":11347:11428   */\n    tag_279:\n        /* \"#utility.yul\":11475:11477   */\n      0x20\n        /* \"#utility.yul\":11467:11473   */\n      dup3\n        /* \"#utility.yul\":11464:11478   */\n      lt\n        /* \"#utility.yul\":11444:11462   */\n      dup2\n        /* \"#utility.yul\":11441:11479   */\n      sub\n        /* \"#utility.yul\":11438:11522   */\n      tag_280\n      jumpi\n        /* \"#utility.yul\":11494:11512   */\n      tag_281\n      tag_125\n      jump\t// in\n    tag_281:\n        /* \"#utility.yul\":11438:11522   */\n    tag_280:\n        /* \"#utility.yul\":11259:11528   */\n      pop\n        /* \"#utility.yul\":11208:11528   */\n      swap2\n      swap1\n      pop\n      jump\t// out\n        /* \"#utility.yul\":11720:11837   */\n    tag_127:\n        /* \"#utility.yul\":11829:11830   */\n      0x00\n        /* \"#utility.yul\":11826:11827   */\n      dup1\n        /* \"#utility.yul\":11819:11831   */\n      revert\n        /* \"#utility.yul\":11843:11960   */\n    tag_128:\n        /* \"#utility.yul\":11952:11953   */\n      0x00\n        /* \"#utility.yul\":11949:11950   */\n      dup1\n        /* \"#utility.yul\":11942:11954   */\n      revert\n        /* \"#utility.yul\":11966:12083   */\n    tag_129:\n        /* \"#utility.yul\":12075:12076   */\n      0x00\n        /* \"#utility.yul\":12072:12073   */\n      dup1\n        /* \"#utility.yul\":12065:12077   */\n      revert\n        /* \"#utility.yul\":12089:12814   */\n    tag_130:\n        /* \"#utility.yul\":12167:12171   */\n      0x00\n        /* \"#utility.yul\":12173:12179   */\n      dup1\n        /* \"#utility.yul\":12229:12240   */\n      dup4\n        /* \"#utility.yul\":12216:12241   */\n      calldataload\n        /* \"#utility.yul\":12329:12330   */\n      0x01\n        /* \"#utility.yul\":12323:12327   */\n      0x20\n        /* \"#utility.yul\":12319:12331   */\n      sub\n        /* \"#utility.yul\":12308:12316   */\n      dup5\n        /* \"#utility.yul\":12292:12306   */\n      calldatasize\n        /* \"#utility.yul\":12288:12317   */\n      sub\n        /* \"#utility.yul\":12284:12332   */\n      sub\n        /* \"#utility.yul\":12264:12282   */\n      dup2\n        /* \"#utility.yul\":12260:12333   */\n      slt\n        /* \"#utility.yul\":12250:12418   */\n      tag_287\n      jumpi\n        /* \"#utility.yul\":12337:12416   */\n      tag_288\n      tag_127\n      jump\t// in\n    tag_288:\n        /* \"#utility.yul\":12250:12418   */\n    tag_287:\n        /* \"#utility.yul\":12449:12467   */\n      dup1\n        /* \"#utility.yul\":12439:12447   */\n      dup5\n        /* \"#utility.yul\":12435:12468   */\n      add\n        /* \"#utility.yul\":12427:12468   */\n      swap3\n      pop\n        /* \"#utility.yul\":12501:12505   */\n      dup3\n        /* \"#utility.yul\":12488:12506   */\n      calldataload\n        /* \"#utility.yul\":12478:12506   */\n      swap2\n      pop\n        /* \"#utility.yul\":12529:12547   */\n      0xffffffffffffffff\n        /* \"#utility.yul\":12521:12527   */\n      dup3\n        /* \"#utility.yul\":12518:12548   */\n      gt\n        /* \"#utility.yul\":12515:12632   */\n      iszero\n      tag_289\n      jumpi\n        /* \"#utility.yul\":12551:12630   */\n      tag_290\n      tag_128\n      jump\t// in\n    tag_290:\n        /* \"#utility.yul\":12515:12632   */\n    tag_289:\n        /* \"#utility.yul\":12659:12661   */\n      0x20\n        /* \"#utility.yul\":12653:12657   */\n      dup4\n        /* \"#utility.yul\":12649:12662   */\n      add\n        /* \"#utility.yul\":12641:12662   */\n      swap3\n      pop\n        /* \"#utility.yul\":12716:12720   */\n      0x01\n        /* \"#utility.yul\":12708:12714   */\n      dup3\n        /* \"#utility.yul\":12704:12721   */\n      mul\n        /* \"#utility.yul\":12688:12702   */\n      calldatasize\n        /* \"#utility.yul\":12684:12722   */\n      sub\n        /* \"#utility.yul\":12678:12682   */\n      dup4\n        /* \"#utility.yul\":12674:12723   */\n      sgt\n        /* \"#utility.yul\":12671:12807   */\n      iszero\n      tag_291\n      jumpi\n        /* \"#utility.yul\":12726:12805   */\n      tag_292\n      tag_129\n      jump\t// in\n    tag_292:\n        /* \"#utility.yul\":12671:12807   */\n    tag_291:\n        /* \"#utility.yul\":12180:12814   */\n      pop\n        /* \"#utility.yul\":12089:12814   */\n      swap3\n      pop\n      swap3\n      swap1\n      pop\n      jump\t// out\n        /* \"#utility.yul\":12820:12917   */\n    tag_131:\n        /* \"#utility.yul\":12879:12885   */\n      0x00\n        /* \"#utility.yul\":12907:12910   */\n      dup3\n        /* \"#utility.yul\":12897:12910   */\n      swap1\n      pop\n        /* \"#utility.yul\":12820:12917   */\n      swap3\n      swap2\n      pop\n      pop\n      jump\t// out\n        /* \"#utility.yul\":12923:13064   */\n    tag_132:\n        /* \"#utility.yul\":12972:12976   */\n      0x00\n        /* \"#utility.yul\":12995:12998   */\n      dup2\n        /* \"#utility.yul\":12987:12998   */\n      swap1\n      pop\n        /* \"#utility.yul\":13018:13021   */\n      dup2\n        /* \"#utility.yul\":13015:13016   */\n      0x00\n        /* \"#utility.yul\":13008:13022   */\n      mstore\n        /* \"#utility.yul\":13052:13056   */\n      0x20\n        /* \"#utility.yul\":13049:13050   */\n      0x00\n        /* \"#utility.yul\":13039:13057   */\n      keccak256\n        /* \"#utility.yul\":13031:13057   */\n      swap1\n      pop\n        /* \"#utility.yul\":12923:13064   */\n      swap2\n      swap1\n      pop\n      jump\t// out\n        /* \"#utility.yul\":13070:13163   */\n    tag_133:\n        /* \"#utility.yul\":13107:13113   */\n      0x00\n        /* \"#utility.yul\":13154:13156   */\n      0x20\n        /* \"#utility.yul\":13149:13151   */\n      0x1f\n        /* \"#utility.yul\":13142:13147   */\n      dup4\n        /* \"#utility.yul\":13138:13152   */\n      add\n        /* \"#utility.yul\":13134:13157   */\n      div\n        /* \"#utility.yul\":13124:13157   */\n      swap1\n      pop\n        /* \"#utility.yul\":13070:13163   */\n      swap2\n      swap1\n      pop\n      jump\t// out\n        /* \"#utility.yul\":13169:13276   */\n    tag_134:\n        /* \"#utility.yul\":13213:13221   */\n      0x00\n        /* \"#utility.yul\":13263:13268   */\n      dup3\n        /* \"#utility.yul\":13257:13261   */\n      dup3\n        /* \"#utility.yul\":13253:13269   */\n      shl\n        /* \"#utility.yul\":13232:13269   */\n      swap1\n      pop\n        /* \"#utility.yul\":13169:13276   */\n      swap3\n      swap2\n      pop\n      pop\n      jump\t// out\n        /* \"#utility.yul\":13282:13675   */\n    tag_135:\n        /* \"#utility.yul\":13351:13357   */\n      0x00\n        /* \"#utility.yul\":13401:13402   */\n      0x08\n        /* \"#utility.yul\":13389:13399   */\n      dup4\n        /* \"#utility.yul\":13385:13403   */\n      mul\n        /* \"#utility.yul\":13424:13521   */\n      tag_298\n        /* \"#utility.yul\":13454:13520   */\n      0xffffffffffffffffffffffffffffffffffffffffffffffffffffffffffffffff\n        /* \"#utility.yul\":13443:13452   */\n      dup3\n        /* \"#utility.yul\":13424:13521   */\n      tag_134\n      jump\t// in\n    tag_298:\n        /* \"#utility.yul\":13542:13581   */\n      tag_299\n        /* \"#utility.yul\":13572:13580   */\n      dup7\n        /* \"#utility.yul\":13561:13570   */\n      dup4\n        /* \"#utility.yul\":13542:13581   */\n      tag_134\n      jump\t// in\n    tag_299:\n        /* \"#utility.yul\":13530:13581   */\n      swap6\n      pop\n        /* \"#utility.yul\":13614:13618   */\n      dup1\n        /* \"#utility.yul\":13610:13619   */\n      not\n        /* \"#utility.yul\":13603:13608   */\n      dup5\n        /* \"#utility.yul\":13599:13620   */\n      and\n        /* \"#utility.yul\":13590:13620   */\n      swap4\n      pop\n        /* \"#utility.yul\":13663:13667   */\n      dup1\n        /* \"#utility.yul\":13653:13661   */\n      dup7\n        /* \"#utility.yul\":13649:13668   */\n      and\n        /* \"#utility.yul\":13642:13647   */\n      dup5\n        /* \"#utility.yul\":13639:13669   */\n      or\n        /* \"#utility.yul\":13629:13669   */\n      swap3\n      pop\n        /* \"#utility.yul\":13358:13675   */\n      pop\n      pop\n        /* \"#utility.yul\":13282:13675   */\n      swap4\n      swap3\n      pop\n      pop\n      pop\n      jump\t// out\n        /* \"#utility.yul\":13681:13741   */\n    tag_136:\n        /* \"#utility.yul\":13709:13712   */\n      0x00\n        /* \"#utility.yul\":13730:13735   */\n      dup2\n        /* \"#utility.yul\":13723:13735   */\n      swap1\n      pop\n        /* \"#utility.yul\":13681:13741   */\n      swap2\n      swap1\n      pop\n      jump\t// out\n        /* \"#utility.yul\":13747:13889   */\n    tag_137:\n        /* \"#utility.yul\":13797:13806   */\n      0x00\n        /* \"#utility.yul\":13830:13883   */\n      tag_302\n        /* \"#utility.yul\":13848:13882   */\n      tag_303\n        /* \"#utility.yul\":13857:13881   */\n      tag_304\n        /* \"#utility.yul\":13875:13880   */\n      dup5\n        /* \"#utility.yul\":13857:13881   */\n      tag_96\n      jump\t// in\n    tag_304:\n        /* \"#utility.yul\":13848:13882   */\n      tag_136\n      jump\t// in\n    tag_303:\n        /* \"#utility.yul\":13830:13883   */\n      tag_96\n      jump\t// in\n    tag_302:\n        /* \"#utility.yul\":13817:13883   */\n      swap1\n      pop\n        /* \"#utility.yul\":13747:13889   */\n      swap2\n      swap1\n      pop\n      jump\t// out\n        /* \"#utility.yul\":13895:13970   */\n    tag_138:\n        /* \"#utility.yul\":13938:13941   */\n      0x00\n        /* \"#utility.yul\":13959:13964   */\n      dup2\n        /* \"#utility.yul\":13952:13964   */\n      swap1\n      pop\n        /* \"#utility.yul\":13895:13970   */\n      swap2\n      swap1\n      pop\n      jump\t// out\n        /* \"#utility.yul\":13976:14245   */\n    tag_139:\n        /* \"#utility.yul\":14086:14125   */\n      tag_307\n        /* \"#utility.yul\":14117:14124   */\n      dup4\n        /* \"#utility.yul\":14086:14125   */\n      tag_137\n      jump\t// in\n    tag_307:\n        /* \"#utility.yul\":14147:14238   */\n      tag_308\n        /* \"#utility.yul\":14196:14237   */\n      tag_309\n        /* \"#utility.yul\":14220:14236   */\n      dup3\n        /* \"#utility.yul\":14196:14237   */\n      tag_138\n      jump\t// in\n    tag_309:\n        /* \"#utility.yul\":14188:14194   */\n      dup5\n        /* \"#utility.yul\":14181:14185   */\n      dup5\n        /* \"#utility.yul\":14175:14186   */\n      sload\n        /* \"#utility.yul\":14147:14238   */\n      tag_135\n      jump\t// in\n    tag_308:\n        /* \"#utility.yul\":14141:14145   */\n      dup3\n        /* \"#utility.yul\":14134:14239   */\n      sstore\n        /* \"#utility.yul\":14052:14245   */\n      pop\n        /* \"#utility.yul\":13976:14245   */\n      pop\n      pop\n      pop\n      jump\t// out\n        /* \"#utility.yul\":14251:14324   */\n    tag_140:\n        /* \"#utility.yul\":14296:14299   */\n      0x00\n        /* \"#utility.yul\":14251:14324   */\n      swap1\n      jump\t// out\n        /* \"#utility.yul\":14330:14519   */\n    tag_141:\n        /* \"#utility.yul\":14407:14439   */\n      tag_312\n      tag_140\n      jump\t// in\n    tag_312:\n        /* \"#utility.yul\":14448:14513   */\n      tag_313\n        /* \"#utility.yul\":14506:14512   */\n      dup2\n        /* \"#utility.yul\":14498:14504   */\n      dup5\n        /* \"#utility.yul\":14492:14496   */\n      dup5\n        /* \"#utility.yul\":14448:14513   */\n      tag_139\n      jump\t// in\n    tag_313:\n        /* \"#utility.yul\":14383:14519   */\n      pop\n        /* \"#utility.yul\":14330:14519   */\n      pop\n      pop\n      jump\t// out\n        /* \"#utility.yul\":14525:14711   */\n    tag_142:\n        /* \"#utility.yul\":14585:14705   */\n    tag_315:\n        /* \"#utility.yul\":14602:14605   */\n      dup2\n        /* \"#utility.yul\":14595:14600   */\n      dup2\n        /* \"#utility.yul\":14592:14606   */\n      lt\n        /* \"#utility.yul\":14585:14705   */\n      iszero\n      tag_317\n      jumpi\n        /* \"#utility.yul\":14656:14695   */\n      tag_318\n        /* \"#utility.yul\":14693:14694   */\n      0x00\n        /* \"#utility.yul\":14686:14691   */\n      dup3\n        /* \"#utility.yul\":14656:14695   */\n      tag_141\n      jump\t// in\n    tag_318:\n        /* \"#utility.yul\":14629:14630   */\n      0x01\n        /* \"#utility.yul\":14622:14627   */\n      dup2\n        /* \"#utility.yul\":14618:14631   */\n      add\n        /* \"#utility.yul\":14609:14631   */\n      swap1\n      pop\n        /* \"#utility.yul\":14585:14705   */\n      jump(tag_315)\n    tag_317:\n        /* \"#utility.yul\":14525:14711   */\n      pop\n      pop\n      jump\t// out\n        /* \"#utility.yul\":14717:15260   */\n    tag_143:\n        /* \"#utility.yul\":14818:14820   */\n      0x1f\n        /* \"#utility.yul\":14813:14816   */\n      dup3\n        /* \"#utility.yul\":14810:14821   */\n      gt\n        /* \"#utility.yul\":14807:15253   */\n      iszero\n      tag_320\n      jumpi\n        /* \"#utility.yul\":14852:14890   */\n      tag_321\n        /* \"#utility.yul\":14884:14889   */\n      dup2\n        /* \"#utility.yul\":14852:14890   */\n      tag_132\n      jump\t// in\n    tag_321:\n        /* \"#utility.yul\":14936:14965   */\n      tag_322\n        /* \"#utility.yul\":14954:14964   */\n      dup5\n        /* \"#utility.yul\":14936:14965   */\n      tag_133\n      jump\t// in\n    tag_322:\n        /* \"#utility.yul\":14926:14934   */\n      dup2\n        /* \"#utility.yul\":14922:14966   */\n      add\n        /* \"#utility.yul\":15119:15121   */\n      0x20\n        /* \"#utility.yul\":15107:15117   */\n      dup6\n        /* \"#utility.yul\":15104:15122   */\n      lt\n        /* \"#utility.yul\":15101:15150   */\n      iszero\n      tag_323\n      jumpi\n        /* \"#utility.yul\":15140:15148   */\n      dup2\n        /* \"#utility.yul\":15125:15148   */\n      swap1\n      pop\n        /* \"#utility.yul\":15101:15150   */\n    tag_323:\n        /* \"#utility.yul\":15163:15243   */\n      tag_324\n        /* \"#utility.yul\":15219:15241   */\n      tag_325\n        /* \"#utility.yul\":15237:15240   */\n      dup6\n        /* \"#utility.yul\":15219:15241   */\n      tag_133\n      jump\t// in\n    tag_325:\n        /* \"#utility.yul\":15209:15217   */\n      dup4\n        /* \"#utility.yul\":15205:15242   */\n      add\n        /* \"#utility.yul\":15192:15203   */\n      dup3\n        /* \"#utility.yul\":15163:15243   */\n      tag_142\n      jump\t// in\n    tag_324:\n        /* \"#utility.yul\":14822:15253   */\n      pop\n      pop\n        /* \"#utility.yul\":14807:15253   */\n    tag_320:\n        /* \"#utility.yul\":14717:15260   */\n      pop\n      pop\n      pop\n      jump\t// out\n        /* \"#utility.yul\":15266:15383   */\n    tag_144:\n        /* \"#utility.yul\":15320:15328   */\n      0x00\n        /* \"#utility.yul\":15370:15375   */\n      dup3\n        /* \"#utility.yul\":15364:15368   */\n      dup3\n        /* \"#utility.yul\":15360:15376   */\n      shr\n        /* \"#utility.yul\":15339:15376   */\n      swap1\n      pop\n        /* \"#utility.yul\":15266:15383   */\n      swap3\n      swap2\n      pop\n      pop\n      jump\t// out\n        /* \"#utility.yul\":15389:15558   */\n    tag_145:\n        /* \"#utility.yul\":15433:15439   */\n      0x00\n        /* \"#utility.yul\":15466:15517   */\n      tag_328\n        /* \"#utility.yul\":15514:15515   */\n      0x00\n        /* \"#utility.yul\":15510:15516   */\n      not\n        /* \"#utility.yul\":15502:15507   */\n      dup5\n        /* \"#utility.yul\":15499:15500   */\n      0x08\n        /* \"#utility.yul\":15495:15508   */\n      mul\n        /* \"#utility.yul\":15466:15517   */\n      tag_144\n      jump\t// in\n    tag_328:\n        /* \"#utility.yul\":15462:15518   */\n      not\n        /* \"#utility.yul\":15547:15551   */\n      dup1\n        /* \"#utility.yul\":15541:15545   */\n      dup4\n        /* \"#utility.yul\":15537:15552   */\n      and\n        /* \"#utility.yul\":15527:15552   */\n      swap2\n      pop\n        /* \"#utility.yul\":15440:15558   */\n      pop\n        /* \"#utility.yul\":15389:15558   */\n      swap3\n      swap2\n      pop\n      pop\n      jump\t// out\n        /* \"#utility.yul\":15563:15858   */\n    tag_146:\n        /* \"#utility.yul\":15639:15643   */\n      0x00\n        /* \"#utility.yul\":15785:15814   */\n      tag_330\n        /* \"#utility.yul\":15810:15813   */\n      dup4\n        /* \"#utility.yul\":15804:15808   */\n      dup4\n        /* \"#utility.yul\":15785:15814   */\n      tag_145\n      jump\t// in\n    tag_330:\n        /* \"#utility.yul\":15777:15814   */\n      swap2\n      pop\n        /* \"#utility.yul\":15847:15850   */\n      dup3\n        /* \"#utility.yul\":15844:15845   */\n      0x02\n        /* \"#utility.yul\":15840:15851   */\n      mul\n        /* \"#utility.yul\":15834:15838   */\n      dup3\n        /* \"#utility.yul\":15831:15852   */\n      or\n        /* \"#utility.yul\":15823:15852   */\n      swap1\n      pop\n        /* \"#utility.yul\":15563:15858   */\n      swap3\n      swap2\n      pop\n      pop\n      jump\t// out\n        /* \"#utility.yul\":15863:17266   */\n    tag_72:\n        /* \"#utility.yul\":15987:16031   */\n      tag_332\n        /* \"#utility.yul\":16027:16030   */\n      dup4\n        /* \"#utility.yul\":16022:16025   */\n      dup4\n        /* \"#utility.yul\":15987:16031   */\n      tag_131\n      jump\t// in\n    tag_332:\n        /* \"#utility.yul\":16096:16114   */\n      0xffffffffffffffff\n        /* \"#utility.yul\":16088:16094   */\n      dup2\n        /* \"#utility.yul\":16085:16115   */\n      gt\n        /* \"#utility.yul\":16082:16138   */\n      iszero\n      tag_333\n      jumpi\n        /* \"#utility.yul\":16118:16136   */\n      tag_334\n      tag_114\n      jump\t// in\n    tag_334:\n        /* \"#utility.yul\":16082:16138   */\n    tag_333:\n        /* \"#utility.yul\":16162:16200   */\n      tag_335\n        /* \"#utility.yul\":16194:16198   */\n      dup3\n        /* \"#utility.yul\":16188:16199   */\n      sload\n        /* \"#utility.yul\":16162:16200   */\n      tag_54\n      jump\t// in\n    tag_335:\n        /* \"#utility.yul\":16247:16314   */\n      tag_336\n        /* \"#utility.yul\":16307:16313   */\n      dup3\n        /* \"#utility.yul\":16299:16305   */\n      dup3\n        /* \"#utility.yul\":16293:16297   */\n      dup6\n        /* \"#utility.yul\":16247:16314   */\n      tag_143\n      jump\t// in\n    tag_336:\n        /* \"#utility.yul\":16341:16342   */\n      0x00\n        /* \"#utility.yul\":16370:16372   */\n      0x1f\n        /* \"#utility.yul\":16362:16368   */\n      dup4\n        /* \"#utility.yul\":16359:16373   */\n      gt\n        /* \"#utility.yul\":16387:16388   */\n      0x01\n        /* \"#utility.yul\":16382:17014   */\n      dup2\n      eq\n      tag_338\n      jumpi\n        /* \"#utility.yul\":17058:17059   */\n      0x00\n        /* \"#utility.yul\":17075:17081   */\n      dup5\n        /* \"#utility.yul\":17072:17156   */\n      iszero\n      tag_339\n      jumpi\n        /* \"#utility.yul\":17131:17140   */\n      dup3\n        /* \"#utility.yul\":17126:17129   */\n      dup8\n        /* \"#utility.yul\":17122:17141   */\n      add\n        /* \"#utility.yul\":17109:17142   */\n      calldataload\n        /* \"#utility.yul\":17100:17142   */\n      swap1\n      pop\n        /* \"#utility.yul\":17072:17156   */\n    tag_339:\n        /* \"#utility.yul\":17182:17249   */\n      tag_340\n        /* \"#utility.yul\":17242:17248   */\n      dup6\n        /* \"#utility.yul\":17235:17240   */\n      dup3\n        /* \"#utility.yul\":17182:17249   */\n      tag_146\n      jump\t// in\n    tag_340:\n        /* \"#utility.yul\":17176:17180   */\n      dup7\n        /* \"#utility.yul\":17169:17250   */\n      sstore\n        /* \"#utility.yul\":17031:17260   */\n      pop\n        /* \"#utility.yul\":16352:17260   */\n      jump(tag_337)\n        /* \"#utility.yul\":16382:17014   */\n    tag_338:\n        /* \"#utility.yul\":16434:16438   */\n      0x1f\n        /* \"#utility.yul\":16430:16439   */\n      not\n        /* \"#utility.yul\":16422:16428   */\n      dup5\n        /* \"#utility.yul\":16418:16440   */\n      and\n        /* \"#utility.yul\":16468:16505   */\n      tag_341\n        /* \"#utility.yul\":16500:16504   */\n      dup7\n        /* \"#utility.yul\":16468:16505   */\n      tag_132\n      jump\t// in\n    tag_341:\n        /* \"#utility.yul\":16527:16528   */\n      0x00\n        /* \"#utility.yul\":16541:16756   */\n    tag_342:\n        /* \"#utility.yul\":16555:16562   */\n      dup3\n        /* \"#utility.yul\":16552:16553   */\n      dup2\n        /* \"#utility.yul\":16549:16563   */\n      lt\n        /* \"#utility.yul\":16541:16756   */\n      iszero\n      tag_344\n      jumpi\n        /* \"#utility.yul\":16641:16650   */\n      dup5\n        /* \"#utility.yul\":16636:16639   */\n      dup10\n        /* \"#utility.yul\":16632:16651   */\n      add\n        /* \"#utility.yul\":16619:16652   */\n      calldataload\n        /* \"#utility.yul\":16611:16617   */\n      dup3\n        /* \"#utility.yul\":16604:16653   */\n      sstore\n        /* \"#utility.yul\":16692:16693   */\n      0x01\n        /* \"#utility.yul\":16684:16690   */\n      dup3\n        /* \"#utility.yul\":16680:16694   */\n      add\n        /* \"#utility.yul\":16670:16694   */\n      swap2\n      pop\n        /* \"#utility.yul\":16739:16741   */\n      0x20\n        /* \"#utility.yul\":16728:16737   */\n      dup6\n        /* \"#utility.yul\":16724:16742   */\n      add\n        /* \"#utility.yul\":16711:16742   */\n      swap5\n      pop\n        /* \"#utility.yul\":16578:16582   */\n      0x20\n        /* \"#utility.yul\":16575:16576   */\n      dup2\n        /* \"#utility.yul\":16571:16583   */\n      add\n        /* \"#utility.yul\":16566:16583   */\n      swap1\n      pop\n        /* \"#utility.yul\":16541:16756   */\n      jump(tag_342)\n    tag_344:\n        /* \"#utility.yul\":16784:16790   */\n      dup7\n        /* \"#utility.yul\":16775:16782   */\n      dup4\n        /* \"#utility.yul\":16772:16791   */\n      lt\n        /* \"#utility.yul\":16769:16955   */\n      iszero\n      tag_345\n      jumpi\n        /* \"#utility.yul\":16849:16858   */\n      dup5\n        /* \"#utility.yul\":16844:16847   */\n      dup10\n        /* \"#utility.yul\":16840:16859   */\n      add\n        /* \"#utility.yul\":16827:16860   */\n      calldataload\n        /* \"#utility.yul\":16892:16940   */\n      tag_346\n        /* \"#utility.yul\":16934:16938   */\n      0x1f\n        /* \"#utility.yul\":16926:16932   */\n      dup10\n        /* \"#utility.yul\":16922:16939   */\n      and\n        /* \"#utility.yul\":16911:16920   */\n      dup3\n        /* \"#utility.yul\":16892:16940   */\n      tag_145\n      jump\t// in\n    tag_346:\n        /* \"#utility.yul\":16884:16890   */\n      dup4\n        /* \"#utility.yul\":16877:16941   */\n      sstore\n        /* \"#utility.yul\":16792:16955   */\n      pop\n        /* \"#utility.yul\":16769:16955   */\n    tag_345:\n        /* \"#utility.yul\":17001:17002   */\n      0x01\n        /* \"#utility.yul\":16997:16998   */\n      0x02\n        /* \"#utility.yul\":16989:16995   */\n      dup9\n        /* \"#utility.yul\":16985:16999   */\n      mul\n        /* \"#utility.yul\":16981:17003   */\n      add\n        /* \"#utility.yul\":16975:16979   */\n      dup9\n        /* \"#utility.yul\":16968:17004   */\n      sstore\n        /* \"#utility.yul\":16389:17014   */\n      pop\n      pop\n      pop\n        /* \"#utility.yul\":16352:17260   */\n    tag_337:\n      pop\n        /* \"#utility.yul\":15962:17266   */\n      pop\n      pop\n      pop\n        /* \"#utility.yul\":15863:17266   */\n      pop\n      pop\n      pop\n      jump\t// out\n        /* \"#utility.yul\":17272:17490   */\n    tag_147:\n        /* \"#utility.yul\":17387:17484   */\n      tag_348\n        /* \"#utility.yul\":17476:17483   */\n      dup4\n        /* \"#utility.yul\":17467:17474   */\n      dup4\n        /* \"#utility.yul\":17461:17465   */\n      dup4\n        /* \"#utility.yul\":17387:17484   */\n      tag_72\n      jump\t// in\n    tag_348:\n        /* \"#utility.yul\":17272:17490   */\n      pop\n      pop\n      pop\n      jump\t// out\n        /* \"#utility.yul\":17496:17682   */\n    tag_148:\n        /* \"#utility.yul\":17541:17552   */\n      0x00\n        /* \"#utility.yul\":17590:17593   */\n      dup2\n        /* \"#utility.yul\":17577:17594   */\n      calldataload\n        /* \"#utility.yul\":17603:17636   */\n      tag_350\n        /* \"#utility.yul\":17630:17635   */\n      dup2\n        /* \"#utility.yul\":17603:17636   */\n      tag_97\n      jump\t// in\n    tag_350:\n        /* \"#utility.yul\":17670:17675   */\n      dup1\n        /* \"#utility.yul\":17646:17675   */\n      swap2\n      pop\n        /* \"#utility.yul\":17553:17682   */\n      pop\n        /* \"#utility.yul\":17496:17682   */\n      swap2\n      swap1\n      pop\n      jump\t// out\n        /* \"#utility.yul\":17688:17780   */\n    tag_149:\n        /* \"#utility.yul\":17720:17728   */\n      0x00\n        /* \"#utility.yul\":17767:17772   */\n      dup2\n        /* \"#utility.yul\":17764:17765   */\n      0x00\n        /* \"#utility.yul\":17760:17773   */\n      shl\n        /* \"#utility.yul\":17739:17773   */\n      swap1\n      pop\n        /* \"#utility.yul\":17688:17780   */\n      swap2\n      swap1\n      pop\n      jump\t// out\n        /* \"#utility.yul\":17786:18076   */\n    tag_150:\n        /* \"#utility.yul\":17844:17850   */\n      0x00\n        /* \"#utility.yul\":17873:17939   */\n      0xffffffffffffffffffffffffffffffffffffffffffffffffffffffffffffffff\n        /* \"#utility.yul\":17960:17982   */\n      tag_353\n        /* \"#utility.yul\":17973:17981   */\n      dup5\n        /* \"#utility.yul\":17960:17982   */\n      tag_149\n      jump\t// in\n    tag_353:\n        /* \"#utility.yul\":17948:17982   */\n      swap4\n      pop\n        /* \"#utility.yul\":18015:18019   */\n      dup1\n        /* \"#utility.yul\":18011:18020   */\n      not\n        /* \"#utility.yul\":18004:18009   */\n      dup4\n        /* \"#utility.yul\":18000:18021   */\n      and\n        /* \"#utility.yul\":17991:18021   */\n      swap3\n      pop\n        /* \"#utility.yul\":18064:18068   */\n      dup1\n        /* \"#utility.yul\":18054:18062   */\n      dup5\n        /* \"#utility.yul\":18050:18069   */\n      and\n        /* \"#utility.yul\":18043:18048   */\n      dup4\n        /* \"#utility.yul\":18040:18070   */\n      or\n        /* \"#utility.yul\":18030:18070   */\n      swap2\n      pop\n        /* \"#utility.yul\":17851:18076   */\n      pop\n        /* \"#utility.yul\":17786:18076   */\n      swap3\n      swap2\n      pop\n      pop\n      jump\t// out\n        /* \"#utility.yul\":18082:18344   */\n    tag_151:\n        /* \"#utility.yul\":18192:18231   */\n      tag_355\n        /* \"#utility.yul\":18223:18230   */\n      dup3\n        /* \"#utility.yul\":18192:18231   */\n      tag_137\n      jump\t// in\n    tag_355:\n        /* \"#utility.yul\":18253:18337   */\n      tag_356\n        /* \"#utility.yul\":18295:18336   */\n      tag_357\n        /* \"#utility.yul\":18319:18335   */\n      dup3\n        /* \"#utility.yul\":18295:18336   */\n      tag_138\n      jump\t// in\n    tag_357:\n        /* \"#utility.yul\":18288:18292   */\n      dup4\n        /* \"#utility.yul\":18282:18293   */\n      sload\n        /* \"#utility.yul\":18253:18337   */\n      tag_150\n      jump\t// in\n    tag_356:\n        /* \"#utility.yul\":18247:18251   */\n      dup3\n        /* \"#utility.yul\":18240:18338   */\n      sstore\n        /* \"#utility.yul\":18158:18344   */\n      pop\n        /* \"#utility.yul\":18082:18344   */\n      pop\n      pop\n      jump\t// out\n        /* \"#utility.yul\":18350:19178   */\n    tag_152:\n        /* \"#utility.yul\":18522:18523   */\n      0x00\n        /* \"#utility.yul\":18516:18520   */\n      dup2\n        /* \"#utility.yul\":18512:18524   */\n      add\n        /* \"#utility.yul\":18568:18569   */\n      0x00\n        /* \"#utility.yul\":18561:18566   */\n      dup4\n        /* \"#utility.yul\":18557:18570   */\n      add\n        /* \"#utility.yul\":18633:18696   */\n      tag_359\n        /* \"#utility.yul\":18683:18695   */\n      dup2\n        /* \"#utility.yul\":18676:18681   */\n      dup6\n        /* \"#utility.yul\":18633:18696   */\n      tag_130\n      jump\t// in\n    tag_359:\n        /* \"#utility.yul\":18710:18822   */\n      tag_360\n        /* \"#utility.yul\":18808:18821   */\n      dup2\n        /* \"#utility.yul\":18793:18806   */\n      dup4\n        /* \"#utility.yul\":18781:18791   */\n      dup7\n        /* \"#utility.yul\":18710:18822   */\n      tag_147\n      jump\t// in\n    tag_360:\n        /* \"#utility.yul\":18479:18833   */\n      pop\n      pop\n      pop\n      pop\n        /* \"#utility.yul\":18886:18887   */\n      0x01\n        /* \"#utility.yul\":18880:18884   */\n      dup2\n        /* \"#utility.yul\":18876:18888   */\n      add\n        /* \"#utility.yul\":18932:18934   */\n      0x20\n        /* \"#utility.yul\":18925:18930   */\n      dup4\n        /* \"#utility.yul\":18921:18935   */\n      add\n        /* \"#utility.yul\":18983:18995   */\n      dup1\n        /* \"#utility.yul\":19026:19068   */\n      tag_361\n        /* \"#utility.yul\":19054:19067   */\n      dup2\n        /* \"#utility.yul\":19026:19068   */\n      tag_148\n      jump\t// in\n    tag_361:\n        /* \"#utility.yul\":19009:19068   */\n      swap1\n      pop\n        /* \"#utility.yul\":19082:19160   */\n      tag_362\n        /* \"#utility.yul\":19146:19159   */\n      dup2\n        /* \"#utility.yul\":19134:19144   */\n      dup5\n        /* \"#utility.yul\":19082:19160   */\n      tag_151\n      jump\t// in\n    tag_362:\n        /* \"#utility.yul\":18843:19171   */\n      pop\n      pop\n      pop\n        /* \"#utility.yul\":18350:19178   */\n      pop\n      pop\n      jump\t// out\n        /* \"#utility.yul\":19184:19432   */\n    tag_62:\n        /* \"#utility.yul\":19316:19426   */\n      tag_364\n        /* \"#utility.yul\":19418:19425   */\n      dup3\n        /* \"#utility.yul\":19412:19416   */\n      dup3\n        /* \"#utility.yul\":19316:19426   */\n      tag_152\n      jump\t// in\n    tag_364:\n        /* \"#utility.yul\":19184:19432   */\n      pop\n      pop\n      jump\t// out\n        /* \"#utility.yul\":19438:19618   */\n    tag_84:\n        /* \"#utility.yul\":19486:19563   */\n      0x4e487b7100000000000000000000000000000000000000000000000000000000\n        /* \"#utility.yul\":19483:19484   */\n      0x00\n        /* \"#utility.yul\":19476:19564   */\n      mstore\n        /* \"#utility.yul\":19583:19587   */\n      0x32\n        /* \"#utility.yul\":19580:19581   */\n      0x04\n        /* \"#utility.yul\":19573:19588   */\n      mstore\n        /* \"#utility.yul\":19607:19611   */\n      0x24\n        /* \"#utility.yul\":19604:19605   */\n      0x00\n        /* \"#utility.yul\":19597:19612   */\n      revert\n        /* \"#utility.yul\":19624:19764   */\n    tag_153:\n        /* \"#utility.yul\":19672:19676   */\n      0x00\n        /* \"#utility.yul\":19695:19698   */\n      dup2\n        /* \"#utility.yul\":19687:19698   */\n      swap1\n      pop\n        /* \"#utility.yul\":19718:19721   */\n      dup2\n        /* \"#utility.yul\":19715:19716   */\n      0x00\n        /* \"#utility.yul\":19708:19722   */\n      mstore\n        /* \"#utility.yul\":19752:19756   */\n      0x20\n        /* \"#utility.yul\":19749:19750   */\n      0x00\n        /* \"#utility.yul\":19739:19757   */\n      keccak256\n        /* \"#utility.yul\":19731:19757   */\n      swap1\n      pop\n        /* \"#utility.yul\":19624:19764   */\n      swap2\n      swap1\n      pop\n      jump\t// out\n        /* \"#utility.yul\":19770:20311   */\n    tag_154:\n        /* \"#utility.yul\":19870:19872   */\n      0x1f\n        /* \"#utility.yul\":19865:19868   */\n      dup3\n        /* \"#utility.yul\":19862:19873   */\n      gt\n        /* \"#utility.yul\":19859:20304   */\n      iszero\n      tag_368\n      jumpi\n        /* \"#utility.yul\":19904:19941   */\n      tag_369\n        /* \"#utility.yul\":19935:19940   */\n      dup2\n        /* \"#utility.yul\":19904:19941   */\n      tag_153\n      jump\t// in\n    tag_369:\n        /* \"#utility.yul\":19987:20016   */\n      tag_370\n        /* \"#utility.yul\":20005:20015   */\n      dup5\n        /* \"#utility.yul\":19987:20016   */\n      tag_133\n      jump\t// in\n    tag_370:\n        /* \"#utility.yul\":19977:19985   */\n      dup2\n        /* \"#utility.yul\":19973:20017   */\n      add\n        /* \"#utility.yul\":20170:20172   */\n      0x20\n        /* \"#utility.yul\":20158:20168   */\n      dup6\n        /* \"#utility.yul\":20155:20173   */\n      lt\n        /* \"#utility.yul\":20152:20201   */\n      iszero\n      tag_371\n      jumpi\n        /* \"#utility.yul\":20191:20199   */\n      dup2\n        /* \"#utility.yul\":20176:20199   */\n      swap1\n      pop\n        /* \"#utility.yul\":20152:20201   */\n    tag_371:\n        /* \"#utility.yul\":20214:20294   */\n      tag_372\n        /* \"#utility.yul\":20270:20292   */\n      tag_373\n        /* \"#utility.yul\":20288:20291   */\n      dup6\n        /* \"#utility.yul\":20270:20292   */\n      tag_133\n      jump\t// in\n    tag_373:\n        /* \"#utility.yul\":20260:20268   */\n      dup4\n        /* \"#utility.yul\":20256:20293   */\n      add\n        /* \"#utility.yul\":20243:20254   */\n      dup3\n        /* \"#utility.yul\":20214:20294   */\n      tag_142\n      jump\t// in\n    tag_372:\n        /* \"#utility.yul\":19874:20304   */\n      pop\n      pop\n        /* \"#utility.yul\":19859:20304   */\n    tag_368:\n        /* \"#utility.yul\":19770:20311   */\n      pop\n      pop\n      pop\n      jump\t// out\n        /* \"#utility.yul\":20317:21707   */\n    tag_88:\n        /* \"#utility.yul\":20432:20468   */\n      tag_375\n        /* \"#utility.yul\":20464:20467   */\n      dup3\n        /* \"#utility.yul\":20432:20468   */\n      tag_107\n      jump\t// in\n    tag_375:\n        /* \"#utility.yul\":20533:20551   */\n      0xffffffffffffffff\n        /* \"#utility.yul\":20525:20531   */\n      dup2\n        /* \"#utility.yul\":20522:20552   */\n      gt\n        /* \"#utility.yul\":20519:20575   */\n      iszero\n      tag_376\n      jumpi\n        /* \"#utility.yul\":20555:20573   */\n      tag_377\n      tag_114\n      jump\t// in\n    tag_377:\n        /* \"#utility.yul\":20519:20575   */\n    tag_376:\n        /* \"#utility.yul\":20599:20637   */\n      tag_378\n        /* \"#utility.yul\":20631:20635   */\n      dup3\n        /* \"#utility.yul\":20625:20636   */\n      sload\n        /* \"#utility.yul\":20599:20637   */\n      tag_54\n      jump\t// in\n    tag_378:\n        /* \"#utility.yul\":20684:20750   */\n      tag_379\n        /* \"#utility.yul\":20743:20749   */\n      dup3\n        /* \"#utility.yul\":20735:20741   */\n      dup3\n        /* \"#utility.yul\":20729:20733   */\n      dup6\n        /* \"#utility.yul\":20684:20750   */\n      tag_154\n      jump\t// in\n    tag_379:\n        /* \"#utility.yul\":20777:20778   */\n      0x00\n        /* \"#utility.yul\":20801:20805   */\n      0x20\n        /* \"#utility.yul\":20788:20805   */\n      swap1\n      pop\n        /* \"#utility.yul\":20833:20835   */\n      0x1f\n        /* \"#utility.yul\":20825:20831   */\n      dup4\n        /* \"#utility.yul\":20822:20836   */\n      gt\n        /* \"#utility.yul\":20850:20851   */\n      0x01\n        /* \"#utility.yul\":20845:21462   */\n      dup2\n      eq\n      tag_381\n      jumpi\n        /* \"#utility.yul\":21506:21507   */\n      0x00\n        /* \"#utility.yul\":21523:21529   */\n      dup5\n        /* \"#utility.yul\":21520:21597   */\n      iszero\n      tag_382\n      jumpi\n        /* \"#utility.yul\":21572:21581   */\n      dup3\n        /* \"#utility.yul\":21567:21570   */\n      dup8\n        /* \"#utility.yul\":21563:21582   */\n      add\n        /* \"#utility.yul\":21557:21583   */\n      mload\n        /* \"#utility.yul\":21548:21583   */\n      swap1\n      pop\n        /* \"#utility.yul\":21520:21597   */\n    tag_382:\n        /* \"#utility.yul\":21623:21690   */\n      tag_383\n        /* \"#utility.yul\":21683:21689   */\n      dup6\n        /* \"#utility.yul\":21676:21681   */\n      dup3\n        /* \"#utility.yul\":21623:21690   */\n      tag_146\n      jump\t// in\n    tag_383:\n        /* \"#utility.yul\":21617:21621   */\n      dup7\n        /* \"#utility.yul\":21610:21691   */\n      sstore\n        /* \"#utility.yul\":21479:21701   */\n      pop\n        /* \"#utility.yul\":20815:21701   */\n      jump(tag_380)\n        /* \"#utility.yul\":20845:21462   */\n    tag_381:\n        /* \"#utility.yul\":20897:20901   */\n      0x1f\n        /* \"#utility.yul\":20893:20902   */\n      not\n        /* \"#utility.yul\":20885:20891   */\n      dup5\n        /* \"#utility.yul\":20881:20903   */\n      and\n        /* \"#utility.yul\":20931:20967   */\n      tag_384\n        /* \"#utility.yul\":20962:20966   */\n      dup7\n        /* \"#utility.yul\":20931:20967   */\n      tag_153\n      jump\t// in\n    tag_384:\n        /* \"#utility.yul\":20989:20990   */\n      0x00\n        /* \"#utility.yul\":21003:21211   */\n    tag_385:\n        /* \"#utility.yul\":21017:21024   */\n      dup3\n        /* \"#utility.yul\":21014:21015   */\n      dup2\n        /* \"#utility.yul\":21011:21025   */\n      lt\n        /* \"#utility.yul\":21003:21211   */\n      iszero\n      tag_387\n      jumpi\n        /* \"#utility.yul\":21096:21105   */\n      dup5\n        /* \"#utility.yul\":21091:21094   */\n      dup10\n        /* \"#utility.yul\":21087:21106   */\n      add\n        /* \"#utility.yul\":21081:21107   */\n      mload\n        /* \"#utility.yul\":21073:21079   */\n      dup3\n        /* \"#utility.yul\":21066:21108   */\n      sstore\n        /* \"#utility.yul\":21147:21148   */\n      0x01\n        /* \"#utility.yul\":21139:21145   */\n      dup3\n        /* \"#utility.yul\":21135:21149   */\n      add\n        /* \"#utility.yul\":21125:21149   */\n      swap2\n      pop\n        /* \"#utility.yul\":21194:21196   */\n      0x20\n        /* \"#utility.yul\":21183:21192   */\n      dup6\n        /* \"#utility.yul\":21179:21197   */\n      add\n        /* \"#utility.yul\":21166:21197   */\n      swap5\n      pop\n        /* \"#utility.yul\":21040:21044   */\n      0x20\n        /* \"#utility.yul\":21037:21038   */\n      dup2\n        /* \"#utility.yul\":21033:21045   */\n      add\n        /* \"#utility.yul\":21028:21045   */\n      swap1\n      pop\n        /* \"#utility.yul\":21003:21211   */\n      jump(tag_385)\n    tag_387:\n        /* \"#utility.yul\":21239:21245   */\n      dup7\n        /* \"#utility.yul\":21230:21237   */\n      dup4\n        /* \"#utility.yul\":21227:21246   */\n      lt\n        /* \"#utility.yul\":21224:21403   */\n      iszero\n      tag_388\n      jumpi\n        /* \"#utility.yul\":21297:21306   */\n      dup5\n        /* \"#utility.yul\":21292:21295   */\n      dup10\n        /* \"#utility.yul\":21288:21307   */\n      add\n        /* \"#utility.yul\":21282:21308   */\n      mload\n        /* \"#utility.yul\":21340:21388   */\n      tag_389\n        /* \"#utility.yul\":21382:21386   */\n      0x1f\n        /* \"#utility.yul\":21374:21380   */\n      dup10\n        /* \"#utility.yul\":21370:21387   */\n      and\n        /* \"#utility.yul\":21359:21368   */\n      dup3\n        /* \"#utility.yul\":21340:21388   */\n      tag_145\n      jump\t// in\n    tag_389:\n        /* \"#utility.yul\":21332:21338   */\n      dup4\n        /* \"#utility.yul\":21325:21389   */\n      sstore\n        /* \"#utility.yul\":21247:21403   */\n      pop\n        /* \"#utility.yul\":21224:21403   */\n    tag_388:\n        /* \"#utility.yul\":21449:21450   */\n      0x01\n        /* \"#utility.yul\":21445:21446   */\n      0x02\n        /* \"#utility.yul\":21437:21443   */\n      dup9\n        /* \"#utility.yul\":21433:21447   */\n      mul\n        /* \"#utility.yul\":21429:21451   */\n      add\n        /* \"#utility.yul\":21423:21427   */\n      dup9\n        /* \"#utility.yul\":21416:21452   */\n      sstore\n        /* \"#utility.yul\":20852:21462   */\n      pop\n      pop\n      pop\n        /* \"#utility.yul\":20815:21701   */\n    tag_380:\n      pop\n        /* \"#utility.yul\":20407:21707   */\n      pop\n      pop\n      pop\n        /* \"#utility.yul\":20317:21707   */\n      pop\n      pop\n      jump\t// out\n\n    auxdata: 0xa26469706673582212202cfdd7c0d973aa170490ac742aaaf3abda154a7cbaaf736be6995d46fa75aef464736f6c63430008190033\n}\n",
				"bytecode": {
					"linkReferences": {},
					"object": "6080604052348015600e575f80fd5b50610fa28061001c5f395ff3fe608060405234801561000f575f80fd5b5060043610610091575f3560e01c80637fcaf666116100645780637fcaf66614610130578063c15bae841461014c578063c51555661461016a578063da359dc814610186578063f8a8fd6d146101a257610091565b806306ead22e146100955780631e5c08c1146100c65780635478a4dc146100e257806371e5ee5f14610100575b5f80fd5b6100af60048036038101906100aa91906104cb565b6101c0565b6040516100bd92919061058f565b60405180910390f35b6100e060048036038101906100db91906105df565b610275565b005b6100ea6102af565b6040516100f79190610678565b60405180910390f35b61011a600480360381019061011591906104cb565b61033b565b6040516101279190610698565b60405180910390f35b61014a60048036038101906101459190610712565b61035b565b005b610154610370565b604051610161919061075d565b60405180910390f35b610184600480360381019061017f91906108b5565b6103fb565b005b6101a0600480360381019061019b91906109ac565b610457565b005b6101aa61046a565b6040516101b79190610698565b60405180910390f35b600481815481106101cf575f80fd5b905f5260205f2090600202015f91509050805f0180546101ee90610a20565b80601f016020809104026020016040519081016040528092919081815260200182805461021a90610a20565b80156102655780601f1061023c57610100808354040283529160200191610265565b820191905f5260205f20905b81548152906001019060200180831161024857829003601f168201915b5050505050908060010154905082565b600481908060018154018082558091505060019003905f5260205f2090600202015f9091909190915081816102aa9190610e0a565b505050565b600180546102bc90610a20565b80601f01602080910402602001604051908101604052809291908181526020018280546102e890610a20565b80156103335780601f1061030a57610100808354040283529160200191610333565b820191905f5260205f20905b81548152906001019060200180831161031657829003601f168201915b505050505081565b6002818154811061034a575f80fd5b905f5260205f20015f915090505481565b81815f918261036b929190610c65565b505050565b5f805461037c90610a20565b80601f01602080910402602001604051908101604052809291908181526020018280546103a890610a20565b80156103f35780601f106103ca576101008083540402835291602001916103f3565b820191905f5260205f20905b8154815290600101906020018083116103d657829003601f168201915b505050505081565b5f5b815181101561045357600282828151811061041b5761041a610e18565b5b6020026020010151908060018154018082558091505060019003905f5260205f20015f909190919091505580806001019150506103fd565b5050565b80600190816104669190610e9d565b5050565b5f610475600261047a565b905090565b5f81805490509050919050565b5f604051905090565b5f80fd5b5f80fd5b5f819050919050565b6104aa81610498565b81146104b4575f80fd5b50565b5f813590506104c5816104a1565b92915050565b5f602082840312156104e0576104df610490565b5b5f6104ed848285016104b7565b91505092915050565b5f81519050919050565b5f82825260208201905092915050565b5f5b8381101561052d578082015181840152602081019050610512565b5f8484015250505050565b5f601f19601f8301169050919050565b5f610552826104f6565b61055c8185610500565b935061056c818560208601610510565b61057581610538565b840191505092915050565b61058981610498565b82525050565b5f6040820190508181035f8301526105a78185610548565b90506105b66020830184610580565b9392505050565b5f80fd5b5f604082840312156105d6576105d56105bd565b5b81905092915050565b5f602082840312156105f4576105f3610490565b5b5f82013567ffffffffffffffff81111561061157610610610494565b5b61061d848285016105c1565b91505092915050565b5f81519050919050565b5f82825260208201905092915050565b5f61064a82610626565b6106548185610630565b9350610664818560208601610510565b61066d81610538565b840191505092915050565b5f6020820190508181035f8301526106908184610640565b905092915050565b5f6020820190506106ab5f830184610580565b92915050565b5f80fd5b5f80fd5b5f80fd5b5f8083601f8401126106d2576106d16106b1565b5b8235905067ffffffffffffffff8111156106ef576106ee6106b5565b5b60208301915083600182028301111561070b5761070a6106b9565b5b9250929050565b5f806020838503121561072857610727610490565b5b5f83013567ffffffffffffffff81111561074557610744610494565b5b610751858286016106bd565b92509250509250929050565b5f6020820190508181035f8301526107758184610548565b905092915050565b7f4e487b71000000000000000000000000000000000000000000000000000000005f52604160045260245ffd5b6107b382610538565b810181811067ffffffffffffffff821117156107d2576107d161077d565b5b80604052505050565b5f6107e4610487565b90506107f082826107aa565b919050565b5f67ffffffffffffffff82111561080f5761080e61077d565b5b602082029050602081019050919050565b5f61083261082d846107f5565b6107db565b90508083825260208201905060208402830185811115610855576108546106b9565b5b835b8181101561087e578061086a88826104b7565b845260208401935050602081019050610857565b5050509392505050565b5f82601f83011261089c5761089b6106b1565b5b81356108ac848260208601610820565b91505092915050565b5f602082840312156108ca576108c9610490565b5b5f82013567ffffffffffffffff8111156108e7576108e6610494565b5b6108f384828501610888565b91505092915050565b5f80fd5b5f67ffffffffffffffff82111561091a5761091961077d565b5b61092382610538565b9050602081019050919050565b828183375f83830152505050565b5f61095061094b84610900565b6107db565b90508281526020810184848401111561096c5761096b6108fc565b5b610977848285610930565b509392505050565b5f82601f830112610993576109926106b1565b5b81356109a384826020860161093e565b91505092915050565b5f602082840312156109c1576109c0610490565b5b5f82013567ffffffffffffffff8111156109de576109dd610494565b5b6109ea8482850161097f565b91505092915050565b7f4e487b71000000000000000000000000000000000000000000000000000000005f52602260045260245ffd5b5f6002820490506001821680610a3757607f821691505b602082108103610a4a57610a496109f3565b5b50919050565b5f80fd5b5f80fd5b5f80fd5b5f8083356001602003843603038112610a7857610a77610a50565b5b80840192508235915067ffffffffffffffff821115610a9a57610a99610a54565b5b602083019250600182023603831315610ab657610ab5610a58565b5b509250929050565b5f82905092915050565b5f819050815f5260205f209050919050565b5f6020601f8301049050919050565b5f82821b905092915050565b5f60088302610b247fffffffffffffffffffffffffffffffffffffffffffffffffffffffffffffffff82610ae9565b610b2e8683610ae9565b95508019841693508086168417925050509392505050565b5f819050919050565b5f610b69610b64610b5f84610498565b610b46565b610498565b9050919050565b5f819050919050565b610b8283610b4f565b610b96610b8e82610b70565b848454610af5565b825550505050565b5f90565b610baa610b9e565b610bb5818484610b79565b505050565b5b81811015610bd857610bcd5f82610ba2565b600181019050610bbb565b5050565b601f821115610c1d57610bee81610ac8565b610bf784610ada565b81016020851015610c06578190505b610c1a610c1285610ada565b830182610bba565b50505b505050565b5f82821c905092915050565b5f610c3d5f1984600802610c22565b1980831691505092915050565b5f610c558383610c2e565b9150826002028217905092915050565b610c6f8383610abe565b67ffffffffffffffff811115610c8857610c8761077d565b5b610c928254610a20565b610c9d828285610bdc565b5f601f831160018114610cca575f8415610cb8578287013590505b610cc28582610c4a565b865550610d29565b601f198416610cd886610ac8565b5f5b82811015610cff57848901358255600182019150602085019450602081019050610cda565b86831015610d1c5784890135610d18601f891682610c2e565b8355505b6001600288020188555050505b50505050505050565b610d3d838383610c65565b505050565b5f8135610d4e816104a1565b80915050919050565b5f815f1b9050919050565b5f7fffffffffffffffffffffffffffffffffffffffffffffffffffffffffffffffff610d8d84610d57565b9350801983169250808416831791505092915050565b610dac82610b4f565b610dbf610db882610b70565b8354610d62565b8255505050565b5f81015f8301610dd68185610a5c565b610de1818386610d32565b50505050600181016020830180610df781610d42565b9050610e038184610da3565b5050505050565b610e148282610dc6565b5050565b7f4e487b71000000000000000000000000000000000000000000000000000000005f52603260045260245ffd5b5f819050815f5260205f209050919050565b601f821115610e9857610e6981610e45565b610e7284610ada565b81016020851015610e81578190505b610e95610e8d85610ada565b830182610bba565b50505b505050565b610ea682610626565b67ffffffffffffffff811115610ebf57610ebe61077d565b5b610ec98254610a20565b610ed4828285610e57565b5f60209050601f831160018114610f05575f8415610ef3578287015190505b610efd8582610c4a565b865550610f64565b601f198416610f1386610e45565b5f5b82811015610f3a57848901518255600182019150602085019450602081019050610f15565b86831015610f575784890151610f53601f891682610c2e565b8355505b6001600288020188555050505b50505050505056fea26469706673582212202cfdd7c0d973aa170490ac742aaaf3abda154a7cbaaf736be6995d46fa75aef464736f6c63430008190033",
					"opcodes": "PUSH1 0x80 PUSH1 0x40 MSTORE CALLVALUE DUP1 ISZERO PUSH1 0xE JUMPI PUSH0 DUP1 REVERT JUMPDEST POP PUSH2 0xFA2 DUP1 PUSH2 0x1C PUSH0 CODECOPY PUSH0 RETURN INVALID PUSH1 0x80 PUSH1 0x40 MSTORE CALLVALUE DUP1 ISZERO PUSH2 0xF JUMPI PUSH0 DUP1 REVERT JUMPDEST POP PUSH1 0x4 CALLDATASIZE LT PUSH2 0x91 JUMPI PUSH0 CALLDATALOAD PUSH1 0xE0 SHR DUP1 PUSH4 0x7FCAF666 GT PUSH2 0x64 JUMPI DUP1 PUSH4 0x7FCAF666 EQ PUSH2 0x130 JUMPI DUP1 PUSH4 0xC15BAE84 EQ PUSH2 0x14C JUMPI DUP1 PUSH4 0xC5155566 EQ PUSH2 0x16A JUMPI DUP1 PUSH4 0xDA359DC8 EQ PUSH2 0x186 JUMPI DUP1 PUSH4 0xF8A8FD6D EQ PUSH2 0x1A2 JUMPI PUSH2 0x91 JUMP JUMPDEST DUP1 PUSH4 0x6EAD22E EQ PUSH2 0x95 JUMPI DUP1 PUSH4 0x1E5C08C1 EQ PUSH2 0xC6 JUMPI DUP1 PUSH4 0x5478A4DC EQ PUSH2 0xE2 JUMPI DUP1 PUSH4 0x71E5EE5F EQ PUSH2 0x100 JUMPI JUMPDEST PUSH0 DUP1 REVERT JUMPDEST PUSH2 0xAF PUSH1 0x4 DUP1 CALLDATASIZE SUB DUP2 ADD SWAP1 PUSH2 0xAA SWAP2 SWAP1 PUSH2 0x4CB JUMP JUMPDEST PUSH2 0x1C0 JUMP JUMPDEST PUSH1 0x40 MLOAD PUSH2 0xBD SWAP3 SWAP2 SWAP1 PUSH2 0x58F JUMP JUMPDEST PUSH1 0x40 MLOAD DUP1 SWAP2 SUB SWAP1 RETURN JUMPDEST PUSH2 0xE0 PUSH1 0x4 DUP1 CALLDATASIZE SUB DUP2 ADD SWAP1 PUSH2 0xDB SWAP2 SWAP1 PUSH2 0x5DF JUMP JUMPDEST PUSH2 0x275 JUMP JUMPDEST STOP JUMPDEST PUSH2 0xEA PUSH2 0x2AF JUMP JUMPDEST PUSH1 0x40 MLOAD PUSH2 0xF7 SWAP2 SWAP1 PUSH2 0x678 JUMP JUMPDEST PUSH1 0x40 MLOAD DUP1 SWAP2 SUB SWAP1 RETURN JUMPDEST PUSH2 0x11A PUSH1 0x4 DUP1 CALLDATASIZE SUB DUP2 ADD SWAP1 PUSH2 0x115 SWAP2 SWAP1 PUSH2 0x4CB JUMP JUMPDEST PUSH2 0x33B JUMP JUMPDEST PUSH1 0x40 MLOAD PUSH2 0x127 SWAP2 SWAP1 PUSH2 0x698 JUMP JUMPDEST PUSH1 0x40 MLOAD DUP1 SWAP2 SUB SWAP1 RETURN JUMPDEST PUSH2 0x14A PUSH1 0x4 DUP1 CALLDATASIZE SUB DUP2 ADD SWAP1 PUSH2 0x145 SWAP2 SWAP1 PUSH2 0x712 JUMP JUMPDEST PUSH2 0x35B JUMP JUMPDEST STOP JUMPDEST PUSH2 0x154 PUSH2 0x370 JUMP JUMPDEST PUSH1 0x40 MLOAD PUSH2 0x161 SWAP2 SWAP1 PUSH2 0x75D JUMP JUMPDEST PUSH1 0x40 MLOAD DUP1 SWAP2 SUB SWAP1 RETURN JUMPDEST PUSH2 0x184 PUSH1 0x4 DUP1 CALLDATASIZE SUB DUP2 ADD SWAP1 PUSH2 0x17F SWAP2 SWAP1 PUSH2 0x8B5 JUMP JUMPDEST PUSH2 0x3FB JUMP JUMPDEST STOP JUMPDEST PUSH2 0x1A0 PUSH1 0x4 DUP1 CALLDATASIZE SUB DUP2 ADD SWAP1 PUSH2 0x19B SWAP2 SWAP1 PUSH2 0x9AC JUMP JUMPDEST PUSH2 0x457 JUMP JUMPDEST STOP JUMPDEST PUSH2 0x1AA PUSH2 0x46A JUMP JUMPDEST PUSH1 0x40 MLOAD PUSH2 0x1B7 SWAP2 SWAP1 PUSH2 0x698 JUMP JUMPDEST PUSH1 0x40 MLOAD DUP1 SWAP2 SUB SWAP1 RETURN JUMPDEST PUSH1 0x4 DUP2 DUP2 SLOAD DUP2 LT PUSH2 0x1CF JUMPI PUSH0 DUP1 REVERT JUMPDEST SWAP1 PUSH0 MSTORE PUSH1 0x20 PUSH0 KECCAK256 SWAP1 PUSH1 0x2 MUL ADD PUSH0 SWAP2 POP SWAP1 POP DUP1 PUSH0 ADD DUP1 SLOAD PUSH2 0x1EE SWAP1 PUSH2 0xA20 JUMP JUMPDEST DUP1 PUSH1 0x1F ADD PUSH1 0x20 DUP1 SWAP2 DIV MUL PUSH1 0x20 ADD PUSH1 0x40 MLOAD SWAP1 DUP2 ADD PUSH1 0x40 MSTORE DUP1 SWAP3 SWAP2 SWAP1 DUP2 DUP2 MSTORE PUSH1 0x20 ADD DUP3 DUP1 SLOAD PUSH2 0x21A SWAP1 PUSH2 0xA20 JUMP JUMPDEST DUP1 ISZERO PUSH2 0x265 JUMPI DUP1 PUSH1 0x1F LT PUSH2 0x23C JUMPI PUSH2 0x100 DUP1 DUP4 SLOAD DIV MUL DUP4 MSTORE SWAP2 PUSH1 0x20 ADD SWAP2 PUSH2 0x265 JUMP JUMPDEST DUP3 ADD SWAP2 SWAP1 PUSH0 MSTORE PUSH1 0x20 PUSH0 KECCAK256 SWAP1 JUMPDEST DUP2 SLOAD DUP2 MSTORE SWAP1 PUSH1 0x1 ADD SWAP1 PUSH1 0x20 ADD DUP1 DUP4 GT PUSH2 0x248 JUMPI DUP3 SWAP1 SUB PUSH1 0x1F AND DUP3 ADD SWAP2 JUMPDEST POP POP POP POP POP SWAP1 DUP1 PUSH1 0x1 ADD SLOAD SWAP1 POP DUP3 JUMP JUMPDEST PUSH1 0x4 DUP2 SWAP1 DUP1 PUSH1 0x1 DUP2 SLOAD ADD DUP1 DUP3 SSTORE DUP1 SWAP2 POP POP PUSH1 0x1 SWAP1 SUB SWAP1 PUSH0 MSTORE PUSH1 0x20 PUSH0 KECCAK256 SWAP1 PUSH1 0x2 MUL ADD PUSH0 SWAP1 SWAP2 SWAP1 SWAP2 SWAP1 SWAP2 POP DUP2 DUP2 PUSH2 0x2AA SWAP2 SWAP1 PUSH2 0xE0A JUMP JUMPDEST POP POP POP JUMP JUMPDEST PUSH1 0x1 DUP1 SLOAD PUSH2 0x2BC SWAP1 PUSH2 0xA20 JUMP JUMPDEST DUP1 PUSH1 0x1F ADD PUSH1 0x20 DUP1 SWAP2 DIV MUL PUSH1 0x20 ADD PUSH1 0x40 MLOAD SWAP1 DUP2 ADD PUSH1 0x40 MSTORE DUP1 SWAP3 SWAP2 SWAP1 DUP2 DUP2 MSTORE PUSH1 0x20 ADD DUP3 DUP1 SLOAD PUSH2 0x2E8 SWAP1 PUSH2 0xA20 JUMP JUMPDEST DUP1 ISZERO PUSH2 0x333 JUMPI DUP1 PUSH1 0x1F LT PUSH2 0x30A JUMPI PUSH2 0x100 DUP1 DUP4 SLOAD DIV MUL DUP4 MSTORE SWAP2 PUSH1 0x20 ADD SWAP2 PUSH2 0x333 JUMP JUMPDEST DUP3 ADD SWAP2 SWAP1 PUSH0 MSTORE PUSH1 0x20 PUSH0 KECCAK256 SWAP1 JUMPDEST DUP2 SLOAD DUP2 MSTORE SWAP1 PUSH1 0x1 ADD SWAP1 PUSH1 0x20 ADD DUP1 DUP4 GT PUSH2 0x316 JUMPI DUP3 SWAP1 SUB PUSH1 0x1F AND DUP3 ADD SWAP2 JUMPDEST POP POP POP POP POP DUP2 JUMP JUMPDEST PUSH1 0x2 DUP2 DUP2 SLOAD DUP2 LT PUSH2 0x34A JUMPI PUSH0 DUP1 REVERT JUMPDEST SWAP1 PUSH0 MSTORE PUSH1 0x20 PUSH0 KECCAK256 ADD PUSH0 SWAP2 POP SWAP1 POP SLOAD DUP2 JUMP JUMPDEST DUP2 DUP2 PUSH0 SWAP2 DUP3 PUSH2 0x36B SWAP3 SWAP2 SWAP1 PUSH2 0xC65 JUMP JUMPDEST POP POP POP JUMP JUMPDEST PUSH0 DUP1 SLOAD PUSH2 0x37C SWAP1 PUSH2 0xA20 JUMP JUMPDEST DUP1 PUSH1 0x1F ADD PUSH1 0x20 DUP1 SWAP2 DIV MUL PUSH1 0x20 ADD PUSH1 0x40 MLOAD SWAP1 DUP2 ADD PUSH1 0x40 MSTORE DUP1 SWAP3 SWAP2 SWAP1 DUP2 DUP2 MSTORE PUSH1 0x20 ADD DUP3 DUP1 SLOAD PUSH2 0x3A8 SWAP1 PUSH2 0xA20 JUMP JUMPDEST DUP1 ISZERO PUSH2 0x3F3 JUMPI DUP1 PUSH1 0x1F LT PUSH2 0x3CA JUMPI PUSH2 0x100 DUP1 DUP4 SLOAD DIV MUL DUP4 MSTORE SWAP2 PUSH1 0x20 ADD SWAP2 PUSH2 0x3F3 JUMP JUMPDEST DUP3 ADD SWAP2 SWAP1 PUSH0 MSTORE PUSH1 0x20 PUSH0 KECCAK256 SWAP1 JUMPDEST DUP2 SLOAD DUP2 MSTORE SWAP1 PUSH1 0x1 ADD SWAP1 PUSH1 0x20 ADD DUP1 DUP4 GT PUSH2 0x3D6 JUMPI DUP3 SWAP1 SUB PUSH1 0x1F AND DUP3 ADD SWAP2 JUMPDEST POP POP POP POP POP DUP2 JUMP JUMPDEST PUSH0 JUMPDEST DUP2 MLOAD DUP2 LT ISZERO PUSH2 0x453 JUMPI PUSH1 0x2 DUP3 DUP3 DUP2 MLOAD DUP2 LT PUSH2 0x41B JUMPI PUSH2 0x41A PUSH2 0xE18 JUMP JUMPDEST JUMPDEST PUSH1 0x20 MUL PUSH1 0x20 ADD ADD MLOAD SWAP1 DUP1 PUSH1 0x1 DUP2 SLOAD ADD DUP1 DUP3 SSTORE DUP1 SWAP2 POP POP PUSH1 0x1 SWAP1 SUB SWAP1 PUSH0 MSTORE PUSH1 0x20 PUSH0 KECCAK256 ADD PUSH0 SWAP1 SWAP2 SWAP1 SWAP2 SWAP1 SWAP2 POP SSTORE DUP1 DUP1 PUSH1 0x1 ADD SWAP2 POP POP PUSH2 0x3FD JUMP JUMPDEST POP POP JUMP JUMPDEST DUP1 PUSH1 0x1 SWAP1 DUP2 PUSH2 0x466 SWAP2 SWAP1 PUSH2 0xE9D JUMP JUMPDEST POP POP JUMP JUMPDEST PUSH0 PUSH2 0x475 PUSH1 0x2 PUSH2 0x47A JUMP JUMPDEST SWAP1 POP SWAP1 JUMP JUMPDEST PUSH0 DUP2 DUP1 SLOAD SWAP1 POP SWAP1 POP SWAP2 SWAP1 POP JUMP JUMPDEST PUSH0 PUSH1 0x40 MLOAD SWAP1 POP SWAP1 JUMP JUMPDEST PUSH0 DUP1 REVERT JUMPDEST PUSH0 DUP1 REVERT JUMPDEST PUSH0 DUP2 SWAP1 POP SWAP2 SWAP1 POP JUMP JUMPDEST PUSH2 0x4AA DUP2 PUSH2 0x498 JUMP JUMPDEST DUP2 EQ PUSH2 0x4B4 JUMPI PUSH0 DUP1 REVERT JUMPDEST POP JUMP JUMPDEST PUSH0 DUP2 CALLDATALOAD SWAP1 POP PUSH2 0x4C5 DUP2 PUSH2 0x4A1 JUMP JUMPDEST SWAP3 SWAP2 POP POP JUMP JUMPDEST PUSH0 PUSH1 0x20 DUP3 DUP5 SUB SLT ISZERO PUSH2 0x4E0 JUMPI PUSH2 0x4DF PUSH2 0x490 JUMP JUMPDEST JUMPDEST PUSH0 PUSH2 0x4ED DUP5 DUP3 DUP6 ADD PUSH2 0x4B7 JUMP JUMPDEST SWAP2 POP POP SWAP3 SWAP2 POP POP JUMP JUMPDEST PUSH0 DUP2 MLOAD SWAP1 POP SWAP2 SWAP1 POP JUMP JUMPDEST PUSH0 DUP3 DUP3 MSTORE PUSH1 0x20 DUP3 ADD SWAP1 POP SWAP3 SWAP2 POP POP JUMP JUMPDEST PUSH0 JUMPDEST DUP4 DUP2 LT ISZERO PUSH2 0x52D JUMPI DUP1 DUP3 ADD MLOAD DUP2 DUP5 ADD MSTORE PUSH1 0x20 DUP2 ADD SWAP1 POP PUSH2 0x512 JUMP JUMPDEST PUSH0 DUP5 DUP5 ADD MSTORE POP POP POP POP JUMP JUMPDEST PUSH0 PUSH1 0x1F NOT PUSH1 0x1F DUP4 ADD AND SWAP1 POP SWAP2 SWAP1 POP JUMP JUMPDEST PUSH0 PUSH2 0x552 DUP3 PUSH2 0x4F6 JUMP JUMPDEST PUSH2 0x55C DUP2 DUP6 PUSH2 0x500 JUMP JUMPDEST SWAP4 POP PUSH2 0x56C DUP2 DUP6 PUSH1 0x20 DUP7 ADD PUSH2 0x510 JUMP JUMPDEST PUSH2 0x575 DUP2 PUSH2 0x538 JUMP JUMPDEST DUP5 ADD SWAP2 POP POP SWAP3 SWAP2 POP POP JUMP JUMPDEST PUSH2 0x589 DUP2 PUSH2 0x498 JUMP JUMPDEST DUP3 MSTORE POP POP JUMP JUMPDEST PUSH0 PUSH1 0x40 DUP3 ADD SWAP1 POP DUP2 DUP2 SUB PUSH0 DUP4 ADD MSTORE PUSH2 0x5A7 DUP2 DUP6 PUSH2 0x548 JUMP JUMPDEST SWAP1 POP PUSH2 0x5B6 PUSH1 0x20 DUP4 ADD DUP5 PUSH2 0x580 JUMP JUMPDEST SWAP4 SWAP3 POP POP POP JUMP JUMPDEST PUSH0 DUP1 REVERT JUMPDEST PUSH0 PUSH1 0x40 DUP3 DUP5 SUB SLT ISZERO PUSH2 0x5D6 JUMPI PUSH2 0x5D5 PUSH2 0x5BD JUMP JUMPDEST JUMPDEST DUP2 SWAP1 POP SWAP3 SWAP2 POP POP JUMP JUMPDEST PUSH0 PUSH1 0x20 DUP3 DUP5 SUB SLT ISZERO PUSH2 0x5F4 JUMPI PUSH2 0x5F3 PUSH2 0x490 JUMP JUMPDEST JUMPDEST PUSH0 DUP3 ADD CALLDATALOAD PUSH8 0xFFFFFFFFFFFFFFFF DUP2 GT ISZERO PUSH2 0x611 JUMPI PUSH2 0x610 PUSH2 0x494 JUMP JUMPDEST JUMPDEST PUSH2 0x61D DUP5 DUP3 DUP6 ADD PUSH2 0x5C1 JUMP JUMPDEST SWAP2 POP POP SWAP3 SWAP2 POP POP JUMP JUMPDEST PUSH0 DUP2 MLOAD SWAP1 POP SWAP2 SWAP1 POP JUMP JUMPDEST PUSH0 DUP3 DUP3 MSTORE PUSH1 0x20 DUP3 ADD SWAP1 POP SWAP3 SWAP2 POP POP JUMP JUMPDEST PUSH0 PUSH2 0x64A DUP3 PUSH2 0x626 JUMP JUMPDEST PUSH2 0x654 DUP2 DUP6 PUSH2 0x630 JUMP JUMPDEST SWAP4 POP PUSH2 0x664 DUP2 DUP6 PUSH1 0x20 DUP7 ADD PUSH2 0x510 JUMP JUMPDEST PUSH2 0x66D DUP2 PUSH2 0x538 JUMP JUMPDEST DUP5 ADD SWAP2 POP POP SWAP3 SWAP2 POP POP JUMP JUMPDEST PUSH0 PUSH1 0x20 DUP3 ADD SWAP1 POP DUP2 DUP2 SUB PUSH0 DUP4 ADD MSTORE PUSH2 0x690 DUP2 DUP5 PUSH2 0x640 JUMP JUMPDEST SWAP1 POP SWAP3 SWAP2 POP POP JUMP JUMPDEST PUSH0 PUSH1 0x20 DUP3 ADD SWAP1 POP PUSH2 0x6AB PUSH0 DUP4 ADD DUP5 PUSH2 0x580 JUMP JUMPDEST SWAP3 SWAP2 POP POP JUMP JUMPDEST PUSH0 DUP1 REVERT JUMPDEST PUSH0 DUP1 REVERT JUMPDEST PUSH0 DUP1 REVERT JUMPDEST PUSH0 DUP1 DUP4 PUSH1 0x1F DUP5 ADD SLT PUSH2 0x6D2 JUMPI PUSH2 0x6D1 PUSH2 0x6B1 JUMP JUMPDEST JUMPDEST DUP3 CALLDATALOAD SWAP1 POP PUSH8 0xFFFFFFFFFFFFFFFF DUP2 GT ISZERO PUSH2 0x6EF JUMPI PUSH2 0x6EE PUSH2 0x6B5 JUMP JUMPDEST JUMPDEST PUSH1 0x20 DUP4 ADD SWAP2 POP DUP4 PUSH1 0x1 DUP3 MUL DUP4 ADD GT ISZERO PUSH2 0x70B JUMPI PUSH2 0x70A PUSH2 0x6B9 JUMP JUMPDEST JUMPDEST SWAP3 POP SWAP3 SWAP1 POP JUMP JUMPDEST PUSH0 DUP1 PUSH1 0x20 DUP4 DUP6 SUB SLT ISZERO PUSH2 0x728 JUMPI PUSH2 0x727 PUSH2 0x490 JUMP JUMPDEST JUMPDEST PUSH0 DUP4 ADD CALLDATALOAD PUSH8 0xFFFFFFFFFFFFFFFF DUP2 GT ISZERO PUSH2 0x745 JUMPI PUSH2 0x744 PUSH2 0x494 JUMP JUMPDEST JUMPDEST PUSH2 0x751 DUP6 DUP3 DUP7 ADD PUSH2 0x6BD JUMP JUMPDEST SWAP3 POP SWAP3 POP POP SWAP3 POP SWAP3 SWAP1 POP JUMP JUMPDEST PUSH0 PUSH1 0x20 DUP3 ADD SWAP1 POP DUP2 DUP2 SUB PUSH0 DUP4 ADD MSTORE PUSH2 0x775 DUP2 DUP5 PUSH2 0x548 JUMP JUMPDEST SWAP1 POP SWAP3 SWAP2 POP POP JUMP JUMPDEST PUSH32 0x4E487B7100000000000000000000000000000000000000000000000000000000 PUSH0 MSTORE PUSH1 0x41 PUSH1 0x4 MSTORE PUSH1 0x24 PUSH0 REVERT JUMPDEST PUSH2 0x7B3 DUP3 PUSH2 0x538 JUMP JUMPDEST DUP2 ADD DUP2 DUP2 LT PUSH8 0xFFFFFFFFFFFFFFFF DUP3 GT OR ISZERO PUSH2 0x7D2 JUMPI PUSH2 0x7D1 PUSH2 0x77D JUMP JUMPDEST JUMPDEST DUP1 PUSH1 0x40 MSTORE POP POP POP JUMP JUMPDEST PUSH0 PUSH2 0x7E4 PUSH2 0x487 JUMP JUMPDEST SWAP1 POP PUSH2 0x7F0 DUP3 DUP3 PUSH2 0x7AA JUMP JUMPDEST SWAP2 SWAP1 POP JUMP JUMPDEST PUSH0 PUSH8 0xFFFFFFFFFFFFFFFF DUP3 GT ISZERO PUSH2 0x80F JUMPI PUSH2 0x80E PUSH2 0x77D JUMP JUMPDEST JUMPDEST PUSH1 0x20 DUP3 MUL SWAP1 POP PUSH1 0x20 DUP2 ADD SWAP1 POP SWAP2 SWAP1 POP JUMP JUMPDEST PUSH0 PUSH2 0x832 PUSH2 0x82D DUP5 PUSH2 0x7F5 JUMP JUMPDEST PUSH2 0x7DB JUMP JUMPDEST SWAP1 POP DUP1 DUP4 DUP3 MSTORE PUSH1 0x20 DUP3 ADD SWAP1 POP PUSH1 0x20 DUP5 MUL DUP4 ADD DUP6 DUP2 GT ISZERO PUSH2 0x855 JUMPI PUSH2 0x854 PUSH2 0x6B9 JUMP JUMPDEST JUMPDEST DUP4 JUMPDEST DUP2 DUP2 LT ISZERO PUSH2 0x87E JUMPI DUP1 PUSH2 0x86A DUP9 DUP3 PUSH2 0x4B7 JUMP JUMPDEST DUP5 MSTORE PUSH1 0x20 DUP5 ADD SWAP4 POP POP PUSH1 0x20 DUP2 ADD SWAP1 POP PUSH2 0x857 JUMP JUMPDEST POP POP POP SWAP4 SWAP3 POP POP POP JUMP JUMPDEST PUSH0 DUP3 PUSH1 0x1F DUP4 ADD SLT PUSH2 0x89C JUMPI PUSH2 0x89B PUSH2 0x6B1 JUMP JUMPDEST JUMPDEST DUP2 CALLDATALOAD PUSH2 0x8AC DUP5 DUP3 PUSH1 0x20 DUP7 ADD PUSH2 0x820 JUMP JUMPDEST SWAP2 POP POP SWAP3 SWAP2 POP POP JUMP JUMPDEST PUSH0 PUSH1 0x20 DUP3 DUP5 SUB SLT ISZERO PUSH2 0x8CA JUMPI PUSH2 0x8C9 PUSH2 0x490 JUMP JUMPDEST JUMPDEST PUSH0 DUP3 ADD CALLDATALOAD PUSH8 0xFFFFFFFFFFFFFFFF DUP2 GT ISZERO PUSH2 0x8E7 JUMPI PUSH2 0x8E6 PUSH2 0x494 JUMP JUMPDEST JUMPDEST PUSH2 0x8F3 DUP5 DUP3 DUP6 ADD PUSH2 0x888 JUMP JUMPDEST SWAP2 POP POP SWAP3 SWAP2 POP POP JUMP JUMPDEST PUSH0 DUP1 REVERT JUMPDEST PUSH0 PUSH8 0xFFFFFFFFFFFFFFFF DUP3 GT ISZERO PUSH2 0x91A JUMPI PUSH2 0x919 PUSH2 0x77D JUMP JUMPDEST JUMPDEST PUSH2 0x923 DUP3 PUSH2 0x538 JUMP JUMPDEST SWAP1 POP PUSH1 0x20 DUP2 ADD SWAP1 POP SWAP2 SWAP1 POP JUMP JUMPDEST DUP3 DUP2 DUP4 CALLDATACOPY PUSH0 DUP4 DUP4 ADD MSTORE POP POP POP JUMP JUMPDEST PUSH0 PUSH2 0x950 PUSH2 0x94B DUP5 PUSH2 0x900 JUMP JUMPDEST PUSH2 0x7DB JUMP JUMPDEST SWAP1 POP DUP3 DUP2 MSTORE PUSH1 0x20 DUP2 ADD DUP5 DUP5 DUP5 ADD GT ISZERO PUSH2 0x96C JUMPI PUSH2 0x96B PUSH2 0x8FC JUMP JUMPDEST JUMPDEST PUSH2 0x977 DUP5 DUP3 DUP6 PUSH2 0x930 JUMP JUMPDEST POP SWAP4 SWAP3 POP POP POP JUMP JUMPDEST PUSH0 DUP3 PUSH1 0x1F DUP4 ADD SLT PUSH2 0x993 JUMPI PUSH2 0x992 PUSH2 0x6B1 JUMP JUMPDEST JUMPDEST DUP2 CALLDATALOAD PUSH2 0x9A3 DUP5 DUP3 PUSH1 0x20 DUP7 ADD PUSH2 0x93E JUMP JUMPDEST SWAP2 POP POP SWAP3 SWAP2 POP POP JUMP JUMPDEST PUSH0 PUSH1 0x20 DUP3 DUP5 SUB SLT ISZERO PUSH2 0x9C1 JUMPI PUSH2 0x9C0 PUSH2 0x490 JUMP JUMPDEST JUMPDEST PUSH0 DUP3 ADD CALLDATALOAD PUSH8 0xFFFFFFFFFFFFFFFF DUP2 GT ISZERO PUSH2 0x9DE JUMPI PUSH2 0x9DD PUSH2 0x494 JUMP JUMPDEST JUMPDEST PUSH2 0x9EA DUP5 DUP3 DUP6 ADD PUSH2 0x97F JUMP JUMPDEST SWAP2 POP POP SWAP3 SWAP2 POP POP JUMP JUMPDEST PUSH32 0x4E487B7100000000000000000000000000000000000000000000000000000000 PUSH0 MSTORE PUSH1 0x22 PUSH1 0x4 MSTORE PUSH1 0x24 PUSH0 REVERT JUMPDEST PUSH0 PUSH1 0x2 DUP3 DIV SWAP1 POP PUSH1 0x1 DUP3 AND DUP1 PUSH2 0xA37 JUMPI PUSH1 0x7F DUP3 AND SWAP2 POP JUMPDEST PUSH1 0x20 DUP3 LT DUP2 SUB PUSH2 0xA4A JUMPI PUSH2 0xA49 PUSH2 0x9F3 JUMP JUMPDEST JUMPDEST POP SWAP2 SWAP1 POP JUMP JUMPDEST PUSH0 DUP1 REVERT JUMPDEST PUSH0 DUP1 REVERT JUMPDEST PUSH0 DUP1 REVERT JUMPDEST PUSH0 DUP1 DUP4 CALLDATALOAD PUSH1 0x1 PUSH1 0x20 SUB DUP5 CALLDATASIZE SUB SUB DUP2 SLT PUSH2 0xA78 JUMPI PUSH2 0xA77 PUSH2 0xA50 JUMP JUMPDEST JUMPDEST DUP1 DUP5 ADD SWAP3 POP DUP3 CALLDATALOAD SWAP2 POP PUSH8 0xFFFFFFFFFFFFFFFF DUP3 GT ISZERO PUSH2 0xA9A JUMPI PUSH2 0xA99 PUSH2 0xA54 JUMP JUMPDEST JUMPDEST PUSH1 0x20 DUP4 ADD SWAP3 POP PUSH1 0x1 DUP3 MUL CALLDATASIZE SUB DUP4 SGT ISZERO PUSH2 0xAB6 JUMPI PUSH2 0xAB5 PUSH2 0xA58 JUMP JUMPDEST JUMPDEST POP SWAP3 POP SWAP3 SWAP1 POP JUMP JUMPDEST PUSH0 DUP3 SWAP1 POP SWAP3 SWAP2 POP POP JUMP JUMPDEST PUSH0 DUP2 SWAP1 POP DUP2 PUSH0 MSTORE PUSH1 0x20 PUSH0 KECCAK256 SWAP1 POP SWAP2 SWAP1 POP JUMP JUMPDEST PUSH0 PUSH1 0x20 PUSH1 0x1F DUP4 ADD DIV SWAP1 POP SWAP2 SWAP1 POP JUMP JUMPDEST PUSH0 DUP3 DUP3 SHL SWAP1 POP SWAP3 SWAP2 POP POP JUMP JUMPDEST PUSH0 PUSH1 0x8 DUP4 MUL PUSH2 0xB24 PUSH32 0xFFFFFFFFFFFFFFFFFFFFFFFFFFFFFFFFFFFFFFFFFFFFFFFFFFFFFFFFFFFFFFFF DUP3 PUSH2 0xAE9 JUMP JUMPDEST PUSH2 0xB2E DUP7 DUP4 PUSH2 0xAE9 JUMP JUMPDEST SWAP6 POP DUP1 NOT DUP5 AND SWAP4 POP DUP1 DUP7 AND DUP5 OR SWAP3 POP POP POP SWAP4 SWAP3 POP POP POP JUMP JUMPDEST PUSH0 DUP2 SWAP1 POP SWAP2 SWAP1 POP JUMP JUMPDEST PUSH0 PUSH2 0xB69 PUSH2 0xB64 PUSH2 0xB5F DUP5 PUSH2 0x498 JUMP JUMPDEST PUSH2 0xB46 JUMP JUMPDEST PUSH2 0x498 JUMP JUMPDEST SWAP1 POP SWAP2 SWAP1 POP JUMP JUMPDEST PUSH0 DUP2 SWAP1 POP SWAP2 SWAP1 POP JUMP JUMPDEST PUSH2 0xB82 DUP4 PUSH2 0xB4F JUMP JUMPDEST PUSH2 0xB96 PUSH2 0xB8E DUP3 PUSH2 0xB70 JUMP JUMPDEST DUP5 DUP5 SLOAD PUSH2 0xAF5 JUMP JUMPDEST DUP3 SSTORE POP POP POP POP JUMP JUMPDEST PUSH0 SWAP1 JUMP JUMPDEST PUSH2 0xBAA PUSH2 0xB9E JUMP JUMPDEST PUSH2 0xBB5 DUP2 DUP5 DUP5 PUSH2 0xB79 JUMP JUMPDEST POP POP POP JUMP JUMPDEST JUMPDEST DUP2 DUP2 LT ISZERO PUSH2 0xBD8 JUMPI PUSH2 0xBCD PUSH0 DUP3 PUSH2 0xBA2 JUMP JUMPDEST PUSH1 0x1 DUP2 ADD SWAP1 POP PUSH2 0xBBB JUMP JUMPDEST POP POP JUMP JUMPDEST PUSH1 0x1F DUP3 GT ISZERO PUSH2 0xC1D JUMPI PUSH2 0xBEE DUP2 PUSH2 0xAC8 JUMP JUMPDEST PUSH2 0xBF7 DUP5 PUSH2 0xADA JUMP JUMPDEST DUP2 ADD PUSH1 0x20 DUP6 LT ISZERO PUSH2 0xC06 JUMPI DUP2 SWAP1 POP JUMPDEST PUSH2 0xC1A PUSH2 0xC12 DUP6 PUSH2 0xADA JUMP JUMPDEST DUP4 ADD DUP3 PUSH2 0xBBA JUMP JUMPDEST POP POP JUMPDEST POP POP POP JUMP JUMPDEST PUSH0 DUP3 DUP3 SHR SWAP1 POP SWAP3 SWAP2 POP POP JUMP JUMPDEST PUSH0 PUSH2 0xC3D PUSH0 NOT DUP5 PUSH1 0x8 MUL PUSH2 0xC22 JUMP JUMPDEST NOT DUP1 DUP4 AND SWAP2 POP POP SWAP3 SWAP2 POP POP JUMP JUMPDEST PUSH0 PUSH2 0xC55 DUP4 DUP4 PUSH2 0xC2E JUMP JUMPDEST SWAP2 POP DUP3 PUSH1 0x2 MUL DUP3 OR SWAP1 POP SWAP3 SWAP2 POP POP JUMP JUMPDEST PUSH2 0xC6F DUP4 DUP4 PUSH2 0xABE JUMP JUMPDEST PUSH8 0xFFFFFFFFFFFFFFFF DUP2 GT ISZERO PUSH2 0xC88 JUMPI PUSH2 0xC87 PUSH2 0x77D JUMP JUMPDEST JUMPDEST PUSH2 0xC92 DUP3 SLOAD PUSH2 0xA20 JUMP JUMPDEST PUSH2 0xC9D DUP3 DUP3 DUP6 PUSH2 0xBDC JUMP JUMPDEST PUSH0 PUSH1 0x1F DUP4 GT PUSH1 0x1 DUP2 EQ PUSH2 0xCCA JUMPI PUSH0 DUP5 ISZERO PUSH2 0xCB8 JUMPI DUP3 DUP8 ADD CALLDATALOAD SWAP1 POP JUMPDEST PUSH2 0xCC2 DUP6 DUP3 PUSH2 0xC4A JUMP JUMPDEST DUP7 SSTORE POP PUSH2 0xD29 JUMP JUMPDEST PUSH1 0x1F NOT DUP5 AND PUSH2 0xCD8 DUP7 PUSH2 0xAC8 JUMP JUMPDEST PUSH0 JUMPDEST DUP3 DUP2 LT ISZERO PUSH2 0xCFF JUMPI DUP5 DUP10 ADD CALLDATALOAD DUP3 SSTORE PUSH1 0x1 DUP3 ADD SWAP2 POP PUSH1 0x20 DUP6 ADD SWAP5 POP PUSH1 0x20 DUP2 ADD SWAP1 POP PUSH2 0xCDA JUMP JUMPDEST DUP7 DUP4 LT ISZERO PUSH2 0xD1C JUMPI DUP5 DUP10 ADD CALLDATALOAD PUSH2 0xD18 PUSH1 0x1F DUP10 AND DUP3 PUSH2 0xC2E JUMP JUMPDEST DUP4 SSTORE POP JUMPDEST PUSH1 0x1 PUSH1 0x2 DUP9 MUL ADD DUP9 SSTORE POP POP POP JUMPDEST POP POP POP POP POP POP POP JUMP JUMPDEST PUSH2 0xD3D DUP4 DUP4 DUP4 PUSH2 0xC65 JUMP JUMPDEST POP POP POP JUMP JUMPDEST PUSH0 DUP2 CALLDATALOAD PUSH2 0xD4E DUP2 PUSH2 0x4A1 JUMP JUMPDEST DUP1 SWAP2 POP POP SWAP2 SWAP1 POP JUMP JUMPDEST PUSH0 DUP2 PUSH0 SHL SWAP1 POP SWAP2 SWAP1 POP JUMP JUMPDEST PUSH0 PUSH32 0xFFFFFFFFFFFFFFFFFFFFFFFFFFFFFFFFFFFFFFFFFFFFFFFFFFFFFFFFFFFFFFFF PUSH2 0xD8D DUP5 PUSH2 0xD57 JUMP JUMPDEST SWAP4 POP DUP1 NOT DUP4 AND SWAP3 POP DUP1 DUP5 AND DUP4 OR SWAP2 POP POP SWAP3 SWAP2 POP POP JUMP JUMPDEST PUSH2 0xDAC DUP3 PUSH2 0xB4F JUMP JUMPDEST PUSH2 0xDBF PUSH2 0xDB8 DUP3 PUSH2 0xB70 JUMP JUMPDEST DUP4 SLOAD PUSH2 0xD62 JUMP JUMPDEST DUP3 SSTORE POP POP POP JUMP JUMPDEST PUSH0 DUP2 ADD PUSH0 DUP4 ADD PUSH2 0xDD6 DUP2 DUP6 PUSH2 0xA5C JUMP JUMPDEST PUSH2 0xDE1 DUP2 DUP4 DUP7 PUSH2 0xD32 JUMP JUMPDEST POP POP POP POP PUSH1 0x1 DUP2 ADD PUSH1 0x20 DUP4 ADD DUP1 PUSH2 0xDF7 DUP2 PUSH2 0xD42 JUMP JUMPDEST SWAP1 POP PUSH2 0xE03 DUP2 DUP5 PUSH2 0xDA3 JUMP JUMPDEST POP POP POP POP POP JUMP JUMPDEST PUSH2 0xE14 DUP3 DUP3 PUSH2 0xDC6 JUMP JUMPDEST POP POP JUMP JUMPDEST PUSH32 0x4E487B7100000000000000000000000000000000000000000000000000000000 PUSH0 MSTORE PUSH1 0x32 PUSH1 0x4 MSTORE PUSH1 0x24 PUSH0 REVERT JUMPDEST PUSH0 DUP2 SWAP1 POP DUP2 PUSH0 MSTORE PUSH1 0x20 PUSH0 KECCAK256 SWAP1 POP SWAP2 SWAP1 POP JUMP JUMPDEST PUSH1 0x1F DUP3 GT ISZERO PUSH2 0xE98 JUMPI PUSH2 0xE69 DUP2 PUSH2 0xE45 JUMP JUMPDEST PUSH2 0xE72 DUP5 PUSH2 0xADA JUMP JUMPDEST DUP2 ADD PUSH1 0x20 DUP6 LT ISZERO PUSH2 0xE81 JUMPI DUP2 SWAP1 POP JUMPDEST PUSH2 0xE95 PUSH2 0xE8D DUP6 PUSH2 0xADA JUMP JUMPDEST DUP4 ADD DUP3 PUSH2 0xBBA JUMP JUMPDEST POP POP JUMPDEST POP POP POP JUMP JUMPDEST PUSH2 0xEA6 DUP3 PUSH2 0x626 JUMP JUMPDEST PUSH8 0xFFFFFFFFFFFFFFFF DUP2 GT ISZERO PUSH2 0xEBF JUMPI PUSH2 0xEBE PUSH2 0x77D JUMP JUMPDEST JUMPDEST PUSH2 0xEC9 DUP3 SLOAD PUSH2 0xA20 JUMP JUMPDEST PUSH2 0xED4 DUP3 DUP3 DUP6 PUSH2 0xE57 JUMP JUMPDEST PUSH0 PUSH1 0x20 SWAP1 POP PUSH1 0x1F DUP4 GT PUSH1 0x1 DUP2 EQ PUSH2 0xF05 JUMPI PUSH0 DUP5 ISZERO PUSH2 0xEF3 JUMPI DUP3 DUP8 ADD MLOAD SWAP1 POP JUMPDEST PUSH2 0xEFD DUP6 DUP3 PUSH2 0xC4A JUMP JUMPDEST DUP7 SSTORE POP PUSH2 0xF64 JUMP JUMPDEST PUSH1 0x1F NOT DUP5 AND PUSH2 0xF13 DUP7 PUSH2 0xE45 JUMP JUMPDEST PUSH0 JUMPDEST DUP3 DUP2 LT ISZERO PUSH2 0xF3A JUMPI DUP5 DUP10 ADD MLOAD DUP3 SSTORE PUSH1 0x1 DUP3 ADD SWAP2 POP PUSH1 0x20 DUP6 ADD SWAP5 POP PUSH1 0x20 DUP2 ADD SWAP1 POP PUSH2 0xF15 JUMP JUMPDEST DUP7 DUP4 LT ISZERO PUSH2 0xF57 JUMPI DUP5 DUP10 ADD MLOAD PUSH2 0xF53 PUSH1 0x1F DUP10 AND DUP3 PUSH2 0xC2E JUMP JUMPDEST DUP4 SSTORE POP JUMPDEST PUSH1 0x1 PUSH1 0x2 DUP9 MUL ADD DUP9 SSTORE POP POP POP JUMPDEST POP POP POP POP POP POP JUMP INVALID LOG2 PUSH5 0x6970667358 0x22 SLT KECCAK256 0x2C REVERT 0xD7 0xC0 0xD9 PUSH20 0xAA170490AC742AAAF3ABDA154A7CBAAF736BE699 TSTORE CHAINID STATICCALL PUSH22 0xAEF464736F6C63430008190033000000000000000000 "
				},
				"gasEstimates": {
					"creation": {
						"codeDepositCost": "800400",
						"executionCost": "836",
						"totalCost": "801236"
					},
					"external": {
						"arr(uint256)": "infinite",
						"bs()": "infinite",
						"setArry(uint256[])": "infinite",
						"setBytes(bytes)": "infinite",
						"setString(string)": "infinite",
						"setStruct((string,uint256))": "infinite",
						"str()": "infinite",
						"students(uint256)": "infinite",
						"test()": "2570"
					},
					"internal": {
						"getlength(uint256[] storage pointer)": "2135"
					}
				},
				"methodIdentifiers": {
					"arr(uint256)": "71e5ee5f",
					"bs()": "5478a4dc",
					"setArry(uint256[])": "c5155566",
					"setBytes(bytes)": "da359dc8",
					"setString(string)": "7fcaf666",
					"setStruct((string,uint256))": "1e5c08c1",
					"str()": "c15bae84",
					"students(uint256)": "06ead22e",
					"test()": "f8a8fd6d"
				}
			},
			"storageLayout": {
				"storage": [
					{
						"astId": 3,
						"contract": "contracts/DataStorage.sol:DataStorages",
						"label": "str",
						"offset": 0,
						"slot": "0",
						"type": "t_string_storage"
					},
					{
						"astId": 5,
						"contract": "contracts/DataStorage.sol:DataStorages",
						"label": "bs",
						"offset": 0,
						"slot": "1",
						"type": "t_bytes_storage"
					},
					{
						"astId": 8,
						"contract": "contracts/DataStorage.sol:DataStorages",
						"label": "arr",
						"offset": 0,
						"slot": "2",
						"type": "t_array(t_uint256)dyn_storage"
					},
					{
						"astId": 12,
						"contract": "contracts/DataStorage.sol:DataStorages",
						"label": "map",
						"offset": 0,
						"slot": "3",
						"type": "t_mapping(t_address,t_uint256)"
					},
					{
						"astId": 21,
						"contract": "contracts/DataStorage.sol:DataStorages",
						"label": "students",
						"offset": 0,
						"slot": "4",
						"type": "t_array(t_struct(Student)17_storage)dyn_storage"
					}
				],
				"types": {
					"t_address": {
						"encoding": "inplace",
						"label": "address",
						"numberOfBytes": "20"
					},
					"t_array(t_struct(Student)17_storage)dyn_storage": {
						"base": "t_struct(Student)17_storage",
						"encoding": "dynamic_array",
						"label": "struct DataStorages.Student[]",
						"numberOfBytes": "32"
					},
					"t_array(t_uint256)dyn_storage": {
						"base": "t_uint256",
						"encoding": "dynamic_array",
						"label": "uint256[]",
						"numberOfBytes": "32"
					},
					"t_bytes_storage": {
						"encoding": "bytes",
						"label": "bytes",
						"numberOfBytes": "32"
					},
					"t_mapping(t_address,t_uint256)": {
						"encoding": "mapping",
						"key": "t_address",
						"label": "mapping(address => uint256)",
						"numberOfBytes": "32",
						"value": "t_uint256"
					},
					"t_string_storage": {
						"encoding": "bytes",
						"label": "string",
						"numberOfBytes": "32"
					},
					"t_struct(Student)17_storage": {
						"encoding": "inplace",
						"label": "struct DataStorages.Student",
						"members": [
							{
								"astId": 14,
								"contract": "contracts/DataStorage.sol:DataStorages",
								"label": "name",
								"offset": 0,
								"slot": "0",
								"type": "t_string_storage"
							},
							{
								"astId": 16,
								"contract": "contracts/DataStorage.sol:DataStorages",
								"label": "score",
								"offset": 0,
								"slot": "1",
								"type": "t_uint256"
							}
						],
						"numberOfBytes": "64"
					},
					"t_uint256": {
						"encoding": "inplace",
						"label": "uint256",
						"numberOfBytes": "32"
					}
				}
			},
			"userdoc": {
				"kind": "user",
				"methods": {},
				"version": 1
			}
		}
	}
}