{
	"contracts/Operation4.sol": {
		"OperatorsAssignment": {
			"abi": [
				{
					"inputs": [],
					"name": "a",
					"outputs": [
						{
							"internalType": "uint256",
							"name": "",
							"type": "uint256"
						}
					],
					"stateMutability": "view",
					"type": "function"
				},
				{
					"inputs": [],
					"name": "b",
					"outputs": [
						{
							"internalType": "uint256",
							"name": "",
							"type": "uint256"
						}
					],
					"stateMutability": "view",
					"type": "function"
				},
				{
					"inputs": [],
					"name": "c",
					"outputs": [
						{
							"internalType": "uint256",
							"name": "",
							"type": "uint256"
						}
					],
					"stateMutability": "view",
					"type": "function"
				},
				{
					"inputs": [],
					"name": "d",
					"outputs": [
						{
							"internalType": "uint256",
							"name": "",
							"type": "uint256"
						}
					],
					"stateMutability": "view",
					"type": "function"
				},
				{
					"inputs": [],
					"name": "e",
					"outputs": [
						{
							"internalType": "uint256",
							"name": "",
							"type": "uint256"
						}
					],
					"stateMutability": "view",
					"type": "function"
				},
				{
					"inputs": [],
					"name": "getResult",
					"outputs": [],
					"stateMutability": "nonpayable",
					"type": "function"
				},
				{
					"inputs": [],
					"name": "h1",
					"outputs": [
						{
							"internalType": "bytes1",
							"name": "",
							"type": "bytes1"
						}
					],
					"stateMutability": "view",
					"type": "function"
				},
				{
					"inputs": [],
					"name": "h2",
					"outputs": [
						{
							"internalType": "bytes1",
							"name": "",
							"type": "bytes1"
						}
					],
					"stateMutability": "view",
					"type": "function"
				},
				{
					"inputs": [],
					"name": "h3",
					"outputs": [
						{
							"internalType": "bytes1",
							"name": "",
							"type": "bytes1"
						}
					],
					"stateMutability": "view",
					"type": "function"
				},
				{
					"inputs": [],
					"name": "h4",
					"outputs": [
						{
							"internalType": "bytes1",
							"name": "",
							"type": "bytes1"
						}
					],
					"stateMutability": "view",
					"type": "function"
				},
				{
					"inputs": [],
					"name": "h5",
					"outputs": [
						{
							"internalType": "bytes1",
							"name": "",
							"type": "bytes1"
						}
					],
					"stateMutability": "view",
					"type": "function"
				}
			],
			"devdoc": {
				"kind": "dev",
				"methods": {},
				"version": 1
			},
			"evm": {
				"assembly": "    /* \"contracts/Operation4.sol\":59:865  contract OperatorsAssignment {... */\n  mstore(0x40, 0x80)\n    /* \"contracts/Operation4.sol\":125:127  10 */\n  0x0a\n    /* \"contracts/Operation4.sol\":109:127  uint public a = 10 */\n  0x00\n  sstore\n    /* \"contracts/Operation4.sol\":150:152  20 */\n  0x14\n    /* \"contracts/Operation4.sol\":134:152  uint public b = 20 */\n  0x01\n  sstore\n    /* \"contracts/Operation4.sol\":175:177  30 */\n  0x1e\n    /* \"contracts/Operation4.sol\":159:177  uint public c = 30 */\n  0x02\n  sstore\n    /* \"contracts/Operation4.sol\":201:203  40 */\n  0x28\n    /* \"contracts/Operation4.sol\":185:203  uint public d = 40 */\n  0x03\n  sstore\n    /* \"contracts/Operation4.sol\":226:228  50 */\n  0x32\n    /* \"contracts/Operation4.sol\":210:228  uint public e = 50 */\n  0x04\n  sstore\n    /* \"contracts/Operation4.sol\":254:258  0xa0 */\n  0xa0\n    /* \"contracts/Operation4.sol\":235:258  bytes1 public h1 = 0xa0 */\n  0xf8\n  shl\n  0x05\n  exp(0x0100, 0x00)\n  dup2\n  sload\n  dup2\n  0xff\n  mul\n  not\n  and\n  swap1\n  dup4\n  0xf8\n  shr\n  mul\n  or\n  swap1\n  sstore\n  pop\n    /* \"contracts/Operation4.sol\":296:300  0xb0 */\n  0xb0\n    /* \"contracts/Operation4.sol\":277:300  bytes1 public h2 = 0xb0 */\n  0xf8\n  shl\n  0x05\n  exp(0x0100, 0x01)\n  dup2\n  sload\n  dup2\n  0xff\n  mul\n  not\n  and\n  swap1\n  dup4\n  0xf8\n  shr\n  mul\n  or\n  swap1\n  sstore\n  pop\n    /* \"contracts/Operation4.sol\":338:342  0xc0 */\n  0xc0\n    /* \"contracts/Operation4.sol\":319:342  bytes1 public h3 = 0xc0 */\n  0xf8\n  shl\n  0x05\n  exp(0x0100, 0x02)\n  dup2\n  sload\n  dup2\n  0xff\n  mul\n  not\n  and\n  swap1\n  dup4\n  0xf8\n  shr\n  mul\n  or\n  swap1\n  sstore\n  pop\n    /* \"contracts/Operation4.sol\":380:384  0xd0 */\n  0xd0\n    /* \"contracts/Operation4.sol\":361:384  bytes1 public h4 = 0xd0 */\n  0xf8\n  shl\n  0x05\n  exp(0x0100, 0x03)\n  dup2\n  sload\n  dup2\n  0xff\n  mul\n  not\n  and\n  swap1\n  dup4\n  0xf8\n  shr\n  mul\n  or\n  swap1\n  sstore\n  pop\n    /* \"contracts/Operation4.sol\":422:426  0xe0 */\n  0xe0\n    /* \"contracts/Operation4.sol\":403:426  bytes1 public h5 = 0xe0 */\n  0xf8\n  shl\n  0x05\n  exp(0x0100, 0x04)\n  dup2\n  sload\n  dup2\n  0xff\n  mul\n  not\n  and\n  swap1\n  dup4\n  0xf8\n  shr\n  mul\n  or\n  swap1\n  sstore\n  pop\n    /* \"contracts/Operation4.sol\":59:865  contract OperatorsAssignment {... */\n  callvalue\n  dup1\n  iszero\n  tag_1\n  jumpi\n  0x00\n  dup1\n  revert\ntag_1:\n  pop\n  dataSize(sub_0)\n  dup1\n  dataOffset(sub_0)\n  0x00\n  codecopy\n  0x00\n  return\nstop\n\nsub_0: assembly {\n        /* \"contracts/Operation4.sol\":59:865  contract OperatorsAssignment {... */\n      mstore(0x40, 0x80)\n      callvalue\n      dup1\n      iszero\n      tag_1\n      jumpi\n      0x00\n      dup1\n      revert\n    tag_1:\n      pop\n      jumpi(tag_2, lt(calldatasize, 0x04))\n      shr(0xe0, calldataload(0x00))\n      dup1\n      0x8a054ac2\n      gt\n      tag_14\n      jumpi\n      dup1\n      0x8a054ac2\n      eq\n      tag_8\n      jumpi\n      dup1\n      0xb9ccf219\n      eq\n      tag_9\n      jumpi\n      dup1\n      0xbe1eca86\n      eq\n      tag_10\n      jumpi\n      dup1\n      0xc3da42b8\n      eq\n      tag_11\n      jumpi\n      dup1\n      0xde292789\n      eq\n      tag_12\n      jumpi\n      dup1\n      0xffae15ba\n      eq\n      tag_13\n      jumpi\n      jump(tag_2)\n    tag_14:\n      dup1\n      0x0dbe671f\n      eq\n      tag_3\n      jumpi\n      dup1\n      0x426cfd68\n      eq\n      tag_4\n      jumpi\n      dup1\n      0x451652bf\n      eq\n      tag_5\n      jumpi\n      dup1\n      0x4df7e3d0\n      eq\n      tag_6\n      jumpi\n      dup1\n      0x5092f2ec\n      eq\n      tag_7\n      jumpi\n    tag_2:\n      0x00\n      dup1\n      revert\n        /* \"contracts/Operation4.sol\":109:127  uint public a = 10 */\n    tag_3:\n      tag_15\n      tag_16\n      jump\t// in\n    tag_15:\n      mload(0x40)\n      tag_17\n      swap2\n      swap1\n      tag_18\n      jump\t// in\n    tag_17:\n      mload(0x40)\n      dup1\n      swap2\n      sub\n      swap1\n      return\n        /* \"contracts/Operation4.sol\":235:258  bytes1 public h1 = 0xa0 */\n    tag_4:\n      tag_19\n      tag_20\n      jump\t// in\n    tag_19:\n      mload(0x40)\n      tag_21\n      swap2\n      swap1\n      tag_22\n      jump\t// in\n    tag_21:\n      mload(0x40)\n      dup1\n      swap2\n      sub\n      swap1\n      return\n        /* \"contracts/Operation4.sol\":403:426  bytes1 public h5 = 0xe0 */\n    tag_5:\n      tag_23\n      tag_24\n      jump\t// in\n    tag_23:\n      mload(0x40)\n      tag_25\n      swap2\n      swap1\n      tag_22\n      jump\t// in\n    tag_25:\n      mload(0x40)\n      dup1\n      swap2\n      sub\n      swap1\n      return\n        /* \"contracts/Operation4.sol\":134:152  uint public b = 20 */\n    tag_6:\n      tag_26\n      tag_27\n      jump\t// in\n    tag_26:\n      mload(0x40)\n      tag_28\n      swap2\n      swap1\n      tag_18\n      jump\t// in\n    tag_28:\n      mload(0x40)\n      dup1\n      swap2\n      sub\n      swap1\n      return\n        /* \"contracts/Operation4.sol\":277:300  bytes1 public h2 = 0xb0 */\n    tag_7:\n      tag_29\n      tag_30\n      jump\t// in\n    tag_29:\n      mload(0x40)\n      tag_31\n      swap2\n      swap1\n      tag_22\n      jump\t// in\n    tag_31:\n      mload(0x40)\n      dup1\n      swap2\n      sub\n      swap1\n      return\n        /* \"contracts/Operation4.sol\":185:203  uint public d = 40 */\n    tag_8:\n      tag_32\n      tag_33\n      jump\t// in\n    tag_32:\n      mload(0x40)\n      tag_34\n      swap2\n      swap1\n      tag_18\n      jump\t// in\n    tag_34:\n      mload(0x40)\n      dup1\n      swap2\n      sub\n      swap1\n      return\n        /* \"contracts/Operation4.sol\":319:342  bytes1 public h3 = 0xc0 */\n    tag_9:\n      tag_35\n      tag_36\n      jump\t// in\n    tag_35:\n      mload(0x40)\n      tag_37\n      swap2\n      swap1\n      tag_22\n      jump\t// in\n    tag_37:\n      mload(0x40)\n      dup1\n      swap2\n      sub\n      swap1\n      return\n        /* \"contracts/Operation4.sol\":361:384  bytes1 public h4 = 0xd0 */\n    tag_10:\n      tag_38\n      tag_39\n      jump\t// in\n    tag_38:\n      mload(0x40)\n      tag_40\n      swap2\n      swap1\n      tag_22\n      jump\t// in\n    tag_40:\n      mload(0x40)\n      dup1\n      swap2\n      sub\n      swap1\n      return\n        /* \"contracts/Operation4.sol\":159:177  uint public c = 30 */\n    tag_11:\n      tag_41\n      tag_42\n      jump\t// in\n    tag_41:\n      mload(0x40)\n      tag_43\n      swap2\n      swap1\n      tag_18\n      jump\t// in\n    tag_43:\n      mload(0x40)\n      dup1\n      swap2\n      sub\n      swap1\n      return\n        /* \"contracts/Operation4.sol\":461:862  function getResult() public {... */\n    tag_12:\n      tag_44\n      tag_45\n      jump\t// in\n    tag_44:\n      stop\n        /* \"contracts/Operation4.sol\":210:228  uint public e = 50 */\n    tag_13:\n      tag_46\n      tag_47\n      jump\t// in\n    tag_46:\n      mload(0x40)\n      tag_48\n      swap2\n      swap1\n      tag_18\n      jump\t// in\n    tag_48:\n      mload(0x40)\n      dup1\n      swap2\n      sub\n      swap1\n      return\n        /* \"contracts/Operation4.sol\":109:127  uint public a = 10 */\n    tag_16:\n      sload(0x00)\n      dup2\n      jump\t// out\n        /* \"contracts/Operation4.sol\":235:258  bytes1 public h1 = 0xa0 */\n    tag_20:\n      0x05\n      0x00\n      swap1\n      sload\n      swap1\n      0x0100\n      exp\n      swap1\n      div\n      0xf8\n      shl\n      dup2\n      jump\t// out\n        /* \"contracts/Operation4.sol\":403:426  bytes1 public h5 = 0xe0 */\n    tag_24:\n      0x05\n      0x04\n      swap1\n      sload\n      swap1\n      0x0100\n      exp\n      swap1\n      div\n      0xf8\n      shl\n      dup2\n      jump\t// out\n        /* \"contracts/Operation4.sol\":134:152  uint public b = 20 */\n    tag_27:\n      sload(0x01)\n      dup2\n      jump\t// out\n        /* \"contracts/Operation4.sol\":277:300  bytes1 public h2 = 0xb0 */\n    tag_30:\n      0x05\n      0x01\n      swap1\n      sload\n      swap1\n      0x0100\n      exp\n      swap1\n      div\n      0xf8\n      shl\n      dup2\n      jump\t// out\n        /* \"contracts/Operation4.sol\":185:203  uint public d = 40 */\n    tag_33:\n      sload(0x03)\n      dup2\n      jump\t// out\n        /* \"contracts/Operation4.sol\":319:342  bytes1 public h3 = 0xc0 */\n    tag_36:\n      0x05\n      0x02\n      swap1\n      sload\n      swap1\n      0x0100\n      exp\n      swap1\n      div\n      0xf8\n      shl\n      dup2\n      jump\t// out\n        /* \"contracts/Operation4.sol\":361:384  bytes1 public h4 = 0xd0 */\n    tag_39:\n      0x05\n      0x03\n      swap1\n      sload\n      swap1\n      0x0100\n      exp\n      swap1\n      div\n      0xf8\n      shl\n      dup2\n      jump\t// out\n        /* \"contracts/Operation4.sol\":159:177  uint public c = 30 */\n    tag_42:\n      sload(0x02)\n      dup2\n      jump\t// out\n        /* \"contracts/Operation4.sol\":461:862  function getResult() public {... */\n    tag_45:\n        /* \"contracts/Operation4.sol\":527:529  10 */\n      0x0a\n        /* \"contracts/Operation4.sol\":522:523  a */\n      0x00\n      dup1\n        /* \"contracts/Operation4.sol\":522:529  a += 10 */\n      dup3\n      dup3\n      sload\n      tag_50\n      swap2\n      swap1\n      tag_51\n      jump\t// in\n    tag_50:\n      swap3\n      pop\n      pop\n      dup2\n      swap1\n      sstore\n      pop\n        /* \"contracts/Operation4.sol\":550:552  10 */\n      0x0a\n        /* \"contracts/Operation4.sol\":545:546  b */\n      0x01\n      0x00\n        /* \"contracts/Operation4.sol\":545:552  b -= 10 */\n      dup3\n      dup3\n      sload\n      tag_52\n      swap2\n      swap1\n      tag_53\n      jump\t// in\n    tag_52:\n      swap3\n      pop\n      pop\n      dup2\n      swap1\n      sstore\n      pop\n        /* \"contracts/Operation4.sol\":573:575  10 */\n      0x0a\n        /* \"contracts/Operation4.sol\":568:569  c */\n      0x02\n      0x00\n        /* \"contracts/Operation4.sol\":568:575  c *= 10 */\n      dup3\n      dup3\n      sload\n      tag_54\n      swap2\n      swap1\n      tag_55\n      jump\t// in\n    tag_54:\n      swap3\n      pop\n      pop\n      dup2\n      swap1\n      sstore\n      pop\n        /* \"contracts/Operation4.sol\":597:599  10 */\n      0x0a\n        /* \"contracts/Operation4.sol\":592:593  d */\n      0x03\n      0x00\n        /* \"contracts/Operation4.sol\":592:599  d /= 10 */\n      dup3\n      dup3\n      sload\n      tag_56\n      swap2\n      swap1\n      tag_57\n      jump\t// in\n    tag_56:\n      swap3\n      pop\n      pop\n      dup2\n      swap1\n      sstore\n      pop\n        /* \"contracts/Operation4.sol\":619:621  10 */\n      0x0a\n        /* \"contracts/Operation4.sol\":614:615  e */\n      0x04\n      0x00\n        /* \"contracts/Operation4.sol\":614:621  e %= 10 */\n      dup3\n      dup3\n      sload\n      tag_58\n      swap2\n      swap1\n      tag_59\n      jump\t// in\n    tag_58:\n      swap3\n      pop\n      pop\n      dup2\n      swap1\n      sstore\n      pop\n        /* \"contracts/Operation4.sol\":680:684  0x10 */\n      0x10\n        /* \"contracts/Operation4.sol\":674:684  h1 &= 0x10 */\n      0xf8\n      shl\n        /* \"contracts/Operation4.sol\":674:676  h1 */\n      0x05\n      0x00\n        /* \"contracts/Operation4.sol\":674:684  h1 &= 0x10 */\n      dup3\n      dup3\n      dup3\n      swap1\n      sload\n      swap1\n      0x0100\n      exp\n      swap1\n      div\n      0xf8\n      shl\n      and\n      swap3\n      pop\n      0x0100\n      exp\n      dup2\n      sload\n      dup2\n      0xff\n      mul\n      not\n      and\n      swap1\n      dup4\n      0xf8\n      shr\n      mul\n      or\n      swap1\n      sstore\n      pop\n        /* \"contracts/Operation4.sol\":712:716  0x10 */\n      0x10\n        /* \"contracts/Operation4.sol\":706:716  h2 |= 0x10 */\n      0xf8\n      shl\n        /* \"contracts/Operation4.sol\":706:708  h2 */\n      0x05\n      0x01\n        /* \"contracts/Operation4.sol\":706:716  h2 |= 0x10 */\n      dup3\n      dup3\n      dup3\n      swap1\n      sload\n      swap1\n      0x0100\n      exp\n      swap1\n      div\n      0xf8\n      shl\n      or\n      swap3\n      pop\n      0x0100\n      exp\n      dup2\n      sload\n      dup2\n      0xff\n      mul\n      not\n      and\n      swap1\n      dup4\n      0xf8\n      shr\n      mul\n      or\n      swap1\n      sstore\n      pop\n        /* \"contracts/Operation4.sol\":750:754  0x10 */\n      0x10\n        /* \"contracts/Operation4.sol\":744:754  h3 ^= 0x10 */\n      0xf8\n      shl\n        /* \"contracts/Operation4.sol\":744:746  h3 */\n      0x05\n      0x02\n        /* \"contracts/Operation4.sol\":744:754  h3 ^= 0x10 */\n      dup3\n      dup3\n      dup3\n      swap1\n      sload\n      swap1\n      0x0100\n      exp\n      swap1\n      div\n      0xf8\n      shl\n      xor\n      swap3\n      pop\n      0x0100\n      exp\n      dup2\n      sload\n      dup2\n      0xff\n      mul\n      not\n      and\n      swap1\n      dup4\n      0xf8\n      shr\n      mul\n      or\n      swap1\n      sstore\n      pop\n        /* \"contracts/Operation4.sol\":812:813  2 */\n      0x02\n        /* \"contracts/Operation4.sol\":805:807  h4 */\n      0x05\n      0x03\n        /* \"contracts/Operation4.sol\":805:813  h4 <<= 2 */\n      dup3\n      dup3\n      dup3\n      swap1\n      sload\n      swap1\n      0x0100\n      exp\n      swap1\n      div\n      0xf8\n      shl\n      not(0xffffffffffffffffffffffffffffffffffffffffffffffffffffffffffffff)\n      and\n      swap1\n      shl\n      swap3\n      pop\n      0x0100\n      exp\n      dup2\n      sload\n      dup2\n      0xff\n      mul\n      not\n      and\n      swap1\n      dup4\n      0xf8\n      shr\n      mul\n      or\n      swap1\n      sstore\n      pop\n        /* \"contracts/Operation4.sol\":841:842  2 */\n      0x02\n        /* \"contracts/Operation4.sol\":834:836  h5 */\n      0x05\n      0x04\n        /* \"contracts/Operation4.sol\":834:842  h5 >>= 2 */\n      dup3\n      dup3\n      dup3\n      swap1\n      sload\n      swap1\n      0x0100\n      exp\n      swap1\n      div\n      0xf8\n      shl\n      not(0xffffffffffffffffffffffffffffffffffffffffffffffffffffffffffffff)\n      and\n      swap1\n      shr\n      swap3\n      pop\n      0x0100\n      exp\n      dup2\n      sload\n      dup2\n      0xff\n      mul\n      not\n      and\n      swap1\n      dup4\n      0xf8\n      shr\n      mul\n      or\n      swap1\n      sstore\n      pop\n        /* \"contracts/Operation4.sol\":461:862  function getResult() public {... */\n      jump\t// out\n        /* \"contracts/Operation4.sol\":210:228  uint public e = 50 */\n    tag_47:\n      sload(0x04)\n      dup2\n      jump\t// out\n        /* \"#utility.yul\":7:84   */\n    tag_60:\n        /* \"#utility.yul\":44:51   */\n      0x00\n        /* \"#utility.yul\":73:78   */\n      dup2\n        /* \"#utility.yul\":62:78   */\n      swap1\n      pop\n        /* \"#utility.yul\":7:84   */\n      swap2\n      swap1\n      pop\n      jump\t// out\n        /* \"#utility.yul\":90:208   */\n    tag_61:\n        /* \"#utility.yul\":177:201   */\n      tag_69\n        /* \"#utility.yul\":195:200   */\n      dup2\n        /* \"#utility.yul\":177:201   */\n      tag_60\n      jump\t// in\n    tag_69:\n        /* \"#utility.yul\":172:175   */\n      dup3\n        /* \"#utility.yul\":165:202   */\n      mstore\n        /* \"#utility.yul\":90:208   */\n      pop\n      pop\n      jump\t// out\n        /* \"#utility.yul\":214:436   */\n    tag_18:\n        /* \"#utility.yul\":307:311   */\n      0x00\n        /* \"#utility.yul\":345:347   */\n      0x20\n        /* \"#utility.yul\":334:343   */\n      dup3\n        /* \"#utility.yul\":330:348   */\n      add\n        /* \"#utility.yul\":322:348   */\n      swap1\n      pop\n        /* \"#utility.yul\":358:429   */\n      tag_71\n        /* \"#utility.yul\":426:427   */\n      0x00\n        /* \"#utility.yul\":415:424   */\n      dup4\n        /* \"#utility.yul\":411:428   */\n      add\n        /* \"#utility.yul\":402:408   */\n      dup5\n        /* \"#utility.yul\":358:429   */\n      tag_61\n      jump\t// in\n    tag_71:\n        /* \"#utility.yul\":214:436   */\n      swap3\n      swap2\n      pop\n      pop\n      jump\t// out\n        /* \"#utility.yul\":442:591   */\n    tag_62:\n        /* \"#utility.yul\":478:485   */\n      0x00\n        /* \"#utility.yul\":518:584   */\n      0xff00000000000000000000000000000000000000000000000000000000000000\n        /* \"#utility.yul\":511:516   */\n      dup3\n        /* \"#utility.yul\":507:585   */\n      and\n        /* \"#utility.yul\":496:585   */\n      swap1\n      pop\n        /* \"#utility.yul\":442:591   */\n      swap2\n      swap1\n      pop\n      jump\t// out\n        /* \"#utility.yul\":597:712   */\n    tag_63:\n        /* \"#utility.yul\":682:705   */\n      tag_74\n        /* \"#utility.yul\":699:704   */\n      dup2\n        /* \"#utility.yul\":682:705   */\n      tag_62\n      jump\t// in\n    tag_74:\n        /* \"#utility.yul\":677:680   */\n      dup3\n        /* \"#utility.yul\":670:706   */\n      mstore\n        /* \"#utility.yul\":597:712   */\n      pop\n      pop\n      jump\t// out\n        /* \"#utility.yul\":718:936   */\n    tag_22:\n        /* \"#utility.yul\":809:813   */\n      0x00\n        /* \"#utility.yul\":847:849   */\n      0x20\n        /* \"#utility.yul\":836:845   */\n      dup3\n        /* \"#utility.yul\":832:850   */\n      add\n        /* \"#utility.yul\":824:850   */\n      swap1\n      pop\n        /* \"#utility.yul\":860:929   */\n      tag_76\n        /* \"#utility.yul\":926:927   */\n      0x00\n        /* \"#utility.yul\":915:924   */\n      dup4\n        /* \"#utility.yul\":911:928   */\n      add\n        /* \"#utility.yul\":902:908   */\n      dup5\n        /* \"#utility.yul\":860:929   */\n      tag_63\n      jump\t// in\n    tag_76:\n        /* \"#utility.yul\":718:936   */\n      swap3\n      swap2\n      pop\n      pop\n      jump\t// out\n        /* \"#utility.yul\":942:1122   */\n    tag_64:\n        /* \"#utility.yul\":990:1067   */\n      0x4e487b7100000000000000000000000000000000000000000000000000000000\n        /* \"#utility.yul\":987:988   */\n      0x00\n        /* \"#utility.yul\":980:1068   */\n      mstore\n        /* \"#utility.yul\":1087:1091   */\n      0x11\n        /* \"#utility.yul\":1084:1085   */\n      0x04\n        /* \"#utility.yul\":1077:1092   */\n      mstore\n        /* \"#utility.yul\":1111:1115   */\n      0x24\n        /* \"#utility.yul\":1108:1109   */\n      0x00\n        /* \"#utility.yul\":1101:1116   */\n      revert\n        /* \"#utility.yul\":1128:1319   */\n    tag_51:\n        /* \"#utility.yul\":1168:1171   */\n      0x00\n        /* \"#utility.yul\":1187:1207   */\n      tag_79\n        /* \"#utility.yul\":1205:1206   */\n      dup3\n        /* \"#utility.yul\":1187:1207   */\n      tag_60\n      jump\t// in\n    tag_79:\n        /* \"#utility.yul\":1182:1207   */\n      swap2\n      pop\n        /* \"#utility.yul\":1221:1241   */\n      tag_80\n        /* \"#utility.yul\":1239:1240   */\n      dup4\n        /* \"#utility.yul\":1221:1241   */\n      tag_60\n      jump\t// in\n    tag_80:\n        /* \"#utility.yul\":1216:1241   */\n      swap3\n      pop\n        /* \"#utility.yul\":1264:1265   */\n      dup3\n        /* \"#utility.yul\":1261:1262   */\n      dup3\n        /* \"#utility.yul\":1257:1266   */\n      add\n        /* \"#utility.yul\":1250:1266   */\n      swap1\n      pop\n        /* \"#utility.yul\":1285:1288   */\n      dup1\n        /* \"#utility.yul\":1282:1283   */\n      dup3\n        /* \"#utility.yul\":1279:1289   */\n      gt\n        /* \"#utility.yul\":1276:1312   */\n      iszero\n      tag_81\n      jumpi\n        /* \"#utility.yul\":1292:1310   */\n      tag_82\n      tag_64\n      jump\t// in\n    tag_82:\n        /* \"#utility.yul\":1276:1312   */\n    tag_81:\n        /* \"#utility.yul\":1128:1319   */\n      swap3\n      swap2\n      pop\n      pop\n      jump\t// out\n        /* \"#utility.yul\":1325:1519   */\n    tag_53:\n        /* \"#utility.yul\":1365:1369   */\n      0x00\n        /* \"#utility.yul\":1385:1405   */\n      tag_84\n        /* \"#utility.yul\":1403:1404   */\n      dup3\n        /* \"#utility.yul\":1385:1405   */\n      tag_60\n      jump\t// in\n    tag_84:\n        /* \"#utility.yul\":1380:1405   */\n      swap2\n      pop\n        /* \"#utility.yul\":1419:1439   */\n      tag_85\n        /* \"#utility.yul\":1437:1438   */\n      dup4\n        /* \"#utility.yul\":1419:1439   */\n      tag_60\n      jump\t// in\n    tag_85:\n        /* \"#utility.yul\":1414:1439   */\n      swap3\n      pop\n        /* \"#utility.yul\":1463:1464   */\n      dup3\n        /* \"#utility.yul\":1460:1461   */\n      dup3\n        /* \"#utility.yul\":1456:1465   */\n      sub\n        /* \"#utility.yul\":1448:1465   */\n      swap1\n      pop\n        /* \"#utility.yul\":1487:1488   */\n      dup2\n        /* \"#utility.yul\":1481:1485   */\n      dup2\n        /* \"#utility.yul\":1478:1489   */\n      gt\n        /* \"#utility.yul\":1475:1512   */\n      iszero\n      tag_86\n      jumpi\n        /* \"#utility.yul\":1492:1510   */\n      tag_87\n      tag_64\n      jump\t// in\n    tag_87:\n        /* \"#utility.yul\":1475:1512   */\n    tag_86:\n        /* \"#utility.yul\":1325:1519   */\n      swap3\n      swap2\n      pop\n      pop\n      jump\t// out\n        /* \"#utility.yul\":1525:1935   */\n    tag_55:\n        /* \"#utility.yul\":1565:1572   */\n      0x00\n        /* \"#utility.yul\":1588:1608   */\n      tag_89\n        /* \"#utility.yul\":1606:1607   */\n      dup3\n        /* \"#utility.yul\":1588:1608   */\n      tag_60\n      jump\t// in\n    tag_89:\n        /* \"#utility.yul\":1583:1608   */\n      swap2\n      pop\n        /* \"#utility.yul\":1622:1642   */\n      tag_90\n        /* \"#utility.yul\":1640:1641   */\n      dup4\n        /* \"#utility.yul\":1622:1642   */\n      tag_60\n      jump\t// in\n    tag_90:\n        /* \"#utility.yul\":1617:1642   */\n      swap3\n      pop\n        /* \"#utility.yul\":1677:1678   */\n      dup3\n        /* \"#utility.yul\":1674:1675   */\n      dup3\n        /* \"#utility.yul\":1670:1679   */\n      mul\n        /* \"#utility.yul\":1699:1729   */\n      tag_91\n        /* \"#utility.yul\":1717:1728   */\n      dup2\n        /* \"#utility.yul\":1699:1729   */\n      tag_60\n      jump\t// in\n    tag_91:\n        /* \"#utility.yul\":1688:1729   */\n      swap2\n      pop\n        /* \"#utility.yul\":1878:1879   */\n      dup3\n        /* \"#utility.yul\":1869:1876   */\n      dup3\n        /* \"#utility.yul\":1865:1880   */\n      div\n        /* \"#utility.yul\":1862:1863   */\n      dup5\n        /* \"#utility.yul\":1859:1881   */\n      eq\n        /* \"#utility.yul\":1839:1840   */\n      dup4\n        /* \"#utility.yul\":1832:1841   */\n      iszero\n        /* \"#utility.yul\":1812:1895   */\n      or\n        /* \"#utility.yul\":1789:1928   */\n      tag_92\n      jumpi\n        /* \"#utility.yul\":1908:1926   */\n      tag_93\n      tag_64\n      jump\t// in\n    tag_93:\n        /* \"#utility.yul\":1789:1928   */\n    tag_92:\n        /* \"#utility.yul\":1573:1935   */\n      pop\n        /* \"#utility.yul\":1525:1935   */\n      swap3\n      swap2\n      pop\n      pop\n      jump\t// out\n        /* \"#utility.yul\":1941:2121   */\n    tag_65:\n        /* \"#utility.yul\":1989:2066   */\n      0x4e487b7100000000000000000000000000000000000000000000000000000000\n        /* \"#utility.yul\":1986:1987   */\n      0x00\n        /* \"#utility.yul\":1979:2067   */\n      mstore\n        /* \"#utility.yul\":2086:2090   */\n      0x12\n        /* \"#utility.yul\":2083:2084   */\n      0x04\n        /* \"#utility.yul\":2076:2091   */\n      mstore\n        /* \"#utility.yul\":2110:2114   */\n      0x24\n        /* \"#utility.yul\":2107:2108   */\n      0x00\n        /* \"#utility.yul\":2100:2115   */\n      revert\n        /* \"#utility.yul\":2127:2312   */\n    tag_57:\n        /* \"#utility.yul\":2167:2168   */\n      0x00\n        /* \"#utility.yul\":2184:2204   */\n      tag_96\n        /* \"#utility.yul\":2202:2203   */\n      dup3\n        /* \"#utility.yul\":2184:2204   */\n      tag_60\n      jump\t// in\n    tag_96:\n        /* \"#utility.yul\":2179:2204   */\n      swap2\n      pop\n        /* \"#utility.yul\":2218:2238   */\n      tag_97\n        /* \"#utility.yul\":2236:2237   */\n      dup4\n        /* \"#utility.yul\":2218:2238   */\n      tag_60\n      jump\t// in\n    tag_97:\n        /* \"#utility.yul\":2213:2238   */\n      swap3\n      pop\n        /* \"#utility.yul\":2257:2258   */\n      dup3\n        /* \"#utility.yul\":2247:2282   */\n      tag_98\n      jumpi\n        /* \"#utility.yul\":2262:2280   */\n      tag_99\n      tag_65\n      jump\t// in\n    tag_99:\n        /* \"#utility.yul\":2247:2282   */\n    tag_98:\n        /* \"#utility.yul\":2304:2305   */\n      dup3\n        /* \"#utility.yul\":2301:2302   */\n      dup3\n        /* \"#utility.yul\":2297:2306   */\n      div\n        /* \"#utility.yul\":2292:2306   */\n      swap1\n      pop\n        /* \"#utility.yul\":2127:2312   */\n      swap3\n      swap2\n      pop\n      pop\n      jump\t// out\n        /* \"#utility.yul\":2318:2494   */\n    tag_59:\n        /* \"#utility.yul\":2350:2351   */\n      0x00\n        /* \"#utility.yul\":2367:2387   */\n      tag_101\n        /* \"#utility.yul\":2385:2386   */\n      dup3\n        /* \"#utility.yul\":2367:2387   */\n      tag_60\n      jump\t// in\n    tag_101:\n        /* \"#utility.yul\":2362:2387   */\n      swap2\n      pop\n        /* \"#utility.yul\":2401:2421   */\n      tag_102\n        /* \"#utility.yul\":2419:2420   */\n      dup4\n        /* \"#utility.yul\":2401:2421   */\n      tag_60\n      jump\t// in\n    tag_102:\n        /* \"#utility.yul\":2396:2421   */\n      swap3\n      pop\n        /* \"#utility.yul\":2440:2441   */\n      dup3\n        /* \"#utility.yul\":2430:2465   */\n      tag_103\n      jumpi\n        /* \"#utility.yul\":2445:2463   */\n      tag_104\n      tag_65\n      jump\t// in\n    tag_104:\n        /* \"#utility.yul\":2430:2465   */\n    tag_103:\n        /* \"#utility.yul\":2486:2487   */\n      dup3\n        /* \"#utility.yul\":2483:2484   */\n      dup3\n        /* \"#utility.yul\":2479:2488   */\n      mod\n        /* \"#utility.yul\":2474:2488   */\n      swap1\n      pop\n        /* \"#utility.yul\":2318:2494   */\n      swap3\n      swap2\n      pop\n      pop\n      jump\t// out\n\n    auxdata: 0xa26469706673582212207fcb001637b273057db96217e3d921267b8ba17964b9d9672e03b06fd8b698f164736f6c63430008190033\n}\n",
				"bytecode": {
					"linkReferences": {},
					"object": "6080604052600a5f556014600155601e6002556028600355603260045560a060f81b60055f6101000a81548160ff021916908360f81c021790555060b060f81b600560016101000a81548160ff021916908360f81c021790555060c060f81b600560026101000a81548160ff021916908360f81c021790555060d060f81b600560036101000a81548160ff021916908360f81c021790555060e060f81b600560046101000a81548160ff021916908360f81c021790555034801560c0575f80fd5b50610629806100ce5f395ff3fe608060405234801561000f575f80fd5b50600436106100a7575f3560e01c80638a054ac21161006f5780638a054ac214610141578063b9ccf2191461015f578063be1eca861461017d578063c3da42b81461019b578063de292789146101b9578063ffae15ba146101c3576100a7565b80630dbe671f146100ab578063426cfd68146100c9578063451652bf146100e75780634df7e3d0146101055780635092f2ec14610123575b5f80fd5b6100b36101e1565b6040516100c09190610426565b60405180910390f35b6100d16101e6565b6040516100de9190610479565b60405180910390f35b6100ef6101f8565b6040516100fc9190610479565b60405180910390f35b61010d61020b565b60405161011a9190610426565b60405180910390f35b61012b610211565b6040516101389190610479565b60405180910390f35b610149610224565b6040516101569190610426565b60405180910390f35b61016761022a565b6040516101749190610479565b60405180910390f35b61018561023d565b6040516101929190610479565b60405180910390f35b6101a3610250565b6040516101b09190610426565b60405180910390f35b6101c1610256565b005b6101cb610408565b6040516101d89190610426565b60405180910390f35b5f5481565b60055f9054906101000a900460f81b81565b600560049054906101000a900460f81b81565b60015481565b600560019054906101000a900460f81b81565b60035481565b600560029054906101000a900460f81b81565b600560039054906101000a900460f81b81565b60025481565b600a5f8082825461026791906104bf565b92505081905550600a60015f82825461028091906104f2565b92505081905550600a60025f8282546102999190610525565b92505081905550600a60035f8282546102b29190610593565b92505081905550600a60045f8282546102cb91906105c3565b92505081905550601060f81b60055f8282829054906101000a900460f81b1692506101000a81548160ff021916908360f81c0217905550601060f81b600560018282829054906101000a900460f81b1792506101000a81548160ff021916908360f81c0217905550601060f81b600560028282829054906101000a900460f81b1892506101000a81548160ff021916908360f81c02179055506002600560038282829054906101000a900460f81b7effffffffffffffffffffffffffffffffffffffffffffffffffffffffffffff1916901b92506101000a81548160ff021916908360f81c02179055506002600560048282829054906101000a900460f81b7effffffffffffffffffffffffffffffffffffffffffffffffffffffffffffff1916901c92506101000a81548160ff021916908360f81c0217905550565b60045481565b5f819050919050565b6104208161040e565b82525050565b5f6020820190506104395f830184610417565b92915050565b5f7fff0000000000000000000000000000000000000000000000000000000000000082169050919050565b6104738161043f565b82525050565b5f60208201905061048c5f83018461046a565b92915050565b7f4e487b71000000000000000000000000000000000000000000000000000000005f52601160045260245ffd5b5f6104c98261040e565b91506104d48361040e565b92508282019050808211156104ec576104eb610492565b5b92915050565b5f6104fc8261040e565b91506105078361040e565b925082820390508181111561051f5761051e610492565b5b92915050565b5f61052f8261040e565b915061053a8361040e565b92508282026105488161040e565b9150828204841483151761055f5761055e610492565b5b5092915050565b7f4e487b71000000000000000000000000000000000000000000000000000000005f52601260045260245ffd5b5f61059d8261040e565b91506105a88361040e565b9250826105b8576105b7610566565b5b828204905092915050565b5f6105cd8261040e565b91506105d88361040e565b9250826105e8576105e7610566565b5b82820690509291505056fea26469706673582212207fcb001637b273057db96217e3d921267b8ba17964b9d9672e03b06fd8b698f164736f6c63430008190033",
					"opcodes": "PUSH1 0x80 PUSH1 0x40 MSTORE PUSH1 0xA PUSH0 SSTORE PUSH1 0x14 PUSH1 0x1 SSTORE PUSH1 0x1E PUSH1 0x2 SSTORE PUSH1 0x28 PUSH1 0x3 SSTORE PUSH1 0x32 PUSH1 0x4 SSTORE PUSH1 0xA0 PUSH1 0xF8 SHL PUSH1 0x5 PUSH0 PUSH2 0x100 EXP DUP2 SLOAD DUP2 PUSH1 0xFF MUL NOT AND SWAP1 DUP4 PUSH1 0xF8 SHR MUL OR SWAP1 SSTORE POP PUSH1 0xB0 PUSH1 0xF8 SHL PUSH1 0x5 PUSH1 0x1 PUSH2 0x100 EXP DUP2 SLOAD DUP2 PUSH1 0xFF MUL NOT AND SWAP1 DUP4 PUSH1 0xF8 SHR MUL OR SWAP1 SSTORE POP PUSH1 0xC0 PUSH1 0xF8 SHL PUSH1 0x5 PUSH1 0x2 PUSH2 0x100 EXP DUP2 SLOAD DUP2 PUSH1 0xFF MUL NOT AND SWAP1 DUP4 PUSH1 0xF8 SHR MUL OR SWAP1 SSTORE POP PUSH1 0xD0 PUSH1 0xF8 SHL PUSH1 0x5 PUSH1 0x3 PUSH2 0x100 EXP DUP2 SLOAD DUP2 PUSH1 0xFF MUL NOT AND SWAP1 DUP4 PUSH1 0xF8 SHR MUL OR SWAP1 SSTORE POP PUSH1 0xE0 PUSH1 0xF8 SHL PUSH1 0x5 PUSH1 0x4 PUSH2 0x100 EXP DUP2 SLOAD DUP2 PUSH1 0xFF MUL NOT AND SWAP1 DUP4 PUSH1 0xF8 SHR MUL OR SWAP1 SSTORE POP CALLVALUE DUP1 ISZERO PUSH1 0xC0 JUMPI PUSH0 DUP1 REVERT JUMPDEST POP PUSH2 0x629 DUP1 PUSH2 0xCE PUSH0 CODECOPY PUSH0 RETURN INVALID PUSH1 0x80 PUSH1 0x40 MSTORE CALLVALUE DUP1 ISZERO PUSH2 0xF JUMPI PUSH0 DUP1 REVERT JUMPDEST POP PUSH1 0x4 CALLDATASIZE LT PUSH2 0xA7 JUMPI PUSH0 CALLDATALOAD PUSH1 0xE0 SHR DUP1 PUSH4 0x8A054AC2 GT PUSH2 0x6F JUMPI DUP1 PUSH4 0x8A054AC2 EQ PUSH2 0x141 JUMPI DUP1 PUSH4 0xB9CCF219 EQ PUSH2 0x15F JUMPI DUP1 PUSH4 0xBE1ECA86 EQ PUSH2 0x17D JUMPI DUP1 PUSH4 0xC3DA42B8 EQ PUSH2 0x19B JUMPI DUP1 PUSH4 0xDE292789 EQ PUSH2 0x1B9 JUMPI DUP1 PUSH4 0xFFAE15BA EQ PUSH2 0x1C3 JUMPI PUSH2 0xA7 JUMP JUMPDEST DUP1 PUSH4 0xDBE671F EQ PUSH2 0xAB JUMPI DUP1 PUSH4 0x426CFD68 EQ PUSH2 0xC9 JUMPI DUP1 PUSH4 0x451652BF EQ PUSH2 0xE7 JUMPI DUP1 PUSH4 0x4DF7E3D0 EQ PUSH2 0x105 JUMPI DUP1 PUSH4 0x5092F2EC EQ PUSH2 0x123 JUMPI JUMPDEST PUSH0 DUP1 REVERT JUMPDEST PUSH2 0xB3 PUSH2 0x1E1 JUMP JUMPDEST PUSH1 0x40 MLOAD PUSH2 0xC0 SWAP2 SWAP1 PUSH2 0x426 JUMP JUMPDEST PUSH1 0x40 MLOAD DUP1 SWAP2 SUB SWAP1 RETURN JUMPDEST PUSH2 0xD1 PUSH2 0x1E6 JUMP JUMPDEST PUSH1 0x40 MLOAD PUSH2 0xDE SWAP2 SWAP1 PUSH2 0x479 JUMP JUMPDEST PUSH1 0x40 MLOAD DUP1 SWAP2 SUB SWAP1 RETURN JUMPDEST PUSH2 0xEF PUSH2 0x1F8 JUMP JUMPDEST PUSH1 0x40 MLOAD PUSH2 0xFC SWAP2 SWAP1 PUSH2 0x479 JUMP JUMPDEST PUSH1 0x40 MLOAD DUP1 SWAP2 SUB SWAP1 RETURN JUMPDEST PUSH2 0x10D PUSH2 0x20B JUMP JUMPDEST PUSH1 0x40 MLOAD PUSH2 0x11A SWAP2 SWAP1 PUSH2 0x426 JUMP JUMPDEST PUSH1 0x40 MLOAD DUP1 SWAP2 SUB SWAP1 RETURN JUMPDEST PUSH2 0x12B PUSH2 0x211 JUMP JUMPDEST PUSH1 0x40 MLOAD PUSH2 0x138 SWAP2 SWAP1 PUSH2 0x479 JUMP JUMPDEST PUSH1 0x40 MLOAD DUP1 SWAP2 SUB SWAP1 RETURN JUMPDEST PUSH2 0x149 PUSH2 0x224 JUMP JUMPDEST PUSH1 0x40 MLOAD PUSH2 0x156 SWAP2 SWAP1 PUSH2 0x426 JUMP JUMPDEST PUSH1 0x40 MLOAD DUP1 SWAP2 SUB SWAP1 RETURN JUMPDEST PUSH2 0x167 PUSH2 0x22A JUMP JUMPDEST PUSH1 0x40 MLOAD PUSH2 0x174 SWAP2 SWAP1 PUSH2 0x479 JUMP JUMPDEST PUSH1 0x40 MLOAD DUP1 SWAP2 SUB SWAP1 RETURN JUMPDEST PUSH2 0x185 PUSH2 0x23D JUMP JUMPDEST PUSH1 0x40 MLOAD PUSH2 0x192 SWAP2 SWAP1 PUSH2 0x479 JUMP JUMPDEST PUSH1 0x40 MLOAD DUP1 SWAP2 SUB SWAP1 RETURN JUMPDEST PUSH2 0x1A3 PUSH2 0x250 JUMP JUMPDEST PUSH1 0x40 MLOAD PUSH2 0x1B0 SWAP2 SWAP1 PUSH2 0x426 JUMP JUMPDEST PUSH1 0x40 MLOAD DUP1 SWAP2 SUB SWAP1 RETURN JUMPDEST PUSH2 0x1C1 PUSH2 0x256 JUMP JUMPDEST STOP JUMPDEST PUSH2 0x1CB PUSH2 0x408 JUMP JUMPDEST PUSH1 0x40 MLOAD PUSH2 0x1D8 SWAP2 SWAP1 PUSH2 0x426 JUMP JUMPDEST PUSH1 0x40 MLOAD DUP1 SWAP2 SUB SWAP1 RETURN JUMPDEST PUSH0 SLOAD DUP2 JUMP JUMPDEST PUSH1 0x5 PUSH0 SWAP1 SLOAD SWAP1 PUSH2 0x100 EXP SWAP1 DIV PUSH1 0xF8 SHL DUP2 JUMP JUMPDEST PUSH1 0x5 PUSH1 0x4 SWAP1 SLOAD SWAP1 PUSH2 0x100 EXP SWAP1 DIV PUSH1 0xF8 SHL DUP2 JUMP JUMPDEST PUSH1 0x1 SLOAD DUP2 JUMP JUMPDEST PUSH1 0x5 PUSH1 0x1 SWAP1 SLOAD SWAP1 PUSH2 0x100 EXP SWAP1 DIV PUSH1 0xF8 SHL DUP2 JUMP JUMPDEST PUSH1 0x3 SLOAD DUP2 JUMP JUMPDEST PUSH1 0x5 PUSH1 0x2 SWAP1 SLOAD SWAP1 PUSH2 0x100 EXP SWAP1 DIV PUSH1 0xF8 SHL DUP2 JUMP JUMPDEST PUSH1 0x5 PUSH1 0x3 SWAP1 SLOAD SWAP1 PUSH2 0x100 EXP SWAP1 DIV PUSH1 0xF8 SHL DUP2 JUMP JUMPDEST PUSH1 0x2 SLOAD DUP2 JUMP JUMPDEST PUSH1 0xA PUSH0 DUP1 DUP3 DUP3 SLOAD PUSH2 0x267 SWAP2 SWAP1 PUSH2 0x4BF JUMP JUMPDEST SWAP3 POP POP DUP2 SWAP1 SSTORE POP PUSH1 0xA PUSH1 0x1 PUSH0 DUP3 DUP3 SLOAD PUSH2 0x280 SWAP2 SWAP1 PUSH2 0x4F2 JUMP JUMPDEST SWAP3 POP POP DUP2 SWAP1 SSTORE POP PUSH1 0xA PUSH1 0x2 PUSH0 DUP3 DUP3 SLOAD PUSH2 0x299 SWAP2 SWAP1 PUSH2 0x525 JUMP JUMPDEST SWAP3 POP POP DUP2 SWAP1 SSTORE POP PUSH1 0xA PUSH1 0x3 PUSH0 DUP3 DUP3 SLOAD PUSH2 0x2B2 SWAP2 SWAP1 PUSH2 0x593 JUMP JUMPDEST SWAP3 POP POP DUP2 SWAP1 SSTORE POP PUSH1 0xA PUSH1 0x4 PUSH0 DUP3 DUP3 SLOAD PUSH2 0x2CB SWAP2 SWAP1 PUSH2 0x5C3 JUMP JUMPDEST SWAP3 POP POP DUP2 SWAP1 SSTORE POP PUSH1 0x10 PUSH1 0xF8 SHL PUSH1 0x5 PUSH0 DUP3 DUP3 DUP3 SWAP1 SLOAD SWAP1 PUSH2 0x100 EXP SWAP1 DIV PUSH1 0xF8 SHL AND SWAP3 POP PUSH2 0x100 EXP DUP2 SLOAD DUP2 PUSH1 0xFF MUL NOT AND SWAP1 DUP4 PUSH1 0xF8 SHR MUL OR SWAP1 SSTORE POP PUSH1 0x10 PUSH1 0xF8 SHL PUSH1 0x5 PUSH1 0x1 DUP3 DUP3 DUP3 SWAP1 SLOAD SWAP1 PUSH2 0x100 EXP SWAP1 DIV PUSH1 0xF8 SHL OR SWAP3 POP PUSH2 0x100 EXP DUP2 SLOAD DUP2 PUSH1 0xFF MUL NOT AND SWAP1 DUP4 PUSH1 0xF8 SHR MUL OR SWAP1 SSTORE POP PUSH1 0x10 PUSH1 0xF8 SHL PUSH1 0x5 PUSH1 0x2 DUP3 DUP3 DUP3 SWAP1 SLOAD SWAP1 PUSH2 0x100 EXP SWAP1 DIV PUSH1 0xF8 SHL XOR SWAP3 POP PUSH2 0x100 EXP DUP2 SLOAD DUP2 PUSH1 0xFF MUL NOT AND SWAP1 DUP4 PUSH1 0xF8 SHR MUL OR SWAP1 SSTORE POP PUSH1 0x2 PUSH1 0x5 PUSH1 0x3 DUP3 DUP3 DUP3 SWAP1 SLOAD SWAP1 PUSH2 0x100 EXP SWAP1 DIV PUSH1 0xF8 SHL PUSH31 0xFFFFFFFFFFFFFFFFFFFFFFFFFFFFFFFFFFFFFFFFFFFFFFFFFFFFFFFFFFFFFF NOT AND SWAP1 SHL SWAP3 POP PUSH2 0x100 EXP DUP2 SLOAD DUP2 PUSH1 0xFF MUL NOT AND SWAP1 DUP4 PUSH1 0xF8 SHR MUL OR SWAP1 SSTORE POP PUSH1 0x2 PUSH1 0x5 PUSH1 0x4 DUP3 DUP3 DUP3 SWAP1 SLOAD SWAP1 PUSH2 0x100 EXP SWAP1 DIV PUSH1 0xF8 SHL PUSH31 0xFFFFFFFFFFFFFFFFFFFFFFFFFFFFFFFFFFFFFFFFFFFFFFFFFFFFFFFFFFFFFF NOT AND SWAP1 SHR SWAP3 POP PUSH2 0x100 EXP DUP2 SLOAD DUP2 PUSH1 0xFF MUL NOT AND SWAP1 DUP4 PUSH1 0xF8 SHR MUL OR SWAP1 SSTORE POP JUMP JUMPDEST PUSH1 0x4 SLOAD DUP2 JUMP JUMPDEST PUSH0 DUP2 SWAP1 POP SWAP2 SWAP1 POP JUMP JUMPDEST PUSH2 0x420 DUP2 PUSH2 0x40E JUMP JUMPDEST DUP3 MSTORE POP POP JUMP JUMPDEST PUSH0 PUSH1 0x20 DUP3 ADD SWAP1 POP PUSH2 0x439 PUSH0 DUP4 ADD DUP5 PUSH2 0x417 JUMP JUMPDEST SWAP3 SWAP2 POP POP JUMP JUMPDEST PUSH0 PUSH32 0xFF00000000000000000000000000000000000000000000000000000000000000 DUP3 AND SWAP1 POP SWAP2 SWAP1 POP JUMP JUMPDEST PUSH2 0x473 DUP2 PUSH2 0x43F JUMP JUMPDEST DUP3 MSTORE POP POP JUMP JUMPDEST PUSH0 PUSH1 0x20 DUP3 ADD SWAP1 POP PUSH2 0x48C PUSH0 DUP4 ADD DUP5 PUSH2 0x46A JUMP JUMPDEST SWAP3 SWAP2 POP POP JUMP JUMPDEST PUSH32 0x4E487B7100000000000000000000000000000000000000000000000000000000 PUSH0 MSTORE PUSH1 0x11 PUSH1 0x4 MSTORE PUSH1 0x24 PUSH0 REVERT JUMPDEST PUSH0 PUSH2 0x4C9 DUP3 PUSH2 0x40E JUMP JUMPDEST SWAP2 POP PUSH2 0x4D4 DUP4 PUSH2 0x40E JUMP JUMPDEST SWAP3 POP DUP3 DUP3 ADD SWAP1 POP DUP1 DUP3 GT ISZERO PUSH2 0x4EC JUMPI PUSH2 0x4EB PUSH2 0x492 JUMP JUMPDEST JUMPDEST SWAP3 SWAP2 POP POP JUMP JUMPDEST PUSH0 PUSH2 0x4FC DUP3 PUSH2 0x40E JUMP JUMPDEST SWAP2 POP PUSH2 0x507 DUP4 PUSH2 0x40E JUMP JUMPDEST SWAP3 POP DUP3 DUP3 SUB SWAP1 POP DUP2 DUP2 GT ISZERO PUSH2 0x51F JUMPI PUSH2 0x51E PUSH2 0x492 JUMP JUMPDEST JUMPDEST SWAP3 SWAP2 POP POP JUMP JUMPDEST PUSH0 PUSH2 0x52F DUP3 PUSH2 0x40E JUMP JUMPDEST SWAP2 POP PUSH2 0x53A DUP4 PUSH2 0x40E JUMP JUMPDEST SWAP3 POP DUP3 DUP3 MUL PUSH2 0x548 DUP2 PUSH2 0x40E JUMP JUMPDEST SWAP2 POP DUP3 DUP3 DIV DUP5 EQ DUP4 ISZERO OR PUSH2 0x55F JUMPI PUSH2 0x55E PUSH2 0x492 JUMP JUMPDEST JUMPDEST POP SWAP3 SWAP2 POP POP JUMP JUMPDEST PUSH32 0x4E487B7100000000000000000000000000000000000000000000000000000000 PUSH0 MSTORE PUSH1 0x12 PUSH1 0x4 MSTORE PUSH1 0x24 PUSH0 REVERT JUMPDEST PUSH0 PUSH2 0x59D DUP3 PUSH2 0x40E JUMP JUMPDEST SWAP2 POP PUSH2 0x5A8 DUP4 PUSH2 0x40E JUMP JUMPDEST SWAP3 POP DUP3 PUSH2 0x5B8 JUMPI PUSH2 0x5B7 PUSH2 0x566 JUMP JUMPDEST JUMPDEST DUP3 DUP3 DIV SWAP1 POP SWAP3 SWAP2 POP POP JUMP JUMPDEST PUSH0 PUSH2 0x5CD DUP3 PUSH2 0x40E JUMP JUMPDEST SWAP2 POP PUSH2 0x5D8 DUP4 PUSH2 0x40E JUMP JUMPDEST SWAP3 POP DUP3 PUSH2 0x5E8 JUMPI PUSH2 0x5E7 PUSH2 0x566 JUMP JUMPDEST JUMPDEST DUP3 DUP3 MOD SWAP1 POP SWAP3 SWAP2 POP POP JUMP INVALID LOG2 PUSH5 0x6970667358 0x22 SLT KECCAK256 PUSH32 0xCB001637B273057DB96217E3D921267B8BA17964B9D9672E03B06FD8B698F164 PUSH20 0x6F6C634300081900330000000000000000000000 "
				},
				"gasEstimates": {
					"creation": {
						"codeDepositCost": "315400",
						"executionCost": "232446",
						"totalCost": "547846"
					},
					"external": {
						"a()": "2425",
						"b()": "2492",
						"c()": "2491",
						"d()": "2425",
						"e()": "2535",
						"getResult()": "infinite",
						"h1()": "2489",
						"h2()": "2606",
						"h3()": "2539",
						"h4()": "2561",
						"h5()": "2562"
					}
				},
				"methodIdentifiers": {
					"a()": "0dbe671f",
					"b()": "4df7e3d0",
					"c()": "c3da42b8",
					"d()": "8a054ac2",
					"e()": "ffae15ba",
					"getResult()": "de292789",
					"h1()": "426cfd68",
					"h2()": "5092f2ec",
					"h3()": "b9ccf219",
					"h4()": "be1eca86",
					"h5()": "451652bf"
				}
			},
			"storageLayout": {
				"storage": [
					{
						"astId": 4,
						"contract": "contracts/Operation4.sol:OperatorsAssignment",
						"label": "a",
						"offset": 0,
						"slot": "0",
						"type": "t_uint256"
					},
					{
						"astId": 7,
						"contract": "contracts/Operation4.sol:OperatorsAssignment",
						"label": "b",
						"offset": 0,
						"slot": "1",
						"type": "t_uint256"
					},
					{
						"astId": 10,
						"contract": "contracts/Operation4.sol:OperatorsAssignment",
						"label": "c",
						"offset": 0,
						"slot": "2",
						"type": "t_uint256"
					},
					{
						"astId": 13,
						"contract": "contracts/Operation4.sol:OperatorsAssignment",
						"label": "d",
						"offset": 0,
						"slot": "3",
						"type": "t_uint256"
					},
					{
						"astId": 16,
						"contract": "contracts/Operation4.sol:OperatorsAssignment",
						"label": "e",
						"offset": 0,
						"slot": "4",
						"type": "t_uint256"
					},
					{
						"astId": 19,
						"contract": "contracts/Operation4.sol:OperatorsAssignment",
						"label": "h1",
						"offset": 0,
						"slot": "5",
						"type": "t_bytes1"
					},
					{
						"astId": 22,
						"contract": "contracts/Operation4.sol:OperatorsAssignment",
						"label": "h2",
						"offset": 1,
						"slot": "5",
						"type": "t_bytes1"
					},
					{
						"astId": 25,
						"contract": "contracts/Operation4.sol:OperatorsAssignment",
						"label": "h3",
						"offset": 2,
						"slot": "5",
						"type": "t_bytes1"
					},
					{
						"astId": 28,
						"contract": "contracts/Operation4.sol:OperatorsAssignment",
						"label": "h4",
						"offset": 3,
						"slot": "5",
						"type": "t_bytes1"
					},
					{
						"astId": 31,
						"contract": "contracts/Operation4.sol:OperatorsAssignment",
						"label": "h5",
						"offset": 4,
						"slot": "5",
						"type": "t_bytes1"
					}
				],
				"types": {
					"t_bytes1": {
						"encoding": "inplace",
						"label": "bytes1",
						"numberOfBytes": "1"
					},
					"t_uint256": {
						"encoding": "inplace",
						"label": "uint256",
						"numberOfBytes": "32"
					}
				}
			},
			"userdoc": {
				"kind": "user",
				"methods": {},
				"version": 1
			}
		}
	}
}