{
	"contracts/Operation.sol": {
		"OperatorsAtrithmetic": {
			"abi": [
				{
					"inputs": [],
					"name": "a",
					"outputs": [
						{
							"internalType": "uint256",
							"name": "",
							"type": "uint256"
						}
					],
					"stateMutability": "view",
					"type": "function"
				},
				{
					"inputs": [],
					"name": "b",
					"outputs": [
						{
							"internalType": "uint256",
							"name": "",
							"type": "uint256"
						}
					],
					"stateMutability": "view",
					"type": "function"
				},
				{
					"inputs": [],
					"name": "dec1",
					"outputs": [
						{
							"internalType": "uint256",
							"name": "",
							"type": "uint256"
						}
					],
					"stateMutability": "view",
					"type": "function"
				},
				{
					"inputs": [],
					"name": "dec2",
					"outputs": [
						{
							"internalType": "uint256",
							"name": "",
							"type": "uint256"
						}
					],
					"stateMutability": "view",
					"type": "function"
				},
				{
					"inputs": [],
					"name": "diff",
					"outputs": [
						{
							"internalType": "uint256",
							"name": "",
							"type": "uint256"
						}
					],
					"stateMutability": "view",
					"type": "function"
				},
				{
					"inputs": [],
					"name": "div",
					"outputs": [
						{
							"internalType": "uint256",
							"name": "",
							"type": "uint256"
						}
					],
					"stateMutability": "view",
					"type": "function"
				},
				{
					"inputs": [],
					"name": "inc1",
					"outputs": [
						{
							"internalType": "uint256",
							"name": "",
							"type": "uint256"
						}
					],
					"stateMutability": "view",
					"type": "function"
				},
				{
					"inputs": [],
					"name": "inc2",
					"outputs": [
						{
							"internalType": "uint256",
							"name": "",
							"type": "uint256"
						}
					],
					"stateMutability": "view",
					"type": "function"
				},
				{
					"inputs": [],
					"name": "mod",
					"outputs": [
						{
							"internalType": "uint256",
							"name": "",
							"type": "uint256"
						}
					],
					"stateMutability": "view",
					"type": "function"
				},
				{
					"inputs": [],
					"name": "mul",
					"outputs": [
						{
							"internalType": "uint256",
							"name": "",
							"type": "uint256"
						}
					],
					"stateMutability": "view",
					"type": "function"
				},
				{
					"inputs": [],
					"name": "pow",
					"outputs": [
						{
							"internalType": "uint256",
							"name": "",
							"type": "uint256"
						}
					],
					"stateMutability": "view",
					"type": "function"
				},
				{
					"inputs": [],
					"name": "sum",
					"outputs": [
						{
							"internalType": "uint256",
							"name": "",
							"type": "uint256"
						}
					],
					"stateMutability": "view",
					"type": "function"
				}
			],
			"devdoc": {
				"kind": "dev",
				"methods": {},
				"version": 1
			},
			"evm": {
				"assembly": "    /* \"contracts/Operation.sol\":76:597  contract OperatorsAtrithmetic {... */\n  mstore(0x40, 0x80)\n    /* \"contracts/Operation.sol\":152:154  20 */\n  0x14\n    /* \"contracts/Operation.sol\":136:154  uint public a = 20 */\n  0x00\n  sstore\n    /* \"contracts/Operation.sol\":177:179  10 */\n  0x0a\n    /* \"contracts/Operation.sol\":161:179  uint public b = 10 */\n  0x01\n  sstore\n    /* \"contracts/Operation.sol\":222:223  b */\n  sload(0x01)\n    /* \"contracts/Operation.sol\":220:221  a */\n  sload(0x00)\n    /* \"contracts/Operation.sol\":220:223  a+b */\n  tag_1\n  swap2\n  swap1\n  tag_2\n  jump\t// in\ntag_1:\n    /* \"contracts/Operation.sol\":202:223  uint public sum = a+b */\n  0x02\n  sstore\n    /* \"contracts/Operation.sol\":267:268  b */\n  sload(0x01)\n    /* \"contracts/Operation.sol\":265:266  a */\n  sload(0x00)\n    /* \"contracts/Operation.sol\":265:268  a-b */\n  tag_3\n  swap2\n  swap1\n  tag_4\n  jump\t// in\ntag_3:\n    /* \"contracts/Operation.sol\":246:268  uint public diff = a-b */\n  0x03\n  sstore\n    /* \"contracts/Operation.sol\":311:312  b */\n  sload(0x01)\n    /* \"contracts/Operation.sol\":309:310  a */\n  sload(0x00)\n    /* \"contracts/Operation.sol\":309:312  a*b */\n  tag_5\n  swap2\n  swap1\n  tag_6\n  jump\t// in\ntag_5:\n    /* \"contracts/Operation.sol\":291:312  uint public mul = a*b */\n  0x04\n  sstore\n    /* \"contracts/Operation.sol\":355:356  b */\n  sload(0x01)\n    /* \"contracts/Operation.sol\":353:354  a */\n  sload(0x00)\n    /* \"contracts/Operation.sol\":353:356  a/b */\n  tag_7\n  swap2\n  swap1\n  tag_8\n  jump\t// in\ntag_7:\n    /* \"contracts/Operation.sol\":335:356  uint public div = a/b */\n  0x05\n  sstore\n    /* \"contracts/Operation.sol\":399:400  b */\n  sload(0x01)\n    /* \"contracts/Operation.sol\":397:398  a */\n  sload(0x00)\n    /* \"contracts/Operation.sol\":397:400  a%b */\n  tag_9\n  swap2\n  swap1\n  tag_10\n  jump\t// in\ntag_9:\n    /* \"contracts/Operation.sol\":379:400  uint public mod = a%b */\n  0x06\n  sstore\n    /* \"contracts/Operation.sol\":444:445  2 */\n  0x02\n    /* \"contracts/Operation.sol\":441:442  a */\n  sload(0x00)\n    /* \"contracts/Operation.sol\":441:445  a**2 */\n  tag_11\n  swap2\n  swap1\n  tag_12\n  jump\t// in\ntag_11:\n    /* \"contracts/Operation.sol\":423:445  uint public pow = a**2 */\n  0x07\n  sstore\n    /* \"contracts/Operation.sol\":489:490  a */\n  0x00\n  dup1\n    /* \"contracts/Operation.sol\":487:490  ++a */\n  dup2\n  sload\n  tag_13\n  swap1\n  tag_14\n  jump\t// in\ntag_13:\n  swap2\n  swap1\n  pop\n  dup2\n  swap1\n  sstore\n    /* \"contracts/Operation.sol\":468:490  uint public inc1 = ++a */\n  0x08\n  sstore\n    /* \"contracts/Operation.sol\":516:517  a */\n  0x00\n  dup1\n    /* \"contracts/Operation.sol\":516:519  a++ */\n  dup2\n  sload\n  dup1\n  swap3\n  swap2\n  swap1\n  tag_15\n  swap1\n  tag_14\n  jump\t// in\ntag_15:\n  swap2\n  swap1\n  pop\n  sstore\n    /* \"contracts/Operation.sol\":497:519  uint public inc2 = a++ */\n  0x09\n  sstore\n    /* \"contracts/Operation.sol\":563:564  b */\n  0x01\n  0x00\n    /* \"contracts/Operation.sol\":561:564  --b */\n  dup2\n  sload\n  tag_16\n  swap1\n  tag_17\n  jump\t// in\ntag_16:\n  swap2\n  swap1\n  pop\n  dup2\n  swap1\n  sstore\n    /* \"contracts/Operation.sol\":542:564  uint public dec1 = --b */\n  0x0a\n  sstore\n    /* \"contracts/Operation.sol\":590:591  b */\n  0x01\n  0x00\n    /* \"contracts/Operation.sol\":590:593  b-- */\n  dup2\n  sload\n  dup1\n  swap3\n  swap2\n  swap1\n  tag_18\n  swap1\n  tag_17\n  jump\t// in\ntag_18:\n  swap2\n  swap1\n  pop\n  sstore\n    /* \"contracts/Operation.sol\":571:593  uint public dec2 = b-- */\n  0x0b\n  sstore\n    /* \"contracts/Operation.sol\":76:597  contract OperatorsAtrithmetic {... */\n  callvalue\n  dup1\n  iszero\n  tag_19\n  jumpi\n  0x00\n  dup1\n  revert\ntag_19:\n  pop\n  jump(tag_20)\n    /* \"#utility.yul\":7:84   */\ntag_21:\n    /* \"#utility.yul\":44:51   */\n  0x00\n    /* \"#utility.yul\":73:78   */\n  dup2\n    /* \"#utility.yul\":62:78   */\n  swap1\n  pop\n    /* \"#utility.yul\":7:84   */\n  swap2\n  swap1\n  pop\n  jump\t// out\n    /* \"#utility.yul\":90:270   */\ntag_22:\n    /* \"#utility.yul\":138:215   */\n  0x4e487b7100000000000000000000000000000000000000000000000000000000\n    /* \"#utility.yul\":135:136   */\n  0x00\n    /* \"#utility.yul\":128:216   */\n  mstore\n    /* \"#utility.yul\":235:239   */\n  0x11\n    /* \"#utility.yul\":232:233   */\n  0x04\n    /* \"#utility.yul\":225:240   */\n  mstore\n    /* \"#utility.yul\":259:263   */\n  0x24\n    /* \"#utility.yul\":256:257   */\n  0x00\n    /* \"#utility.yul\":249:264   */\n  revert\n    /* \"#utility.yul\":276:467   */\ntag_2:\n    /* \"#utility.yul\":316:319   */\n  0x00\n    /* \"#utility.yul\":335:355   */\n  tag_32\n    /* \"#utility.yul\":353:354   */\n  dup3\n    /* \"#utility.yul\":335:355   */\n  tag_21\n  jump\t// in\ntag_32:\n    /* \"#utility.yul\":330:355   */\n  swap2\n  pop\n    /* \"#utility.yul\":369:389   */\n  tag_33\n    /* \"#utility.yul\":387:388   */\n  dup4\n    /* \"#utility.yul\":369:389   */\n  tag_21\n  jump\t// in\ntag_33:\n    /* \"#utility.yul\":364:389   */\n  swap3\n  pop\n    /* \"#utility.yul\":412:413   */\n  dup3\n    /* \"#utility.yul\":409:410   */\n  dup3\n    /* \"#utility.yul\":405:414   */\n  add\n    /* \"#utility.yul\":398:414   */\n  swap1\n  pop\n    /* \"#utility.yul\":433:436   */\n  dup1\n    /* \"#utility.yul\":430:431   */\n  dup3\n    /* \"#utility.yul\":427:437   */\n  gt\n    /* \"#utility.yul\":424:460   */\n  iszero\n  tag_34\n  jumpi\n    /* \"#utility.yul\":440:458   */\n  tag_35\n  tag_22\n  jump\t// in\ntag_35:\n    /* \"#utility.yul\":424:460   */\ntag_34:\n    /* \"#utility.yul\":276:467   */\n  swap3\n  swap2\n  pop\n  pop\n  jump\t// out\n    /* \"#utility.yul\":473:667   */\ntag_4:\n    /* \"#utility.yul\":513:517   */\n  0x00\n    /* \"#utility.yul\":533:553   */\n  tag_37\n    /* \"#utility.yul\":551:552   */\n  dup3\n    /* \"#utility.yul\":533:553   */\n  tag_21\n  jump\t// in\ntag_37:\n    /* \"#utility.yul\":528:553   */\n  swap2\n  pop\n    /* \"#utility.yul\":567:587   */\n  tag_38\n    /* \"#utility.yul\":585:586   */\n  dup4\n    /* \"#utility.yul\":567:587   */\n  tag_21\n  jump\t// in\ntag_38:\n    /* \"#utility.yul\":562:587   */\n  swap3\n  pop\n    /* \"#utility.yul\":611:612   */\n  dup3\n    /* \"#utility.yul\":608:609   */\n  dup3\n    /* \"#utility.yul\":604:613   */\n  sub\n    /* \"#utility.yul\":596:613   */\n  swap1\n  pop\n    /* \"#utility.yul\":635:636   */\n  dup2\n    /* \"#utility.yul\":629:633   */\n  dup2\n    /* \"#utility.yul\":626:637   */\n  gt\n    /* \"#utility.yul\":623:660   */\n  iszero\n  tag_39\n  jumpi\n    /* \"#utility.yul\":640:658   */\n  tag_40\n  tag_22\n  jump\t// in\ntag_40:\n    /* \"#utility.yul\":623:660   */\ntag_39:\n    /* \"#utility.yul\":473:667   */\n  swap3\n  swap2\n  pop\n  pop\n  jump\t// out\n    /* \"#utility.yul\":673:1083   */\ntag_6:\n    /* \"#utility.yul\":713:720   */\n  0x00\n    /* \"#utility.yul\":736:756   */\n  tag_42\n    /* \"#utility.yul\":754:755   */\n  dup3\n    /* \"#utility.yul\":736:756   */\n  tag_21\n  jump\t// in\ntag_42:\n    /* \"#utility.yul\":731:756   */\n  swap2\n  pop\n    /* \"#utility.yul\":770:790   */\n  tag_43\n    /* \"#utility.yul\":788:789   */\n  dup4\n    /* \"#utility.yul\":770:790   */\n  tag_21\n  jump\t// in\ntag_43:\n    /* \"#utility.yul\":765:790   */\n  swap3\n  pop\n    /* \"#utility.yul\":825:826   */\n  dup3\n    /* \"#utility.yul\":822:823   */\n  dup3\n    /* \"#utility.yul\":818:827   */\n  mul\n    /* \"#utility.yul\":847:877   */\n  tag_44\n    /* \"#utility.yul\":865:876   */\n  dup2\n    /* \"#utility.yul\":847:877   */\n  tag_21\n  jump\t// in\ntag_44:\n    /* \"#utility.yul\":836:877   */\n  swap2\n  pop\n    /* \"#utility.yul\":1026:1027   */\n  dup3\n    /* \"#utility.yul\":1017:1024   */\n  dup3\n    /* \"#utility.yul\":1013:1028   */\n  div\n    /* \"#utility.yul\":1010:1011   */\n  dup5\n    /* \"#utility.yul\":1007:1029   */\n  eq\n    /* \"#utility.yul\":987:988   */\n  dup4\n    /* \"#utility.yul\":980:989   */\n  iszero\n    /* \"#utility.yul\":960:1043   */\n  or\n    /* \"#utility.yul\":937:1076   */\n  tag_45\n  jumpi\n    /* \"#utility.yul\":1056:1074   */\n  tag_46\n  tag_22\n  jump\t// in\ntag_46:\n    /* \"#utility.yul\":937:1076   */\ntag_45:\n    /* \"#utility.yul\":721:1083   */\n  pop\n    /* \"#utility.yul\":673:1083   */\n  swap3\n  swap2\n  pop\n  pop\n  jump\t// out\n    /* \"#utility.yul\":1089:1269   */\ntag_23:\n    /* \"#utility.yul\":1137:1214   */\n  0x4e487b7100000000000000000000000000000000000000000000000000000000\n    /* \"#utility.yul\":1134:1135   */\n  0x00\n    /* \"#utility.yul\":1127:1215   */\n  mstore\n    /* \"#utility.yul\":1234:1238   */\n  0x12\n    /* \"#utility.yul\":1231:1232   */\n  0x04\n    /* \"#utility.yul\":1224:1239   */\n  mstore\n    /* \"#utility.yul\":1258:1262   */\n  0x24\n    /* \"#utility.yul\":1255:1256   */\n  0x00\n    /* \"#utility.yul\":1248:1263   */\n  revert\n    /* \"#utility.yul\":1275:1460   */\ntag_8:\n    /* \"#utility.yul\":1315:1316   */\n  0x00\n    /* \"#utility.yul\":1332:1352   */\n  tag_49\n    /* \"#utility.yul\":1350:1351   */\n  dup3\n    /* \"#utility.yul\":1332:1352   */\n  tag_21\n  jump\t// in\ntag_49:\n    /* \"#utility.yul\":1327:1352   */\n  swap2\n  pop\n    /* \"#utility.yul\":1366:1386   */\n  tag_50\n    /* \"#utility.yul\":1384:1385   */\n  dup4\n    /* \"#utility.yul\":1366:1386   */\n  tag_21\n  jump\t// in\ntag_50:\n    /* \"#utility.yul\":1361:1386   */\n  swap3\n  pop\n    /* \"#utility.yul\":1405:1406   */\n  dup3\n    /* \"#utility.yul\":1395:1430   */\n  tag_51\n  jumpi\n    /* \"#utility.yul\":1410:1428   */\n  tag_52\n  tag_23\n  jump\t// in\ntag_52:\n    /* \"#utility.yul\":1395:1430   */\ntag_51:\n    /* \"#utility.yul\":1452:1453   */\n  dup3\n    /* \"#utility.yul\":1449:1450   */\n  dup3\n    /* \"#utility.yul\":1445:1454   */\n  div\n    /* \"#utility.yul\":1440:1454   */\n  swap1\n  pop\n    /* \"#utility.yul\":1275:1460   */\n  swap3\n  swap2\n  pop\n  pop\n  jump\t// out\n    /* \"#utility.yul\":1466:1642   */\ntag_10:\n    /* \"#utility.yul\":1498:1499   */\n  0x00\n    /* \"#utility.yul\":1515:1535   */\n  tag_54\n    /* \"#utility.yul\":1533:1534   */\n  dup3\n    /* \"#utility.yul\":1515:1535   */\n  tag_21\n  jump\t// in\ntag_54:\n    /* \"#utility.yul\":1510:1535   */\n  swap2\n  pop\n    /* \"#utility.yul\":1549:1569   */\n  tag_55\n    /* \"#utility.yul\":1567:1568   */\n  dup4\n    /* \"#utility.yul\":1549:1569   */\n  tag_21\n  jump\t// in\ntag_55:\n    /* \"#utility.yul\":1544:1569   */\n  swap3\n  pop\n    /* \"#utility.yul\":1588:1589   */\n  dup3\n    /* \"#utility.yul\":1578:1613   */\n  tag_56\n  jumpi\n    /* \"#utility.yul\":1593:1611   */\n  tag_57\n  tag_23\n  jump\t// in\ntag_57:\n    /* \"#utility.yul\":1578:1613   */\ntag_56:\n    /* \"#utility.yul\":1634:1635   */\n  dup3\n    /* \"#utility.yul\":1631:1632   */\n  dup3\n    /* \"#utility.yul\":1627:1636   */\n  mod\n    /* \"#utility.yul\":1622:1636   */\n  swap1\n  pop\n    /* \"#utility.yul\":1466:1642   */\n  swap3\n  swap2\n  pop\n  pop\n  jump\t// out\n    /* \"#utility.yul\":1648:1750   */\ntag_24:\n    /* \"#utility.yul\":1690:1698   */\n  0x00\n    /* \"#utility.yul\":1737:1742   */\n  dup2\n    /* \"#utility.yul\":1734:1735   */\n  0x01\n    /* \"#utility.yul\":1730:1743   */\n  shr\n    /* \"#utility.yul\":1709:1743   */\n  swap1\n  pop\n    /* \"#utility.yul\":1648:1750   */\n  swap2\n  swap1\n  pop\n  jump\t// out\n    /* \"#utility.yul\":1756:2604   */\ntag_25:\n    /* \"#utility.yul\":1817:1822   */\n  0x00\n    /* \"#utility.yul\":1824:1828   */\n  dup1\n    /* \"#utility.yul\":1848:1854   */\n  dup3\n    /* \"#utility.yul\":1839:1854   */\n  swap2\n  pop\n    /* \"#utility.yul\":1872:1877   */\n  dup4\n    /* \"#utility.yul\":1863:1877   */\n  swap1\n  pop\n    /* \"#utility.yul\":1886:2598   */\ntag_60:\n    /* \"#utility.yul\":1907:1908   */\n  0x01\n    /* \"#utility.yul\":1897:1905   */\n  dup6\n    /* \"#utility.yul\":1894:1909   */\n  gt\n    /* \"#utility.yul\":1886:2598   */\n  iszero\n  tag_62\n  jumpi\n    /* \"#utility.yul\":2002:2006   */\n  dup1\n    /* \"#utility.yul\":1997:2000   */\n  dup7\n    /* \"#utility.yul\":1993:2007   */\n  div\n    /* \"#utility.yul\":1987:1991   */\n  dup2\n    /* \"#utility.yul\":1984:2008   */\n  gt\n    /* \"#utility.yul\":1981:2031   */\n  iszero\n  tag_63\n  jumpi\n    /* \"#utility.yul\":2011:2029   */\n  tag_64\n  tag_22\n  jump\t// in\ntag_64:\n    /* \"#utility.yul\":1981:2031   */\ntag_63:\n    /* \"#utility.yul\":2061:2062   */\n  0x01\n    /* \"#utility.yul\":2051:2059   */\n  dup6\n    /* \"#utility.yul\":2047:2063   */\n  and\n    /* \"#utility.yul\":2044:2495   */\n  iszero\n  tag_65\n  jumpi\n    /* \"#utility.yul\":2476:2480   */\n  dup1\n    /* \"#utility.yul\":2469:2474   */\n  dup3\n    /* \"#utility.yul\":2465:2481   */\n  mul\n    /* \"#utility.yul\":2456:2481   */\n  swap2\n  pop\n    /* \"#utility.yul\":2044:2495   */\ntag_65:\n    /* \"#utility.yul\":2526:2530   */\n  dup1\n    /* \"#utility.yul\":2520:2524   */\n  dup2\n    /* \"#utility.yul\":2516:2531   */\n  mul\n    /* \"#utility.yul\":2508:2531   */\n  swap1\n  pop\n    /* \"#utility.yul\":2556:2588   */\n  tag_66\n    /* \"#utility.yul\":2579:2587   */\n  dup6\n    /* \"#utility.yul\":2556:2588   */\n  tag_24\n  jump\t// in\ntag_66:\n    /* \"#utility.yul\":2544:2588   */\n  swap5\n  pop\n    /* \"#utility.yul\":1886:2598   */\n  jump(tag_60)\ntag_62:\n    /* \"#utility.yul\":1756:2604   */\n  swap5\n  pop\n  swap5\n  swap3\n  pop\n  pop\n  pop\n  jump\t// out\n    /* \"#utility.yul\":2610:3683   */\ntag_26:\n    /* \"#utility.yul\":2664:2669   */\n  0x00\n    /* \"#utility.yul\":2855:2863   */\n  dup3\n    /* \"#utility.yul\":2845:2885   */\n  tag_68\n  jumpi\n    /* \"#utility.yul\":2876:2877   */\n  0x01\n    /* \"#utility.yul\":2867:2877   */\n  swap1\n  pop\n    /* \"#utility.yul\":2878:2883   */\n  jump(tag_67)\n    /* \"#utility.yul\":2845:2885   */\ntag_68:\n    /* \"#utility.yul\":2904:2908   */\n  dup2\n    /* \"#utility.yul\":2894:2930   */\n  tag_69\n  jumpi\n    /* \"#utility.yul\":2921:2922   */\n  0x00\n    /* \"#utility.yul\":2912:2922   */\n  swap1\n  pop\n    /* \"#utility.yul\":2923:2928   */\n  jump(tag_67)\n    /* \"#utility.yul\":2894:2930   */\ntag_69:\n    /* \"#utility.yul\":2990:2994   */\n  dup2\n    /* \"#utility.yul\":3038:3039   */\n  0x01\n    /* \"#utility.yul\":3033:3060   */\n  dup2\n  eq\n  tag_71\n  jumpi\n    /* \"#utility.yul\":3074:3075   */\n  0x02\n    /* \"#utility.yul\":3069:3260   */\n  dup2\n  eq\n  tag_72\n  jumpi\n    /* \"#utility.yul\":2983:3260   */\n  jump(tag_70)\n    /* \"#utility.yul\":3033:3060   */\ntag_71:\n    /* \"#utility.yul\":3051:3052   */\n  0x01\n    /* \"#utility.yul\":3042:3052   */\n  swap2\n  pop\n    /* \"#utility.yul\":3053:3058   */\n  pop\n  jump(tag_67)\n    /* \"#utility.yul\":3069:3260   */\ntag_72:\n    /* \"#utility.yul\":3114:3117   */\n  0xff\n    /* \"#utility.yul\":3104:3112   */\n  dup5\n    /* \"#utility.yul\":3101:3118   */\n  gt\n    /* \"#utility.yul\":3098:3141   */\n  iszero\n  tag_73\n  jumpi\n    /* \"#utility.yul\":3121:3139   */\n  tag_74\n  tag_22\n  jump\t// in\ntag_74:\n    /* \"#utility.yul\":3098:3141   */\ntag_73:\n    /* \"#utility.yul\":3170:3178   */\n  dup4\n    /* \"#utility.yul\":3167:3168   */\n  0x02\n    /* \"#utility.yul\":3163:3179   */\n  exp\n    /* \"#utility.yul\":3154:3179   */\n  swap2\n  pop\n    /* \"#utility.yul\":3205:3208   */\n  dup5\n    /* \"#utility.yul\":3198:3203   */\n  dup3\n    /* \"#utility.yul\":3195:3209   */\n  gt\n    /* \"#utility.yul\":3192:3232   */\n  iszero\n  tag_75\n  jumpi\n    /* \"#utility.yul\":3212:3230   */\n  tag_76\n  tag_22\n  jump\t// in\ntag_76:\n    /* \"#utility.yul\":3192:3232   */\ntag_75:\n    /* \"#utility.yul\":3245:3250   */\n  pop\n  jump(tag_67)\n    /* \"#utility.yul\":2983:3260   */\ntag_70:\n  pop\n    /* \"#utility.yul\":3369:3371   */\n  0x20\n    /* \"#utility.yul\":3359:3367   */\n  dup4\n    /* \"#utility.yul\":3356:3372   */\n  lt\n    /* \"#utility.yul\":3350:3353   */\n  0x0133\n    /* \"#utility.yul\":3344:3348   */\n  dup4\n    /* \"#utility.yul\":3341:3354   */\n  lt\n    /* \"#utility.yul\":3337:3373   */\n  and\n    /* \"#utility.yul\":3319:3321   */\n  0x4e\n    /* \"#utility.yul\":3309:3317   */\n  dup5\n    /* \"#utility.yul\":3306:3322   */\n  lt\n    /* \"#utility.yul\":3301:3303   */\n  0x0b\n    /* \"#utility.yul\":3295:3299   */\n  dup5\n    /* \"#utility.yul\":3292:3304   */\n  lt\n    /* \"#utility.yul\":3288:3323   */\n  and\n    /* \"#utility.yul\":3272:3383   */\n  or\n    /* \"#utility.yul\":3269:3515   */\n  iszero\n  tag_77\n  jumpi\n    /* \"#utility.yul\":3425:3433   */\n  dup3\n    /* \"#utility.yul\":3419:3423   */\n  dup3\n    /* \"#utility.yul\":3415:3434   */\n  exp\n    /* \"#utility.yul\":3406:3434   */\n  swap1\n  pop\n    /* \"#utility.yul\":3460:3463   */\n  dup4\n    /* \"#utility.yul\":3453:3458   */\n  dup2\n    /* \"#utility.yul\":3450:3464   */\n  gt\n    /* \"#utility.yul\":3447:3487   */\n  iszero\n  tag_78\n  jumpi\n    /* \"#utility.yul\":3467:3485   */\n  tag_79\n  tag_22\n  jump\t// in\ntag_79:\n    /* \"#utility.yul\":3447:3487   */\ntag_78:\n    /* \"#utility.yul\":3500:3505   */\n  jump(tag_67)\n    /* \"#utility.yul\":3269:3515   */\ntag_77:\n    /* \"#utility.yul\":3540:3582   */\n  tag_80\n    /* \"#utility.yul\":3578:3581   */\n  dup5\n    /* \"#utility.yul\":3568:3576   */\n  dup5\n    /* \"#utility.yul\":3562:3566   */\n  dup5\n    /* \"#utility.yul\":3559:3560   */\n  0x01\n    /* \"#utility.yul\":3540:3582   */\n  tag_25\n  jump\t// in\ntag_80:\n    /* \"#utility.yul\":3525:3582   */\n  swap3\n  pop\n  swap1\n  pop\n    /* \"#utility.yul\":3614:3618   */\n  dup2\n    /* \"#utility.yul\":3609:3612   */\n  dup5\n    /* \"#utility.yul\":3605:3619   */\n  div\n    /* \"#utility.yul\":3598:3603   */\n  dup2\n    /* \"#utility.yul\":3595:3620   */\n  gt\n    /* \"#utility.yul\":3592:3643   */\n  iszero\n  tag_81\n  jumpi\n    /* \"#utility.yul\":3623:3641   */\n  tag_82\n  tag_22\n  jump\t// in\ntag_82:\n    /* \"#utility.yul\":3592:3643   */\ntag_81:\n    /* \"#utility.yul\":3672:3676   */\n  dup2\n    /* \"#utility.yul\":3665:3670   */\n  dup2\n    /* \"#utility.yul\":3661:3677   */\n  mul\n    /* \"#utility.yul\":3652:3677   */\n  swap1\n  pop\n    /* \"#utility.yul\":2610:3683   */\ntag_67:\n  swap4\n  swap3\n  pop\n  pop\n  pop\n  jump\t// out\n    /* \"#utility.yul\":3689:3775   */\ntag_27:\n    /* \"#utility.yul\":3724:3731   */\n  0x00\n    /* \"#utility.yul\":3764:3768   */\n  0xff\n    /* \"#utility.yul\":3757:3762   */\n  dup3\n    /* \"#utility.yul\":3753:3769   */\n  and\n    /* \"#utility.yul\":3742:3769   */\n  swap1\n  pop\n    /* \"#utility.yul\":3689:3775   */\n  swap2\n  swap1\n  pop\n  jump\t// out\n    /* \"#utility.yul\":3781:4062   */\ntag_12:\n    /* \"#utility.yul\":3839:3844   */\n  0x00\n    /* \"#utility.yul\":3863:3886   */\n  tag_85\n    /* \"#utility.yul\":3881:3885   */\n  dup3\n    /* \"#utility.yul\":3863:3886   */\n  tag_21\n  jump\t// in\ntag_85:\n    /* \"#utility.yul\":3855:3886   */\n  swap2\n  pop\n    /* \"#utility.yul\":3907:3932   */\n  tag_86\n    /* \"#utility.yul\":3923:3931   */\n  dup4\n    /* \"#utility.yul\":3907:3932   */\n  tag_27\n  jump\t// in\ntag_86:\n    /* \"#utility.yul\":3895:3932   */\n  swap3\n  pop\n    /* \"#utility.yul\":3951:4055   */\n  tag_87\n    /* \"#utility.yul\":3988:4054   */\n  0xffffffffffffffffffffffffffffffffffffffffffffffffffffffffffffffff\n    /* \"#utility.yul\":3978:3986   */\n  dup5\n    /* \"#utility.yul\":3972:3976   */\n  dup5\n    /* \"#utility.yul\":3951:4055   */\n  tag_26\n  jump\t// in\ntag_87:\n    /* \"#utility.yul\":3942:4055   */\n  swap1\n  pop\n    /* \"#utility.yul\":3781:4062   */\n  swap3\n  swap2\n  pop\n  pop\n  jump\t// out\n    /* \"#utility.yul\":4068:4301   */\ntag_14:\n    /* \"#utility.yul\":4107:4110   */\n  0x00\n    /* \"#utility.yul\":4130:4154   */\n  tag_89\n    /* \"#utility.yul\":4148:4153   */\n  dup3\n    /* \"#utility.yul\":4130:4154   */\n  tag_21\n  jump\t// in\ntag_89:\n    /* \"#utility.yul\":4121:4154   */\n  swap2\n  pop\n    /* \"#utility.yul\":4176:4242   */\n  0xffffffffffffffffffffffffffffffffffffffffffffffffffffffffffffffff\n    /* \"#utility.yul\":4169:4174   */\n  dup3\n    /* \"#utility.yul\":4166:4243   */\n  sub\n    /* \"#utility.yul\":4163:4266   */\n  tag_90\n  jumpi\n    /* \"#utility.yul\":4246:4264   */\n  tag_91\n  tag_22\n  jump\t// in\ntag_91:\n    /* \"#utility.yul\":4163:4266   */\ntag_90:\n    /* \"#utility.yul\":4293:4294   */\n  0x01\n    /* \"#utility.yul\":4286:4291   */\n  dup3\n    /* \"#utility.yul\":4282:4295   */\n  add\n    /* \"#utility.yul\":4275:4295   */\n  swap1\n  pop\n    /* \"#utility.yul\":4068:4301   */\n  swap2\n  swap1\n  pop\n  jump\t// out\n    /* \"#utility.yul\":4307:4478   */\ntag_17:\n    /* \"#utility.yul\":4346:4349   */\n  0x00\n    /* \"#utility.yul\":4369:4393   */\n  tag_93\n    /* \"#utility.yul\":4387:4392   */\n  dup3\n    /* \"#utility.yul\":4369:4393   */\n  tag_21\n  jump\t// in\ntag_93:\n    /* \"#utility.yul\":4360:4393   */\n  swap2\n  pop\n    /* \"#utility.yul\":4415:4419   */\n  0x00\n    /* \"#utility.yul\":4408:4413   */\n  dup3\n    /* \"#utility.yul\":4405:4420   */\n  sub\n    /* \"#utility.yul\":4402:4443   */\n  tag_94\n  jumpi\n    /* \"#utility.yul\":4423:4441   */\n  tag_95\n  tag_22\n  jump\t// in\ntag_95:\n    /* \"#utility.yul\":4402:4443   */\ntag_94:\n    /* \"#utility.yul\":4470:4471   */\n  0x01\n    /* \"#utility.yul\":4463:4468   */\n  dup3\n    /* \"#utility.yul\":4459:4472   */\n  sub\n    /* \"#utility.yul\":4452:4472   */\n  swap1\n  pop\n    /* \"#utility.yul\":4307:4478   */\n  swap2\n  swap1\n  pop\n  jump\t// out\n    /* \"contracts/Operation.sol\":76:597  contract OperatorsAtrithmetic {... */\ntag_20:\n  dataSize(sub_0)\n  dup1\n  dataOffset(sub_0)\n  0x00\n  codecopy\n  0x00\n  return\nstop\n\nsub_0: assembly {\n        /* \"contracts/Operation.sol\":76:597  contract OperatorsAtrithmetic {... */\n      mstore(0x40, 0x80)\n      callvalue\n      dup1\n      iszero\n      tag_1\n      jumpi\n      0x00\n      dup1\n      revert\n    tag_1:\n      pop\n      jumpi(tag_2, lt(calldatasize, 0x04))\n      shr(0xe0, calldataload(0x00))\n      dup1\n      0x853255cc\n      gt\n      tag_15\n      jumpi\n      dup1\n      0x853255cc\n      eq\n      tag_9\n      jumpi\n      dup1\n      0xa0d7afb7\n      eq\n      tag_10\n      jumpi\n      dup1\n      0xcc32b7d5\n      eq\n      tag_11\n      jumpi\n      dup1\n      0xd0b45cd6\n      eq\n      tag_12\n      jumpi\n      dup1\n      0xef7e1e89\n      eq\n      tag_13\n      jumpi\n      dup1\n      0xf9fa48c3\n      eq\n      tag_14\n      jumpi\n      jump(tag_2)\n    tag_15:\n      dup1\n      0x0dbe671f\n      eq\n      tag_3\n      jumpi\n      dup1\n      0x2986e054\n      eq\n      tag_4\n      jumpi\n      dup1\n      0x4df7e3d0\n      eq\n      tag_5\n      jumpi\n      dup1\n      0x552350aa\n      eq\n      tag_6\n      jumpi\n      dup1\n      0x58931c46\n      eq\n      tag_7\n      jumpi\n      dup1\n      0x71c9f31c\n      eq\n      tag_8\n      jumpi\n    tag_2:\n      0x00\n      dup1\n      revert\n        /* \"contracts/Operation.sol\":136:154  uint public a = 20 */\n    tag_3:\n      tag_16\n      tag_17\n      jump\t// in\n    tag_16:\n      mload(0x40)\n      tag_18\n      swap2\n      swap1\n      tag_19\n      jump\t// in\n    tag_18:\n      mload(0x40)\n      dup1\n      swap2\n      sub\n      swap1\n      return\n        /* \"contracts/Operation.sol\":379:400  uint public mod = a%b */\n    tag_4:\n      tag_20\n      tag_21\n      jump\t// in\n    tag_20:\n      mload(0x40)\n      tag_22\n      swap2\n      swap1\n      tag_19\n      jump\t// in\n    tag_22:\n      mload(0x40)\n      dup1\n      swap2\n      sub\n      swap1\n      return\n        /* \"contracts/Operation.sol\":161:179  uint public b = 10 */\n    tag_5:\n      tag_23\n      tag_24\n      jump\t// in\n    tag_23:\n      mload(0x40)\n      tag_25\n      swap2\n      swap1\n      tag_19\n      jump\t// in\n    tag_25:\n      mload(0x40)\n      dup1\n      swap2\n      sub\n      swap1\n      return\n        /* \"contracts/Operation.sol\":571:593  uint public dec2 = b-- */\n    tag_6:\n      tag_26\n      tag_27\n      jump\t// in\n    tag_26:\n      mload(0x40)\n      tag_28\n      swap2\n      swap1\n      tag_19\n      jump\t// in\n    tag_28:\n      mload(0x40)\n      dup1\n      swap2\n      sub\n      swap1\n      return\n        /* \"contracts/Operation.sol\":291:312  uint public mul = a*b */\n    tag_7:\n      tag_29\n      tag_30\n      jump\t// in\n    tag_29:\n      mload(0x40)\n      tag_31\n      swap2\n      swap1\n      tag_19\n      jump\t// in\n    tag_31:\n      mload(0x40)\n      dup1\n      swap2\n      sub\n      swap1\n      return\n        /* \"contracts/Operation.sol\":497:519  uint public inc2 = a++ */\n    tag_8:\n      tag_32\n      tag_33\n      jump\t// in\n    tag_32:\n      mload(0x40)\n      tag_34\n      swap2\n      swap1\n      tag_19\n      jump\t// in\n    tag_34:\n      mload(0x40)\n      dup1\n      swap2\n      sub\n      swap1\n      return\n        /* \"contracts/Operation.sol\":202:223  uint public sum = a+b */\n    tag_9:\n      tag_35\n      tag_36\n      jump\t// in\n    tag_35:\n      mload(0x40)\n      tag_37\n      swap2\n      swap1\n      tag_19\n      jump\t// in\n    tag_37:\n      mload(0x40)\n      dup1\n      swap2\n      sub\n      swap1\n      return\n        /* \"contracts/Operation.sol\":246:268  uint public diff = a-b */\n    tag_10:\n      tag_38\n      tag_39\n      jump\t// in\n    tag_38:\n      mload(0x40)\n      tag_40\n      swap2\n      swap1\n      tag_19\n      jump\t// in\n    tag_40:\n      mload(0x40)\n      dup1\n      swap2\n      sub\n      swap1\n      return\n        /* \"contracts/Operation.sol\":542:564  uint public dec1 = --b */\n    tag_11:\n      tag_41\n      tag_42\n      jump\t// in\n    tag_41:\n      mload(0x40)\n      tag_43\n      swap2\n      swap1\n      tag_19\n      jump\t// in\n    tag_43:\n      mload(0x40)\n      dup1\n      swap2\n      sub\n      swap1\n      return\n        /* \"contracts/Operation.sol\":468:490  uint public inc1 = ++a */\n    tag_12:\n      tag_44\n      tag_45\n      jump\t// in\n    tag_44:\n      mload(0x40)\n      tag_46\n      swap2\n      swap1\n      tag_19\n      jump\t// in\n    tag_46:\n      mload(0x40)\n      dup1\n      swap2\n      sub\n      swap1\n      return\n        /* \"contracts/Operation.sol\":423:445  uint public pow = a**2 */\n    tag_13:\n      tag_47\n      tag_48\n      jump\t// in\n    tag_47:\n      mload(0x40)\n      tag_49\n      swap2\n      swap1\n      tag_19\n      jump\t// in\n    tag_49:\n      mload(0x40)\n      dup1\n      swap2\n      sub\n      swap1\n      return\n        /* \"contracts/Operation.sol\":335:356  uint public div = a/b */\n    tag_14:\n      tag_50\n      tag_51\n      jump\t// in\n    tag_50:\n      mload(0x40)\n      tag_52\n      swap2\n      swap1\n      tag_19\n      jump\t// in\n    tag_52:\n      mload(0x40)\n      dup1\n      swap2\n      sub\n      swap1\n      return\n        /* \"contracts/Operation.sol\":136:154  uint public a = 20 */\n    tag_17:\n      sload(0x00)\n      dup2\n      jump\t// out\n        /* \"contracts/Operation.sol\":379:400  uint public mod = a%b */\n    tag_21:\n      sload(0x06)\n      dup2\n      jump\t// out\n        /* \"contracts/Operation.sol\":161:179  uint public b = 10 */\n    tag_24:\n      sload(0x01)\n      dup2\n      jump\t// out\n        /* \"contracts/Operation.sol\":571:593  uint public dec2 = b-- */\n    tag_27:\n      sload(0x0b)\n      dup2\n      jump\t// out\n        /* \"contracts/Operation.sol\":291:312  uint public mul = a*b */\n    tag_30:\n      sload(0x04)\n      dup2\n      jump\t// out\n        /* \"contracts/Operation.sol\":497:519  uint public inc2 = a++ */\n    tag_33:\n      sload(0x09)\n      dup2\n      jump\t// out\n        /* \"contracts/Operation.sol\":202:223  uint public sum = a+b */\n    tag_36:\n      sload(0x02)\n      dup2\n      jump\t// out\n        /* \"contracts/Operation.sol\":246:268  uint public diff = a-b */\n    tag_39:\n      sload(0x03)\n      dup2\n      jump\t// out\n        /* \"contracts/Operation.sol\":542:564  uint public dec1 = --b */\n    tag_42:\n      sload(0x0a)\n      dup2\n      jump\t// out\n        /* \"contracts/Operation.sol\":468:490  uint public inc1 = ++a */\n    tag_45:\n      sload(0x08)\n      dup2\n      jump\t// out\n        /* \"contracts/Operation.sol\":423:445  uint public pow = a**2 */\n    tag_48:\n      sload(0x07)\n      dup2\n      jump\t// out\n        /* \"contracts/Operation.sol\":335:356  uint public div = a/b */\n    tag_51:\n      sload(0x05)\n      dup2\n      jump\t// out\n        /* \"#utility.yul\":7:84   */\n    tag_53:\n        /* \"#utility.yul\":44:51   */\n      0x00\n        /* \"#utility.yul\":73:78   */\n      dup2\n        /* \"#utility.yul\":62:78   */\n      swap1\n      pop\n        /* \"#utility.yul\":7:84   */\n      swap2\n      swap1\n      pop\n      jump\t// out\n        /* \"#utility.yul\":90:208   */\n    tag_54:\n        /* \"#utility.yul\":177:201   */\n      tag_58\n        /* \"#utility.yul\":195:200   */\n      dup2\n        /* \"#utility.yul\":177:201   */\n      tag_53\n      jump\t// in\n    tag_58:\n        /* \"#utility.yul\":172:175   */\n      dup3\n        /* \"#utility.yul\":165:202   */\n      mstore\n        /* \"#utility.yul\":90:208   */\n      pop\n      pop\n      jump\t// out\n        /* \"#utility.yul\":214:436   */\n    tag_19:\n        /* \"#utility.yul\":307:311   */\n      0x00\n        /* \"#utility.yul\":345:347   */\n      0x20\n        /* \"#utility.yul\":334:343   */\n      dup3\n        /* \"#utility.yul\":330:348   */\n      add\n        /* \"#utility.yul\":322:348   */\n      swap1\n      pop\n        /* \"#utility.yul\":358:429   */\n      tag_60\n        /* \"#utility.yul\":426:427   */\n      0x00\n        /* \"#utility.yul\":415:424   */\n      dup4\n        /* \"#utility.yul\":411:428   */\n      add\n        /* \"#utility.yul\":402:408   */\n      dup5\n        /* \"#utility.yul\":358:429   */\n      tag_54\n      jump\t// in\n    tag_60:\n        /* \"#utility.yul\":214:436   */\n      swap3\n      swap2\n      pop\n      pop\n      jump\t// out\n\n    auxdata: 0xa2646970667358221220a6cd821929fb7bfc7bfebafa4764855d965e1bc7702577a33a38c35a13775ea964736f6c63430008190033\n}\n",
				"bytecode": {
					"linkReferences": {},
					"object": "608060405260145f55600a6001556001545f5461001c919061011d565b6002556001545f5461002e9190610150565b6003556001545f546100409190610183565b6004556001545f5461005291906101f1565b6005556001545f546100649190610221565b60065560025f54610075919061038c565b6007555f808154610085906103d6565b9190508190556008555f8081548092919061009f906103d6565b9190505560095560015f81546100b49061041d565b919050819055600a5560015f8154809291906100cf9061041d565b91905055600b553480156100e1575f80fd5b50610444565b5f819050919050565b7f4e487b71000000000000000000000000000000000000000000000000000000005f52601160045260245ffd5b5f610127826100e7565b9150610132836100e7565b925082820190508082111561014a576101496100f0565b5b92915050565b5f61015a826100e7565b9150610165836100e7565b925082820390508181111561017d5761017c6100f0565b5b92915050565b5f61018d826100e7565b9150610198836100e7565b92508282026101a6816100e7565b915082820484148315176101bd576101bc6100f0565b5b5092915050565b7f4e487b71000000000000000000000000000000000000000000000000000000005f52601260045260245ffd5b5f6101fb826100e7565b9150610206836100e7565b925082610216576102156101c4565b5b828204905092915050565b5f61022b826100e7565b9150610236836100e7565b925082610246576102456101c4565b5b828206905092915050565b5f8160011c9050919050565b5f808291508390505b60018511156102a657808604811115610282576102816100f0565b5b60018516156102915780820291505b808102905061029f85610251565b9450610266565b94509492505050565b5f826102be5760019050610379565b816102cb575f9050610379565b81600181146102e157600281146102eb5761031a565b6001915050610379565b60ff8411156102fd576102fc6100f0565b5b8360020a915084821115610314576103136100f0565b5b50610379565b5060208310610133831016604e8410600b841016171561034f5782820a90508381111561034a576103496100f0565b5b610379565b61035c848484600161025d565b92509050818404811115610373576103726100f0565b5b81810290505b9392505050565b5f60ff82169050919050565b5f610396826100e7565b91506103a183610380565b92506103ce7fffffffffffffffffffffffffffffffffffffffffffffffffffffffffffffffff84846102af565b905092915050565b5f6103e0826100e7565b91507fffffffffffffffffffffffffffffffffffffffffffffffffffffffffffffffff8203610412576104116100f0565b5b600182019050919050565b5f610427826100e7565b91505f8203610439576104386100f0565b5b600182039050919050565b6102cc806104515f395ff3fe608060405234801561000f575f80fd5b50600436106100b2575f3560e01c8063853255cc1161006f578063853255cc1461016a578063a0d7afb714610188578063cc32b7d5146101a6578063d0b45cd6146101c4578063ef7e1e89146101e2578063f9fa48c314610200576100b2565b80630dbe671f146100b65780632986e054146100d45780634df7e3d0146100f2578063552350aa1461011057806358931c461461012e57806371c9f31c1461014c575b5f80fd5b6100be61021e565b6040516100cb919061027d565b60405180910390f35b6100dc610223565b6040516100e9919061027d565b60405180910390f35b6100fa610229565b604051610107919061027d565b60405180910390f35b61011861022f565b604051610125919061027d565b60405180910390f35b610136610235565b604051610143919061027d565b60405180910390f35b61015461023b565b604051610161919061027d565b60405180910390f35b610172610241565b60405161017f919061027d565b60405180910390f35b610190610247565b60405161019d919061027d565b60405180910390f35b6101ae61024d565b6040516101bb919061027d565b60405180910390f35b6101cc610253565b6040516101d9919061027d565b60405180910390f35b6101ea610259565b6040516101f7919061027d565b60405180910390f35b61020861025f565b604051610215919061027d565b60405180910390f35b5f5481565b60065481565b60015481565b600b5481565b60045481565b60095481565b60025481565b60035481565b600a5481565b60085481565b60075481565b60055481565b5f819050919050565b61027781610265565b82525050565b5f6020820190506102905f83018461026e565b9291505056fea2646970667358221220a6cd821929fb7bfc7bfebafa4764855d965e1bc7702577a33a38c35a13775ea964736f6c63430008190033",
					"opcodes": "PUSH1 0x80 PUSH1 0x40 MSTORE PUSH1 0x14 PUSH0 SSTORE PUSH1 0xA PUSH1 0x1 SSTORE PUSH1 0x1 SLOAD PUSH0 SLOAD PUSH2 0x1C SWAP2 SWAP1 PUSH2 0x11D JUMP JUMPDEST PUSH1 0x2 SSTORE PUSH1 0x1 SLOAD PUSH0 SLOAD PUSH2 0x2E SWAP2 SWAP1 PUSH2 0x150 JUMP JUMPDEST PUSH1 0x3 SSTORE PUSH1 0x1 SLOAD PUSH0 SLOAD PUSH2 0x40 SWAP2 SWAP1 PUSH2 0x183 JUMP JUMPDEST PUSH1 0x4 SSTORE PUSH1 0x1 SLOAD PUSH0 SLOAD PUSH2 0x52 SWAP2 SWAP1 PUSH2 0x1F1 JUMP JUMPDEST PUSH1 0x5 SSTORE PUSH1 0x1 SLOAD PUSH0 SLOAD PUSH2 0x64 SWAP2 SWAP1 PUSH2 0x221 JUMP JUMPDEST PUSH1 0x6 SSTORE PUSH1 0x2 PUSH0 SLOAD PUSH2 0x75 SWAP2 SWAP1 PUSH2 0x38C JUMP JUMPDEST PUSH1 0x7 SSTORE PUSH0 DUP1 DUP2 SLOAD PUSH2 0x85 SWAP1 PUSH2 0x3D6 JUMP JUMPDEST SWAP2 SWAP1 POP DUP2 SWAP1 SSTORE PUSH1 0x8 SSTORE PUSH0 DUP1 DUP2 SLOAD DUP1 SWAP3 SWAP2 SWAP1 PUSH2 0x9F SWAP1 PUSH2 0x3D6 JUMP JUMPDEST SWAP2 SWAP1 POP SSTORE PUSH1 0x9 SSTORE PUSH1 0x1 PUSH0 DUP2 SLOAD PUSH2 0xB4 SWAP1 PUSH2 0x41D JUMP JUMPDEST SWAP2 SWAP1 POP DUP2 SWAP1 SSTORE PUSH1 0xA SSTORE PUSH1 0x1 PUSH0 DUP2 SLOAD DUP1 SWAP3 SWAP2 SWAP1 PUSH2 0xCF SWAP1 PUSH2 0x41D JUMP JUMPDEST SWAP2 SWAP1 POP SSTORE PUSH1 0xB SSTORE CALLVALUE DUP1 ISZERO PUSH2 0xE1 JUMPI PUSH0 DUP1 REVERT JUMPDEST POP PUSH2 0x444 JUMP JUMPDEST PUSH0 DUP2 SWAP1 POP SWAP2 SWAP1 POP JUMP JUMPDEST PUSH32 0x4E487B7100000000000000000000000000000000000000000000000000000000 PUSH0 MSTORE PUSH1 0x11 PUSH1 0x4 MSTORE PUSH1 0x24 PUSH0 REVERT JUMPDEST PUSH0 PUSH2 0x127 DUP3 PUSH2 0xE7 JUMP JUMPDEST SWAP2 POP PUSH2 0x132 DUP4 PUSH2 0xE7 JUMP JUMPDEST SWAP3 POP DUP3 DUP3 ADD SWAP1 POP DUP1 DUP3 GT ISZERO PUSH2 0x14A JUMPI PUSH2 0x149 PUSH2 0xF0 JUMP JUMPDEST JUMPDEST SWAP3 SWAP2 POP POP JUMP JUMPDEST PUSH0 PUSH2 0x15A DUP3 PUSH2 0xE7 JUMP JUMPDEST SWAP2 POP PUSH2 0x165 DUP4 PUSH2 0xE7 JUMP JUMPDEST SWAP3 POP DUP3 DUP3 SUB SWAP1 POP DUP2 DUP2 GT ISZERO PUSH2 0x17D JUMPI PUSH2 0x17C PUSH2 0xF0 JUMP JUMPDEST JUMPDEST SWAP3 SWAP2 POP POP JUMP JUMPDEST PUSH0 PUSH2 0x18D DUP3 PUSH2 0xE7 JUMP JUMPDEST SWAP2 POP PUSH2 0x198 DUP4 PUSH2 0xE7 JUMP JUMPDEST SWAP3 POP DUP3 DUP3 MUL PUSH2 0x1A6 DUP2 PUSH2 0xE7 JUMP JUMPDEST SWAP2 POP DUP3 DUP3 DIV DUP5 EQ DUP4 ISZERO OR PUSH2 0x1BD JUMPI PUSH2 0x1BC PUSH2 0xF0 JUMP JUMPDEST JUMPDEST POP SWAP3 SWAP2 POP POP JUMP JUMPDEST PUSH32 0x4E487B7100000000000000000000000000000000000000000000000000000000 PUSH0 MSTORE PUSH1 0x12 PUSH1 0x4 MSTORE PUSH1 0x24 PUSH0 REVERT JUMPDEST PUSH0 PUSH2 0x1FB DUP3 PUSH2 0xE7 JUMP JUMPDEST SWAP2 POP PUSH2 0x206 DUP4 PUSH2 0xE7 JUMP JUMPDEST SWAP3 POP DUP3 PUSH2 0x216 JUMPI PUSH2 0x215 PUSH2 0x1C4 JUMP JUMPDEST JUMPDEST DUP3 DUP3 DIV SWAP1 POP SWAP3 SWAP2 POP POP JUMP JUMPDEST PUSH0 PUSH2 0x22B DUP3 PUSH2 0xE7 JUMP JUMPDEST SWAP2 POP PUSH2 0x236 DUP4 PUSH2 0xE7 JUMP JUMPDEST SWAP3 POP DUP3 PUSH2 0x246 JUMPI PUSH2 0x245 PUSH2 0x1C4 JUMP JUMPDEST JUMPDEST DUP3 DUP3 MOD SWAP1 POP SWAP3 SWAP2 POP POP JUMP JUMPDEST PUSH0 DUP2 PUSH1 0x1 SHR SWAP1 POP SWAP2 SWAP1 POP JUMP JUMPDEST PUSH0 DUP1 DUP3 SWAP2 POP DUP4 SWAP1 POP JUMPDEST PUSH1 0x1 DUP6 GT ISZERO PUSH2 0x2A6 JUMPI DUP1 DUP7 DIV DUP2 GT ISZERO PUSH2 0x282 JUMPI PUSH2 0x281 PUSH2 0xF0 JUMP JUMPDEST JUMPDEST PUSH1 0x1 DUP6 AND ISZERO PUSH2 0x291 JUMPI DUP1 DUP3 MUL SWAP2 POP JUMPDEST DUP1 DUP2 MUL SWAP1 POP PUSH2 0x29F DUP6 PUSH2 0x251 JUMP JUMPDEST SWAP5 POP PUSH2 0x266 JUMP JUMPDEST SWAP5 POP SWAP5 SWAP3 POP POP POP JUMP JUMPDEST PUSH0 DUP3 PUSH2 0x2BE JUMPI PUSH1 0x1 SWAP1 POP PUSH2 0x379 JUMP JUMPDEST DUP2 PUSH2 0x2CB JUMPI PUSH0 SWAP1 POP PUSH2 0x379 JUMP JUMPDEST DUP2 PUSH1 0x1 DUP2 EQ PUSH2 0x2E1 JUMPI PUSH1 0x2 DUP2 EQ PUSH2 0x2EB JUMPI PUSH2 0x31A JUMP JUMPDEST PUSH1 0x1 SWAP2 POP POP PUSH2 0x379 JUMP JUMPDEST PUSH1 0xFF DUP5 GT ISZERO PUSH2 0x2FD JUMPI PUSH2 0x2FC PUSH2 0xF0 JUMP JUMPDEST JUMPDEST DUP4 PUSH1 0x2 EXP SWAP2 POP DUP5 DUP3 GT ISZERO PUSH2 0x314 JUMPI PUSH2 0x313 PUSH2 0xF0 JUMP JUMPDEST JUMPDEST POP PUSH2 0x379 JUMP JUMPDEST POP PUSH1 0x20 DUP4 LT PUSH2 0x133 DUP4 LT AND PUSH1 0x4E DUP5 LT PUSH1 0xB DUP5 LT AND OR ISZERO PUSH2 0x34F JUMPI DUP3 DUP3 EXP SWAP1 POP DUP4 DUP2 GT ISZERO PUSH2 0x34A JUMPI PUSH2 0x349 PUSH2 0xF0 JUMP JUMPDEST JUMPDEST PUSH2 0x379 JUMP JUMPDEST PUSH2 0x35C DUP5 DUP5 DUP5 PUSH1 0x1 PUSH2 0x25D JUMP JUMPDEST SWAP3 POP SWAP1 POP DUP2 DUP5 DIV DUP2 GT ISZERO PUSH2 0x373 JUMPI PUSH2 0x372 PUSH2 0xF0 JUMP JUMPDEST JUMPDEST DUP2 DUP2 MUL SWAP1 POP JUMPDEST SWAP4 SWAP3 POP POP POP JUMP JUMPDEST PUSH0 PUSH1 0xFF DUP3 AND SWAP1 POP SWAP2 SWAP1 POP JUMP JUMPDEST PUSH0 PUSH2 0x396 DUP3 PUSH2 0xE7 JUMP JUMPDEST SWAP2 POP PUSH2 0x3A1 DUP4 PUSH2 0x380 JUMP JUMPDEST SWAP3 POP PUSH2 0x3CE PUSH32 0xFFFFFFFFFFFFFFFFFFFFFFFFFFFFFFFFFFFFFFFFFFFFFFFFFFFFFFFFFFFFFFFF DUP5 DUP5 PUSH2 0x2AF JUMP JUMPDEST SWAP1 POP SWAP3 SWAP2 POP POP JUMP JUMPDEST PUSH0 PUSH2 0x3E0 DUP3 PUSH2 0xE7 JUMP JUMPDEST SWAP2 POP PUSH32 0xFFFFFFFFFFFFFFFFFFFFFFFFFFFFFFFFFFFFFFFFFFFFFFFFFFFFFFFFFFFFFFFF DUP3 SUB PUSH2 0x412 JUMPI PUSH2 0x411 PUSH2 0xF0 JUMP JUMPDEST JUMPDEST PUSH1 0x1 DUP3 ADD SWAP1 POP SWAP2 SWAP1 POP JUMP JUMPDEST PUSH0 PUSH2 0x427 DUP3 PUSH2 0xE7 JUMP JUMPDEST SWAP2 POP PUSH0 DUP3 SUB PUSH2 0x439 JUMPI PUSH2 0x438 PUSH2 0xF0 JUMP JUMPDEST JUMPDEST PUSH1 0x1 DUP3 SUB SWAP1 POP SWAP2 SWAP1 POP JUMP JUMPDEST PUSH2 0x2CC DUP1 PUSH2 0x451 PUSH0 CODECOPY PUSH0 RETURN INVALID PUSH1 0x80 PUSH1 0x40 MSTORE CALLVALUE DUP1 ISZERO PUSH2 0xF JUMPI PUSH0 DUP1 REVERT JUMPDEST POP PUSH1 0x4 CALLDATASIZE LT PUSH2 0xB2 JUMPI PUSH0 CALLDATALOAD PUSH1 0xE0 SHR DUP1 PUSH4 0x853255CC GT PUSH2 0x6F JUMPI DUP1 PUSH4 0x853255CC EQ PUSH2 0x16A JUMPI DUP1 PUSH4 0xA0D7AFB7 EQ PUSH2 0x188 JUMPI DUP1 PUSH4 0xCC32B7D5 EQ PUSH2 0x1A6 JUMPI DUP1 PUSH4 0xD0B45CD6 EQ PUSH2 0x1C4 JUMPI DUP1 PUSH4 0xEF7E1E89 EQ PUSH2 0x1E2 JUMPI DUP1 PUSH4 0xF9FA48C3 EQ PUSH2 0x200 JUMPI PUSH2 0xB2 JUMP JUMPDEST DUP1 PUSH4 0xDBE671F EQ PUSH2 0xB6 JUMPI DUP1 PUSH4 0x2986E054 EQ PUSH2 0xD4 JUMPI DUP1 PUSH4 0x4DF7E3D0 EQ PUSH2 0xF2 JUMPI DUP1 PUSH4 0x552350AA EQ PUSH2 0x110 JUMPI DUP1 PUSH4 0x58931C46 EQ PUSH2 0x12E JUMPI DUP1 PUSH4 0x71C9F31C EQ PUSH2 0x14C JUMPI JUMPDEST PUSH0 DUP1 REVERT JUMPDEST PUSH2 0xBE PUSH2 0x21E JUMP JUMPDEST PUSH1 0x40 MLOAD PUSH2 0xCB SWAP2 SWAP1 PUSH2 0x27D JUMP JUMPDEST PUSH1 0x40 MLOAD DUP1 SWAP2 SUB SWAP1 RETURN JUMPDEST PUSH2 0xDC PUSH2 0x223 JUMP JUMPDEST PUSH1 0x40 MLOAD PUSH2 0xE9 SWAP2 SWAP1 PUSH2 0x27D JUMP JUMPDEST PUSH1 0x40 MLOAD DUP1 SWAP2 SUB SWAP1 RETURN JUMPDEST PUSH2 0xFA PUSH2 0x229 JUMP JUMPDEST PUSH1 0x40 MLOAD PUSH2 0x107 SWAP2 SWAP1 PUSH2 0x27D JUMP JUMPDEST PUSH1 0x40 MLOAD DUP1 SWAP2 SUB SWAP1 RETURN JUMPDEST PUSH2 0x118 PUSH2 0x22F JUMP JUMPDEST PUSH1 0x40 MLOAD PUSH2 0x125 SWAP2 SWAP1 PUSH2 0x27D JUMP JUMPDEST PUSH1 0x40 MLOAD DUP1 SWAP2 SUB SWAP1 RETURN JUMPDEST PUSH2 0x136 PUSH2 0x235 JUMP JUMPDEST PUSH1 0x40 MLOAD PUSH2 0x143 SWAP2 SWAP1 PUSH2 0x27D JUMP JUMPDEST PUSH1 0x40 MLOAD DUP1 SWAP2 SUB SWAP1 RETURN JUMPDEST PUSH2 0x154 PUSH2 0x23B JUMP JUMPDEST PUSH1 0x40 MLOAD PUSH2 0x161 SWAP2 SWAP1 PUSH2 0x27D JUMP JUMPDEST PUSH1 0x40 MLOAD DUP1 SWAP2 SUB SWAP1 RETURN JUMPDEST PUSH2 0x172 PUSH2 0x241 JUMP JUMPDEST PUSH1 0x40 MLOAD PUSH2 0x17F SWAP2 SWAP1 PUSH2 0x27D JUMP JUMPDEST PUSH1 0x40 MLOAD DUP1 SWAP2 SUB SWAP1 RETURN JUMPDEST PUSH2 0x190 PUSH2 0x247 JUMP JUMPDEST PUSH1 0x40 MLOAD PUSH2 0x19D SWAP2 SWAP1 PUSH2 0x27D JUMP JUMPDEST PUSH1 0x40 MLOAD DUP1 SWAP2 SUB SWAP1 RETURN JUMPDEST PUSH2 0x1AE PUSH2 0x24D JUMP JUMPDEST PUSH1 0x40 MLOAD PUSH2 0x1BB SWAP2 SWAP1 PUSH2 0x27D JUMP JUMPDEST PUSH1 0x40 MLOAD DUP1 SWAP2 SUB SWAP1 RETURN JUMPDEST PUSH2 0x1CC PUSH2 0x253 JUMP JUMPDEST PUSH1 0x40 MLOAD PUSH2 0x1D9 SWAP2 SWAP1 PUSH2 0x27D JUMP JUMPDEST PUSH1 0x40 MLOAD DUP1 SWAP2 SUB SWAP1 RETURN JUMPDEST PUSH2 0x1EA PUSH2 0x259 JUMP JUMPDEST PUSH1 0x40 MLOAD PUSH2 0x1F7 SWAP2 SWAP1 PUSH2 0x27D JUMP JUMPDEST PUSH1 0x40 MLOAD DUP1 SWAP2 SUB SWAP1 RETURN JUMPDEST PUSH2 0x208 PUSH2 0x25F JUMP JUMPDEST PUSH1 0x40 MLOAD PUSH2 0x215 SWAP2 SWAP1 PUSH2 0x27D JUMP JUMPDEST PUSH1 0x40 MLOAD DUP1 SWAP2 SUB SWAP1 RETURN JUMPDEST PUSH0 SLOAD DUP2 JUMP JUMPDEST PUSH1 0x6 SLOAD DUP2 JUMP JUMPDEST PUSH1 0x1 SLOAD DUP2 JUMP JUMPDEST PUSH1 0xB SLOAD DUP2 JUMP JUMPDEST PUSH1 0x4 SLOAD DUP2 JUMP JUMPDEST PUSH1 0x9 SLOAD DUP2 JUMP JUMPDEST PUSH1 0x2 SLOAD DUP2 JUMP JUMPDEST PUSH1 0x3 SLOAD DUP2 JUMP JUMPDEST PUSH1 0xA SLOAD DUP2 JUMP JUMPDEST PUSH1 0x8 SLOAD DUP2 JUMP JUMPDEST PUSH1 0x7 SLOAD DUP2 JUMP JUMPDEST PUSH1 0x5 SLOAD DUP2 JUMP JUMPDEST PUSH0 DUP2 SWAP1 POP SWAP2 SWAP1 POP JUMP JUMPDEST PUSH2 0x277 DUP2 PUSH2 0x265 JUMP JUMPDEST DUP3 MSTORE POP POP JUMP JUMPDEST PUSH0 PUSH1 0x20 DUP3 ADD SWAP1 POP PUSH2 0x290 PUSH0 DUP4 ADD DUP5 PUSH2 0x26E JUMP JUMPDEST SWAP3 SWAP2 POP POP JUMP INVALID LOG2 PUSH5 0x6970667358 0x22 SLT KECCAK256 0xA6 0xCD DUP3 NOT 0x29 0xFB PUSH28 0xFC7BFEBAFA4764855D965E1BC7702577A33A38C35A13775EA964736F PUSH13 0x63430008190033000000000000 "
				},
				"gasEstimates": {
					"creation": {
						"codeDepositCost": "143200",
						"executionCost": "infinite",
						"totalCost": "infinite"
					},
					"external": {
						"a()": "2425",
						"b()": "2470",
						"dec1()": "2469",
						"dec2()": "2492",
						"diff()": "2447",
						"div()": "2535",
						"inc1()": "2491",
						"inc2()": "2536",
						"mod()": "2448",
						"mul()": "2514",
						"pow()": "2513",
						"sum()": "2425"
					}
				},
				"methodIdentifiers": {
					"a()": "0dbe671f",
					"b()": "4df7e3d0",
					"dec1()": "cc32b7d5",
					"dec2()": "552350aa",
					"diff()": "a0d7afb7",
					"div()": "f9fa48c3",
					"inc1()": "d0b45cd6",
					"inc2()": "71c9f31c",
					"mod()": "2986e054",
					"mul()": "58931c46",
					"pow()": "ef7e1e89",
					"sum()": "853255cc"
				}
			},
			"storageLayout": {
				"storage": [
					{
						"astId": 4,
						"contract": "contracts/Operation.sol:OperatorsAtrithmetic",
						"label": "a",
						"offset": 0,
						"slot": "0",
						"type": "t_uint256"
					},
					{
						"astId": 7,
						"contract": "contracts/Operation.sol:OperatorsAtrithmetic",
						"label": "b",
						"offset": 0,
						"slot": "1",
						"type": "t_uint256"
					},
					{
						"astId": 12,
						"contract": "contracts/Operation.sol:OperatorsAtrithmetic",
						"label": "sum",
						"offset": 0,
						"slot": "2",
						"type": "t_uint256"
					},
					{
						"astId": 17,
						"contract": "contracts/Operation.sol:OperatorsAtrithmetic",
						"label": "diff",
						"offset": 0,
						"slot": "3",
						"type": "t_uint256"
					},
					{
						"astId": 22,
						"contract": "contracts/Operation.sol:OperatorsAtrithmetic",
						"label": "mul",
						"offset": 0,
						"slot": "4",
						"type": "t_uint256"
					},
					{
						"astId": 27,
						"contract": "contracts/Operation.sol:OperatorsAtrithmetic",
						"label": "div",
						"offset": 0,
						"slot": "5",
						"type": "t_uint256"
					},
					{
						"astId": 32,
						"contract": "contracts/Operation.sol:OperatorsAtrithmetic",
						"label": "mod",
						"offset": 0,
						"slot": "6",
						"type": "t_uint256"
					},
					{
						"astId": 37,
						"contract": "contracts/Operation.sol:OperatorsAtrithmetic",
						"label": "pow",
						"offset": 0,
						"slot": "7",
						"type": "t_uint256"
					},
					{
						"astId": 41,
						"contract": "contracts/Operation.sol:OperatorsAtrithmetic",
						"label": "inc1",
						"offset": 0,
						"slot": "8",
						"type": "t_uint256"
					},
					{
						"astId": 45,
						"contract": "contracts/Operation.sol:OperatorsAtrithmetic",
						"label": "inc2",
						"offset": 0,
						"slot": "9",
						"type": "t_uint256"
					},
					{
						"astId": 49,
						"contract": "contracts/Operation.sol:OperatorsAtrithmetic",
						"label": "dec1",
						"offset": 0,
						"slot": "10",
						"type": "t_uint256"
					},
					{
						"astId": 53,
						"contract": "contracts/Operation.sol:OperatorsAtrithmetic",
						"label": "dec2",
						"offset": 0,
						"slot": "11",
						"type": "t_uint256"
					}
				],
				"types": {
					"t_uint256": {
						"encoding": "inplace",
						"label": "uint256",
						"numberOfBytes": "32"
					}
				}
			},
			"userdoc": {
				"kind": "user",
				"methods": {},
				"version": 1
			}
		}
	}
}