{
	"data": {
		"bytecode": {
			"linkReferences": {},
			"object": "6080604052348015600e575f80fd5b5061029c8061001c5f395ff3fe608060405234801561000f575f80fd5b5060043610610060575f3560e01c80630a7a1c4d146100645780630de77b321461008257806324b8ba5f1461008c5780634b30a6a1146100a85780634c9eb4d4146100c65780636d4ce63c146100e4575b5f80fd5b61006c610102565b60405161007991906101fb565b60405180910390f35b61008a610112565b005b6100a660048036038101906100a1919061023b565b61013d565b005b6100b0610168565b6040516100bd91906101fb565b60405180910390f35b6100ce61016c565b6040516100db91906101fb565b60405180910390f35b6100ec610174565b6040516100f991906101fb565b60405180910390f35b5f8054906101000a900460ff1681565b60025f806101000a81548160ff0219169083600381111561013657610135610188565b5b0217905550565b805f806101000a81548160ff021916908360038111156101605761015f610188565b5b021790555050565b5f90565b5f6003905090565b5f805f9054906101000a900460ff16905090565b7f4e487b71000000000000000000000000000000000000000000000000000000005f52602160045260245ffd5b600481106101c6576101c5610188565b5b50565b5f8190506101d6826101b5565b919050565b5f6101e5826101c9565b9050919050565b6101f5816101db565b82525050565b5f60208201905061020e5f8301846101ec565b92915050565b5f80fd5b60048110610224575f80fd5b50565b5f8135905061023581610218565b92915050565b5f602082840312156102505761024f610214565b5b5f61025d84828501610227565b9150509291505056fea2646970667358221220272cc7cac3f1214ebe2dec29f00fa5a5d0e3964d4d41da5f3e69218b722e5dd264736f6c63430008190033",
			"opcodes": "PUSH1 0x80 PUSH1 0x40 MSTORE CALLVALUE DUP1 ISZERO PUSH1 0xE JUMPI PUSH0 DUP1 REVERT JUMPDEST POP PUSH2 0x29C DUP1 PUSH2 0x1C PUSH0 CODECOPY PUSH0 RETURN INVALID PUSH1 0x80 PUSH1 0x40 MSTORE CALLVALUE DUP1 ISZERO PUSH2 0xF JUMPI PUSH0 DUP1 REVERT JUMPDEST POP PUSH1 0x4 CALLDATASIZE LT PUSH2 0x60 JUMPI PUSH0 CALLDATALOAD PUSH1 0xE0 SHR DUP1 PUSH4 0xA7A1C4D EQ PUSH2 0x64 JUMPI DUP1 PUSH4 0xDE77B32 EQ PUSH2 0x82 JUMPI DUP1 PUSH4 0x24B8BA5F EQ PUSH2 0x8C JUMPI DUP1 PUSH4 0x4B30A6A1 EQ PUSH2 0xA8 JUMPI DUP1 PUSH4 0x4C9EB4D4 EQ PUSH2 0xC6 JUMPI DUP1 PUSH4 0x6D4CE63C EQ PUSH2 0xE4 JUMPI JUMPDEST PUSH0 DUP1 REVERT JUMPDEST PUSH2 0x6C PUSH2 0x102 JUMP JUMPDEST PUSH1 0x40 MLOAD PUSH2 0x79 SWAP2 SWAP1 PUSH2 0x1FB JUMP JUMPDEST PUSH1 0x40 MLOAD DUP1 SWAP2 SUB SWAP1 RETURN JUMPDEST PUSH2 0x8A PUSH2 0x112 JUMP JUMPDEST STOP JUMPDEST PUSH2 0xA6 PUSH1 0x4 DUP1 CALLDATASIZE SUB DUP2 ADD SWAP1 PUSH2 0xA1 SWAP2 SWAP1 PUSH2 0x23B JUMP JUMPDEST PUSH2 0x13D JUMP JUMPDEST STOP JUMPDEST PUSH2 0xB0 PUSH2 0x168 JUMP JUMPDEST PUSH1 0x40 MLOAD PUSH2 0xBD SWAP2 SWAP1 PUSH2 0x1FB JUMP JUMPDEST PUSH1 0x40 MLOAD DUP1 SWAP2 SUB SWAP1 RETURN JUMPDEST PUSH2 0xCE PUSH2 0x16C JUMP JUMPDEST PUSH1 0x40 MLOAD PUSH2 0xDB SWAP2 SWAP1 PUSH2 0x1FB JUMP JUMPDEST PUSH1 0x40 MLOAD DUP1 SWAP2 SUB SWAP1 RETURN JUMPDEST PUSH2 0xEC PUSH2 0x174 JUMP JUMPDEST PUSH1 0x40 MLOAD PUSH2 0xF9 SWAP2 SWAP1 PUSH2 0x1FB JUMP JUMPDEST PUSH1 0x40 MLOAD DUP1 SWAP2 SUB SWAP1 RETURN JUMPDEST PUSH0 DUP1 SLOAD SWAP1 PUSH2 0x100 EXP SWAP1 DIV PUSH1 0xFF AND DUP2 JUMP JUMPDEST PUSH1 0x2 PUSH0 DUP1 PUSH2 0x100 EXP DUP2 SLOAD DUP2 PUSH1 0xFF MUL NOT AND SWAP1 DUP4 PUSH1 0x3 DUP2 GT ISZERO PUSH2 0x136 JUMPI PUSH2 0x135 PUSH2 0x188 JUMP JUMPDEST JUMPDEST MUL OR SWAP1 SSTORE POP JUMP JUMPDEST DUP1 PUSH0 DUP1 PUSH2 0x100 EXP DUP2 SLOAD DUP2 PUSH1 0xFF MUL NOT AND SWAP1 DUP4 PUSH1 0x3 DUP2 GT ISZERO PUSH2 0x160 JUMPI PUSH2 0x15F PUSH2 0x188 JUMP JUMPDEST JUMPDEST MUL OR SWAP1 SSTORE POP POP JUMP JUMPDEST PUSH0 SWAP1 JUMP JUMPDEST PUSH0 PUSH1 0x3 SWAP1 POP SWAP1 JUMP JUMPDEST PUSH0 DUP1 PUSH0 SWAP1 SLOAD SWAP1 PUSH2 0x100 EXP SWAP1 DIV PUSH1 0xFF AND SWAP1 POP SWAP1 JUMP JUMPDEST PUSH32 0x4E487B7100000000000000000000000000000000000000000000000000000000 PUSH0 MSTORE PUSH1 0x21 PUSH1 0x4 MSTORE PUSH1 0x24 PUSH0 REVERT JUMPDEST PUSH1 0x4 DUP2 LT PUSH2 0x1C6 JUMPI PUSH2 0x1C5 PUSH2 0x188 JUMP JUMPDEST JUMPDEST POP JUMP JUMPDEST PUSH0 DUP2 SWAP1 POP PUSH2 0x1D6 DUP3 PUSH2 0x1B5 JUMP JUMPDEST SWAP2 SWAP1 POP JUMP JUMPDEST PUSH0 PUSH2 0x1E5 DUP3 PUSH2 0x1C9 JUMP JUMPDEST SWAP1 POP SWAP2 SWAP1 POP JUMP JUMPDEST PUSH2 0x1F5 DUP2 PUSH2 0x1DB JUMP JUMPDEST DUP3 MSTORE POP POP JUMP JUMPDEST PUSH0 PUSH1 0x20 DUP3 ADD SWAP1 POP PUSH2 0x20E PUSH0 DUP4 ADD DUP5 PUSH2 0x1EC JUMP JUMPDEST SWAP3 SWAP2 POP POP JUMP JUMPDEST PUSH0 DUP1 REVERT JUMPDEST PUSH1 0x4 DUP2 LT PUSH2 0x224 JUMPI PUSH0 DUP1 REVERT JUMPDEST POP JUMP JUMPDEST PUSH0 DUP2 CALLDATALOAD SWAP1 POP PUSH2 0x235 DUP2 PUSH2 0x218 JUMP JUMPDEST SWAP3 SWAP2 POP POP JUMP JUMPDEST PUSH0 PUSH1 0x20 DUP3 DUP5 SUB SLT ISZERO PUSH2 0x250 JUMPI PUSH2 0x24F PUSH2 0x214 JUMP JUMPDEST JUMPDEST PUSH0 PUSH2 0x25D DUP5 DUP3 DUP6 ADD PUSH2 0x227 JUMP JUMPDEST SWAP2 POP POP SWAP3 SWAP2 POP POP JUMP INVALID LOG2 PUSH5 0x6970667358 0x22 SLT KECCAK256 0x27 0x2C 0xC7 0xCA 0xC3 CALL 0x21 0x4E 0xBE 0x2D 0xEC 0x29 CREATE 0xF 0xA5 0xA5 0xD0 0xE3 SWAP7 0x4D 0x4D COINBASE 0xDA PUSH0 RETURNDATACOPY PUSH10 0x218B722E5DD264736F6C PUSH4 0x43000819 STOP CALLER "
		},
		"gasEstimates": {
			"creation": {
				"codeDepositCost": "133600",
				"executionCost": "175",
				"totalCost": "133775"
			},
			"external": {
				"action()": "2529",
				"get()": "2649",
				"getMaxValue()": "492",
				"getMinValue()": "462",
				"set(uint8)": "24667",
				"setdefault()": "24429"
			}
		},
		"methodIdentifiers": {
			"action()": "0a7a1c4d",
			"get()": "6d4ce63c",
			"getMaxValue()": "4c9eb4d4",
			"getMinValue()": "4b30a6a1",
			"set(uint8)": "24b8ba5f",
			"setdefault()": "0de77b32"
		}
	},
	"abi": [
		{
			"inputs": [],
			"name": "action",
			"outputs": [
				{
					"internalType": "enum Enum.Action",
					"name": "",
					"type": "uint8"
				}
			],
			"stateMutability": "view",
			"type": "function"
		},
		{
			"inputs": [],
			"name": "get",
			"outputs": [
				{
					"internalType": "enum Enum.Action",
					"name": "",
					"type": "uint8"
				}
			],
			"stateMutability": "view",
			"type": "function"
		},
		{
			"inputs": [],
			"name": "getMaxValue",
			"outputs": [
				{
					"internalType": "enum Enum.Action",
					"name": "",
					"type": "uint8"
				}
			],
			"stateMutability": "pure",
			"type": "function"
		},
		{
			"inputs": [],
			"name": "getMinValue",
			"outputs": [
				{
					"internalType": "enum Enum.Action",
					"name": "",
					"type": "uint8"
				}
			],
			"stateMutability": "pure",
			"type": "function"
		},
		{
			"inputs": [
				{
					"internalType": "enum Enum.Action",
					"name": "_action",
					"type": "uint8"
				}
			],
			"name": "set",
			"outputs": [],
			"stateMutability": "nonpayable",
			"type": "function"
		},
		{
			"inputs": [],
			"name": "setdefault",
			"outputs": [],
			"stateMutability": "nonpayable",
			"type": "function"
		}
	]
}