{
	"data": {
		"bytecode": {
			"linkReferences": {},
			"object": "6080604052348015600e575f80fd5b506102ed8061001c5f395ff3fe608060405234801561000f575f80fd5b506004361061003f575f3560e01c80630a8e8e011461004357806366e41cb7146100625780636b59084d14610081575b5f80fd5b61004b6100a0565b60405161005992919061018c565b60405180910390f35b61006a6100da565b60405161007892919061018c565b60405180910390f35b610089610118565b60405161009792919061018c565b60405180910390f35b5f805f80600190505b80826100b591906101e0565b915080806100c290610213565b915050600a8111156100a95781819350935050509091565b5f805f80600190505b600a811161010c5780826100f791906101e0565b9150808061010490610213565b9150506100e3565b81819350935050509091565b5f805f80600190505b600a8111610168576006810315610168575f6002826101409190610287565b031561015557808261015291906101e0565b91505b808061016090610213565b915050610121565b81819350935050509091565b5f819050919050565b61018681610174565b82525050565b5f60408201905061019f5f83018561017d565b6101ac602083018461017d565b9392505050565b7f4e487b71000000000000000000000000000000000000000000000000000000005f52601160045260245ffd5b5f6101ea82610174565b91506101f583610174565b925082820190508082111561020d5761020c6101b3565b5b92915050565b5f61021d82610174565b91507fffffffffffffffffffffffffffffffffffffffffffffffffffffffffffffffff820361024f5761024e6101b3565b5b600182019050919050565b7f4e487b71000000000000000000000000000000000000000000000000000000005f52601260045260245ffd5b5f61029182610174565b915061029c83610174565b9250826102ac576102ab61025a565b5b82820690509291505056fea2646970667358221220ec221727c60e728a2f87ea4b1efddf875a57b1f526c7e74ff5220a4a902f826a64736f6c63430008190033",
			"opcodes": "PUSH1 0x80 PUSH1 0x40 MSTORE CALLVALUE DUP1 ISZERO PUSH1 0xE JUMPI PUSH0 DUP1 REVERT JUMPDEST POP PUSH2 0x2ED DUP1 PUSH2 0x1C PUSH0 CODECOPY PUSH0 RETURN INVALID PUSH1 0x80 PUSH1 0x40 MSTORE CALLVALUE DUP1 ISZERO PUSH2 0xF JUMPI PUSH0 DUP1 REVERT JUMPDEST POP PUSH1 0x4 CALLDATASIZE LT PUSH2 0x3F JUMPI PUSH0 CALLDATALOAD PUSH1 0xE0 SHR DUP1 PUSH4 0xA8E8E01 EQ PUSH2 0x43 JUMPI DUP1 PUSH4 0x66E41CB7 EQ PUSH2 0x62 JUMPI DUP1 PUSH4 0x6B59084D EQ PUSH2 0x81 JUMPI JUMPDEST PUSH0 DUP1 REVERT JUMPDEST PUSH2 0x4B PUSH2 0xA0 JUMP JUMPDEST PUSH1 0x40 MLOAD PUSH2 0x59 SWAP3 SWAP2 SWAP1 PUSH2 0x18C JUMP JUMPDEST PUSH1 0x40 MLOAD DUP1 SWAP2 SUB SWAP1 RETURN JUMPDEST PUSH2 0x6A PUSH2 0xDA JUMP JUMPDEST PUSH1 0x40 MLOAD PUSH2 0x78 SWAP3 SWAP2 SWAP1 PUSH2 0x18C JUMP JUMPDEST PUSH1 0x40 MLOAD DUP1 SWAP2 SUB SWAP1 RETURN JUMPDEST PUSH2 0x89 PUSH2 0x118 JUMP JUMPDEST PUSH1 0x40 MLOAD PUSH2 0x97 SWAP3 SWAP2 SWAP1 PUSH2 0x18C JUMP JUMPDEST PUSH1 0x40 MLOAD DUP1 SWAP2 SUB SWAP1 RETURN JUMPDEST PUSH0 DUP1 PUSH0 DUP1 PUSH1 0x1 SWAP1 POP JUMPDEST DUP1 DUP3 PUSH2 0xB5 SWAP2 SWAP1 PUSH2 0x1E0 JUMP JUMPDEST SWAP2 POP DUP1 DUP1 PUSH2 0xC2 SWAP1 PUSH2 0x213 JUMP JUMPDEST SWAP2 POP POP PUSH1 0xA DUP2 GT ISZERO PUSH2 0xA9 JUMPI DUP2 DUP2 SWAP4 POP SWAP4 POP POP POP SWAP1 SWAP2 JUMP JUMPDEST PUSH0 DUP1 PUSH0 DUP1 PUSH1 0x1 SWAP1 POP JUMPDEST PUSH1 0xA DUP2 GT PUSH2 0x10C JUMPI DUP1 DUP3 PUSH2 0xF7 SWAP2 SWAP1 PUSH2 0x1E0 JUMP JUMPDEST SWAP2 POP DUP1 DUP1 PUSH2 0x104 SWAP1 PUSH2 0x213 JUMP JUMPDEST SWAP2 POP POP PUSH2 0xE3 JUMP JUMPDEST DUP2 DUP2 SWAP4 POP SWAP4 POP POP POP SWAP1 SWAP2 JUMP JUMPDEST PUSH0 DUP1 PUSH0 DUP1 PUSH1 0x1 SWAP1 POP JUMPDEST PUSH1 0xA DUP2 GT PUSH2 0x168 JUMPI PUSH1 0x6 DUP2 SUB ISZERO PUSH2 0x168 JUMPI PUSH0 PUSH1 0x2 DUP3 PUSH2 0x140 SWAP2 SWAP1 PUSH2 0x287 JUMP JUMPDEST SUB ISZERO PUSH2 0x155 JUMPI DUP1 DUP3 PUSH2 0x152 SWAP2 SWAP1 PUSH2 0x1E0 JUMP JUMPDEST SWAP2 POP JUMPDEST DUP1 DUP1 PUSH2 0x160 SWAP1 PUSH2 0x213 JUMP JUMPDEST SWAP2 POP POP PUSH2 0x121 JUMP JUMPDEST DUP2 DUP2 SWAP4 POP SWAP4 POP POP POP SWAP1 SWAP2 JUMP JUMPDEST PUSH0 DUP2 SWAP1 POP SWAP2 SWAP1 POP JUMP JUMPDEST PUSH2 0x186 DUP2 PUSH2 0x174 JUMP JUMPDEST DUP3 MSTORE POP POP JUMP JUMPDEST PUSH0 PUSH1 0x40 DUP3 ADD SWAP1 POP PUSH2 0x19F PUSH0 DUP4 ADD DUP6 PUSH2 0x17D JUMP JUMPDEST PUSH2 0x1AC PUSH1 0x20 DUP4 ADD DUP5 PUSH2 0x17D JUMP JUMPDEST SWAP4 SWAP3 POP POP POP JUMP JUMPDEST PUSH32 0x4E487B7100000000000000000000000000000000000000000000000000000000 PUSH0 MSTORE PUSH1 0x11 PUSH1 0x4 MSTORE PUSH1 0x24 PUSH0 REVERT JUMPDEST PUSH0 PUSH2 0x1EA DUP3 PUSH2 0x174 JUMP JUMPDEST SWAP2 POP PUSH2 0x1F5 DUP4 PUSH2 0x174 JUMP JUMPDEST SWAP3 POP DUP3 DUP3 ADD SWAP1 POP DUP1 DUP3 GT ISZERO PUSH2 0x20D JUMPI PUSH2 0x20C PUSH2 0x1B3 JUMP JUMPDEST JUMPDEST SWAP3 SWAP2 POP POP JUMP JUMPDEST PUSH0 PUSH2 0x21D DUP3 PUSH2 0x174 JUMP JUMPDEST SWAP2 POP PUSH32 0xFFFFFFFFFFFFFFFFFFFFFFFFFFFFFFFFFFFFFFFFFFFFFFFFFFFFFFFFFFFFFFFF DUP3 SUB PUSH2 0x24F JUMPI PUSH2 0x24E PUSH2 0x1B3 JUMP JUMPDEST JUMPDEST PUSH1 0x1 DUP3 ADD SWAP1 POP SWAP2 SWAP1 POP JUMP JUMPDEST PUSH32 0x4E487B7100000000000000000000000000000000000000000000000000000000 PUSH0 MSTORE PUSH1 0x12 PUSH1 0x4 MSTORE PUSH1 0x24 PUSH0 REVERT JUMPDEST PUSH0 PUSH2 0x291 DUP3 PUSH2 0x174 JUMP JUMPDEST SWAP2 POP PUSH2 0x29C DUP4 PUSH2 0x174 JUMP JUMPDEST SWAP3 POP DUP3 PUSH2 0x2AC JUMPI PUSH2 0x2AB PUSH2 0x25A JUMP JUMPDEST JUMPDEST DUP3 DUP3 MOD SWAP1 POP SWAP3 SWAP2 POP POP JUMP INVALID LOG2 PUSH5 0x6970667358 0x22 SLT KECCAK256 0xEC 0x22 OR 0x27 0xC6 0xE PUSH19 0x8A2F87EA4B1EFDDF875A57B1F526C7E74FF522 EXP BLOBBASEFEE SWAP1 0x2F DUP3 PUSH11 0x64736F6C63430008190033 "
		},
		"gasEstimates": {
			"creation": {
				"codeDepositCost": "149800",
				"executionCost": "194",
				"totalCost": "149994"
			},
			"external": {
				"test1()": "infinite",
				"test2()": "infinite",
				"test3()": "infinite"
			}
		},
		"methodIdentifiers": {
			"test1()": "6b59084d",
			"test2()": "66e41cb7",
			"test3()": "0a8e8e01"
		}
	},
	"abi": [
		{
			"inputs": [],
			"name": "test1",
			"outputs": [
				{
					"internalType": "uint256",
					"name": "",
					"type": "uint256"
				},
				{
					"internalType": "uint256",
					"name": "",
					"type": "uint256"
				}
			],
			"stateMutability": "pure",
			"type": "function"
		},
		{
			"inputs": [],
			"name": "test2",
			"outputs": [
				{
					"internalType": "uint256",
					"name": "",
					"type": "uint256"
				},
				{
					"internalType": "uint256",
					"name": "",
					"type": "uint256"
				}
			],
			"stateMutability": "pure",
			"type": "function"
		},
		{
			"inputs": [],
			"name": "test3",
			"outputs": [
				{
					"internalType": "uint256",
					"name": "",
					"type": "uint256"
				},
				{
					"internalType": "uint256",
					"name": "",
					"type": "uint256"
				}
			],
			"stateMutability": "pure",
			"type": "function"
		}
	]
}