{
	"data": {
		"bytecode": {
			"linkReferences": {},
			"object": "608060405260145f55600a6001556001545f541460025f6101000a81548160ff0219169083151502179055506001545f541415600260016101000a81548160ff0219169083151502179055506001545f54116002806101000a81548160ff0219169083151502179055506001545f5410600260036101000a81548160ff0219169083151502179055506001545f541015600260046101000a81548160ff0219169083151502179055506001545f541115600260056101000a81548160ff02191690831515021790555034801560d2575f80fd5b506103a0806100e05f395ff3fe608060405234801561000f575f80fd5b5060043610610091575f3560e01c8063b5165b6011610064578063b5165b6014610121578063b612aa971461013f578063bc2958e71461015d578063bd0a41131461017b578063d10fc1041461019957610091565b80630dbe671f146100955780634df7e3d0146100b35780636a8a6ab5146100d157806387bfe677146100ef575b5f80fd5b61009d6101b7565b6040516100aa919061027d565b60405180910390f35b6100bb6101bc565b6040516100c8919061027d565b60405180910390f35b6100d96101c2565b6040516100e691906102b0565b60405180910390f35b610109600480360381019061010491906102f7565b6101d5565b60405161011893929190610335565b60405180910390f35b610129610209565b60405161013691906102b0565b60405180910390f35b61014761021b565b60405161015491906102b0565b60405180910390f35b61016561022e565b60405161017291906102b0565b60405180910390f35b610183610241565b60405161019091906102b0565b60405180910390f35b6101a1610254565b6040516101ae91906102b0565b60405180910390f35b5f5481565b60015481565b600260019054906101000a900460ff1681565b5f805f808580156101e35750845b90505f86806101ef5750855b90505f871590508282829550955095505050509250925092565b60025f9054906101000a900460ff1681565b600260039054906101000a900460ff1681565b600260059054906101000a900460ff1681565b600260049054906101000a900460ff1681565b60028054906101000a900460ff1681565b5f819050919050565b61027781610265565b82525050565b5f6020820190506102905f83018461026e565b92915050565b5f8115159050919050565b6102aa81610296565b82525050565b5f6020820190506102c35f8301846102a1565b92915050565b5f80fd5b6102d681610296565b81146102e0575f80fd5b50565b5f813590506102f1816102cd565b92915050565b5f806040838503121561030d5761030c6102c9565b5b5f61031a858286016102e3565b925050602061032b858286016102e3565b9150509250929050565b5f6060820190506103485f8301866102a1565b61035560208301856102a1565b61036260408301846102a1565b94935050505056fea264697066735822122087a0955dcaf41ef927a75c0ef9a6d8198bc29cac5f0681ef85c44b3eb720ca6164736f6c63430008190033",
			"opcodes": "PUSH1 0x80 PUSH1 0x40 MSTORE PUSH1 0x14 PUSH0 SSTORE PUSH1 0xA PUSH1 0x1 SSTORE PUSH1 0x1 SLOAD PUSH0 SLOAD EQ PUSH1 0x2 PUSH0 PUSH2 0x100 EXP DUP2 SLOAD DUP2 PUSH1 0xFF MUL NOT AND SWAP1 DUP4 ISZERO ISZERO MUL OR SWAP1 SSTORE POP PUSH1 0x1 SLOAD PUSH0 SLOAD EQ ISZERO PUSH1 0x2 PUSH1 0x1 PUSH2 0x100 EXP DUP2 SLOAD DUP2 PUSH1 0xFF MUL NOT AND SWAP1 DUP4 ISZERO ISZERO MUL OR SWAP1 SSTORE POP PUSH1 0x1 SLOAD PUSH0 SLOAD GT PUSH1 0x2 DUP1 PUSH2 0x100 EXP DUP2 SLOAD DUP2 PUSH1 0xFF MUL NOT AND SWAP1 DUP4 ISZERO ISZERO MUL OR SWAP1 SSTORE POP PUSH1 0x1 SLOAD PUSH0 SLOAD LT PUSH1 0x2 PUSH1 0x3 PUSH2 0x100 EXP DUP2 SLOAD DUP2 PUSH1 0xFF MUL NOT AND SWAP1 DUP4 ISZERO ISZERO MUL OR SWAP1 SSTORE POP PUSH1 0x1 SLOAD PUSH0 SLOAD LT ISZERO PUSH1 0x2 PUSH1 0x4 PUSH2 0x100 EXP DUP2 SLOAD DUP2 PUSH1 0xFF MUL NOT AND SWAP1 DUP4 ISZERO ISZERO MUL OR SWAP1 SSTORE POP PUSH1 0x1 SLOAD PUSH0 SLOAD GT ISZERO PUSH1 0x2 PUSH1 0x5 PUSH2 0x100 EXP DUP2 SLOAD DUP2 PUSH1 0xFF MUL NOT AND SWAP1 DUP4 ISZERO ISZERO MUL OR SWAP1 SSTORE POP CALLVALUE DUP1 ISZERO PUSH1 0xD2 JUMPI PUSH0 DUP1 REVERT JUMPDEST POP PUSH2 0x3A0 DUP1 PUSH2 0xE0 PUSH0 CODECOPY PUSH0 RETURN INVALID PUSH1 0x80 PUSH1 0x40 MSTORE CALLVALUE DUP1 ISZERO PUSH2 0xF JUMPI PUSH0 DUP1 REVERT JUMPDEST POP PUSH1 0x4 CALLDATASIZE LT PUSH2 0x91 JUMPI PUSH0 CALLDATALOAD PUSH1 0xE0 SHR DUP1 PUSH4 0xB5165B60 GT PUSH2 0x64 JUMPI DUP1 PUSH4 0xB5165B60 EQ PUSH2 0x121 JUMPI DUP1 PUSH4 0xB612AA97 EQ PUSH2 0x13F JUMPI DUP1 PUSH4 0xBC2958E7 EQ PUSH2 0x15D JUMPI DUP1 PUSH4 0xBD0A4113 EQ PUSH2 0x17B JUMPI DUP1 PUSH4 0xD10FC104 EQ PUSH2 0x199 JUMPI PUSH2 0x91 JUMP JUMPDEST DUP1 PUSH4 0xDBE671F EQ PUSH2 0x95 JUMPI DUP1 PUSH4 0x4DF7E3D0 EQ PUSH2 0xB3 JUMPI DUP1 PUSH4 0x6A8A6AB5 EQ PUSH2 0xD1 JUMPI DUP1 PUSH4 0x87BFE677 EQ PUSH2 0xEF JUMPI JUMPDEST PUSH0 DUP1 REVERT JUMPDEST PUSH2 0x9D PUSH2 0x1B7 JUMP JUMPDEST PUSH1 0x40 MLOAD PUSH2 0xAA SWAP2 SWAP1 PUSH2 0x27D JUMP JUMPDEST PUSH1 0x40 MLOAD DUP1 SWAP2 SUB SWAP1 RETURN JUMPDEST PUSH2 0xBB PUSH2 0x1BC JUMP JUMPDEST PUSH1 0x40 MLOAD PUSH2 0xC8 SWAP2 SWAP1 PUSH2 0x27D JUMP JUMPDEST PUSH1 0x40 MLOAD DUP1 SWAP2 SUB SWAP1 RETURN JUMPDEST PUSH2 0xD9 PUSH2 0x1C2 JUMP JUMPDEST PUSH1 0x40 MLOAD PUSH2 0xE6 SWAP2 SWAP1 PUSH2 0x2B0 JUMP JUMPDEST PUSH1 0x40 MLOAD DUP1 SWAP2 SUB SWAP1 RETURN JUMPDEST PUSH2 0x109 PUSH1 0x4 DUP1 CALLDATASIZE SUB DUP2 ADD SWAP1 PUSH2 0x104 SWAP2 SWAP1 PUSH2 0x2F7 JUMP JUMPDEST PUSH2 0x1D5 JUMP JUMPDEST PUSH1 0x40 MLOAD PUSH2 0x118 SWAP4 SWAP3 SWAP2 SWAP1 PUSH2 0x335 JUMP JUMPDEST PUSH1 0x40 MLOAD DUP1 SWAP2 SUB SWAP1 RETURN JUMPDEST PUSH2 0x129 PUSH2 0x209 JUMP JUMPDEST PUSH1 0x40 MLOAD PUSH2 0x136 SWAP2 SWAP1 PUSH2 0x2B0 JUMP JUMPDEST PUSH1 0x40 MLOAD DUP1 SWAP2 SUB SWAP1 RETURN JUMPDEST PUSH2 0x147 PUSH2 0x21B JUMP JUMPDEST PUSH1 0x40 MLOAD PUSH2 0x154 SWAP2 SWAP1 PUSH2 0x2B0 JUMP JUMPDEST PUSH1 0x40 MLOAD DUP1 SWAP2 SUB SWAP1 RETURN JUMPDEST PUSH2 0x165 PUSH2 0x22E JUMP JUMPDEST PUSH1 0x40 MLOAD PUSH2 0x172 SWAP2 SWAP1 PUSH2 0x2B0 JUMP JUMPDEST PUSH1 0x40 MLOAD DUP1 SWAP2 SUB SWAP1 RETURN JUMPDEST PUSH2 0x183 PUSH2 0x241 JUMP JUMPDEST PUSH1 0x40 MLOAD PUSH2 0x190 SWAP2 SWAP1 PUSH2 0x2B0 JUMP JUMPDEST PUSH1 0x40 MLOAD DUP1 SWAP2 SUB SWAP1 RETURN JUMPDEST PUSH2 0x1A1 PUSH2 0x254 JUMP JUMPDEST PUSH1 0x40 MLOAD PUSH2 0x1AE SWAP2 SWAP1 PUSH2 0x2B0 JUMP JUMPDEST PUSH1 0x40 MLOAD DUP1 SWAP2 SUB SWAP1 RETURN JUMPDEST PUSH0 SLOAD DUP2 JUMP JUMPDEST PUSH1 0x1 SLOAD DUP2 JUMP JUMPDEST PUSH1 0x2 PUSH1 0x1 SWAP1 SLOAD SWAP1 PUSH2 0x100 EXP SWAP1 DIV PUSH1 0xFF AND DUP2 JUMP JUMPDEST PUSH0 DUP1 PUSH0 DUP1 DUP6 DUP1 ISZERO PUSH2 0x1E3 JUMPI POP DUP5 JUMPDEST SWAP1 POP PUSH0 DUP7 DUP1 PUSH2 0x1EF JUMPI POP DUP6 JUMPDEST SWAP1 POP PUSH0 DUP8 ISZERO SWAP1 POP DUP3 DUP3 DUP3 SWAP6 POP SWAP6 POP SWAP6 POP POP POP POP SWAP3 POP SWAP3 POP SWAP3 JUMP JUMPDEST PUSH1 0x2 PUSH0 SWAP1 SLOAD SWAP1 PUSH2 0x100 EXP SWAP1 DIV PUSH1 0xFF AND DUP2 JUMP JUMPDEST PUSH1 0x2 PUSH1 0x3 SWAP1 SLOAD SWAP1 PUSH2 0x100 EXP SWAP1 DIV PUSH1 0xFF AND DUP2 JUMP JUMPDEST PUSH1 0x2 PUSH1 0x5 SWAP1 SLOAD SWAP1 PUSH2 0x100 EXP SWAP1 DIV PUSH1 0xFF AND DUP2 JUMP JUMPDEST PUSH1 0x2 PUSH1 0x4 SWAP1 SLOAD SWAP1 PUSH2 0x100 EXP SWAP1 DIV PUSH1 0xFF AND DUP2 JUMP JUMPDEST PUSH1 0x2 DUP1 SLOAD SWAP1 PUSH2 0x100 EXP SWAP1 DIV PUSH1 0xFF AND DUP2 JUMP JUMPDEST PUSH0 DUP2 SWAP1 POP SWAP2 SWAP1 POP JUMP JUMPDEST PUSH2 0x277 DUP2 PUSH2 0x265 JUMP JUMPDEST DUP3 MSTORE POP POP JUMP JUMPDEST PUSH0 PUSH1 0x20 DUP3 ADD SWAP1 POP PUSH2 0x290 PUSH0 DUP4 ADD DUP5 PUSH2 0x26E JUMP JUMPDEST SWAP3 SWAP2 POP POP JUMP JUMPDEST PUSH0 DUP2 ISZERO ISZERO SWAP1 POP SWAP2 SWAP1 POP JUMP JUMPDEST PUSH2 0x2AA DUP2 PUSH2 0x296 JUMP JUMPDEST DUP3 MSTORE POP POP JUMP JUMPDEST PUSH0 PUSH1 0x20 DUP3 ADD SWAP1 POP PUSH2 0x2C3 PUSH0 DUP4 ADD DUP5 PUSH2 0x2A1 JUMP JUMPDEST SWAP3 SWAP2 POP POP JUMP JUMPDEST PUSH0 DUP1 REVERT JUMPDEST PUSH2 0x2D6 DUP2 PUSH2 0x296 JUMP JUMPDEST DUP2 EQ PUSH2 0x2E0 JUMPI PUSH0 DUP1 REVERT JUMPDEST POP JUMP JUMPDEST PUSH0 DUP2 CALLDATALOAD SWAP1 POP PUSH2 0x2F1 DUP2 PUSH2 0x2CD JUMP JUMPDEST SWAP3 SWAP2 POP POP JUMP JUMPDEST PUSH0 DUP1 PUSH1 0x40 DUP4 DUP6 SUB SLT ISZERO PUSH2 0x30D JUMPI PUSH2 0x30C PUSH2 0x2C9 JUMP JUMPDEST JUMPDEST PUSH0 PUSH2 0x31A DUP6 DUP3 DUP7 ADD PUSH2 0x2E3 JUMP JUMPDEST SWAP3 POP POP PUSH1 0x20 PUSH2 0x32B DUP6 DUP3 DUP7 ADD PUSH2 0x2E3 JUMP JUMPDEST SWAP2 POP POP SWAP3 POP SWAP3 SWAP1 POP JUMP JUMPDEST PUSH0 PUSH1 0x60 DUP3 ADD SWAP1 POP PUSH2 0x348 PUSH0 DUP4 ADD DUP7 PUSH2 0x2A1 JUMP JUMPDEST PUSH2 0x355 PUSH1 0x20 DUP4 ADD DUP6 PUSH2 0x2A1 JUMP JUMPDEST PUSH2 0x362 PUSH1 0x40 DUP4 ADD DUP5 PUSH2 0x2A1 JUMP JUMPDEST SWAP5 SWAP4 POP POP POP POP JUMP INVALID LOG2 PUSH5 0x6970667358 0x22 SLT KECCAK256 DUP8 LOG0 SWAP6 TSTORE 0xCA DELEGATECALL 0x1E 0xF9 0x27 0xA7 TLOAD 0xE 0xF9 0xA6 0xD8 NOT DUP12 0xC2 SWAP13 0xAC PUSH0 MOD DUP2 0xEF DUP6 0xC4 0x4B RETURNDATACOPY 0xB7 KECCAK256 0xCA PUSH2 0x6473 PUSH16 0x6C634300081900330000000000000000 "
		},
		"gasEstimates": {
			"creation": {
				"codeDepositCost": "185600",
				"executionCost": "215525",
				"totalCost": "401125"
			},
			"external": {
				"a()": "2425",
				"b()": "2448",
				"eq()": "2466",
				"gtr()": "2602",
				"gtreq()": "2583",
				"les()": "2539",
				"leseq()": "2561",
				"logic(bool,bool)": "infinite",
				"noteq()": "2562"
			}
		},
		"methodIdentifiers": {
			"a()": "0dbe671f",
			"b()": "4df7e3d0",
			"eq()": "b5165b60",
			"gtr()": "d10fc104",
			"gtreq()": "bd0a4113",
			"les()": "b612aa97",
			"leseq()": "bc2958e7",
			"logic(bool,bool)": "87bfe677",
			"noteq()": "6a8a6ab5"
		}
	},
	"abi": [
		{
			"inputs": [],
			"name": "a",
			"outputs": [
				{
					"internalType": "uint256",
					"name": "",
					"type": "uint256"
				}
			],
			"stateMutability": "view",
			"type": "function"
		},
		{
			"inputs": [],
			"name": "b",
			"outputs": [
				{
					"internalType": "uint256",
					"name": "",
					"type": "uint256"
				}
			],
			"stateMutability": "view",
			"type": "function"
		},
		{
			"inputs": [],
			"name": "eq",
			"outputs": [
				{
					"internalType": "bool",
					"name": "",
					"type": "bool"
				}
			],
			"stateMutability": "view",
			"type": "function"
		},
		{
			"inputs": [],
			"name": "gtr",
			"outputs": [
				{
					"internalType": "bool",
					"name": "",
					"type": "bool"
				}
			],
			"stateMutability": "view",
			"type": "function"
		},
		{
			"inputs": [],
			"name": "gtreq",
			"outputs": [
				{
					"internalType": "bool",
					"name": "",
					"type": "bool"
				}
			],
			"stateMutability": "view",
			"type": "function"
		},
		{
			"inputs": [],
			"name": "les",
			"outputs": [
				{
					"internalType": "bool",
					"name": "",
					"type": "bool"
				}
			],
			"stateMutability": "view",
			"type": "function"
		},
		{
			"inputs": [],
			"name": "leseq",
			"outputs": [
				{
					"internalType": "bool",
					"name": "",
					"type": "bool"
				}
			],
			"stateMutability": "view",
			"type": "function"
		},
		{
			"inputs": [
				{
					"internalType": "bool",
					"name": "aa",
					"type": "bool"
				},
				{
					"internalType": "bool",
					"name": "bb",
					"type": "bool"
				}
			],
			"name": "logic",
			"outputs": [
				{
					"internalType": "bool",
					"name": "",
					"type": "bool"
				},
				{
					"internalType": "bool",
					"name": "",
					"type": "bool"
				},
				{
					"internalType": "bool",
					"name": "",
					"type": "bool"
				}
			],
			"stateMutability": "pure",
			"type": "function"
		},
		{
			"inputs": [],
			"name": "noteq",
			"outputs": [
				{
					"internalType": "bool",
					"name": "",
					"type": "bool"
				}
			],
			"stateMutability": "view",
			"type": "function"
		}
	]
}